:100000000C94F5000C94FD110C942A120C941D0113
:100010000C941D010C941D010C941F010C941D01E6
:100020000C941D010C941D010C941D010C941D01D8
:100030000C941D010C941D010C941D010C941D01C8
:100040000C9474120C941D010C94B0140C94E214D2
:100050000C941D010C941D010C941D010C941D01A8
:100060000C941D010C941D01010402000302048A7A
:10007000050506C30B2019421E2C25802E882F2D26
:10008000370038003C8F3D106F2000005EBCE261FD
:100090003FDD83C29C7E20A3FD1F419DC3217FFCC9
:1000A000A2401E5F01E3BD3E6082DC237D9FC14212
:1000B0001CFEA0E1BF5D0380DE3C62BEE0025CDFAF
:1000C00081633D7C22C09E1D43A1FF4618FAA427F0
:1000D000799BC584DA3866E5BB5907DB856739BA91
:1000E000E406581947A5FB7826C49A653BD98704CE
:1000F0005AB8E6A7F91B45C6987A24F8A6441A9977
:10010000C7257B3A6486D85B05E7B98CD2306EEDA3
:10011000B3510F4E10F2AC2F7193CD114FADF37060
:100120002ECC92D38D6F31B2EC0E50AFF1134DCE79
:1001300090722C6D33D18F0C52B0EE326C8ED05346
:100140000DEFB1F0AE4C1291CF2D73CA947628AB5F
:10015000F517490856B4EA6937D58B5709EBB53618
:10016000688AD495CB2977F4AA4816E9B7550B8845
:10017000D6346A2B7597C94A14F6A8742AC89615FE
:100180004BA9F7B6E80A54D7896B35000000080080
:10019000020100000304070000000000000000014D
:1001A000020408102040800102040810200102040B
:1001B00008102004040404040404040202020202DD
:1001C00002030303030303000000002300260029A9
:1001D0000000000000250028002B00000000002483
:1001E0000027002A00001E07121511241FBECFEFA2
:1001F000D8E0DEBFCDBF12E0A0E0B1E0EAEFF3E36C
:1002000002C005900D92AE3DB107D9F724E0AEEDE6
:10021000B2E001C01D92AE33B207E1F711E0CAEEC1
:10022000D1E004C02297FE010E94F719C63ED10713
:10023000C9F70E94A1140C94FB190C9400001F92A2
:100240000F920FB60F9211242F933F934F935F930A
:100250006F937F938F939F93AF93BF93EF93FF938E
:100260000E94B807FF91EF91BF91AF919F918F913D
:100270007F916F915F914F913F912F910F900FBEA2
:100280000F901F901895BF92CF92DF92EF92FF923E
:100290000F931F93CF93DF932AE7E22EF12CF70100
:1002A000B0800BE710E0F801C080CCE7D0E0D88048
:1002B0000E946307F701B082F801C082D882DF9103
:1002C000CF911F910F91FF90EF90DF90CF90BF9053
:1002D00008958F929F92AF92BF92CF92DF92EF924A
:1002E000FF920F931F93CF93DF9361E089E00E9409
:1002F000351161E089E00E946E1162E087E00E94A2
:10030000351162E088E00E94351187E00E94A41157
:1003100001E0892B09F400E088E00E94A41111E0BB
:10032000892B09F410E0011109C080910601909118
:100330000701112309F4BDC1019607C0111109C0BD
:100340008091060190910701029690930701809396
:10035000060120E436E042ED61E0809106010E9452
:10036000C109CAE0D0E0D0930103C09300034AE082
:1003700060E073E080E00E942C0A64E670E080E0B8
:1003800090E00E94ED12219770F782E00E944B0AE4
:10039000109201031092000380E00E946A0A80918B
:1003A0000801882309F45BC026E040E855E260E0DC
:1003B00070E081EA93E00E943E14602F70E04AE012
:1003C00050E081EA93E00E946516612F70E04AE0F8
:1003D00050E081EA93E00E946D166AE071E081EAE4
:1003E00093E00E94B01563E271E081EA93E00E941D
:1003F000B01569E371E081EA93E00E94B01568E40A
:1004000071E081EA93E00E9493156091060170917A
:1004100007014AE050E081EA93E00E9465166FE42C
:1004200071E081EA93E00E94931567E571E081EA4B
:1004300093E00E9493156EE571E081EA93E00E94DB
:1004400093154AE050E062ED70E081EA93E00E948B
:100450006D1664E670E080E090E00E94ED1261E0CD
:1004600086E00E94351161E085E00E94351160E070
:1004700081E00E94351160E086E00E946E1180B735
:10048000806880BF80910801811105C0809164005F
:10049000826080936400809164008068809364002F
:1004A000809164008860809364008091640084601F
:1004B0008093640061E086E00E946E1180ED97E019
:1004C0000E9443018DE293E00E94930F8DE293E03E
:1004D0000E94C7106B017C0160E08DE293E00E94F6
:1004E00053104B015C0160E086E00E946E11A50193
:1004F0009401C501B4010E948D19C09108018111B8
:1005000009C0A7019601C701B6010E948D19882371
:1005100009F46BC0CC2331F069E671E081EA93E025
:100520000E94B01564E670E080E090E00E94ED1259
:100530008CED95E00E9463078DE293E00E94C71066
:100540006B017C0160E08DE293E00E9453109B01FF
:10055000AC010E948D19811108C0A7019601C70145
:10056000B6010E948D19882361F0809108018823CB
:1005700031F065E971E081EA93E00E94B0151092D4
:100580002C0361E085E00E946E1162E370E080E080
:1005900090E00E94ED128BE093E00E94120E60E06A
:1005A0008BE093E00E947A0E8BE093E00E94800C37
:1005B00090E09093FF028093FE02C0E06C2F70E009
:1005C0008091FE029091FF0268177907D4F433E01E
:1005D000660F771F3A95E1F762527D4F8EE193E007
:1005E0000E94CC0B811163C00CC081E080932C036E
:1005F000CC2339F26CEC71E081EA93E00E94B015F3
:10060000C0CF60E085E00E946E118091FE02909163
:10061000FF0220910801892B59F4222331F062EF67
:1006200071E081EA93E00E94B01510920A0325C0A0
:1006300081E080930A03222301F166E072E081EAFF
:1006400093E00E9493156091FE027091FF024AE0D0
:1006500050E081EA93E00E94651660E172E081EA71
:1006600093E00E94B01580912C03882331F069E15A
:1006700072E081EA93E00E94B0158091080188231E
:1006800031F068EC70E080E090E00E94ED1260E0F4
:1006900089E0DF91CF911F910F91FF90EF90DF9054
:1006A000CF90BF90AF909F908F900C946E11CF5FC2
:1006B00085CF03964ACE4F925F926F927F928F9230
:1006C0009F92AF92BF92CF92DF92EF92FF92CF9321
:1006D000DF93CDB7DEB768970FB6F894DEBF0FBED5
:1006E000CDBF6B017C01CA01B90120E030E048ECCC
:1006F00052E40E94DB1769837A838B839C83A70172
:100700009601C701B6010E942A194B015C012FEC2A
:100710003EEB42EF59E3C701B6010E942A192AEFC6
:100720003EE74AE45FE30E9473172B013C012DE38F
:100730003FE842E655E3C501B4010E942A199B0136
:10074000AC01C301B2010E9472176D837E838F8357
:1007500098872FE539E24BE45AE3C701B6010E94BE
:100760002A1928E431EE4AEC50E40E9473172B0159
:100770003C012EE635E144EC58E3C501B4010E948A
:100780002A199B01AC01C301B2010E94721769874B
:100790007A878B879C872EE137EA48EE5CE3C701B6
:1007A000B6010E942A192FE135E84BE85FE30E9469
:1007B00073172B013C0121E235E94DEB58E3C501EC
:1007C000B4010E942A199B01AC01C301B2010E942D
:1007D00072176D877E878F87988B29813A814B812D
:1007E0005C816D817E818F8198850E942A192B0101
:1007F0003C012D813E814F81588569857A858B85A5
:100800009C850E942A1929813A814B815C810E9432
:100810002A19698B7A8B8B8B9C8B2BE83CE647EEF5
:100820005EE3C701B6010E942A1920E030E045EAE4
:1008300053E40E9473176B017C0129EB3CEF47E8FE
:100840005BE3C501B4010E942A199B01AC01C701F9
:10085000B6010E9473179B01AC0160E070E081EE6D
:1008600094E40E94DB176D8B7E8B8F8B988FA30196
:10087000920160E070E080E89FE30E9472179B01A4
:10088000AC01C301B2010E94DB176B017C01298519
:100890003A854B855C85CA01B9010E9473172D8585
:1008A0003E854F8558890E942A192D813E814F81AE
:1008B00058850E942A192D813E814F8158850E94BA
:1008C0002A1929813A814B815C810E942A19298148
:1008D0003A814B815C810E942A199B01AC01698994
:1008E0007A898B899C890E9473174B015C0120E0F7
:1008F00030E040E85FE369897A898B899C890E94AE
:1009000073172B013C012D853E854F8558896985DC
:100910007A858B859C850E942A192D813E814F8185
:1009200058850E942A192D813E814F8158850E9449
:100930002A1929813A814B815C810E942A192981D7
:100940003A814B815C810E942A199B01AC01C30151
:10095000B2010E9473179B01AC01C501B4010E9452
:10096000DB179B01AC01C701B6010E9473179B0105
:10097000AC016D897E898F89988D0E942A196896AD
:100980000FB6F894DEBF0FBECDBFDF91CF91FF90C1
:10099000EF90DF90CF90BF90AF909F908F907F901F
:1009A0006F905F904F900895CF92DF92EF92FF92F9
:1009B000CF93DF9380910A0381111FC080912C0394
:1009C00081111BC0C4E1D0E061E089E00E946E119A
:1009D00068EC70E080E090E00E94ED1260E089E059
:1009E0000E946E1168EC70E080E090E00E94ED12D1
:1009F000219751F7F8940E94460780910A038823B3
:100A000009F458C061E085E00E946E1182E390E035
:100A10000E944301CEEDD2E0E12CF12C8091FE0248
:100A20009091FF02E816F9065CF44BE0BE018BE002
:100A300093E00E949C0D8FEFE81AF80A2896EECFFB
:100A40008BE093E00E94F70E87E791E00E9443015C
:100A50006EED72E08BE093E00E94880F6B017C01E9
:100A600060E085E00E946E1120E030E04AEF52E441
:100A7000C701B6010E94D71787FF1CC020E030E0F5
:100A800040E252ECC701B6010E942619181694F4F0
:100A900080912C0320E030E040E251E48111C3C199
:100AA000C701B6010E942A190E94431870930103DE
:100AB0006093000380912C03882309F443C061E014
:100AC00086E00E946E1180ED97E00E9443018DE266
:100AD00093E00E94C71020E030E040E251E40E9421
:100AE0002A190E944318709305036093040360E081
:100AF0008DE293E00E9453106B017C0120E030E016
:100B00004AEA52E40E94D71787FF18C020E030E07D
:100B100040E252ECC701B6010E942619181674F47F
:100B200020E030E040E251E4C701B6010E942A19FA
:100B30000E944318709301036093000360E086E015
:100B40000E946E1181E00E945712BC01882777FD38
:100B50008095982F0E94761827E031E244E05DE30B
:100B60000E942A190E94431870930703609306039A
:100B700080910801882309F426C180910A03882303
:100B800009F444C066E572E081EA93E00E9493159F
:100B900080912C038823C1F06091020370910303BC
:100BA000882777FD8095982F0E94761820E030E006
:100BB00040E251E40E94DB17AB01BC0122E030E0CF
:100BC00081EA93E00E94701780912C03811118C074
:100BD0006091000370910103882777FD8095982F1D
:100BE0000E94761820E030E040E251E40E94DB17DA
:100BF000AB01BC0122E030E081EA93E00E94701773
:100C00006CE672E081EA93E00E94931580912C03D8
:100C1000882309F442C060E772E081EA93E00E9411
:100C200093156091000370910103882777FD8095EB
:100C3000982F0E94761820E030E040E251E40E94B4
:100C4000DB17AB01BC0122E030E081EA93E00E94B7
:100C5000701764E872E081EA93E00E949315609156
:100C6000040370910503882777FD8095982F0E94D3
:100C7000761820E030E040E251E40E94DB17AB013F
:100C8000BC0122E030E081EA93E00E94701768E93D
:100C900072E081EA93E00E94931580912C038823EF
:100CA00009F463C06091040370910503882777FD00
:100CB0008095982F0E94761820E030E040E251E4C1
:100CC0000E94DB176B017C016091000370910103AE
:100CD000882777FD8095982F0E94761820E030E0D5
:100CE00040E251E40E94DB1726E636E646EE5FE37B
:100CF0000E942A1920E030E040E052E40E9473177D
:100D0000A70196010E945B0320E030E040E251E43D
:100D10000E942A190E9443187093090360930803E4
:100D20006CE972E081EA93E00E94931560910803F8
:100D300070910903882777FD8095982F0E94761877
:100D400020E030E040E251E40E94DB17AB01BC013F
:100D500022E030E081EA93E00E94701768E972E0D7
:100D600081EA93E00E94931504C010920903109247
:100D7000080362EA72E081EA93E00E9493156091B1
:100D8000060370910703882777FD8095982F0E94AE
:100D9000761820E030E040E251E40E94DB17AB011E
:100DA000BC0122E030E081EA93E00E94701764EB1E
:100DB00072E081EA93E00E94B01564E670E080E0A2
:100DC00090E00E94ED12809164008B7F809364001C
:100DD0008FEF0E946A0A4AE060E073E080E00E94C0
:100DE0002C0A82E00E944B0A80E00E946A0A8091ED
:100DF0006400846080936400F0907A00D0917B005E
:100E0000C0917C0080E69AEE0E946307F0927A001F
:100E1000D0937B00C0937C00DF91CF91FF90EF9047
:100E2000DF90CF900895C701B6010E942A190E9451
:100E3000431870930303609302033CCE26E046E11F
:100E400062E18DE293E00E948C0F63E18EE193E01A
:100E50000E94A90B6EE173E08BE093E00C94710C9F
:100E600083FF02C098E2892787FD02C0806401C029
:100E700080E094B7977F94BFF89490916000986158
:100E8000909360008093600078940895EAE7F0E022
:100E9000908180818F77808383B7817F846083BFD7
:100EA000F89483B7816083BF85B7806685BF85B7B7
:100EB0008F79806485BF7894889583B78E7F83BF50
:100EC00090937A000895DF92EF92FF920F931F9311
:100ED000CF93DF938C01EC0128E0E22EF12CC0319E
:100EE000D10538F19E01D12C2032310538F0D39450
:100EF00089E0D81619F036952795F6CF10923B0366
:100F00008D2D0E9430070E9446078FEF0E94300708
:100F1000C70102C0880F991FDA94E2F7C81BD90BEA
:100F200020913B03222319F0C81BD90BD8CF80E0B6
:100F300001C081E04091990350919A0360919B0315
:100F400070919C030C1B1D0B400F511F611D711DE7
:100F50004093990350939A0360939B0370939C036F
:100F6000DF91CF911F910F91FF90EF90DF90089547
:100F700080913B038F5F80933B0308958627682F02
:100F800062956827062E669566956025062E6695FD
:100F900060256770082E892F669507946795902DB8
:100FA000862706946795902586270895E8982A98BD
:100FB0008EBD0DB407FEFDCF8EB56EBD0DB407FE20
:100FC000FDCF8EB52A9AE89A089560E00C94D60772
:100FD00088E20E94E507807521F080E00E94E50725
:100FE000F7CF0895CF93C82F81E00E94E507682FBF
:100FF000637E6C2B81E8CF910C94D60722E0660FBC
:10100000771F881F991F2A95D1F729E03DE340E01B
:1010100050E00E94B91966E0220F331F441F551F8C
:101020006A95D1F7209345033093460340934703D5
:1010300050934803089580913E03853021F48091B8
:101040003F03882311F080E0089584E080933E03FD
:101050000E94F20781E0089590913E0381E0943070
:101060000CF080E00895882311F080E001C084E056
:101070000E94F20784E080933E030895CF93DF93AC
:101080002A9A229A2A9A84B18C6284B980E58CBD0E
:101090008DB581608DBD6AEA8FEA0E94D6078FE226
:1010A0000E94E5078A3AB9F765E58FEA0E94D607FC
:1010B0008FE20E94E5078535B9F7C8E6D0E0FE016A
:1010C0008491882339F03196649180680E94D60714
:1010D0002296F5CF6091440380EB0E94D607809161
:1010E000450390914603A0914703B0914803BD0189
:1010F0008827992787E80E94D60780914503909119
:101100004603A0914703B0914803692F7A2F8B2F94
:10111000992788E80E94D6076091450389E80E94D4
:10112000D60784E080933E03DF91CF910895CF935B
:10113000DF93EC0180913E03843019F08530E1F0BB
:1011400045C010924C0310923F03609144038FEF0F
:101150009FEF0E94BE079093420380934103D09378
:101160003D03C0933C0385E080933E030E94E80763
:1011700080E10E94F2072AC080914C0320913F0336
:1011800090E0049630E08217930724F080913F03AB
:101190008834E0F084E080933E030E94F20780915F
:1011A0004C03833430F081E090E0909342038093CD
:1011B000410380914B0386FF0CC0909143039F3104
:1011C00041F080914B038F71891719F08FEF9FEFDA
:1011D00004C08091410390914203DF91CF91089523
:1011E000CF9340934C03FB0120E030E050E0241704
:1011F000350744F4D901A35BBC4F91919C932F5FB9
:101200003F4FF5CF86FD04C0807E90914303890F48
:1012100080934B03609144038FEF9FEF0E94BE07C2
:10122000909342038093410390914C038EEF891B6E
:1012300080933E030E94E8078CE00E94F20760E082
:1012400085EA0E94D60780913E038330DCF588E270
:101250000E94E50787FDF7CF80913E0387FF1BC003
:1012600090914C0380913E03E0913C03F0913D034B
:10127000E90FF11DE80FF11D87FDFA95C3816C2F71
:1012800080914103909142030E94BE0790934203D4
:10129000809341030DC080913E03882329F0813063
:1012A00031F4C091420304C0C091410301C0CAEAB5
:1012B0006C2F80E80E94D60780913E038F5F809359
:1012C0003E03C1CFCF91089580913E03853009F050
:1012D00049C084E20E94E50780934003789488E245
:1012E0000E94E5078075D9F380913F0381110FC0FB
:1012F000E0913C03F0913D0380913F0391E0980F12
:1013000090933F0390914403E80FF11D908380E098
:101310000E94E507E0913C03F0913D0390913F036B
:1013200021E0290F20933F03E90FF11D8083682FEF
:1013300080914103909142030E94BE079093420323
:101340008093410380914C0320913F0390E00496E9
:1013500030E082179307A4F080913F03883408F4AB
:10136000BECF089588E20E94E50783FF09C084E0AC
:1013700080933E030E94F20760E885EA0C94D6074A
:101380000895CF92DF92EF92FF921F93CF93DF9356
:10139000C82F162FD42FF901AFEFA60FA33028F4D2
:1013A000B0E0AA54BD4FAC9101C0A0E0B0E020E88D
:1013B00036E948E950E00E94EA196B017C01212FCF
:1013C00030E0A4ECB9E00E94DB19DF019B01AC0125
:1013D0000E94EA19C60ED71EE81EF91EC701B60103
:1013E0000E94FE07D09344038C2F8F718093430398
:1013F00064E170E080E090E00E94ED128091430390
:10140000882341F043E050E064E679E080E00E9408
:10141000CD1103C080E00E94ED110E943E08C093F0
:1014200049038C2FDF91CF911F91FF90EF90DF90B8
:10143000CF9008958AE493E00E94970890939303D5
:1014400080939203209192033091930381E02F3F88
:101450003F4F09F480E00895EF92FF921F93CF93DE
:10146000DF931F92CDB7DEB7182F7B0149830E940F
:101470001B084981811105C049830E941A0A4981CC
:10148000F5CFB701812F0F90DF91CF911F91FF9082
:10149000EF900C94F008CF93C82F0E942C0888235B
:1014A000B9F0CC23D1F383B7817FC33021F0C230B0
:1014B00021F49CE003C094E001C090E0892B83BF3D
:1014C00083B7816083BF889583B78E7F83BFE5CF65
:1014D000CF91089591E0811190E0892F0C94330809
:1014E000FF920F931F93CF93DF93FC010081C18183
:1014F000D281F8948981F02EF0948F218983789499
:101500001DE7115029F182E090E00E9415138881B7
:101510008023B9F3F8948A818F218A838981802B73
:101520008983789480EE91E00E941513F894898164
:101530008F21898386E490E00E941513888180239F
:1015400011E009F010E078948AE991E00E94151307
:10155000812FDF91CF911F910F91FF9008951F93DD
:10156000CF93DF93FC011081C181D281912F90959F
:1015700060FF12C0F8948A8189238A838981812B34
:1015800089838AE090E00E9415138A81812B8A83E7
:10159000789487E390E011C0F8948A8189238A8344
:1015A0008981812B898381E490E00E9415138A81CF
:1015B000812B8A83789485E090E0DF91CF911F9111
:1015C0000C9415130F931F93CF93DF93FC0110819D
:1015D000C181D281F8948981812B89838A81012FED
:1015E000009580238A8383E090E00E94151389810F
:1015F000802389838AE090E00E941513C881789443
:1016000085E390E00E9415131C2381E009F480E03B
:10161000DF91CF911F910F910895CF92DF92EF92BA
:10162000FF920F931F93CF93DF931F92CDB7DEB737
:101630006C01E62E08E010E0FF24F39461E09F2D9A
:101640009E2109F460E0C60149830E94AF0AFF0CA5
:101650000150110949810115110581F7411115C08A
:10166000F894D6011196ED91FC91129791818C918D
:101670008095892381831196ED91FC911297928137
:101680008C9180958923828378940F90DF91CF91FC
:101690001F910F91FF90EF90DF90CF900895EF9200
:1016A000FF920F931F93CF93DF938C01C8E0D0E09C
:1016B000F12CEE24E394C8010E94E20A8111FE2875
:1016C000EE0C2197C1F78F2DDF91CF911F910F91D4
:1016D000FF90EF900895CF92DF92FF920F931F93A8
:1016E000CF93DF931F92CDB7DEB78C01F62E40E08B
:1016F00065E579830E940D0BCF2C7981D72E88E088
:10170000F82EF60161916F0140E0C8010E940D0BB7
:10171000FA94B9F70F90DF91CF911F910F91FF903D
:10172000DF90CF90089540E06CEC0C940D0BFC0121
:1017300013861586148627E030E0DF01A20FB31F61
:1017400013961C922115310519F021503109F5CF5E
:1017500008951F93CF93DF93EC01162F60E0812F44
:101760000E943511612F70E0FB01E156FE4FE491BC
:10177000E883FB01ED54FE4FE491F0E0EE0FFF1F14
:10178000E953FE4F859194919A838983CE01DF912D
:10179000CF911F910C94970BAF92BF92CF92DF9293
:1017A000EF92FF920F931F93CF93DF931F92CDB7CA
:1017B000DEB75C01E62ED72EFC01858581115DC068
:1017C000C5010E94700A811105C0F50113861586B6
:1017D00014866EC040E060EFC5010E940D0B01E071
:1017E000F12CC12C11E0C5010E94E20A682FC5014D
:1017F00069830E94E20A6981613019F48130B9F489
:1018000033C02F2D30E068131BC0F50183851817F6
:1018100030F4E20FF31F8381802349F402C01817CC
:1018200031F060E0193058F4F501148708C0F50173
:10183000EF0DF11D8381802B838361E009C0C12EF0
:10184000F501E20FF31F8381902F90958923838305
:10185000C5010E94AF0A1F5F000F11F4F39401E06D
:10186000F7E0FF1508F0BFCF113438F0F501C3865B
:10187000C11018C081E0858715C0F5011386158653
:10188000148680E0EE2DFD2D20E030E0D501A20F82
:10189000B31F13969C9191932F5F3F4F28303105D2
:1018A000A9F706C0F5018381882339F381E0EACFE7
:1018B0000F90DF91CF911F910F91FF90EF90DF90EC
:1018C000CF90BF90AF900895DC0180E0615038F078
:1018D000ED91E827F0E0E557FF4F8491F7CF0895A9
:1018E0000895FC0180E79CE0928B818B7683658371
:1018F0001482108289E0818381E08283838308954A
:10190000FC0184810895CF93DF93EB0167E0CE0162
:101910000E94640C91E02F81821390E0892FDF9167
:10192000CF910895EF92FF920F931F93CF93DF9380
:1019300000D0CDB7DEB77C018A01FC01858196819C
:1019400069837A830E94700A69817A81F7018581AF
:1019500096810E946B0B40E06EEBF70185819681CA
:101960000E940D0BF701858196810E944F0BF801B3
:101970008083F701858196810E944F0BF801818356
:10198000F701858196810E944F0BF8018283F70150
:10199000858196810E944F0BF8018383F701858131
:1019A00096810E944F0BF8018483F701858196810F
:1019B0000E944F0BF8018583F701858196810E9473
:1019C0004F0BF8018683F701858196810E944F0BAA
:1019D000F8018783F701858196810E944F0BF801FA
:1019E0008087F701858196810F900F90DF91CF91CD
:1019F0001F910F91FF90EF900C94700ACF93DF939B
:101A0000EA010E94920C68E0CE010E94640C91E011
:101A10002885821390E0892FDF91CF910895EF926E
:101A2000FF920F931F93CF93DF93EC018B017A0109
:101A30008D819E810E94700AB8018D819E810E94D5
:101A40006B0B40E06EE48D819E810E940D0B40E0A7
:101A5000F70162818D819E810E940D0B40E0F701AC
:101A600063818D819E810E940D0BF8018081803100
:101A700039F040E0F70164818D819E810E940D0B59
:101A80008D819E810E94700AB8018D819E810E9485
:101A90006B0B488168E48D819E810E940D0B64E18F
:101AA00070E080E090E00E94ED128881882331F0A0
:101AB0006AE070E080E090E00E94ED128D819E81EE
:101AC000DF91CF911F910F91FF90EF900C94700ACE
:101AD000EF92FF921F93CF93DF9300D0CDB7DEB785
:101AE0007C01FC018581968169837A830E94700A5A
:101AF00069817A81F701858196810E946B0B40E0B4
:101B000064EBF701858196810E940D0BF7018581B9
:101B100096810E94E20A182FF701858196810E9422
:101B2000700A81E0111180E00F900F90DF91CF914A
:101B30001F91FF90EF900895EF92FF920F931F93E4
:101B4000CF93DF93CDB7DEB72A970FB6F894DEBFF9
:101B50000FBECDBF7C018B01242FAE014F5F5F4FC5
:101B60002A870E94FE0C2A858823D1F0F801808103
:101B70008031C1F02B3041F02C3021F02A3031F48B
:101B80008FE305C08FE703C08FE501C08FE18D8330
:101B9000AE014F5F5F4FB801C7010E940F0D02C039
:101BA00080E001C081E02A960FB6F894DEBF0FBE38
:101BB000CDBFDF91CF911F910F91FF90EF900895CE
:101BC000CF93DF93CDB7DEB729970FB6F894DEBF7A
:101BD0000FBECDBFFB0120812031D1F0AE014F5FA0
:101BE0005F4F0E94FE0C882379F08D818F3351F076
:101BF00020F48F3149F489E00CC08F3539F08F37EC
:101C000039F002C08AE005C080E003C08BE001C06B
:101C10008CE029960FB6F894DEBF0FBECDBFDF91E2
:101C2000CF910895EF92FF920F931F93CF93DF937D
:101C3000CDB7DEB761970FB6F894DEBF0FBECDBF4C
:101C40008C01FC01858196810E94970BF80114821A
:101C5000FF24F394BE01665F7F4FF8018581968172
:101C60000E94CC0B8823C9F1BE01665F7F4FC8017B
:101C70000E94830C882371F3F8018081811108C0D0
:101C8000BE01665F7F4FC8010E94680D811122C0AE
:101C9000AE014F5F5F4FBE01665F7F4FC8010E947C
:101CA000920CF801E180BE01665F7F4FC8010E947F
:101CB000E00D8E1518F4F801818106C0BE01665F43
:101CC0007F4FC8010E94E00DF801818384818F5FFE
:101CD0008483C0CFF801F082DBCF61960FB6F89411
:101CE000DEBF0FBECDBFDF91CF911F910F91FF904F
:101CF000EF900895FC0162830895CF93DF93CDB7F1
:101D0000DEB729970FB6F894DEBF0FBECDBFAE0188
:101D10004F5F5F4F0E94920C81E09981911101C049
:101D200080E029960FB6F894DEBF0FBECDBFDF91DD
:101D3000CF9108958F929F92AF92BF92CF92DF92F0
:101D4000EF92FF920F931F93CF93DF93EC018A01E1
:101D50006950633048F4E62FF0E0EE0FFF1FE754C0
:101D6000FD4F8081918102C08EEE92E04C01AA2449
:101D700097FCA094BA2C01151105E1F08B81882302
:101D8000C9F08881811116C00E94BE126B017C01CE
:101D9000C80CD91CEA1CFB1CB801CE010E947D0EA8
:101DA000811118C00E94BE126C157D058E059F051D
:101DB00088F4F2CFC501B401DF91CF911F910F914B
:101DC000FF90EF90DF90CF90BF90AF909F908F905B
:101DD0000C94ED12DF91CF911F910F91FF90EF9036
:101DE000DF90CF90BF90AF909F908F900895CF934A
:101DF000DF93EC018D819E810E94700A8D819E810E
:101E00000E94930B488164E48D819E810E940D0B9A
:101E10008A81882341F040E050E06981CE01DF9162
:101E2000CF910C949A0EDF91CF910895FA01208101
:101E300048E0249F90011124818190E0982F882709
:101E4000990F990F990F282B392BDB018C91803139
:101E5000C1F4678170E08681AB01481B5109CA015A
:101E60009695982F8827979587950E94A519605178
:101E70007109207F53E0220F331F5A95E1F7260F97
:101E8000371FC9010895EF92FF920F931F93CF93CD
:101E9000DF93CDB7DEB729970FB6F894DEBF0FBE3C
:101EA000CDBF8C017B01AE014F5F5F4F0E94FE0CE6
:101EB000882341F0AE014F5F5F4FB701C8010E9418
:101EC000160F02C080E894EE29960FB6F894DEBF94
:101ED0000FBECDBFDF91CF911F910F91FF90EF907B
:101EE0000895813824EE920774F0BC01882777FDAD
:101EF0008095982F0E94761820E030E040E05CE367
:101F00000E942A19089560E070E08EEF92EC089527
:101F10000E94430F0C94710FFC0166834783208756
:101F200081E085870895CF93DF93EC0160E08E8197
:101F30000E94351161E08E810E946E1119861A8609
:101F40001B861C86DF91CF910895DF92EF92FF925E
:101F50000F931F93CF93DF93EC010E94BE1209856C
:101F60001A852B853C85601771078207930720F43B
:101F700019861A861B861C862D85211111C009859C
:101F80001A852B853C85DC01CB01801B910BA20BB4
:101F9000B30B803D9740A105B10510F481E07BC0F3
:101FA0001D860E94BE1269877A878B879C871C8258
:101FB0001B821A821982188261E08E810E946E1142
:101FC0006AEF70E080E090E00E94ED1261E08E81A7
:101FD0000E94351160E08E810E946E1164E170E014
:101FE00080E090E00E94ED12F89461E08E810E9402
:101FF0006E1188E290E00E94151360E08E810E94CD
:102000003511F12CD12C81E0E12C082F10E08E81CC
:102010000E94A4118017910741F4E39481E090E0BD
:102020000E9415138FEFE812F2CF8E810E94A41147
:102030009FEFE916C9F023E02F1590F4F0FC10C0D3
:102040009D2D969596959695FE01E90FF11D90812F
:10205000990F908328852E1510F491609083D39466
:10206000F39495E5F912D0CF789427E22D1590F4EA
:102070002C8130E04881898190E0840F911D4A8154
:10208000840F911D4B81840F911D992728173907C3
:1020900009F484CF80E0DF91CF911F910F91FF90E1
:1020A000EF90DF900895CF92DF92EF92FF920F931F
:1020B0001F93CF93DF93EC01162F0E94A50F882367
:1020C00009F450C08F818B3031F008F44BC085513A
:1020D000823078F047C06A8170E080E090E00E9432
:1020E0007418112309F443C020E030E040E151E4CA
:1020F0002AC00A81602F6F7770E080E090E00E9434
:10210000761820E030E040E853E40E942A196B0181
:102110007C016B8170E080E090E00E9476189B016A
:10212000AC01C701B6010E94731720E030E040E225
:1021300051E40E94DB1707FD90581123D9F020E0ED
:1021400030E040E151E40E942A1920E030E040EA0A
:1021500050E40E94DB1720E030E040E052E40E94AF
:10216000731708C020E030E040EC5FE705C09B013A
:10217000AC0102C09B01AC01B901CA01DF91CF9152
:102180001F910F91FF90EF90DF90CF900895CF9225
:10219000DF92EF92FF92CF93DF93EC010E94A50FA5
:1021A000882379F18F818B3029F158F18551823064
:1021B00040F5688170E080E090E00E94741820E0B3
:1021C00030E040E853E40E942A196B017C016981E8
:1021D00070E080E090E00E9476189B01AC01C7019E
:1021E000B6010E94731720E030E040E251E40E9403
:1021F000DB170BC0688170E080E090E00E947418EB
:1022000004C060E070E080EC9FE7DF91CF91FF9029
:10221000EF90DF90CF900895833081F028F48130E3
:1022200099F08230A1F008958730A9F08830B9F094
:102230008430D1F4809180008F7D03C08091800034
:102240008F7780938000089584B58F7702C084B51E
:102250008F7D84BD08958091B0008F7703C08091F9
:10226000B0008F7D8093B0000895CF93DF9390E00E
:10227000FC01E156FE4F2491FC01ED54FE4F849188
:10228000882349F190E0880F991FFC01E552FE4F29
:10229000A591B4918F529E4FFC01C591D4919FB7E7
:1022A000611108C0F8948C91209582238C938881C9
:1022B00082230AC0623051F4F8948C91322F309509
:1022C00083238C938881822B888304C0F8948C911B
:1022D000822B8C939FBFDF91CF9108950F931F9313
:1022E000CF93DF931F92CDB7DEB7282F30E0F901EF
:1022F000E557FE4F8491F901E156FE4F1491F90123
:10230000ED54FE4F04910023C9F0882321F0698326
:102310000E940C116981E02FF0E0EE0FFF1FEF52D9
:10232000FE4FA591B4919FB7F8948C91611103C0B1
:102330001095812301C0812B8C939FBF0F90DF915B
:10234000CF911F910F910895CF93DF93282F30E005
:10235000F901E557FE4F8491F901E156FE4FD49102
:10236000F901ED54FE4FC491CC2391F081110E94EC
:102370000C11EC2FF0E0EE0FFF1FE953FE4FA5917B
:10238000B4912C912D2381E090E021F480E002C0F3
:1023900080E090E0DF91CF9108958230E8F4E82F5B
:1023A000F0E0EE0FFF1FEC56FC4F7183608381302D
:1023B00041F0809169008C7F842B80936900E89ABA
:1023C000089580916900440F551F440F551F837F66
:1023D000842B80936900E99A0895823068F48130F3
:1023E00011F0E89801C0E998E82FF0E0EE0FFF1F28
:1023F000EC56FC4F1182108208951F920F920FB677
:102400000F9211242F933F934F935F936F937F937A
:102410008F939F93AF93BF93EF93FF938091940318
:1024200090919503892B29F0E0919403F091950305
:102430000995FF91EF91BF91AF919F918F917F91FE
:102440006F915F914F913F912F910F900FBE0F9021
:102450001F9018951F920F920FB60F9211242F9371
:102460003F934F935F936F937F938F939F93AF931C
:10247000BF93EF93FF938091960390919703892BDD
:1024800029F0E0919603F09197030995FF91EF9160
:10249000BF91AF919F918F917F916F915F914F917C
:1024A0003F912F910F900FBE0F901F9018958E3077
:1024B00008F08E5087702091090190E4299F9001C7
:1024C0001124822B80937C0080917A008064809319
:1024D0007A0080917A0086FDFCCF8091780020916F
:1024E000790090E0922B08951F920F920FB60F92F1
:1024F00011242F933F938F939F93AF93BF9380911A
:10250000990390919A03A0919B03B0919C03309101
:10251000980323E0230F2D3720F40196A11DB11D50
:1025200005C026E8230F0296A11DB11D2093980334
:102530008093990390939A03A0939B03B0939C0379
:1025400080919D0390919E03A0919F03B091A00361
:102550000196A11DB11D80939D0390939E03A093AE
:102560009F03B093A003BF91AF919F918F913F9133
:102570002F910F900FBE0F901F9018952FB7F894C2
:102580006091990370919A0380919B0390919C03B1
:102590002FBF08953FB7F89480919D0390919E03BB
:1025A000A0919F03B091A00326B5A89B05C02F3F23
:1025B00019F00196A11DB11D3FBF6627782F892F05
:1025C0009A2F620F711D811D911D42E0660F771FCA
:1025D000881F991F4A95D1F70895CF92DF92EF9205
:1025E000FF92CF93DF936B017C010E94CA12EB0133
:1025F000C114D104E104F10489F00E945A130E942D
:10260000CA126C1B7D0B683E734090F381E0C81AC0
:10261000D108E108F108C851DC4FEACFDF91CF9132
:10262000FF90EF90DF90CF900895019739F0880FD9
:10263000991F880F991F02970197F1F708957894D1
:1026400084B5826084BD84B5816084BD85B58260B7
:1026500085BD85B5816085BDEEE6F0E08081816055
:102660008083E1E8F0E01082808182608083808155
:1026700081608083E0E8F0E0808181608083E1EB2D
:10268000F0E0808184608083E0EBF0E08081816015
:102690008083EAE7F0E080818460808380818260CB
:1026A00080838081816080838081806880831092B4
:1026B000C10008950895FC01818D228D90E0805C19
:1026C0009F4F821B91098F7399270895FC01918D6B
:1026D000828D981731F0828DE80FF11D858D90E085
:1026E00008958FEF9FEF0895FC01918D828D9817CB
:1026F00061F0828DDF01A80FB11D5D968C91928DE6
:102700009F5F9F73928F90E008958FEF9FEF0895E2
:1027100088E095E1892B49F080E090E0892B29F051
:102720000E94081581110C9400000895FC01848D0D
:10273000DF01A80FB11DA35ABF4F2C91848D90E0EB
:1027400001968F739927848FA689B7892C93A089C6
:10275000B1898C9180648C93938D848D981306C07D
:102760000288F389E02D80818F7D80830895CF9347
:10277000DF93EC01888D8823C9F0EA89FB89808189
:1027800085FD05C0A889B9898C9186FD0FC00FB65B
:1027900007FCF5CF808185FFF2CFA889B9898C919C
:1027A00085FFEDCFCE010E949613E7CFDF91CF9149
:1027B0000895CF92DF92FF920F931F93CF93DF93F1
:1027C0001F92CDB7DEB76C01DC015B969C915B97E5
:1027D0005C968C915C97981307C05096ED91FC9194
:1027E0005197808185FD32C0F601038D10E00F5FA7
:1027F0001F4F0F731127F02EF601848DF81211C0B0
:102800000FB607FCF9CFD6015096ED91FC91519788
:10281000808185FFF1CFC60169830E94961369818B
:10282000EBCF838DE80FF11DE35AFF4F6083D60194
:102830005B960C935B975296ED91FC915397808138
:102840008062808381E058968C930DC0D6015696A5
:10285000ED91FC91579760835096ED91FC915197C3
:1028600080818064808381E090E00F90DF91CF9140
:102870001F910F91FF90DF90CF900895BF92CF925C
:10288000DF92EF92FF92CF93DF93EC016A017B011D
:10289000B22EE889F98982E08083411581EE5807DC
:1028A00061057105A1F060E079E08DE390E0A7019A
:1028B00096010E94B91921503109410951095695D3
:1028C000479537952795211580E1380798F0E889D5
:1028D000F989108260E874E88EE190E0A701960122
:1028E0000E94B9192150310941095109569547955E
:1028F00037952795EC85FD853083EE85FF85208310
:10290000188EEC89FD89B082EA89FB89808180611B
:102910008083EA89FB89808188608083EA89FB89DA
:10292000808180688083EA89FB8980818F7D8083B4
:10293000DF91CF91FF90EF90DF90CF90BF900895FF
:1029400008950E941F130E94A0140E946901C8E804
:10295000D3E10E94D4042097E1F30E948813F9CFB9
:102960001F920F920FB60F9211242F938F939F9364
:10297000EF93FF93E091B103F091B2038081E09176
:10298000B703F091B80382FD12C090818091BA0321
:102990008F5F8F732091BB03821751F0E091BA03D0
:1029A000F0E0EF55FC4F958F8093BA0301C0808112
:1029B000FF91EF919F918F912F910F900FBE0F90EC
:1029C0001F9018951F920F920FB60F9211242F93FC
:1029D0003F934F935F936F937F938F939F93AF93A7
:1029E000BF93EF93FF9381EA93E00E949613FF91C8
:1029F000EF91BF91AF919F918F917F916F915F9177
:102A00004F913F912F910F900FBE0F901F901895EF
:102A100081EA93E00E945B1321E0892B09F420E016
:102A2000822F08951092A4031092A30388EE93E0DE
:102A3000A0E0B0E08093A5039093A603A093A70322
:102A4000B093A80383EC92E09093A2038093A10338
:102A500085EC90E09093AE038093AD0384EC90E01E
:102A60009093B0038093AF0380EC90E09093B20317
:102A70008093B10381EC90E09093B4038093B3030F
:102A800082EC90E09093B6038093B50386EC90E0DF
:102A90009093B8038093B7031092BA031092BB03CC
:102AA0001092BC031092BD030895CF92DF92EF9273
:102AB000FF920F931F93CF93DF936C017A01EB0189
:102AC000E60EF71E00E010E0CE15DF0561F069911B
:102AD000D601ED91FC910190F081E02DC6010995A0
:102AE000080F191FF1CFC801DF91CF911F910F91EE
:102AF000FF90EF90DF90CF9008956115710581F000
:102B0000DB010D900020E9F7AD0141505109461B52
:102B1000570BDC01ED91FC910280F381E02D0994CB
:102B200080E090E008950C947D15DC01ED91FC911E
:102B30000190F081E02D09940F931F93CF93DF93C1
:102B4000EC016DE00E9495158C016AE0CE010E94B7
:102B50009515800F911FDF91CF911F910F910895CF
:102B60000F931F93CF93DF93EC010E947D158C018F
:102B7000CE010E949C15800F911FDF91CF911F9174
:102B80000F9108958F929F92AF92BF92CF92DF9252
:102B9000EF92FF920F931F93CF93DF93CDB7DEB7E2
:102BA000A1970FB6F894DEBF0FBECDBF7C01C42E37
:102BB000E52FCB01D22E19A221E02D1510F02AE02D
:102BC000D22E8E010F5D1F4F8D2C912CA12CB12C7C
:102BD0006C2D7E2FA50194010E94B9198C2DD29ED7
:102BE00080191124015011098A3014F4805D01C04C
:102BF000895CF8018083211531054105510521F0DB
:102C0000C22EE32FCA01E4CFB801C7010E947D158F
:102C1000A1960FB6F894DEBF0FBECDBFDF91CF9166
:102C20001F910F91FF90EF90DF90CF90BF90AF90EA
:102C30009F908F900895CF92DF92EF92FF920F9323
:102C40001F93CF93DF93EC016A017B0121153105BE
:102C500079F4E881F9810190F081E02D642FDF9112
:102C6000CF911F910F91FF90EF90DF90CF9009943B
:102C70002A303105E9F477FF1AC06DE20E949515FC
:102C80008C0144275527BA014C195D096E097F094B
:102C90002AE0CE010E94C215800F911FDF91CF91D3
:102CA0001F910F91FF90EF90DF90CF9008952AE051
:102CB000B701A601CE01DF91CF911F910F91FF9037
:102CC000EF90DF90CF900C94C2159A01AB0166276C
:102CD00057FD6095762F0C941B160F931F93CF937F
:102CE000DF93EC019A01AB01662757FD6095762FC3
:102CF0000E941B168C01CE010E949C15800F911F13
:102D0000DF91CF911F910F9108954F925F926F9233
:102D10007F928F929F92AF92BF92CF92DF92EF926B
:102D2000FF920F931F93CF93DF93EC016A017B0116
:102D3000B22E9A01AB01C701B6010E948D198823FA
:102D400019F06FEC72E027C026013701E89477F89C
:102D50002FEF3FEF4FE75FE7C301B2010E948D19EC
:102D600081110DC02FEF3FEF4FE75FE7C301B201C5
:102D70000E94D71718161CF463ED72E00CC02FEFF9
:102D80003FEF4FE75FE4C701B6010E94261918160E
:102D9000ACF467ED72E0CE01DF91CF911F910F91FE
:102DA000FF90EF90DF90CF90BF90AF909F908F906B
:102DB0007F906F905F904F900C947D152FEF3FEFB9
:102DC0004FE75FECC701B6010E94D71787FDE1CF3F
:102DD00020E030E0A901C701B6010E94D71787FFA4
:102DE0000AC06DE2CE010E9495158C01F7FAF094AD
:102DF000F7F8F09402C000E010E0A12C60E070E071
:102E000080E09FE3AB1441F020E030E040E251E489
:102E10000E94DB17A394F6CF9B01AC01C701B6015A
:102E20000E9473176B017C010E9448182B013C0122
:102E30000E9474189B01AC01C701B6010E94721771
:102E40006B017C012AE0B301A201CE010E94C215F0
:102E5000080F191FBB2039F06BED72E0CE010E9404
:102E60007D15080F191F7B2C772041F120E030E001
:102E700040E251E4C701B6010E942A196B017C01AE
:102E80000E9443184B01AA2497FCA094BA2C2AE074
:102E900030E0B501A401CE010E941B16080F191FD6
:102EA000C501B4010E9476189B01AC01C701B601AF
:102EB0000E9472176B017C017A94D6CFC801DF9112
:102EC000CF911F910F91FF90EF90DF90CF90BF9027
:102ED000AF909F908F907F906F905F904F900895EC
:102EE0000C9485165058BB27AA270ED075C166D101
:102EF00030F06BD120F031F49F3F11F41EF45BC130
:102F00000EF4E095E7FB51C1E92F77D180F3BA17B2
:102F1000620773078407950718F071F49EF58FC157
:102F20000EF4E0950B2EBA2FA02D0B01B9019001E4
:102F30000C01CA01A0011124FF27591B99F0593F28
:102F400050F4503E68F11A16F040A22F232F342F70
:102F50004427585FF3CF469537952795A795F040BE
:102F60005395C9F77EF41F16BA0B620B730B840BD3
:102F7000BAF09150A1F0FF0FBB1F661F771F881F8B
:102F8000C2F70EC0BA0F621F731F841F48F48795E3
:102F900077956795B795F7959E3F08F0B3CF9395D2
:102FA000880F08F09927EE0F979587950895D9D047
:102FB00008F481E008950CD00FC107D140F0FED095
:102FC00030F021F45F3F19F0F0C0511139C1F3C066
:102FD00014D198F39923C9F35523B1F3951B550BDD
:102FE000BB27AA2762177307840738F09F5F5F4FDC
:102FF000220F331F441FAA1FA9F333D00E2E3AF01D
:10300000E0E830D091505040E695001CCAF729D036
:10301000FE2F27D0660F771F881FBB1F2617370785
:103020004807AB07B0E809F0BB0B802DBF01FF27B5
:1030300093585F4F2AF09E3F510568F0B6C000C11B
:103040005F3FECF3983EDCF3869577956795B795EF
:10305000F7959F5FC9F7880F911D9695879597F90A
:103060000895E1E0660F771F881FBB1F6217730783
:103070008407BA0720F0621B730B840BBA0BEE1F98
:1030800088F7E095089504D06894B111D9C00895E7
:10309000BCD088F09F5790F0B92F9927B751A0F076
:1030A000D1F0660F771F881F991F1AF0BA95C9F7DC
:1030B00012C0B13081F0C3D0B1E00895C0C0672F15
:1030C000782F8827B85F39F0B93FCCF3869577958C
:1030D0006795B395D9F73EF4909580957095619575
:1030E0007F4F8F4F9F4F0895E89409C097FB3EF4A0
:1030F00090958095709561957F4F8F4F9F4F992345
:10310000A9F0F92F96E9BB279395F69587957795C2
:103110006795B795F111F8CFFAF4BB0F11F460FF82
:103120001BC06F5F7F4F8F4F9F4F16C0882311F0DA
:1031300096E911C0772321F09EE8872F762F05C0EE
:10314000662371F096E8862F70E060E02AF09A9589
:10315000660F771F881FDAF7880F9695879597F97E
:103160000895990F0008550FAA0BE0E8FEEF161618
:103170001706E807F907C0F012161306E407F5076B
:1031800098F0621B730B840B950B39F40A2661F0DF
:10319000232B242B252B21F408950A2609F4A14082
:1031A000A6958FEF811D811D089597F99F6780E88F
:1031B00070E060E008959FEF80EC089500240A9489
:1031C0001616170618060906089500240A94121602
:1031D0001306140605060895092E0394000C11F435
:1031E000882352F0BB0F40F4BF2B11F460FF04C0E2
:1031F0006F5F7F4F8F4F9F4F089557FD9058440F3B
:10320000551F59F05F3F71F04795880F97FB991F45
:1032100061F09F3F79F08795089512161306140602
:10322000551FF2CF4695F1DF08C01616170618068F
:10323000991FF1CF86957105610508940895E8946A
:10324000BB2766277727CB0197F908958ADF08F413
:103250008FEF08950BD0C0CFB1DF28F0B6DF18F0A4
:10326000952309F0A2CFA7CF1124EACFC6DFA0F3A0
:10327000959FD1F3950F50E0551F629FF001729F0B
:10328000BB27F00DB11D639FAA27F00DB11DAA1F2A
:10329000649F6627B00DA11D661F829F2227B00D77
:1032A000A11D621F739FB00DA11D621F839FA00D02
:1032B000611D221F749F3327A00D611D231F849F52
:1032C000600D211D822F762F6A2F11249F575040A9
:1032D0008AF0E1F088234AF0EE0FFF1FBB1F661F44
:1032E000771F881F91505040A9F79E3F510570F0FD
:1032F0005CCFA6CF5F3FECF3983EDCF386957795E5
:103300006795B795F795E7959F5FC1F7FE2B880FF7
:10331000911D9695879597F9089523DF880B990B52
:103320000895AA1BBB1B51E107C0AA1FBB1FA6170C
:10333000B70710F0A61BB70B881F991F5A95A9F75E
:1033400080959095BC01CD01089597FB072E16F44A
:10335000009407D077FD09D00E94911907FC05D091
:103360003EF4909581959F4F0895709561957F4F9C
:103370000895A1E21A2EAA1BBB1BFD010DC0AA1FB6
:10338000BB1FEE1FFF1FA217B307E407F50720F0CE
:10339000A21BB30BE40BF50B661F771F881F991F49
:1033A0001A9469F760957095809590959B01AC0192
:1033B000BD01CF010895A29FB001B39FC001A39F9B
:1033C000700D811D1124911DB29F700D811D11245E
:1033D000911D08950E94DB19A59F900DB49F900D3B
:1033E000A49F800D911D11240895EE0FFF1F0590DD
:0A33F000F491E02D0994F894FFCF4A
:1033FA0000003E04800013000101656D6F6E5448A1
:10340A00202D204669726D776172652056312E35FE
:10341A002E31004F70656E456E657267794D6F6E1D
:10342A0069746F722E6F72670052464D3639435770
:10343A0020496E69743E20004E6F64653A20002070
:10344A00467265713A20003433334D687A00204E53
:10345A006574776F726B3A2000202D20556E616279
:10346A006C6520746F2066696E6420444854323259
:10347A002053656E736F722E2E747279696E67208F
:10348A006167696E00202D20556E61626C6520743B
:10349A006F2066696E642044485432322053656E48
:1034AA00736F7220666F7220326E642074696D6564
:1034BA002E2E676976696E6720757000446574659B
:1034CA00637465642044485432322074656D7020F8
:1034DA00262068756D6964697479207365736E6FE7
:1034EA0072004E6F20445331384232302064657482
:1034FA00656374656400446574656374656420007B
:10350A002044533138423230004453313842323049
:10351A0020616E6420444854323220666F756E64AE
:10352A002C20617373756D696E672044533138427C
:10353A0032302069732065787465726E616C20730D
:10354A00656E736F720044533138423230205465CD
:10355A006D70657261747572653A2000432C2000A3
:10356A0044485432322054656D70657261747572C4
:10357A00653A2000432C2044485432322048756D65
:10358A0069646974793A2000252C2000454D433A34
:10359A0020004261747465727920766F6C74616779
:1035AA00653A200056002B565A5E00BC007701008F
:1035BA00000000D91355155B1374136613B7136E05
:0E35CA00616E00696E66006F7666002E00006E
:00000001FF
