:100000000C94F5000C948B110C94B8110C941D01F8
:100010000C941D010C941D010C941F010C941D01E6
:100020000C941D010C941D010C941D010C941D01D8
:100030000C941D010C941D010C941D010C941D01C8
:100040000C94960F0C941D010C94E5110C9417124E
:100050000C941D010C941D010C941D010C941D01A8
:100060000C941D010C941D01010402000302048A7A
:10007000050506C30B2019421E2C25802E882F2D26
:10008000370038003C8F3D106F2000005EBCE261FD
:100090003FDD83C29C7E20A3FD1F419DC3217FFCC9
:1000A000A2401E5F01E3BD3E6082DC237D9FC14212
:1000B0001CFEA0E1BF5D0380DE3C62BEE0025CDFAF
:1000C00081633D7C22C09E1D43A1FF4618FAA427F0
:1000D000799BC584DA3866E5BB5907DB856739BA91
:1000E000E406581947A5FB7826C49A653BD98704CE
:1000F0005AB8E6A7F91B45C6987A24F8A6441A9977
:10010000C7257B3A6486D85B05E7B98CD2306EEDA3
:10011000B3510F4E10F2AC2F7193CD114FADF37060
:100120002ECC92D38D6F31B2EC0E50AFF1134DCE79
:1001300090722C6D33D18F0C52B0EE326C8ED05346
:100140000DEFB1F0AE4C1291CF2D73CA947628AB5F
:10015000F517490856B4EA6937D58B5709EBB53618
:10016000688AD495CB2977F4AA4816E9B7550B8845
:10017000D6346A2B7597C94A14F6A8742AC89615FE
:100180004BA9F7B6E80A54D7896B35000000080080
:10019000020100000304070000000000000000014D
:1001A000020408102040800102040810200102040B
:1001B00008102004040404040404040202020202DD
:1001C00002030303030303000000002300260029A9
:1001D0000000000000250028002B00000000002483
:1001E0000027002A00004605471211241FBECFEF4A
:1001F000D8E0DEBFCDBF12E0A0E0B1E0EEEBF0E36F
:1002000002C005900D92AC3DB107D9F724E0ACEDEA
:10021000B2E001C01D92AB33B207E1F711E0CAEEC4
:10022000D1E004C02297FE010E945918C63ED107B2
:10023000C9F70E94A8140C945D180C9400001F923A
:100240000F920FB60F9211242F933F934F935F930A
:100250006F937F938F939F93AF93BF93EF93FF938E
:100260000E949406FF91EF91BF91AF919F918F9162
:100270007F916F915F914F913F912F910F900FBEA2
:100280000F901F901895BF92CF92DF92EF92FF923E
:100290000F931F93CF93DF932AE7E22EF12CF70100
:1002A000B0800BE710E0F801C080CCE7D0E0D88048
:1002B0000E943F06F701B082F801C082D882DF9128
:1002C000CF911F910F91FF90EF90DF90CF90BF9053
:1002D00008958F929F92AF92BF92CF92DF92EF924A
:1002E000FF920F931F93CF93DF9361E089E00E9409
:1002F000A51061E089E00E94DE1062E087E00E94C4
:10030000A51062E088E00E94A51087E00E94141109
:1003100001E0892B09F400E088E00E94141111E04B
:10032000892B09F410E0011109C080910601909118
:100330000701112309F4BDC1019607C0111109C0BD
:100340008091060190910701029690930701809396
:10035000060120E436E042ED61E0809106010E9452
:100360005805CAE0D0E0D093FF02C093FE0248E0F7
:100370006EEF72E080E00E94C30564E670E080E00A
:1003800090E00E940F10219770F782E00E94E20532
:100390001092FF021092FE0280E00E9401068091FE
:1003A0000801882309F45BC026E040E855E260E0DC
:1003B00070E08EE993E00E949A15602F70E04AE0A9
:1003C00050E08EE993E00E949A13612F70E04AE0BA
:1003D00050E08EE993E00E94A2136AE071E08EE99A
:1003E00093E00E94E51263E271E08EE993E00E94DF
:1003F000E51269E371E08EE993E00E94E51268E49A
:1004000071E08EE993E00E94C8126091060170913C
:1004100007014AE050E08EE993E00E949A136FE4EE
:1004200071E08EE993E00E94C81267E571E08EE901
:1004300093E00E94C8126EE571E08EE993E00E949D
:10044000C8124AE050E062ED70E08EE993E00E944D
:10045000A21364E670E080E090E00E940F1061E07B
:1004600085E00E94A51061E086E00E94A51060E092
:1004700081E00E94A51060E085E00E94DE1080B758
:10048000806880BF80910801811105C0809164005F
:10049000826080936400809164008068809364002F
:1004A000809164008860809364008091640084601F
:1004B0008093640061E085E00E94DE1080ED97E0AB
:1004C0000E94430189E293E00E94110E89E293E0C9
:1004D0000E944B0F6B017C0160E089E293E00E9477
:1004E000D10E4B015C0160E085E00E94DE10A501A9
:1004F0009401C501B4010E941718C091080181112F
:1005000009C0A7019601C701B6010E9417188823E8
:1005100009F46BC0CC2331F069E671E08EE993E019
:100520000E94E51264E670E080E090E00E940F1007
:100530008CED95E00E943F0689E293E00E944B0F0C
:100540006B017C0160E089E293E00E94D10E9B0187
:10055000AC010E941718811108C0A7019601C701BC
:10056000B6010E941718882361F080910801882342
:1005700031F065E971E08EE993E00E94E512109296
:10058000280361E086E00E94DE1062E370E080E014
:1005900090E00E940F1087E093E00E94410C60E021
:1005A00087E093E00E94A90C87E093E00E94BA0ADA
:1005B00090E09093FD028093FC02C0E06C2F70E00D
:1005C0008091FC029091FD0268177907D4F433E022
:1005D000660F771F3A95E1F764527D4F8AE193E009
:1005E0000E94060A811163C00CC081E08093280339
:1005F000CC2339F26CEC71E08EE993E00E94E512B5
:10060000C0CF60E086E00E94DE108091FC029091F5
:10061000FD0220910801892B59F4222331F062EF69
:1006200071E08EE993E00E94E5121092060325C066
:1006300081E080930603222301F166E072E08EE9F7
:1006400093E00E94C8126091FC027091FD024AE0A2
:1006500050E08EE993E00E949A1360E172E08EE927
:1006600093E00E94E51280912803882331F069E12C
:1006700072E08EE993E00E94E512809108018823E0
:1006800031F068EC70E080E090E00E940F1060E0D4
:1006900089E0DF91CF911F910F91FF90EF90DF9054
:1006A000CF90BF90AF909F908F900C94DE10CF5F53
:1006B00085CF03964ACECF92DF92EF92FF92CF93EF
:1006C000DF938091060381111FC08091280381115F
:1006D0001BC0C4E1D0E061E089E00E94DE1068EC5C
:1006E00070E080E090E00E940F1060E089E00E94DE
:1006F000DE1068EC70E080E090E00E940F1021971F
:1007000051F7F8940E94220680910603882309F489
:1007100058C061E086E00E94DE1082E390E00E9413
:100720004301CCEDD2E0E12CF12C8091FC029091C0
:10073000FD02E816F9065CF44BE0BE0187E093E0A9
:100740000E94CB0B8FEFE81AF80A2896EECF87E0CD
:1007500093E00E94160D87E791E00E9443016CED43
:1007600072E087E093E00E94DA0D6B017C0160E0AB
:1007700086E00E94DE1020E030E04AEF52E4C7013C
:10078000B6010E94611687FF1CC020E030E040E205
:1007900052ECC701B6010E94B017181694F480916C
:1007A000280320E030E040E251E481115DC1C7013F
:1007B000B6010E94B4170E94CD167093FF02609399
:1007C000FE0280912803882309F443C061E085E09C
:1007D0000E94DE1080ED97E00E94430189E293E0E1
:1007E0000E944B0F20E030E040E251E40E94B41739
:1007F0000E94CD16709303036093020360E089E2C8
:1008000093E00E94D10E6B017C0120E030E04AEAC7
:1008100052E40E94611687FF18C020E030E040E2F9
:1008200052ECC701B6010E94B017181674F420E00C
:1008300030E040E251E4C701B6010E94B4170E94C3
:10084000CD167093FF026093FE0260E085E00E9487
:10085000DE1081E00E943D11BC01882777FD809564
:10086000982F0E94001727E031E244E05DE30E94E8
:10087000B4170E94CD167093050360930403809112
:100880000801882309F4BAC080910603882309F47B
:1008900044C066E572E08EE993E00E94C812809140
:1008A00028038823C1F06091000370910103882719
:1008B00077FD8095982F0E94001720E030E040E2FD
:1008C00051E40E946516AB01BC0122E030E08EE9E4
:1008D00093E00E94A51480912803811118C06091B3
:1008E000FE027091FF02882777FD8095982F0E9465
:1008F000001720E030E040E251E40E946516AB01B1
:10090000BC0122E030E08EE993E00E94A5146CE681
:1009100072E08EE993E00E94C81280912803882338
:1009200009F442C060E772E08EE993E00E94C812C9
:100930006091FE027091FF02882777FD8095982FC5
:100940000E94001720E030E040E251E40E9465166A
:10095000AB01BC0122E030E08EE993E00E94A514D7
:1009600064E872E08EE993E00E94C812609102038D
:1009700070910303882777FD8095982F0E940017B8
:1009800020E030E040E251E40E946516AB01BC017A
:1009900022E030E08EE993E00E94A51468E972E05D
:1009A0008EE993E00E94C8126CE972E08EE993E050
:1009B0000E94C8126091040370910503882777FD97
:1009C0008095982F0E94001720E030E040E251E42B
:1009D0000E946516AB01BC0122E030E08EE993E095
:1009E0000E94A5146EEA72E08EE993E00E94E5127F
:1009F00064E670E080E090E00E940F108091640057
:100A00008B7F809364008FEF0E94010684E690E064
:100A10000E94430148E06EEF72E080E00E94C3054F
:100A200082E00E94E20580E00E94010684E690E0F8
:100A30000E9443018091640084608093640061E0BF
:100A400089E00E94DE1084E690E00E94430160E0AD
:100A500089E00E94DE10C5E0D0E088ED96ED0E94AE
:100A600043012197D1F70BC0C701B6010E94B4170B
:100A70000E94CD167093010360930003A2CEDF9114
:100A8000CF91FF90EF90DF90CF90089526E046E160
:100A900063E189E293E00E940A0E62E18AE193E059
:100AA0000E94E3096AE173E087E093E00C94AB0AEB
:100AB000CF92DF92EF92FF921F93CF93DF93C82FD5
:100AC000162FD42FF901AFEFA60FA33028F4B0E012
:100AD000A055BD4FAC9101C0A0E0B0E020E836E9E0
:100AE00048E950E00E944C186B017C01212F30E056
:100AF000A4ECB9E00E943D18DF019B01AC010E940B
:100B00004C18C60ED71EE81EF91EC701B6010E947A
:100B1000DA06D0938C038C2F8F7180938B0364E162
:100B200070E080E090E00E940F1080918B0388239A
:100B300041F043E050E069E478E080E00E945B111E
:100B400003C080E00E947B110E941A07C093370304
:100B50008C2FDF91CF911F91FF90EF90DF90CF907E
:100B6000089588E393E00E94730790938103809334
:100B70008003209180033091810381E02F3F3F4F1C
:100B800009F480E00895EF92FF921F93CF93DF93D3
:100B90001F92CDB7DEB7182F7B0149830E94F7065D
:100BA0004981811105C049830E94B1054981F5CF72
:100BB000B701812F0F90DF91CF911F91FF90EF90A0
:100BC0000C94D507CF93C82F0E9408078823B9F04B
:100BD000CC23D1F383B7817FC33021F0C23021F41D
:100BE0009CE003C094E001C090E0892B83BF83B7F1
:100BF000816083BF889583B78E7F83BFE5CFCF9118
:100C0000089591E0811190E0892F0C940F0783FFE4
:100C100002C098E2892787FD06C080649091600039
:100C20009093820302C08091820394B7977F94BF10
:100C3000F8949091600098619093600080936000B8
:100C400078940895EAE7F0E0908180818F7780833F
:100C500083B7817F846083BFF89483B7816083BF4B
:100C600085B7806685BF85B78F79806485BF7894A6
:100C7000889583B78E7F83BF90937A000895DF9223
:100C8000EF92FF920F931F93CF93DF938C01EC01B0
:100C900028E0E22EF12CC031D10538F19E01D12C93
:100CA0002032310538F0D39489E0D81619F0369502
:100CB0002795F6CF109283038D2D0E9407060E9480
:100CC00022068FEF0E940706C70102C0880F991FF6
:100CD000DA94E2F7C81BD90B20918303222319F081
:100CE000C81BD90BD8CF80E001C081E040919203AE
:100CF0005091930360919403709195030C1B1D0B0D
:100D0000400F511F611D711D409392035093930337
:100D10006093940370939503DF91CF911F910F918E
:100D2000FF90EF90DF900895809183038F5F809311
:100D3000830308958627682F62956827062E669597
:100D400066956025062E669560256770082E892FAA
:100D5000669507946795902D86270694679590254C
:100D600086270895E8982A988EBD0DB407FEFDCF1A
:100D70008EB56EBD0DB407FEFDCF8EB52A9AE89AEA
:100D8000089560E00C94B20688E20E94C106807566
:100D900021F080E00E94C106F7CF0895CF93C82FBD
:100DA00081E00E94C106682F637E6C2B81E8CF91A1
:100DB0000C94B20622E0660F771F881F991F2A95B0
:100DC000D1F729E03DE340E050E00E941B1866E0C7
:100DD000220F331F441F551F6A95D1F720938D03AF
:100DE00030938E0340938F03509390030895809126
:100DF0008603853021F480918703882311F080E0F9
:100E0000089584E0809386030E94CE0681E00895D1
:100E10009091860381E094300CF080E0089588235F
:100E200011F080E001C084E00E94CE0684E080934F
:100E300086030895CF93DF932A9A229A2A9A84B13F
:100E40008C6284B980E58CBD8DB581608DBD6AEA08
:100E50008FEA0E94B2068FE20E94C1068A3AB9F771
:100E600065E58FEA0E94B2068FE20E94C1068535D1
:100E7000B9F7C8E6D0E0FE018491882339F03196B5
:100E8000649180680E94B2062296F5CF60918C032F
:100E900080EB0E94B20680918D0390918E03A09109
:100EA0008F03B0919003BD018827992787E80E949E
:100EB000B20680918D0390918E03A0918F03B09123
:100EC0009003692F7A2F8B2F992788E80E94B2060A
:100ED00060918D0389E80E94B20684E080938603C6
:100EE000DF91CF910895CF93DF93EC01809186033A
:100EF000843019F0853021F14DC010923A031092E0
:100F0000870360918C038FEF9FEF0E949A06909366
:100F10008A0380938903D0938503C093840385E07B
:100F2000809386030E94C40660E885EA0E94B206A8
:100F300080E10E94CE0662E08EE90E94B2062AC0DD
:100F400080913A032091870390E0049630E0821765
:100F5000930724F0809187038834E0F084E0809345
:100F600086030E94CE0680913A038334B0F48091C8
:100F7000890390918A03892B81F48091390386FF3C
:100F80000FC090918B039F3159F0809139038F717D
:100F9000891731F08FEF9FEF05C081E090E002C02C
:100FA00080E090E0DF91CF910895CF9340933A0392
:100FB000FB0120E030E050E02417350744F4D9016C
:100FC000A55CBC4F91919C932F5F3F4FF5CF86FD61
:100FD00004C0807E90918B03890F809339036091C8
:100FE0008C038FEF9FEF0E949A0690938A03809361
:100FF000890390913A038EEF891B809386030E94A8
:10100000C4068CE00E94CE0660E085EA0E94B2062B
:10101000809186038330DCF588E20E94C10687FD5B
:10102000F7CF8091860387FF1BC090913A03809190
:101030008603E0918403F0918503E90FF11DE80F29
:10104000F11D87FDFA95C3816C2F809189039091E2
:101050008A030E949A0690938A03809389030DC0A5
:1010600080918603882329F0813031F4C0918A036E
:1010700004C0C091890301C0CAEA6C2F80E80E94B5
:10108000B206809186038F5F80938603C1CFCF9194
:10109000089580918603853009F04DC060E485EAAB
:1010A0000E94B20684E20E94C1068093880378946D
:1010B00088E20E94C1068075D9F38091870381116F
:1010C0000FC0E0918403F09185038091870391E044
:1010D000980F9093870390918C03E80FF11D9083F4
:1010E00080E00E94C106E0918403F0918503909115
:1010F000870321E0290F20938703E90FF11D8083E7
:10110000682F8091890390918A030E949A06909398
:101110008A038093890380913A032091870390E0AA
:10112000049630E082179307A4F0809187038834F7
:1011300008F4BECF089588E20E94C10683FF09C06B
:1011400084E0809386030E94CE0660E885EA0C94D2
:10115000B2060895FF920F931F93CF93DF93FC0184
:101160000081C181D281F8948981F02EF0948F2181
:10117000898378941DE7115029F182E090E00E9464
:10118000371088818023B9F3F8948A818F218A836C
:101190008981802B8983789480EE91E00E943710BA
:1011A000F89489818F21898386E490E00E9437102A
:1011B0008881802311E009F010E078948AE991E0B9
:1011C0000E943710812FDF91CF911F910F91FF90D7
:1011D00008951F93CF93DF93FC011081C181D281C9
:1011E000912F909560FF12C0F8948A8189238A8399
:1011F0008981812B89838AE090E00E9437108A815F
:10120000812B8A83789487E390E011C0F8948A81D7
:1012100089238A838981812B898381E490E00E94DC
:1012200037108A81812B8A83789485E090E0DF9162
:10123000CF911F910C9437100F931F93CF93DF938F
:10124000FC011081C181D281F8948981812B89832D
:101250008A81012F009580238A8383E090E00E9499
:1012600037108981802389838AE090E00E943710BB
:10127000C881789485E390E00E9437101C2381E0B8
:1012800009F480E0DF91CF911F910F910895CF92E3
:10129000DF92EF92FF920F931F93CF93DF931F92F2
:1012A000CDB7DEB76C01E62E08E010E0FF24F39422
:1012B00061E09F2D9E2109F460E0C60149830E94F0
:1012C000E908FF0C0150110949810115110581F749
:1012D000411115C0F894D6011196ED91FC91129729
:1012E00091818C918095892381831196ED91FC9158
:1012F000129792818C9180958923828378940F90A4
:10130000DF91CF911F910F91FF90EF90DF90CF90E1
:101310000895EF92FF920F931F93CF93DF938C0169
:10132000C8E0D0E0F12CEE24E394C8010E941C092F
:101330008111FE28EE0C2197C1F78F2DDF91CF91FF
:101340001F910F91FF90EF900895CF92DF92FF923F
:101350000F931F93CF93DF931F92CDB7DEB78C010E
:10136000F62E40E065E579830E944709CF2C79810C
:10137000D72E88E0F82EF60161916F0140E0C80198
:101380000E944709FA94B9F70F90DF91CF911F910E
:101390000F91FF90DF90CF90089540E06CEC0C949B
:1013A0004709FC0113861586148627E030E0DF012B
:1013B000A20FB31F13961C922115310519F021506D
:1013C0003109F5CF08951F93CF93DF93EC01162FCA
:1013D00060E0812F0E94A510612F70E0FB01E156B3
:1013E000FE4FE491E883FB01ED54FE4FE491F0E001
:1013F000EE0FFF1FE953FE4F859194919A838983E5
:10140000CE01DF91CF911F910C94D109AF92BF9281
:10141000CF92DF92EF92FF920F931F93CF93DF93C0
:101420001F92CDB7DEB75C01E62ED72EFC01858575
:1014300081115DC0C5010E94AA08811105C0F50196
:101440001386158614866EC040E060EFC5010E94C9
:10145000470901E0F12CC12C11E0C5010E941C09D3
:10146000682FC50169830E941C096981613019F4E4
:101470008130B9F433C02F2D30E068131BC0F50163
:101480008385181730F4E20FF31F8381802349F41A
:1014900002C0181731F060E0193058F4F5011487D4
:1014A00008C0F501EF0DF11D8381802B838361E07E
:1014B00009C0C12EF501E20FF31F8381902F909593
:1014C00089238383C5010E94E9081F5F000F11F47F
:1014D000F39401E0F7E0FF1508F0BFCF113438F0C6
:1014E000F501C386C11018C081E0858715C0F501DC
:1014F00013861586148680E0EE2DFD2D20E030E069
:10150000D501A20FB31F13969C9191932F5F3F4F6C
:1015100028303105A9F706C0F5018381882339F306
:1015200081E0EACF0F90DF91CF911F910F91FF9053
:10153000EF90DF90CF90BF90AF900895DC0180E0F6
:10154000615038F0ED91E827F0E0E557FF4F8491C6
:10155000F7CF08950895FC018AEA9AE0928B818B77
:10156000768365831482108289E0818381E082839F
:1015700083830895FC0184810895CF93DF93EB0169
:1015800067E0CE010E949E0A91E02F81821390E0D5
:10159000892FDF91CF910895EF92FF920F931F93C0
:1015A000CF93DF9300D0CDB7DEB77C018A01FC0179
:1015B0008581968169837A830E94AA0869817A81EC
:1015C000F701858196810E94A50940E06EEBF70145
:1015D000858196810E944709F701858196810E9445
:1015E0008909F8018083F701858196810E94890924
:1015F000F8018183F701858196810E948909F801AC
:101600008283F701858196810E948909F80183838D
:10161000F701858196810E948909F8018483F70189
:10162000858196810E948909F8018583F70185816A
:1016300096810E948909F8018683F7018581968148
:101640000E948909F8018783F701858196810E94AC
:101650008909F8018087F701858196810F900F90A5
:10166000DF91CF911F910F91FF90EF900C94AA08FA
:10167000CF93DF93EA010E94CC0A68E0CE010E947A
:101680009E0A91E02885821390E0892FDF91CF9107
:101690000895EF92FF920F931F93CF93DF93EC0186
:1016A0007B018A018D819E810E94AA08B7018D81EC
:1016B0009E810E94A50940E06EE48D819E810E947A
:1016C000470940E0F80162818D819E810E944709AF
:1016D00040E0F80163818D819E810E944709F701F6
:1016E0008081803139F040E0F80164818D819E81F4
:1016F0000E9447098D819E810E94AA08488168E462
:101700008D819E810E9447098881882331F06AE09B
:1017100070E080E090E00E940F108D819E81DF914B
:10172000CF911F910F91FF90EF900C94AA08EF9228
:10173000FF921F93CF93DF9300D0CDB7DEB77C012C
:10174000FC018581968169837A830E94AA08698158
:101750007A81F701858196810E94A50940E064EBBA
:10176000F701858196810E944709F701858196815D
:101770000E941C09182FF701858196810E94AA08F2
:1017800081E0111180E00F900F90DF91CF911F91B8
:10179000FF90EF900895EF92FF920F931F93CF93D6
:1017A000DF93CDB7DEB72A970FB6F894DEBF0FBE32
:1017B000CDBF7C018B01242FAE014F5F5F4F2A8785
:1017C0000E94380B2A858823D1F0F801808180316E
:1017D000C1F02B3041F02C3021F02A3031F48FE36E
:1017E00005C08FE703C08FE501C08FE18D83AE0197
:1017F0004F5F5F4FB801C7010E94490B02C080E0F4
:1018000001C081E02A960FB6F894DEBF0FBECDBFAF
:10181000DF91CF911F910F91FF90EF900895CF939B
:10182000DF93CDB7DEB729970FB6F894DEBF0FBEB2
:10183000CDBFFB0120812031D1F0AE014F5F5F4F62
:101840000E94380B882379F08D818F3351F018F482
:101850008F3169F008C08F3541F08F3721F48CE06B
:1018600007C08AE005C080E003C08BE001C089E0CA
:1018700029960FB6F894DEBF0FBECDBFDF91CF9192
:101880000895EF92FF920F931F93CF93DF93CDB7FD
:10189000DEB761970FB6F894DEBF0FBECDBF8C01E7
:1018A000FC01858196810E94D109F8011482FF24F0
:1018B000F394BE01665F7F4FF801858196810E9497
:1018C000060A8823C9F1BE01665F7F4FC8010E94E6
:1018D000BD0A882371F3F8018081811108C0BE011F
:1018E000665F7F4FC8010E94970B811122C0AE0135
:1018F0004F5F5F4FBE01665F7F4FC8010E94CC0AF9
:10190000F801E180BE01665F7F4FC8010E940F0CA5
:101910008E1518F4F801818106C0BE01665F7F4F05
:10192000C8010E940F0CF801818384818F5F84833A
:10193000C0CFF801F082DBCF61960FB6F894DEBF1E
:101940000FBECDBFDF91CF911F910F91FF90EF9010
:101950000895FC0162830895CF93DF93CDB7DEB77E
:1019600029970FB6F894DEBF0FBECDBFAE014F5F13
:101970005F4F0E94CC0A81E09981911101C080E003
:1019800029960FB6F894DEBF0FBECDBFDF91CF9181
:101990000895CF92DF92EF92FF920F931F93CF9310
:1019A000DF93EC018B01452BE1F08B818823C9F09B
:1019B0008881811116C00E94E00F6B017C0160E0FC
:1019C00070E0CE010E94AC0C81110BC00E94E00FB0
:1019D0006C197D098E099F096E3E72408105910543
:1019E00070F3F80180818A3049F08B3061F08930E2
:1019F00079F46EE570E080E090E00EC06CEB70E092
:101A000080E090E009C067E771E080E090E004C00A
:101A10006EEE72E080E090E0DF91CF911F910F9128
:101A2000FF90EF90DF90CF900C940F10CF93DF9347
:101A3000EC018D819E810E94AA088D819E810E9469
:101A4000CD09488164E48D819E810E9447098A8185
:101A5000882351F0BE016F5F7F4F40E050E0CE0120
:101A6000DF91CF910C94C90CDF91CF9108958F92A3
:101A70009F92AF92BF92CF92DF92EF92FF921F930D
:101A8000CF93DF93FB01EA01698170E0762F66272F
:101A90008881682B80818232B1F18832A1F1803156
:101AA00009F078C01F8175956795882777FD809527
:101AB000982F0E94001720E030E040E85EE30E948B
:101AC000FC156B017C01612F70E08E81681B710930
:101AD000882777FD8095982F0E9400174B015C01A5
:101AE000612F70E080E090E00E94FE169B01AC0147
:101AF000C501B4010E9465169B01AC01C701B60186
:101B00000E94FD1543C08C818F3381F198F48F3191
:101B100009F040C093E0759567959A95E1F788279D
:101B200077FD8095982F0E94001720E030E040E07C
:101B30005FE32AC08F3569F08F3761F5882777FD1D
:101B40008095982F0E94001720E030E040E85DE388
:101B50001BC075956795882777FD8095982F0E9403
:101B6000001720E030E040E05EE30EC07595679519
:101B700075956795882777FD8095982F0E940017A7
:101B800020E030E040E85EE30E94B417562F472F74
:101B9000382F292F652F742F832F922FDF91CF910C
:101BA0001F91FF90EF90DF90CF90BF90AF909F90EC
:101BB0008F900895EF92FF920F931F93CF93DF932F
:101BC000CDB7DEB729970FB6F894DEBF0FBECDBFF5
:101BD0008C017B01AE014F5F5F4F0E94380B882361
:101BE00041F0AE014F5F5F4FB701C8010E94370D52
:101BF00004C060E070E08EEF92EC29960FB6F89486
:101C0000DEBF0FBECDBFDF91CF911F910F91FF902F
:101C1000EF900895FC0166834783208781E08587E4
:101C20000895CF93DF93EC0160E08E810E94A510B0
:101C300061E08E810E94DE1019861A861B861C8642
:101C4000DF91CF910895DF92EF92FF920F931F9350
:101C5000CF93DF93EC0161E08E810E94DE106AEF8A
:101C600070E080E090E00E940F100E94E00F098574
:101C70001A852B853C85601771078207930720F42E
:101C800019861A861B861C862D85211111C009858F
:101C90001A852B853C85DC01CB01801B910BA20BA7
:101CA000B30B803D9740A105B10510F481E071C0F0
:101CB0001D860E94E00F69877A878B879C871C822C
:101CC0001B821A821982188261E08E810E94A510FF
:101CD00060E08E810E94DE1064E170E080E090E0C0
:101CE0000E940F10F89461E08E810E94DE1088E25D
:101CF00090E00E94371060E08E810E94A510F12CC8
:101D0000D12C81E0E12C082F10E08E810E9414116B
:101D10008017910741F4E39481E090E00E9437102E
:101D20008FEFE812F2CF8E810E9414119FEFE91617
:101D3000C9F023E02F1590F4F0FC10C09D2D96956E
:101D400096959695FE01E90FF11D9081990F90836C
:101D500028852E1510F491609083D394F39495E523
:101D6000F912D0CF789427E22D1590F42C8130E031
:101D70004881898190E0840F911D4A81840F911DD3
:101D80004B81840F911D99272817390709F48ECFAD
:101D900080E0DF91CF911F910F91FF90EF90DF9046
:101DA0000895CF92DF92EF92FF920F931F93CF93FC
:101DB000DF93EC01162F0E94230E882309F450C0F4
:101DC0008F818B3031F008F44BC08551823078F030
:101DD00047C06A8170E080E090E00E94FE16112307
:101DE00009F449C020E030E040E151E42AC00A8112
:101DF000602F6F7770E080E090E00E94001720E095
:101E000030E040E853E40E94B4176B017C016B8121
:101E100070E080E090E00E9400179B01AC01C701D8
:101E2000B6010E94FD1520E030E040E251E40E943E
:101E3000651607FD9058112309F120E030E040E1DC
:101E400051E40E94B41720E030E040EA50E40E94E0
:101E5000651620E030E040E052E40E94FD150EC01F
:101E600063EB72E08EE993E00E94C81220E030E05C
:101E700040EC5FE705C09B01AC0102C09B01AC01D7
:101E8000B901CA01DF91CF911F910F91FF90EF909F
:101E9000DF90CF900895CF92DF92EF92FF92CF9391
:101EA000DF93EC010E94230E882379F18F818B3020
:101EB00029F158F18551823040F5688170E080E069
:101EC00090E00E94FE1620E030E040E853E40E94DB
:101ED000B4176B017C01698170E080E090E00E94A2
:101EE00000179B01AC01C701B6010E94FD1520E05F
:101EF00030E040E251E40E94651611C0688170E054
:101F000080E090E00E94FE160AC063EB72E08EE96A
:101F100093E00E94C81260E070E080EC9FE7DF91E0
:101F2000CF91FF90EF90DF90CF9008951F920F9286
:101F30000FB60F9211242F933F938F939F93AF93DC
:101F4000BF938091920390919303A0919403B091D9
:101F500095033091910323E0230F2D3720F4019650
:101F6000A11DB11D05C026E8230F0296A11DB11DBC
:101F7000209391038093920390939303A0939403EF
:101F8000B09395038091960390919703A091980345
:101F9000B09199030196A11DB11D80939603909372
:101FA0009703A0939803B0939903BF91AF919F912A
:101FB0008F913F912F910F900FBE0F901F9018950A
:101FC0002FB7F894609192037091930380919403DA
:101FD000909195032FBF08953FB7F8948091960391
:101FE00090919703A0919803B091990326B5A89B6F
:101FF00005C02F3F19F00196A11DB11D3FBF6627F7
:10200000782F892F9A2F620F711D811D911D42E03B
:10201000660F771F881F991F4A95D1F70895CF92B1
:10202000DF92EF92FF92CF93DF936B017C010E94CE
:10203000EC0FEB01C114D104E104F10489F00E941A
:102040005A110E94EC0F6C1B7D0B683E734090F39D
:1020500081E0C81AD108E108F108C851DC4FEACF85
:10206000DF91CF91FF90EF90DF90CF90089501978F
:1020700039F0880F991F880F991F02970197F1F780
:102080000895789484B5826084BD84B5816084BDF0
:1020900085B5826085BD85B5816085BDEEE6F0E0E1
:1020A000808181608083E1E8F0E01082808182603D
:1020B0008083808181608083E0E8F0E080818160BE
:1020C0008083E1EBF0E0808184608083E0EBF0E0EE
:1020D000808181608083EAE7F0E080818460808392
:1020E000808182608083808181608083808180683C
:1020F00080831092C1000895833081F028F48130EC
:1021000099F08230A1F008958730A9F08830B9F0B5
:102110008430D1F4809180008F7D03C08091800055
:102120008F7780938000089584B58F7702C084B53F
:102130008F7D84BD08958091B0008F7703C080911A
:10214000B0008F7D8093B0000895CF93DF9390E02F
:10215000FC01E156FE4F2491FC01ED54FE4F8491A9
:10216000882349F190E0880F991FFC01E552FE4F4A
:10217000A591B4918F529E4FFC01C591D4919FB708
:10218000611108C0F8948C91209582238C938881EA
:1021900082230AC0623051F4F8948C91322F30952A
:1021A00083238C938881822B888304C0F8948C913C
:1021B000822B8C939FBFDF91CF9108950F931F9334
:1021C000CF93DF931F92CDB7DEB7282F30E0F90110
:1021D000E557FE4F8491F901E156FE4F1491F90144
:1021E000ED54FE4F04910023C9F0882321F0698348
:1021F0000E947C106981E02FF0E0EE0FFF1FEF528C
:10220000FE4FA591B4919FB7F8948C91611103C0D2
:102210001095812301C0812B8C939FBF0F90DF917C
:10222000CF911F910F910895CF93DF93282F30E026
:10223000F901E557FE4F8491F901E156FE4FD49123
:10224000F901ED54FE4FC491CC2391F081110E940D
:102250007C10EC2FF0E0EE0FFF1FE953FE4FA5912D
:10226000B4912C912D2381E090E021F480E002C014
:1022700080E090E0DF91CF9108958E3008F08E508D
:1022800087702091090190E4299F90011124822BED
:1022900080937C0080917A00806480937A008091A2
:1022A0007A0086FDFCCF809178002091790090E043
:1022B000922B089508958230E8F4E82FF0E0EE0FB5
:1022C000FF1FE656FC4F71836083813041F080919F
:1022D00069008C7F842B80936900E89A089580912F
:1022E0006900440F551F440F551F837F842B809333
:1022F0006900E99A0895823068F4813011F0E89815
:1023000001C0E998E82FF0E0EE0FFF1FE656FC4F02
:102310001182108208951F920F920FB60F9211240E
:102320002F933F934F935F936F937F938F939F93DD
:10233000AF93BF93EF93FF9380919A0390919B0388
:10234000892B29F0E0919A03F0919B030995FF9165
:10235000EF91BF91AF919F918F917F916F915F911D
:102360004F913F912F910F900FBE0F901F90189596
:102370001F920F920FB60F9211242F933F934F93FA
:102380005F936F937F938F939F93AF93BF93EF93DD
:10239000FF9380919C0390919D03892B29F0E091FC
:1023A0009C03F0919D030995FF91EF91BF91AF912F
:1023B0009F918F917F916F915F914F913F912F915D
:1023C0000F900FBE0F901F9018951F920F920FB68F
:1023D0000F9211242F938F939F93EF93FF93E0918C
:1023E000AE03F091AF038081E091B403F091B503A7
:1023F00082FD12C090818091B7038F5F8F7320910F
:10240000B803821751F0E091B703F0E0E256FC4FB9
:10241000958F8093B70301C08081FF91EF919F91C9
:102420008F912F910F900FBE0F901F9018951F92B4
:102430000F920FB60F9211242F933F934F935F93F8
:102440006F937F938F939F93AF93BF93EF93FF937C
:102450008EE993E00E94F214FF91EF91BF91AF914A
:102460009F918F917F916F915F914F913F912F91AC
:102470000F900FBE0F901F9018958EE993E00E9469
:10248000B71421E0892B09F420E0822F08951092DF
:10249000A1031092A00388EE93E0A0E0B0E0809347
:1024A000A2039093A303A093A403B093A5038FEC7E
:1024B00092E090939F0380939E0385EC90E090932D
:1024C000AB038093AA0384EC90E09093AD038093D8
:1024D000AC0380EC90E09093AF038093AE0381EC6B
:1024E00090E09093B1038093B00382EC90E09093DE
:1024F000B3038093B20386EC90E09093B50380938E
:10250000B4031092B7031092B8031092B90310925B
:10251000BA030895CF92DF92EF92FF920F931F9329
:10252000CF93DF936C017A01EB01E60EF71E00E01A
:1025300010E0CE15DF0561F06991D601ED91FC91B7
:102540000190F081E02DC6010995080F191FF1CF08
:10255000C801DF91CF911F910F91FF90EF90DF9015
:10256000CF9008956115710581F0DB010D90002079
:10257000E9F7AD0141505109461B570BDC01ED91C4
:10258000FC910280F381E02D099480E090E00895B1
:102590000C94B212DC01ED91FC910190F081E02DE0
:1025A00009940F931F93CF93DF93EC016DE00E948A
:1025B000CA128C016AE0CE010E94CA12800F911FDC
:1025C000DF91CF911F910F9108950F931F93CF9398
:1025D000DF93EC010E94B2128C01CE010E94D11255
:1025E000800F911FDF91CF911F910F9108958F92CE
:1025F0009F92AF92BF92CF92DF92EF92FF920F9392
:102600001F93CF93DF93CDB7DEB7A1970FB6F894A2
:10261000DEBF0FBECDBF7C01C42EE52FCB01D22E75
:1026200019A221E02D1510F02AE0D22E8E010F5DA7
:102630001F4F8D2C912CA12CB12C6C2D7E2FA50120
:1026400094010E941B188C2DD29E801911240150D8
:1026500011098A3014F4805D01C0895CF80180831F
:10266000211531054105510521F0C22EE32FCA0184
:10267000E4CFB801C7010E94B212A1960FB6F89438
:10268000DEBF0FBECDBFDF91CF911F910F91FF90A5
:10269000EF90DF90CF90BF90AF909F908F90089574
:1026A000CF92DF92EF92FF920F931F93CF93DF931E
:1026B000EC016A017B012115310579F4E881F9818A
:1026C0000190F081E02D642FDF91CF911F910F9148
:1026D000FF90EF90DF90CF9009942A303105E9F414
:1026E00077FF1AC06DE20E94CA128C014427552759
:1026F000BA014C195D096E097F092AE0CE010E94DA
:10270000F712800F911FDF91CF911F910F91FF90D2
:10271000EF90DF90CF9008952AE0B701A601CE0197
:10272000DF91CF911F910F91FF90EF90DF90CF90AD
:102730000C94F7129A01AB01662757FD6095762F2E
:102740000C9450130F931F93CF93DF93EC019A01D6
:10275000AB01662757FD6095762F0E9450138C01C0
:10276000CE010E94D112800F911FDF91CF911F9156
:102770000F9108954F925F926F927F928F929F92E6
:10278000AF92BF92CF92DF92EF92FF920F931F937F
:10279000CF93DF93EC016A017B01B22E9A01AB016A
:1027A000C701B6010E941718882319F06DEB72E07B
:1027B00027C026013701E89477F82FEF3FEF4FE766
:1027C0005FE7C301B2010E94171881110DC02FEFFE
:1027D0003FEF4FE75FE7C301B2010E946116181691
:1027E0001CF461EC72E00CC02FEF3FEF4FE75FE4A9
:1027F000C701B6010E94B0171816ACF465EC72E080
:10280000CE01DF91CF911F910F91FF90EF90DF905C
:10281000CF90BF90AF909F908F907F906F905F9080
:102820004F900C94B2122FEF3FEF4FE75FECC701D0
:10283000B6010E94611687FDE1CF20E030E0A901DA
:10284000C701B6010E94611687FF0AC06DE2CE0182
:102850000E94CA128C01F7FAF094F7F8F09402C0C3
:1028600000E010E0A12C60E070E080E09FE3AB149A
:1028700041F020E030E040E251E40E946516A3946C
:10288000F6CF9B01AC01C701B6010E94FD156B019B
:102890007C010E94D2162B013C010E94FE169B0176
:1028A000AC01C701B6010E94FC156B017C012AE056
:1028B000B301A201CE010E94F712080F191FBB201D
:1028C00039F069EC72E0CE010E94B212080F191FB4
:1028D0007B2C772041F120E030E040E251E4C70159
:1028E000B6010E94B4176B017C010E94CD164B010A
:1028F000AA2497FCA094BA2C2AE030E0B501A401E8
:10290000CE010E945013080F191FC501B4010E9487
:1029100000179B01AC01C701B6010E94FC156B01B9
:102920007C017A94D6CFC801DF91CF911F910F918E
:10293000FF90EF90DF90CF90BF90AF909F908F90DF
:102940007F906F905F904F9008950C94BA13089504
:102950000E9441100E94A7140E946901C4EED4E1B4
:102960000E945B032097E1F30E94E414F9CFFC017D
:10297000818D228D90E0805C9F4F821B91098F7327
:1029800099270895FC01918D828D981731F0828DE1
:10299000E80FF11D858D90E008958FEF9FEF08956A
:1029A000FC01918D828D981761F0828DDF01A80F57
:1029B000B11D5D968C91928D9F5F9F73928F90E079
:1029C00008958FEF9FEF08958DE392E1892B49F0F1
:1029D00080E090E0892B29F00E943D1281110C9437
:1029E00000000895FC01848DDF01A80FB11DA35ADA
:1029F000BF4F2C91848D90E001968F739927848F1F
:102A0000A689B7892C93A089B1898C9180648C9315
:102A1000938D848D981306C00288F389E02D808100
:102A20008F7D80830895CF93DF93EC01888D882379
:102A3000C9F0EA89FB89808185FD05C0A889B9892B
:102A40008C9186FD0FC00FB607FCF5CF808185FF06
:102A5000F2CFA889B9898C9185FFEDCFCE010E9474
:102A6000F214E7CFDF91CF910895CF92DF92FF92DA
:102A70000F931F93CF93DF931F92CDB7DEB76C01F7
:102A8000DC015B969C915B975C968C915C979813AC
:102A900007C05096ED91FC915197808185FD32C021
:102AA000F601038D10E00F5F1F4F0F731127F02EFB
:102AB000F601848DF81211C00FB607FCF9CFD601CC
:102AC0005096ED91FC915197808185FFF1CFC60121
:102AD00069830E94F2146981EBCF838DE80FF11DA9
:102AE000E35AFF4F6083D6015B960C935B97529637
:102AF000ED91FC91539780818062808381E05896AC
:102B00008C930DC0D6015696ED91FC91579760833A
:102B10005096ED91FC91519780818064808381E093
:102B200090E00F90DF91CF911F910F91FF90DF9078
:102B3000CF900895BF92CF92DF92EF92FF92CF9302
:102B4000DF93EC016A017B01B22EE889F98982E00A
:102B50008083411581EE580761057105A1F060E0A1
:102B600079E08DE390E0A70196010E941B182150A7
:102B700031094109510956954795379527952115F2
:102B800080E1380798F0E889F989108260E874E8F4
:102B90008EE190E0A70196010E941B182150310997
:102BA000410951095695479537952795EC85FD853F
:102BB0003083EE85FF852083188EEC89FD89B082F5
:102BC000EA89FB89808180618083EA89FB89808131
:102BD00088608083EA89FB89808180688083EA89B4
:102BE000FB8980818F7D8083DF91CF91FF90EF9073
:102BF000DF90CF90BF9008955058BB27AA270ED0E2
:102C000075C166D130F06BD120F031F49F3F11F4E3
:102C10001EF45BC10EF4E095E7FB51C1E92F77D1BB
:102C200080F3BA17620773078407950718F071F4E9
:102C30009EF58FC10EF4E0950B2EBA2FA02D0B013F
:102C4000B90190010C01CA01A0011124FF27591BF1
:102C500099F0593F50F4503E68F11A16F040A22FF7
:102C6000232F342F4427585FF3CF46953795279568
:102C7000A795F0405395C9F77EF41F16BA0B620B67
:102C8000730B840BBAF09150A1F0FF0FBB1F661FAE
:102C9000771F881FC2F70EC0BA0F621F731F841FF1
:102CA00048F4879577956795B795F7959E3F08F017
:102CB000B3CF9395880F08F09927EE0F97958795D6
:102CC0000895D9D008F481E008950CD00FC107D140
:102CD00040F0FED030F021F45F3F19F0F0C0511108
:102CE00039C1F3C014D198F39923C9F35523B1F333
:102CF000951B550BBB27AA2762177307840738F06B
:102D00009F5F5F4F220F331F441FAA1FA9F333D0C9
:102D10000E2E3AF0E0E830D091505040E695001C7D
:102D2000CAF729D0FE2F27D0660F771F881FBB1F39
:102D3000261737074807AB07B0E809F0BB0B802D13
:102D4000BF01FF2793585F4F2AF09E3F510568F05F
:102D5000B6C000C15F3FECF3983EDCF386957795F3
:102D60006795B795F7959F5FC9F7880F911D969561
:102D7000879597F90895E1E0660F771F881FBB1FBD
:102D8000621773078407BA0720F0621B730B840B6A
:102D9000BA0BEE1F88F7E095089504D06894B1113E
:102DA000D9C00895BCD088F09F5790F0B92F9927CB
:102DB000B751A0F0D1F0660F771F881F991F1AF046
:102DC000BA95C9F712C0B13081F0C3D0B1E008950F
:102DD000C0C0672F782F8827B85F39F0B93FCCF390
:102DE000869577956795B395D9F73EF4909580953C
:102DF000709561957F4F8F4F9F4F0895E89409C05C
:102E000097FB3EF490958095709561957F4F8F4F1D
:102E10009F4F9923A9F0F92F96E9BB279395F69533
:102E2000879577956795B795F111F8CFFAF4BB0FB1
:102E300011F460FF1BC06F5F7F4F8F4F9F4F16C015
:102E4000882311F096E911C0772321F09EE8872F9F
:102E5000762F05C0662371F096E8862F70E060E05B
:102E60002AF09A95660F771F881FDAF7880F9695D4
:102E7000879597F90895990F0008550FAA0BE0E878
:102E8000FEEF16161706E807F907C0F0121613062C
:102E9000E407F50798F0621B730B840B950B39F46C
:102EA0000A2661F0232B242B252B21F408950A26D2
:102EB00009F4A140A6958FEF811D811D089597F912
:102EC0009F6780E870E060E008959FEF80EC0895D0
:102ED00000240A94161617061806090608950024F9
:102EE0000A9412161306140605060895092E039473
:102EF000000C11F4882352F0BB0F40F4BF2B11F4E7
:102F000060FF04C06F5F7F4F8F4F9F4F089557FD45
:102F10009058440F551F59F05F3F71F04795880F47
:102F200097FB991F61F09F3F79F0879508951216DE
:102F300013061406551FF2CF4695F1DF08C016168A
:102F400017061806991FF1CF86957105610508943B
:102F50000895E894BB2766277727CB0197F9089552
:102F60008ADF08F48FEF08950BD0C0CFB1DF28F0CF
:102F7000B6DF18F0952309F0A2CFA7CF1124EACF2E
:102F8000C6DFA0F3959FD1F3950F50E0551F629FC8
:102F9000F001729FBB27F00DB11D639FAA27F00DB2
:102FA000B11DAA1F649F6627B00DA11D661F829FD9
:102FB0002227B00DA11D621F739FB00DA11D621FBE
:102FC000839FA00D611D221F749F3327A00D611DDB
:102FD000231F849F600D211D822F762F6A2F1124BD
:102FE0009F5750408AF0E1F088234AF0EE0FFF1F10
:102FF000BB1F661F771F881F91505040A9F79E3F47
:10300000510570F05CCFA6CF5F3FECF3983EDCF348
:10301000869577956795B795F795E7959F5FC1F783
:10302000FE2B880F911D9695879597F9089523DFBC
:10303000880B990B0895A1E21A2EAA1BBB1BFD0158
:103040000DC0AA1FBB1FEE1FFF1FA217B307E40787
:10305000F50720F0A21BB30BE40BF50B661F771FDF
:10306000881F991F1A9469F76095709580959095BF
:103070009B01AC01BD01CF010895A29FB001B39F98
:10308000C001A39F700D811D1124911DB29F700D71
:10309000811D1124911D08950E943D18A59F900D3A
:1030A000B49F900DA49F800D911D11240895EE0FE3
:0E30B000FF1F0590F491E02D0994F894FFCFD6
:1030BE0000003B04800013000101656D6F6E5448E3
:1030CE00202D204669726D776172652056312E363D
:1030DE002E31004F70656E456E657267794D6F6E5D
:1030EE0069746F722E6F72670052464D36394357B0
:1030FE0020496E69743E20004E6F64653A200020B0
:10310E00467265713A20003433334D687A00204E92
:10311E006574776F726B3A2000202D20556E6162B8
:10312E006C6520746F2066696E6420444854323298
:10313E002053656E736F722E2E747279696E6720CE
:10314E006167696E00202D20556E61626C6520747A
:10315E006F2066696E642044485432322053656E87
:10316E00736F7220666F7220326E642074696D65A3
:10317E002E2E676976696E672075700044657465DA
:10318E00637465642044485432322074656D702037
:10319E00262068756D6964697479207365736E6F26
:1031AE0072004E6F204453313842323020646574C1
:1031BE0065637465640044657465637465642000BA
:1031CE002044533138423230004453313842323089
:1031DE0020616E6420444854323220666F756E64EE
:1031EE002C20617373756D696E67204453313842BC
:1031FE0032302069732065787465726E616C20734D
:10320E00656E736F7200445331384232302054650C
:10321E006D70657261747572653A2000432C2000E2
:10322E0044485432322054656D7065726174757203
:10323E00653A2000432C2044485432322048756DA4
:10324E0069646974793A2000252C200042617474F7
:10325E0065727920766F6C746167653A200056004E
:10326E002B565A52656164206661696C006E616E00
:10327E0000696E66006F7666002E00000000003555
:0C328E00158A12B714D014C214131500D6
:00000001FF
