:100000000C94E3000C9462100C948F100C940B0170
:100010000C940B010C940B010C9470040C940B01C8
:100020000C940B010C940B010C940B010C940B0120
:100030000C940B010C940B010C940B010C940B0110
:100040000C94BC100C940B010C94D3110C94211241
:100050000C940B010C940B010C940B010C940B01F0
:100060000C940B010C940B01005EBCE2613FDD833C
:10007000C29C7E20A3FD1F419DC3217FFCA2401E88
:100080005F01E3BD3E6082DC237D9FC1421CFEA078
:10009000E1BF5D0380DE3C62BEE0025CDF81633D68
:1000A0007C22C09E1D43A1FF4618FAA427799BC558
:1000B00084DA3866E5BB5907DB856739BAE4065848
:1000C0001947A5FB7826C49A653BD987045AB8E638
:1000D000A7F91B45C6987A24F8A6441A99C7257B28
:1000E0003A6486D85B05E7B98CD2306EEDB3510F18
:1000F0004E10F2AC2F7193CD114FADF3702ECC9208
:10010000D38D6F31B2EC0E50AFF1134DCE90722CF7
:100110006D33D18F0C52B0EE326C8ED0530DEFB1E7
:10012000F0AE4C1291CF2D73CA947628ABF51749D7
:100130000856B4EA6937D58B5709EBB536688AD4C7
:1001400095CB2977F4AA4816E9B7550B88D6346AB7
:100150002B7597C94A14F6A8742AC896154BA9F7A7
:10016000B6E80A54D7896B35000000002400270048
:100170002A0000000000250028002B0000000000DD
:1001800023002600290004040404040404040202D9
:100190000202020203030303030301020408102006
:1001A0004080010204081020010204081020000011
:1001B0000007000201000003040600000000000028
:1001C000000016018F1311241FBECFEFD8E0DEBF51
:1001D000CDBF12E0A0E0B1E0EEE9FFE202C0059081
:1001E0000D92A633B107D9F713E0A6E3B2E001C040
:1001F0001D92AA39B107E1F711E0C6ECD1E004C0C5
:100200002297FE010E94C917C23CD107C9F70E947C
:10021000E5130C94CD170C940000FB01DC0102C027
:1002200001900D9241505040D8F708950F931F93BD
:1002300086E392E062E146E10E94AB0D04E412E045
:10024000C80163E10E94030A82E592E0B8010E94BE
:10025000390A1F910F9108959F92AF92BF92CF924A
:10026000DF92EF92FF920F931F933AE7C32ED12CA8
:10027000F60190802BE7E22EF12CF701A0800CE72D
:1002800010E0F801B0800E94BB07F6019082F701F0
:10029000A082F801B0821F910F91FF90EF90DF9044
:1002A000CF90BF90AF909F900895EF92FF920F93E1
:1002B0001F9380916502882311F580914302882362
:1002C000F1F400E010E089E061E00E94850F68EC45
:1002D00070E080E090E00E94121189E060E00E94EE
:1002E000850F68EC70E080E090E00E9412110F5FD3
:1002F0001F4F0431110539F7F8940E949E07809131
:100300006502813009F057C085E061E00E94850FE9
:1003100082E390E00E942C0100E010E00FC0B801E1
:1003200043E0660F771F4A95E1F761597D4F82E5FB
:1003300092E04BE00E94EE0C0F5F1F4F80916D0228
:1003400090916E020817190754F382E592E00E941B
:10035000530C87E791E00E942C0182E592E06FE662
:1003600072E00E94840C7B018C0185E060E00E94B9
:10037000850FC801B70120E030E04AEF52E40E9447
:10038000CC158823C4F4C801B70120E030E040E276
:1003900052EC0E941B17181674F4C801B70120E034
:1003A00030E040E251E40E941F170E94381670931B
:1003B00067026093660280914302813009F047C072
:1003C00086E061E00E94850F80ED97E00E942C019D
:1003D00086E392E00E947D0E20E030E040E251E4AE
:1003E0000E941F170E94381670936902609368027A
:1003F00080916502882339F586E392E060E00E94EF
:10040000D40E7B018C0120E030E04AEA52E40E94E5
:10041000CC158823C4F4C801B70120E030E040E2E5
:1004200052EC0E941B17181674F4C801B70120E0A3
:1004300030E040E251E40E941F170E94381670938A
:1004400067026093660286E060E00E94850F8091FB
:1004500064008E7F8093640081E00E94B011AA271F
:1004600097FDA095BA2FBC01CD010E946B1627E025
:1004700031E244E05DE30E941F170E94381670933A
:100480006B0260936A0280916400816080936400D3
:1004900080916C02813081F56091660270916702F3
:1004A00088E793E04AE050E00E941F1588E793E058
:1004B00060E071E00E9451156091680270916902DC
:1004C00088E793E04AE050E00E941F1588E793E038
:1004D00060E071E00E94511560916A0270916B02B8
:1004E00088E793E04AE050E00E94321564E170E052
:1004F00080E090E00E941211809164008B7F8093D5
:1005000064008FEF0E94930680E066E672E046E0AA
:100510000E94BE0682E00E94760680E00E9493065A
:100520008091640084608093640010917A0000914F
:100530007B00F0907C0080E69AEE0E94BB0710934F
:100540007A0000937B00F0927C001F910F91FF9046
:10055000EF900895AF92BF92CF92DF92EF92FF9209
:100560000F931F93CF93DF9389E061E00E94460FC2
:1005700089E061E00E94850F83E161E042ED0E9425
:100580000B0780E00E949306C0E0D0E0D0936702A2
:10059000C093660280E066E672E046E00E94BE0616
:1005A00064E670E080E090E00E9412112196CA306B
:1005B000D10561F782E00E947606109267021092E0
:1005C000660288E793E00E948D13882321F081E082
:1005D00080936C0202C010926C0280916C02813098
:1005E000E1F588E793E040E855E260E070E00E94C2
:1005F0005C1288E793E062E071E00E94541588E79E
:1006000093E067E171E00E94541588E793E06DE2A2
:1006100071E00E94511588E793E063E170E04AE0E1
:1006200050E00E941F1588E793E064E371E00E94A8
:10063000511588E793E06CE371E00E94511588E75B
:1006400093E063E471E00E94511588E793E062ED66
:1006500070E04AE050E00E94321586E061E00E94BE
:10066000460F85E061E00E94460F81E060E00E9455
:10067000460F86E060E00E94850F80B7806880BFEB
:100680008091640081608093640080916C02882373
:1006900029F48091640082608093640080916400FA
:1006A0008068809364008091640088608093640017
:1006B0008091640084608093640085E061E00E9422
:1006C000850F62E370E080E090E00E94121182E505
:1006D00092E00E94420D82E592E060E00E944B0AA7
:1006E00082E592E00E94480A80936D0210926E02A9
:1006F00010E0612F70E080916D0290916E0268179A
:1007000079070CF0D7C053E0660F771F5A95E1F7D1
:1007100061597D4F84E492E00E946D09882309F4B9
:10072000C9C01F5FE6CF213031F488E793E06EE463
:1007300071E00E945415109265021BC081E0809305
:100740006502213031F488E793E061E771E00E94AF
:10075000511560916D0270916E0288E793E04AE056
:1007600050E00E941F1588E793E06BE771E00E945C
:10077000541580916C02813031F468EC70E080E0B7
:1007800090E00E94121186E061E00E94850F80EDEA
:1007900097E00E942C0186E392E00E94B10D86E36F
:1007A00092E00E947D0E5B016C0186E392E060E0C6
:1007B0000E94D40E7B018C0186E060E00E94850FD0
:1007C000C801B701A80197010E948217882349F444
:1007D000C601B501A60195010E948217882309F47C
:1007E00077C080916C02813031F488E793E068EA49
:1007F00071E00E94541564E670E080E090E00E9491
:1008000012118CED95E00E94BB0786E392E00E94F6
:100810007D0E7B018C0186E392E060E00E94D40EA5
:100820009B01AC010E948217882341F4C801B701E3
:10083000A80197010E948217882399F080916C0289
:10084000813031F488E793E064ED71E00E94541543
:100850001092430206C088E793E06BE072E00E94CA
:10086000541588E793E0609165024AE050E00E94E9
:10087000CD1488E793E0609143024AE050E00E9483
:10088000CD1480916C02813031F468EC70E080E02E
:1008900090E00E94121189E060E00E94850FDF91D4
:1008A000CF911F910F91FF90EF90DF90CF90BF906D
:1008B000AF90089585E060E00E94850F80916D0201
:1008C00090916E0220916C02892B09F42CCF36CFC7
:1008D00081E08093430280916C02813011F6BBCF9E
:1008E0001F920F920FB60F9211242F933F934F93A5
:1008F0005F936F937F938F939F93AF93BF93EF9388
:10090000FF930E941308FF91EF91BF91AF919F91C8
:100910008F917F916F915F914F913F912F910F90A8
:100920000FBE0F901F901895782F8CB581608CBDED
:100930006BB121E030E040E050E00090240204C0C0
:10094000220F331F441F551F0A94D2F7522F822FB4
:10095000809586238BB99EBD0DB407FEFDCF8EB565
:100960007EBD0DB407FEFDCF4EB5382F20E08BB114
:10097000582B5BB98CB58E7F8CBD50E0422B532B2E
:10098000CA010895E9980E949404E99A089580E0C4
:1009900090E00E9494048091DF02853009F054C0F9
:1009A00080E090EB0E949404282F8091E10288233C
:1009B00071F49091E002992351F08091E102E82FC7
:1009C000F0E0EF56FD4F90838F5F8093E1028091BE
:1009D000E102E82FF0E0EF56FD4F20838F5F809318
:1009E000E10280918F02909190028227282F229518
:1009F0002827022E269526952025022E269520258D
:100A00002770082E892F269507942795902D8227E9
:100A100006942795902582279093900280938F02C9
:100A2000809193022091E10290E0049630E08217D9
:100A300093072CF08091E102873408F46DC08DE0BB
:100A400092E80E94940408958091DF0287FF2EC0EF
:100A5000E09193028091DF028F5F8093DF028150EB
:100A6000ED5FE80FF0E0EF56FD4FE08180918F02DF
:100A7000909190028E27282F22952827022E2695C6
:100A800026952025022E269520252770082E892FB1
:100A9000269507942795902D8227069427959025D3
:100AA00082279093900280938F0230C08091DF0262
:100AB0008F5F8093DF028150833019F184302CF4F2
:100AC000882399F0813009F516C0893019F08A30F1
:100AD000E1F402C0EDE21AC0E091E00290919302CD
:100AE0008EEF891B8093DF0211C080918F0290915D
:100AF0009002E82F0BC080918F0290919002E92F15
:100B000005C08DE092E80E949404EAEA8E2F90E0FE
:100B1000805098440E94940408958091DF028530AB
:100B200009F042C0809193022091E10290E0049686
:100B300030E08217930724F08091E1028734A0F11E
:100B400084E08093DF0280919302833430F081E06F
:100B500090E09093900280938F028091920286FFA2
:100B600012C08091DE02282F30E0C9018F71907091
:100B70004F9749F08091920290E0822793278F71DE
:100B80009070892B89F480918F0290919002892B2B
:100B900009F044C0E091DC02F091DD02309709F4E5
:100BA0003DC080E0099546C08091DF02843011F09D
:100BB00080E0089510929302809193028093E10265
:100BC0008FEF9FEF9093900280938F022091E0022D
:100BD0002223D9F08227282F22952827022E269516
:100BE00026952025022E269520252770082E892F50
:100BF000269507942795902D822706942795902572
:100C000082279093900280938F0285E08093DF0289
:100C10008DED92E80E94940480E008958FEF9FEF9D
:100C2000AFEFBFEF8093D8029093D902A093DA027E
:100C3000B093DB0281E008958091DF02853099F462
:100C40008091E102882379F480E090E00E94C20460
:100C500090FD09C08DE092E80E94C20484E0809378
:100C6000DF0281E0089580E00895982F86FD05C099
:100C7000907E8091DE028F71980F90939202E091A6
:100C8000DC02F091DD02309711F081E009958FEFE1
:100C90009FEF9093900280938F0280918F029091AA
:100CA00090022091E0028227282F22952827022EE9
:100CB000269526952025022E269520252770082E7C
:100CC000892F269507942795902D8227069427959E
:100CD000902582279093900280938F0286E08093E4
:100CE000DF028DE392E80E9494040895282F16C035
:100CF0002223A1F093B7233011F484E005C0223001
:100D000011F080E001C08CE0917F892B83BF83B715
:100D1000816083BF889583B78E7F83BF8091DF0218
:100D2000843031F708951F93182F87FF03C08DE09B
:100D300092E80EC0992787FD9095956E0E94C20497
:100D400085E092E80E94C204112321F087E092E836
:100D50000E94C20484E08093DF021F9108951F93D4
:100D6000182F4093930224E932E0C90150E00E9419
:100D70000D01812F0E9435061F9108950F931F9337
:100D8000CF93DF93182FEB01042F02C00E948D0533
:100D90000E941C068823D1F3812FBE01402F0E94A0
:100DA000AF06DF91CF911F910F9108952BB181E094
:100DB00090E0A0E0B0E00090240204C0880F991FEA
:100DC000AA1FBB1F0A94D2F7282B2BB92AB1822B5A
:100DD0008AB98AE061E00E94850F8AE061E00E94A2
:100DE000460F8BE061E00E94460F8CE060E00E94BD
:100DF000460F8DE061E00E94460F80E58CBD8DB509
:100E000081608DBD83E060E00E94460F83E061E079
:100E10000E94850F08951F93162F8093DE02409342
:100E2000E0020E94D60680E090E00E94940485E0F3
:100E300092E80E94940480E098EB02C080E090E089
:100E40000E94940483E00E94D90F892BB9F3812F6B
:100E500090E074E0880F991F7A95E1F7876C9068AD
:100E60000E94940480E496EA0E94940486E096EC42
:100E70000E94940482EA90E90E9494048CEA92EC25
:100E80000E9494041091E002112341F083E89AEC4F
:100E90000E949404812F90E09E6C06C08BE89AEC2F
:100EA0000E9494048DE29EEC0E94940483E894ECEA
:100EB0000E94940480E598E90E94940487E79CECE2
:100EC0000E94940480E090EE0E94940480E098ECEC
:100ED0000E94940489E490EC0E94940484E080933E
:100EE000DF028091DE0290E08F719070892B41F0DB
:100EF00081E067EC74E040E050E00E942C1003C0F9
:100F000081E00E944F108091DE021F910895982F7A
:100F100083FF02C088E2982797FF02C090E001C0DB
:100F2000906484B7877F84BFF89480916000886163
:100F3000809360009093600078940895EAE7F0E071
:100F4000908180818F77808383B7817F846083BF26
:100F5000F89483B7816083BF85B7806685BF85B706
:100F60008F79806485BF7894889583B78E7F83BF9F
:100F700090937A000895CF92DF92EF92FF921F93A1
:100F8000CF93DF937C01EC0158E0C52ED12C20C01B
:100F90001F5F193029F09695879580329105C0F72B
:100FA0001092E202812F0E9487070E949E078FEF16
:100FB0000E948707960102C0220F331F1A95E2F79D
:100FC000C21BD30B8091E202882351F0C21BD30BCA
:100FD000C031D10510F461E004C0CE0110E0DDCFD6
:100FE00060E02091EB023091EC024091ED025091D3
:100FF000EE02EC1AFD0AC701A0E0B0E0820F931FD9
:10100000A41FB51F8093EB029093EC02A093ED0216
:10101000B093EE02862FDF91CF911F91FF90EF905A
:10102000DF90CF9008958091E2028F5F8093E2027B
:101030000895FC0113861586148687E090E01286D9
:101040003197009711F00197FACF0895DC0180E005
:101050000BC0E82FF0E08D9190E0E827F927E859E0
:10106000FF4FE49161508E2F662399F70895DF9228
:10107000EF92FF920F931F93FC01E0800181128198
:10108000F894F80181818E2981838281DE2CD094AD
:101090008D21828383E090E00E946B11F8018181B1
:1010A0008D2181838AE090E00E946B11F80100811C
:1010B000789485E390E00E946B1180E010E0FF24BB
:1010C0000E211F21012B09F081E01F910F91FF904C
:1010D000EF90DF900895EF92FF920F931F93CF93BD
:1010E000DF937C0101E010E0C0E0D0E0C7010E9486
:1010F00037088111102B000F2196C830D105B1F7A8
:10110000812FDF91CF911F910F91FF90EF90089564
:101110001F93CF93DF93FC011081C181D281912F66
:10112000909560FF12C0F8948A8189238A8389810F
:10113000812B89838AE090E00E946B118A81812B48
:101140008A83789487E390E011C0F8948A81892398
:101150008A838981812B898381E490E00E946B11CD
:101160008A81812B8A83789485E090E00E946B11BC
:10117000DF91CF911F910895CF92DF92EF92FF926E
:101180000F931F93CF93DF938C01E42EFF24F394EE
:10119000C0E0D0E0C62EDD2460E08F2D90E08C21F1
:1011A0009D21892B09F061E0C8010E948808FF0C8D
:1011B0002196C830D10581F7EE20A9F4F894D80122
:1011C0001196ED91FC91129791818C9180959823C5
:1011D00091831196ED91FC91129792818C9180955B
:1011E000982392837894DF91CF911F910F91FF9074
:1011F000EF90DF90CF9008956CEC40E00E94BC0827
:101200000895EF92FF920F931F93CF93DF938C017A
:101210007B0165E540E00E94BC08C0E0D0E0F7013A
:10122000EC0FFD1FC801608140E00E94BC082196C0
:10123000C830D105A1F7DF91CF911F910F91FF9099
:10124000EF900895DF92EF92FF920F931F93CF9349
:10125000DF93FC010081C181D281F8948981D02E75
:10126000D0948D21898378941DE7E02EFF241150BE
:1012700059F182E090E00E946B11888190E08E210C
:101280009F21892BA1F3F8948A818D218A838981FA
:10129000802B8983789484EF91E00E946B11F894FD
:1012A00089818D21898380E590E00E946B1188817E
:1012B00010E090E0E822F922EF2809F411E0789498
:1012C00084EA91E00E946B11812FDF91CF911F91F1
:1012D0000F91FF90EF90DF900895AF92BF92DF9251
:1012E000EF92FF920F931F93CF93DF93EC015B017B
:1012F0008D85882309F061C0CE010E9422098823D0
:1013000029F41B861D861C8690E06BC0CE0160EF21
:1013100040E00E94BC0801E0DD24EE24FF24F394A9
:10132000CE010E943708182FCE010E9437081130D5
:1013300019F48130E1F439C0181709F58B850817C5
:1013400070F460E0FE01EE0DF11D838190E02F2D21
:1013500030E082239323181619064CF003C060E096
:10136000081729F0093008F04CC00C874AC0FE016C
:10137000EE0DF11D83818F29838361E009C0612F08
:10138000FE01EE0DF11D9F2D9095838189238383AE
:10139000CE010E9488080F5FFF0C19F4E394FF242C
:1013A000F39487E08E1508F0BBCF013430F0DB8674
:1013B000DD2011F581E08D871FC01B861D861C86F0
:1013C00090E0DE0120E030E0F501E20FF31F13961C
:1013D0008C91139780832F5F3F4F119628303105F2
:1013E00099F7892FDF91CF911F910F91FF90EF9087
:1013F000DF90BF90AF9008958B818823F1F291E048
:10140000E0CFD02EBDCFFF920F931F938C01F62E0D
:10141000862F60E00E94460F8F2D90E0FC01E6567B
:10142000FE4FE491D801EC938A579E4FFC016491E2
:10143000E62FF0E0EE0FFF1FE458FE4F85919491E8
:1014400012969C938E9311971B961C921B971D9638
:101450001C921D971C961C92F80187E090E0128662
:101460003197009711F00197FACF1F910F91FF90DC
:101470000895FC0185E09BE0928B818B76836583E8
:101480001482108289E0818381E0828383830895BE
:10149000FC0184810895FC01628308956F927F921C
:1014A0008F929F92AF92BF92CF92DF92EF92FF9274
:1014B0000F931F93CF93DF93FB01EA01998180E0A3
:1014C000288130E0282B392BE081E23231F0E832FC
:1014D00021F0E03109F084C04BC04C814F3329F139
:1014E000403420F44F3109F07BC02FC04F3579F0E4
:1014F0004F3709F075C0B901882777FD8095982F7F
:101500000E946B1620E030E040E85DE32EC0359588
:101510002795B901882777FD8095982F0E946B1633
:1015200020E030E040E05EE320C03595279535951A
:101530002795B901882777FD8095982F0E946B1613
:1015400020E030E040E85EE310C093E03595279559
:101550009A95E1F7B901882777FD8095982F0E9429
:101560006B1620E030E040E05FE30E941F1732C0BE
:10157000EF8035952795B901882777FD8095982FBD
:101580000E946B1620E030E040E85EE30E946715A1
:101590003B014C016E2D70E02E81621B7109882782
:1015A00077FD8095982F0E946B165B016C01FF24DC
:1015B00000E010E0C801B7010E9469169B01AC0170
:1015C000C601B5010E94D0159B01AC01C401B30155
:1015D0000E9468159B01AC01832F942F752F00C0CA
:1015E000262F382F492F572FB901CA01DF91CF91EC
:1015F0001F910F91FF90EF90DF90CF90BF90AF9031
:101600009F908F907F906F9008950895EF92FF9232
:101610000F931F938C017B01FC01858196810E94B1
:101620002209F80185819681B7010E940109F8011C
:101630008581968164EB40E00E94BC08F8018581B9
:1016400096810E943708F82EF801858196810E94C4
:10165000220980E0FF2009F481E01F910F91FF90A3
:10166000EF900895EF92FF920F931F93CF93DF9324
:10167000EC018B017A018D819E810E9422098D816E
:101680009E81B8010E9401098D819E816EE440E037
:101690000E94BC088D819E81F701628140E00E941A
:1016A000BC088D819E81F701638140E00E94BC08E7
:1016B000F8018081803139F08D819E81F70164814C
:1016C00040E00E94BC088D819E810E9422098D818C
:1016D0009E8168E448810E94BC088881882331F09B
:1016E0006AE070E080E090E00E9412118D819E819E
:1016F0000E942209DF91CF911F910F91FF90EF90EF
:101700000895CF92DF92EF92FF920F931F938C0177
:101710006B017A01FC01858196810E942209F80102
:1017200085819681B6010E940109F8018581968123
:101730006EEB40E00E94BC08F801858196810E9412
:101740006B08F7018083F801858196810E946B0800
:10175000F7018183F801858196810E946B08F7016A
:101760008283F801858196810E946B08F70183834B
:10177000F801858196810E946B08F7018483F80146
:10178000858196810E946B08F7018583F801858128
:1017900096810E946B08F7018683F8018581968106
:1017A0000E946B08F7018783F801858196810E946A
:1017B0006B08F7018087F801858196810E942209D4
:1017C0001F910F91FF90EF90DF90CF900895DF93DE
:1017D000CF93CDB7DEB729970FB6F894DEBF0FBE13
:1017E000CDBFAE014F5F5F4F0E94810B8981811198
:1017F00081E029960FB6F894DEBF0FBECDBFCF9122
:10180000DF910895CF92DF92EF92FF920F931F9393
:10181000CF93DF93EC016B01452BE1F08B818823A3
:10182000C9F088818823B1F40E9404117B018C01E6
:10183000CE0160E070E00E94E70B882359F40E941B
:1018400004116E197F09800B910B6E5E724080400F
:10185000904070F3F6016081693039F06930A0F092
:101860006A3041F06B3081F40AC06EE570E080E0D0
:1018700090E00EC06CEB70E080E090E009C067E79C
:1018800071E080E090E004C06EEE72E080E090E0F5
:101890000E941211DF91CF911F910F91FF90EF9055
:1018A000DF90CF900895CF93DF93EC018D819E81DF
:1018B0000E9422098D819E810E94FC088D819E815B
:1018C00064E448810E94BC088A81882339F0CE01F3
:1018D0002196BE0140E050E00E94020CDF91CF91C2
:1018E00008950F931F938A010E94810BC80168E03D
:1018F0000E94260820E0F8019085891709F421E06C
:10190000822F1F910F910895CF92DF92EF92FF9255
:101910000F931F93DF93CF93CDB7DEB729970FB601
:10192000F894DEBF0FBECDBF8C017B016E01089421
:10193000C11CD11CA6010E94710C882329F460E00F
:1019400070E08EEF92EC05C0C801B701A6010E94BD
:101950004E0A29960FB6F894DEBF0FBECDBFCF91C9
:10196000DF911F910F91FF90EF90DF90CF9008953E
:10197000DF93CF93CDB7DEB729970FB6F894DEBFCC
:101980000FBECDBF9C01FB0180818031D9F0C90120
:10199000AE014F5F5F4F0E94710C8823A9F08D81CB
:1019A0008F3371F0803418F48F3171F40BC08F35A0
:1019B00019F08F3749F402C08BE007C08CE005C0F6
:1019C0008AE003C089E001C080E029960FB6F89450
:1019D000DEBF0FBECDBFCF91DF910895CF92DF92D2
:1019E000EF92FF921F93DF93CF93CDB7DEB7299786
:1019F0000FB6F894DEBF0FBECDBF6C017B01142F74
:101A0000AE014F5F5F4F0E94710C8823E1F0F70138
:101A100080818031B9F01A3051F01A3050F01B300B
:101A200021F01C3031F48FE705C08FE503C08FE350
:101A300001C08FE18D83C601B701AE014F5F5F4FDB
:101A40000E94320B81E029960FB6F894DEBF0FBEDC
:101A5000CDBFCF91DF911F91FF90EF90DF90CF909E
:101A600008950F931F938B01CB0167E00E94260816
:101A700020E0F8019781891709F421E0822F1F9156
:101A80000F910895AF92BF92CF92DF92EF92FF92A3
:101A90000F931F93DF93CF93CDB7DEB761970FB648
:101AA000F894DEBF0FBECDBF7C01FC01858196811D
:101AB0000E941908F70114826E010894C11CD11C00
:101AC00079E0A72EB12CAC0EBD1E01E02BC0C701E2
:101AD000B6010E94310D882329F1F7018081882306
:101AE00041F4C701B6010E94060B882311F0F701EB
:101AF0000083C701B601A5010E94810BF701118186
:101B0000C701B6010E94B80C811718F4F701818152
:101B100004C0C701B6010E94B80CF701818384811B
:101B20008F5F8483F70185819681B6010E946D09DC
:101B3000882369F661960FB6F894DEBF0FBECDBF5D
:101B4000CF91DF911F910F91FF90EF90DF90CF9099
:101B5000BF90AF900895FC016683478381E084873E
:101B600008950F931F938C01FC01868160E00E9411
:101B7000460FF801868161E00E94850FF80110860A
:101B80001186128613861F910F910895CF92DF92CE
:101B9000EF92FF920F931F93CF93DF93EC018E810F
:101BA00061E00E94850F6AEF70E080E090E00E94A3
:101BB00012110E9404119B01AC0188859985AA85A8
:101BC000BB85281739074A075B0720F41886198652
:101BD0001A861B868C85882371F488859985AA8549
:101BE000BB85281B390B4A0B5B0B205D37404040FF
:101BF000504008F477C01C860E94041168877987DA
:101C00008A879B871C821B821A82198218828E8186
:101C100061E00E94460F8E8160E00E94850F64E1C2
:101C200070E080E090E00E941211F8948E8161E0F3
:101C30000E94850F88E290E00E946B118E8160E027
:101C40000E94460F81E0EE2400E010E00AC0F39409
:101C500081E090E00E946B112FEFF21629F40AC088
:101C6000892FFF24C82EDD248E810E94D90F8C1568
:101C70009D0569F38E810E94D90F982F8FEFF8167A
:101C8000C9F0043090F000FD10C08E2D8695869529
:101C90008695FE01E80FF11D8081880F808326E084
:101CA0002F1510F481608083E3940F5F1F4F05357B
:101CB0001105B1F6789487E28E1510F030E013C06C
:101CC00030E04C8150E02981888190E0820F911DA5
:101CD0002A81820F911D2B81820F911D90704817D0
:101CE000590709F431E0832FDF91CF911F910F91B4
:101CF000FF90EF90DF90CF900895EF92FF920F93B7
:101D00001F93CF93DF93EC010E94C60D8823A9F1A6
:101D10008F818B3031F08B3080F18551823068F5C6
:101D200007C0688170E080E090E00E94691622C0E0
:101D3000688170E080E090E00E94691620E030E069
:101D400040E853E40E941F177B018C01698170E019
:101D5000882777FD8095982F0E946B169B01AC0118
:101D6000C801B7010E94681520E030E040E251E46C
:101D70000E94D015E62F692F0AC088E793E06AE138
:101D800072E00E945115E0E070E080EC6FE72E2FCA
:101D9000372F482F562FB901CA01DF91CF911F91DC
:101DA0000F91FF90EF900895CF92DF92EF92FF9204
:101DB0000F931F93CF93DF93EC01C62E0E94C60DA5
:101DC000882309F450C08F818B3041F08B3008F4A8
:101DD0004AC08551823008F046C007C06A8170E071
:101DE00080E090E00E94691629C0DA806D2D70E0D5
:101DF0006F777070882777FD8095982F0E946B16FB
:101E000020E030E040E853E40E941F177B018C0182
:101E10006B8170E0882777FD8095982F0E946B1664
:101E20009B01AC01C801B7010E94681520E030E0B9
:101E300040E251E40E94D015D7FC9058CC20E9F044
:101E400020E030E040E151E40E941F1720E030E044
:101E500040EA50E40E94D01520E030E040E052E437
:101E60000E9468150AC088E793E06AE172E00E9468
:101E7000511560E070E080EC9FE7DF91CF911F91FA
:101E80000F91FF90EF90DF90CF900895CF93DF9365
:101E9000482F50E0CA0186569E4FFC0134914A57A4
:101EA0005E4FFA018491882369F190E0880F991FB1
:101EB000FC01E859FE4FA591B491FC01EE58FE4F8C
:101EC000C591D491662351F42FB7F8948C91932F38
:101ED000909589238C93888189230BC0623061F4AB
:101EE0002FB7F8948C91932F909589238C938881A8
:101EF000832B88832FBF06C09FB7F8948C91832BC8
:101F00008C939FBFDF91CF910895482F50E0CA0175
:101F100082559E4FFC012491CA0186569E4FFC01BA
:101F200094914A575E4FFA013491332309F440C02B
:101F3000222351F1233071F0243028F42130A1F014
:101F4000223011F514C02630B1F02730C1F0243012
:101F5000D9F404C0809180008F7703C08091800005
:101F60008F7D8093800010C084B58F7702C084B5C8
:101F70008F7D84BD09C08091B0008F7703C08091B0
:101F8000B0008F7D8093B000E32FF0E0EE0FFF1FD5
:101F9000EE58FE4FA591B4912FB7F894662321F423
:101FA0008C919095892302C08C91892B8C932FBFA3
:101FB0000895682F70E0CB0182559E4FFC0124915B
:101FC000CB0186569E4FFC0144916A577E4FFB0120
:101FD0009491992319F420E030E03CC0222351F180
:101FE000233071F0243028F42130A1F0223011F593
:101FF00014C02630B1F02730C1F02430D9F404C029
:10200000809180008F7703C0809180008F7D8093C6
:10201000800010C084B58F7702C084B58F7D84BDE9
:1020200009C08091B0008F7703C08091B0008F7D90
:102030008093B000892F90E0880F991F84589E4F9D
:10204000FC01A591B4918C9120E030E0842311F043
:1020500021E030E0C9010895823000F5E82FF0E07A
:10206000EE0FFF1FED51FD4F71836083882319F040
:102070008130A1F408C0809169008C7F842B80930B
:102080006900E89A089580916900440F551F440F34
:10209000551F837F842B80936900E99A08958230CD
:1020A00080F4882319F0813021F402C0E89801C03F
:1020B000E998E82FF0E0EE0FFF1FED51FD4F118280
:1020C000108208951F920F920FB60F9211242F9332
:1020D0003F934F935F936F937F938F939F93AF93B0
:1020E000BF93EF93FF938091E3029091E402892BD9
:1020F00029F0E091E302F091E4020995FF91EF915C
:10210000BF91AF919F918F917F916F915F914F910F
:102110003F912F910F900FBE0F901F9018951F9217
:102120000F920FB60F9211242F933F934F935F930B
:102130006F937F938F939F93AF93BF93EF93FF938F
:102140008091E5029091E602892B29F0E091E50269
:10215000F091E6020995FF91EF91BF91AF919F91A8
:102160008F917F916F915F914F913F912F910F9040
:102170000FBE0F901F9018951F920F920FB60F92DF
:1021800011242F933F938F939F93AF93BF9380918D
:10219000EB029091EC02A091ED02B091EE02309131
:1021A000EF020196A11DB11D232F2D5F2D3720F0C9
:1021B0002D570196A11DB11D2093EF028093EB02D4
:1021C0009093EC02A093ED02B093EE028091E702AF
:1021D0009091E802A091E902B091EA020196A11D56
:1021E000B11D8093E7029093E802A093E902B093B7
:1021F000EA02BF91AF919F918F913F912F910F90E4
:102200000FBE0F901F9018958FB7F8942091EB0296
:102210003091EC024091ED025091EE028FBFB90176
:10222000CA0108959B01AC017FB7F8948091E70241
:102230009091E802A091E902B091EA0266B5A89BEC
:1022400005C06F3F19F00196A11DB11D7FBFBA2FC8
:10225000A92F982F8827860F911DA11DB11D62E01F
:10226000880F991FAA1FBB1F6A95D1F7BC012DC00B
:10227000FFB7F8948091E7029091E802A091E902FB
:10228000B091EA02E6B5A89B05C0EF3F19F00196B0
:10229000A11DB11DFFBFBA2FA92F982F88278E0F20
:1022A000911DA11DB11DE2E0880F991FAA1FBB1F40
:1022B000EA95D1F7861B970B885E9340C8F22150B0
:1022C00030404040504068517C4F21153105410558
:1022D000510571F60895019739F0880F991F880FFD
:1022E000991F02970197F1F70895789484B5826059
:1022F00084BD84B5816084BD85B5826085BD85B5AA
:10230000816085BDEEE6F0E0808181608083E1E858
:10231000F0E0108280818260808380818160808390
:10232000E0E8F0E0808181608083E1EBF0E0808193
:1023300084608083E0EBF0E0808181608083EAE765
:10234000F0E08081846080838081826080838081EE
:10235000816080838081806880831092C1000895AD
:10236000982F8E3008F09E509770809125028295AC
:10237000880F880F807C892B80937C0080917A0065
:10238000806480937A0080917A0086FDFCCF209152
:10239000780040917900942F80E030E0282B392B91
:1023A000C901089508951F920F920FB60F9211243C
:1023B0002F933F934F938F939F93EF93FF9380912E
:1023C000C00082FD1DC04091C600209130033091B5
:1023D00031032F5F3F4F2F73307080913203909104
:1023E00033032817390771F0E0913003F09131037E
:1023F000E051FD4F4083309331032093300302C0FE
:102400008091C600FF91EF919F918F914F913F91E5
:102410002F910F900FBE0F901F901895E09184039D
:10242000F0918503E05CFF4F819191912081318192
:10243000821B930B8F739070892B11F00E94D21125
:1024400008951F920F920FB60F9211242F933F936E
:102450008F939F93EF93FF932091740330917503B3
:1024600080917603909177032817390731F4809192
:10247000C1008F7D8093C10014C0E0917603F0917C
:102480007703EC5CFC4F2081809176039091770379
:1024900001968F73907090937703809376032093C7
:1024A000C600FF91EF919F918F913F912F910F90D7
:1024B0000FBE0F901F901895AF92BF92DF92EF92D0
:1024C000FF920F931F93CF93DF93EC017A018B015F
:1024D000DD24403081EE580780E0680780E078070F
:1024E00011F0DD24D39491E0A92EB12CEC89FD8963
:1024F000DD2069F0C50108A002C0880F991F0A9469
:10250000E2F7808360E079E08DE390E005C010821F
:1025100060E874E88EE190E0A80197010E94A51799
:10252000215030404040504056954795379527956B
:1025300080E12030380720F0DD2011F0DD24D6CFF7
:10254000E889F9893083EA89FB89208319A2EE8919
:10255000FF89408121E030E0C9010C8C02C0880F66
:10256000991F0A94E2F7482B4083EE89FF89408146
:10257000C9010D8C02C0880F991F0A94E2F7482BFD
:102580004083EE89FF894081C9010E8C02C0880F0B
:10259000991F0A94E2F7482B4083EE89FF898081D6
:1025A0000F8C02C0220F331F0A94E2F720952823D4
:1025B0002083DF91CF911F910F91FF90EF90DF90DB
:1025C000BF90AF900895DC011C96ED91FC911D9792
:1025D000E05CFF4F2191319180819181281B390B63
:1025E0002F733070C9010895DC011C96ED91FC91A8
:1025F0001D97E05CFF4F20813181E054F040DF0106
:10260000AE5BBF4F8D919C9111972817390719F434
:102610002FEF3FEF07C08D919C91E80FF91F80814C
:10262000282F30E0C9010895DC011C96ED91FC9142
:102630001D97E05CFF4F20813181E054F040DF01C5
:10264000AE5BBF4F8D919C9111972817390719F4F4
:102650002FEF3FEF10C08D919C911197E80FF91F5C
:1026600020818D919C91119701968F739070119696
:102670009C938E9330E0C9010895DC0191968C9172
:102680009197882339F05496ED91FC91559780816C
:1026900086FFF9CF91961C920895CF93DF93EC01BA
:1026A000EE85FF85E05CFF4F20813181E054F040F2
:1026B0002F5F3F4F2F733070DF01AE5BBF4F8D91A7
:1026C0009C91119728173907D1F3E05CFF4F808167
:1026D0009181E054F040E80FF91F6083EE85FF859B
:1026E000E05CFF4F31832083EE89FF89208181E008
:1026F00090E00F8C02C0880F991F0A94E2F7282BF4
:10270000208381E089A3EC89FD89808180648083B6
:1027100081E090E0DF91CF91089581E008951092DB
:102720007B0310927A0388EE93E0A0E0B0E0809300
:102730007C0390937D03A0937E03B0937F038AE292
:1027400092E0909379038093780380EF92E09093E6
:1027500085038093840384E393E0909387038093BD
:10276000860385EC90E0909389038093880384EC42
:1027700090E090938B0380938A0380EC90E0909399
:102780008D0380938C0381EC90E090938F03809372
:102790008E0382EC90E0909391038093900386ECFB
:1027A00090E0909393038093920384E0809394034A
:1027B00083E08093950387E08093960385E0809380
:1027C000970381E0809398030895CF93DF930E944D
:1027D00075110E94AA02CEE0D2E10E945501209715
:1027E000E1F30E940E12F9CFCF92DF92EF92FF92A7
:1027F0000F931F93CF93DF937C016B018A01C0E09D
:10280000D0E00FC0D6016D916D01D701ED91FC9123
:102810000190F081E02DC7010995C80FD91F015023
:1028200010400115110571F7CE01DF91CF911F9175
:102830000F91FF90EF90DF90CF900895EF92FF926D
:102840000F931F938C01DC01ED91FC910190F081BD
:10285000E02D6DE009957C01D801ED91FC9101908E
:10286000F081E02DC8016AE009959C012E0D3F1D05
:10287000C9011F910F91FF90EF900895CF93DF93BF
:10288000EC016115710519F420E030E00FC0DB01A7
:102890000D900020E9F71197A61BB70BE881F9818D
:1028A0000280F381E02DAD0109959C01C901DF9102
:1028B000CF9108954F925F927F928F929F92AF92A5
:1028C000BF92CF92DF92EF92FF920F931F93DF930D
:1028D000CF93CDB7DEB7A1970FB6F894DEBF0FBE8A
:1028E000CDBF2C01742ECB01223008F42AE019A2AE
:1028F00031E2C32ED12CCC0EDD1E822E9924AA24C7
:10290000BB24672D752FA50194010E94A51779019D
:102910008A01C801B701A50194010E948617472DBD
:10292000461B0894C108D1084A3014F4405D01C028
:10293000495CF6014083E114F1040105110521F021
:102940007E2C5F2DC801DDCFC201B6010E943E146E
:10295000A1960FB6F894DEBF0FBECDBFCF91DF9129
:102960001F910F91FF90EF90DF90CF90BF90AF90AD
:102970009F908F907F905F904F900895DC0121157C
:10298000310541F4ED91FC910190F081E02D642F2F
:10299000099508950E945A140895EF92FF920F939B
:1029A0001F939A01E62EFF2400E010E0B801A70172
:1029B0000E94BE141F910F91FF90EF900895CF9247
:1029C000DF92EF92FF920F931F93CF93DF93EC016F
:1029D0006A017B012115310541F4E881F9810190FB
:1029E000F081E02D642F09951FC02A303105D1F404
:1029F00077FF17C0E881F9810190F081E02D6DE249
:102A000009958C0144275527BA014C195D096E09B7
:102A10007F09CE012AE00E945A149801280F391F1D
:102A200004C02AE00E945A149C01C901DF91CF9191
:102A30001F910F91FF90EF90DF90CF900895EF924C
:102A4000FF920F931F937B019A010027F7FC0095DB
:102A5000102FB801A7010E94DF141F910F91FF9062
:102A6000EF900895CF92DF92EF92FF920F931F9312
:102A70006C017B019A010027F7FC0095102FB8012B
:102A8000A7010E94DF148C01C6010E941E14080FCA
:102A9000191FC8011F910F91FF90EF90DF90CF9009
:102AA00008950E943E140895EF92FF920F931F9392
:102AB0007C010E943E148C01C7010E941E14080F65
:102AC000191FC8011F910F91FF90EF900895505862
:102AD000BB27AA270ED075C166D130F06BD120F08C
:102AE00031F49F3F11F41EF45BC10EF4E095E7FB57
:102AF00051C1E92F77D180F3BA17620773078407B2
:102B0000950718F071F49EF58FC10EF4E0950B2E29
:102B1000BA2FA02D0B01B90190010C01CA01A0012F
:102B20001124FF27591B99F0593F50F4503E68F18A
:102B30001A16F040A22F232F342F4427585FF3CFCB
:102B4000469537952795A795F0405395C9F77EF49C
:102B50001F16BA0B620B730B840BBAF09150A1F0E5
:102B6000FF0FBB1F661F771F881FC2F70EC0BA0F6B
:102B7000621F731F841F48F4879577956795B795F3
:102B8000F7959E3F08F0B3CF9395880F08F09927EB
:102B9000EE0F979587950895D9D008F481E00895B0
:102BA0000CD00FC107D140F0FED030F021F45F3FD0
:102BB00019F0F0C0511139C1F3C014D198F3992321
:102BC000C9F35523B1F3951B550BBB27AA276217F1
:102BD0007307840738F09F5F5F4F220F331F441F36
:102BE000AA1FA9F333D00E2E3AF0E0E830D091506E
:102BF0005040E695001CCAF729D0FE2F27D0660F5B
:102C0000771F881FBB1F261737074807AB07B0E899
:102C100009F0BB0B802DBF01FF2793585F4F2AF0AF
:102C20009E3F510568F0B6C000C15F3FECF3983E8F
:102C3000DCF3869577956795B795F7959F5FC9F70C
:102C4000880F911D9695879597F90895E1E0660F95
:102C5000771F881FBB1F621773078407BA0720F00E
:102C6000621B730B840BBA0BEE1F88F7E095089577
:102C700004D06894B111D9C00895BCD088F09F5792
:102C800090F0B92F9927B751A0F0D1F0660F771FB8
:102C9000881F991F1AF0BA95C9F712C0B13081F098
:102CA000C3D0B1E00895C0C0672F782F8827B85FE0
:102CB00039F0B93FCCF3869577956795B395D9F7F9
:102CC0003EF490958095709561957F4F8F4F9F4F03
:102CD0000895E89409C097FB3EF49095809570950F
:102CE00061957F4F8F4F9F4F9923A9F0F92F96E958
:102CF000BB279395F695879577956795B795F111CD
:102D0000F8CFFAF4BB0F11F460FF1BC06F5F7F4F69
:102D10008F4F9F4F16C0882311F096E911C077237B
:102D200021F09EE8872F762F05C0662371F096E884
:102D3000862F70E060E02AF09A95660F771F881F53
:102D4000DAF7880F9695879597F90895990F0008F7
:102D5000550FAA0BE0E8FEEF16161706E807F9076D
:102D6000C0F012161306E407F50798F0621B730B08
:102D7000840B950B39F40A2661F0232B242B252B89
:102D800021F408950A2609F4A140A6958FEF811D2C
:102D9000811D089597F99F6780E870E060E00895CD
:102DA0009FEF80EC089500240A9416161706180663
:102DB0000906089500240A9412161306140605063F
:102DC0000895092E0394000C11F4882352F0BB0FD0
:102DD00040F4BF2B11F460FF04C06F5F7F4F8F4F33
:102DE0009F4F089557FD9058440F551F59F05F3F6E
:102DF00071F04795880F97FB991F61F09F3F79F01D
:102E000087950895121613061406551FF2CF46959E
:102E1000F1DF08C0161617061806991FF1CF869520
:102E20007105610508940895E894BB276627772704
:102E3000CB0197F908958ADF08F48FEF08950BD03E
:102E4000C0CFB1DF28F0B6DF18F0952309F0A2CF8C
:102E5000A7CF1124EACFC6DFA0F3959FD1F3950F3A
:102E600050E0551F629FF001729FBB27F00DB11D0E
:102E7000639FAA27F00DB11DAA1F649F6627B00D9E
:102E8000A11D661F829F2227B00DA11D621F739F87
:102E9000B00DA11D621F839FA00D611D221F749F95
:102EA0003327A00D611D231F849F600D211D822FDC
:102EB000762F6A2F11249F5750408AF0E1F0882323
:102EC0004AF0EE0FFF1FBB1F661F771F881F915030
:102ED0005040A9F79E3F510570F05CCFA6CF5F3FF1
:102EE000ECF3983EDCF3869577956795B795F79563
:102EF000E7959F5FC1F7FE2B880F911D96958795EB
:102F000097F9089523DF880B990B0895629FD001EC
:102F1000739FF001829FE00DF11D649FE00DF11D94
:102F2000929FF00D839FF00D749FF00D659FF00D43
:102F30009927729FB00DE11DF91F639FB00DE11D30
:102F4000F91FBD01CF0111240895A1E21A2EAA1B79
:102F5000BB1BFD010DC0AA1FBB1FEE1FFF1FA21749
:102F6000B307E407F50720F0A21BB30BE40BF50B46
:102F7000661F771F881F991F1A9469F760957095CF
:102F8000809590959B01AC01BD01CF010895EE0F96
:0E2F9000FF1F0590F491E02D0994F894FFCFF7
:102F9E002000656D6F6E54482044485432322065CF
:102FAE0078616D706C65004F70656E456E65726709
:102FBE00794D6F6E69746F722E6F7267004E6F640B
:102FCE00653A200020467265713A20003433334D45
:102FDE00687A00204E6574776F726B3A2000556EDA
:102FEE0061626C6520746F2066696E642044533193
:102FFE00384232302054656D702053656E736F7297
:10300E000044657465637465642000204453313850
:10301E004232302E2E7573696E6720746869732084
:10302E00666F722074656D7065726174757265205D
:10303E0072656164696E6700202D20556E61626C49
:10304E006520746F2066696E6420444854323220C5
:10305E0053656E736F722E2E747279696E6720616E
:10306E0067696E00202D20556E61626C6520746F4D
:10307E002066696E642044485432322053656E7364
:10308E006F7220666F7220326E642074696D652EC9
:10309E002E676976696E6720757000446574656386
:1030AE00746564204448543232005265616420666F
:1030BE0061696C000401000000004D13F413E3126B
:0630CE001413F4123D137F
:00000001FF
