:100000000C94E3000C94E9100C9416110C940B0161
:100010000C940B010C940B010C94F7040C940B0141
:100020000C940B010C940B010C940B010C940B0120
:100030000C940B010C940B010C940B010C940B0110
:100040000C9443110C940B010C945A120C94A812AA
:100050000C940B010C940B010C940B010C940B01F0
:100060000C940B010C940B01005EBCE2613FDD833C
:10007000C29C7E20A3FD1F419DC3217FFCA2401E88
:100080005F01E3BD3E6082DC237D9FC1421CFEA078
:10009000E1BF5D0380DE3C62BEE0025CDF81633D68
:1000A0007C22C09E1D43A1FF4618FAA427799BC558
:1000B00084DA3866E5BB5907DB856739BAE4065848
:1000C0001947A5FB7826C49A653BD987045AB8E638
:1000D000A7F91B45C6987A24F8A6441A99C7257B28
:1000E0003A6486D85B05E7B98CD2306EEDB3510F18
:1000F0004E10F2AC2F7193CD114FADF3702ECC9208
:10010000D38D6F31B2EC0E50AFF1134DCE90722CF7
:100110006D33D18F0C52B0EE326C8ED0530DEFB1E7
:10012000F0AE4C1291CF2D73CA947628ABF51749D7
:100130000856B4EA6937D58B5709EBB536688AD4C7
:1001400095CB2977F4AA4816E9B7550B88D6346AB7
:100150002B7597C94A14F6A8742AC896154BA9F7A7
:10016000B6E80A54D7896B35000000002400270048
:100170002A0000000000250028002B0000000000DD
:1001800023002600290004040404040404040202D9
:100190000202020203030303030301020408102006
:1001A0004080010204081020010204081020000011
:1001B0000007000201000003040600000000000028
:1001C00000001601161411241FBECFEFD8E0DEBFC9
:1001D000CDBF12E0A0E0B1E0E6E5F2E302C0059099
:1001E0000D92A03BB107D9F714E0A0EBB2E001C03B
:1001F0001D92A631B107E1F711E0C6ECD1E004C0D1
:100200002297FE010E942519C23CD107C9F70E941E
:100210006C140C9429190C940000FB01DC0102C041
:1002200001900D9241505040D8F708950F931F93BD
:1002300080EB92E062E146E10E94320E0EEB12E0AA
:10024000C80163E10E948A0A8CEC92E0B8010E9426
:10025000C00A1F910F9108959F92AF92BF92CF92C3
:10026000DF92EF92FF920F931F933AE7C32ED12CA8
:10027000F60190802BE7E22EF12CF701A0800CE72D
:1002800010E0F801B0800E944208F6019082F70168
:10029000A082F801B0821F910F91FF90EF90DF9044
:1002A000CF90BF90AF909F900895EF92FF920F93E1
:1002B0001F938091DF02882311F58091BD0288236E
:1002C000F1F400E010E089E061E00E940C1068ECBD
:1002D00070E080E090E00E94991189E060E00E9467
:1002E0000C1068EC70E080E090E00E9499110F5FC4
:1002F0001F4F0431110539F7F8940E9425088091A9
:10030000DF02813009F06CC085E061E00E940C10D2
:1003100082E390E00E942C0100E010E00FC0B801E1
:1003200043E0660F771F4A95E1F765517D4F8CECEE
:1003300092E04BE00E94750D0F5F1F4F8091E90224
:100340009091EA020817190754F38CEC92E00E948E
:10035000DA0C87E791E00E942C018CEC92E06BEEC6
:1003600072E00E940B0D7B018C0185E060E00E9431
:100370000C10C801B70120E030E04AEF52E40E94BF
:10038000281788236CF5C801B70120E030E040E26F
:1003900052EC0E94771818161CF58091BD02882334
:1003A00079F4C801B70120E030E040E251E40E9456
:1003B0007B180E9494177093E1026093E00210C0D2
:1003C000813071F4C801B70120E030E040E251E42F
:1003D0000E947B180E9494177093E3026093E202DC
:1003E0008091BD02813009F043C086E061E00E9447
:1003F0000C1080ED97E00E942C0180EB92E00E94AF
:10040000040F20E030E040E251E40E947B180E949B
:1004100094177093E5026093E40280EB92E060E051
:100420000E945B0F7B018C0120E030E04AEA52E43D
:100430000E9428178823C4F4C801B70120E030E0E7
:1004400040E252EC0E947718181674F4C801B70104
:1004500020E030E040E251E40E947B180E949417B3
:100460007093E1026093E00286E060E00E940C106D
:1004700081E00E943712AA2797FDA095BA2FBC01F0
:10048000CD010E94C71727E031E244E05DE30E94FE
:100490007B180E9494177093E7026093E6028091A4
:1004A000E802813009F0BAC08091DF02882309F4A4
:1004B00044C084EF93E060E071E00E94C615809133
:1004C000BD028823C1F06091E2027091E3028827A7
:1004D00077FD8095982F0E94C71720E030E040E21A
:1004E00051E40E942C17AB01BC0184EF93E022E0A1
:1004F00030E00E94AD168091BD028823C1F4609166
:10050000E0027091E102882777FD8095982F0E9484
:10051000C71720E030E040E251E40E942C17AB0105
:10052000BC0184EF93E022E030E00E94AD1684EF3E
:1005300093E066E171E00E94C6158091BD028823B8
:1005400009F442C084EF93E06AE171E00E94C615AD
:100550006091E0027091E102882777FD8095982FE5
:100560000E94C71720E030E040E251E40E942C17BF
:10057000AB01BC0184EF93E022E030E00E94AD16B5
:1005800084EF93E06EE271E00E94C6156091E40290
:100590007091E502882777FD8095982F0E94C717F4
:1005A00020E030E040E251E40E942C17AB01BC0196
:1005B00084EF93E022E030E00E94AD1684EF93E0F8
:1005C00062E471E00E94C61584EF93E066E471E096
:1005D0000E94C6156091E6027091E702882777FDB8
:1005E0008095982F0E94C71720E030E040E251E448
:1005F0000E942C17AB01BC0184EF93E022E030E0B5
:100600000E94AD1684EF93E068E571E00E94B01699
:1006100064E670E080E090E00E94991180916400AF
:100620008B7F809364008FEF0E941A0780E060EE5A
:1006300072E048E00E94450782E00E94FD0680E0EB
:100640000E941A0780916400846080936400109176
:100650007A0000917B00F0907C0080E69AEE0E9488
:10066000420810937A0000937B00F0927C001F9167
:100670000F91FF90EF900895AF92BF92CF92DF92CB
:10068000EF92FF920F931F93CF93DF9389E061E086
:100690000E94CD0F89E061E00E940C1083E162E0CE
:1006A00042ED0E949207C0E0D0E0D093E102C093F7
:1006B000E00280E060EE72E048E00E94450764E6F8
:1006C00070E080E090E00E9499112196CA30D10537
:1006D00061F782E00E94FD061092E1021092E002B2
:1006E00080E00E941A0784EF93E00E94141488238C
:1006F00021F081E08093E80202C01092E80280912C
:10070000E802813009F042C084EF93E040E855E20E
:1007100060E070E00E94E31284EF93E06AE571E02C
:100720000E94B01684EF93E061E671E00E94B0167B
:1007300084EF93E067E771E00E94C61584EF93E0D1
:1007400063E170E04AE050E00E94941584EF93E08A
:100750006EE771E00E94C61584EF93E066E871E0F1
:100760000E94C61584EF93E06DE871E00E94C61503
:1007700084EF93E062ED70E04AE050E00E94A7153C
:1007800064E670E080E090E00E94991186E061E00C
:100790000E94CD0F85E061E00E94CD0F81E060E016
:1007A0000E94CD0F86E060E00E940C1080B7806848
:1007B00080BF8091E802882329F4809164008260E0
:1007C00080936400809164008068809364008091CD
:1007D00064008860809364008091640084608093EA
:1007E000640086E061E00E940C1080ED97E00E94BA
:1007F0002C0180EB92E00E94380E80EB92E00E9488
:10080000040F5B016C0180EB92E060E00E945B0FE3
:100810007B018C0186E060E00E940C10C801B701EA
:10082000A80197010E94DE18882349F4C601B5018A
:10083000A60195010E94DE18882309F4C3C08091A7
:10084000E802813031F484EF93E068E971E00E94BE
:10085000B01664E670E080E090E00E9499118CEDA3
:1008600095E00E94420880EB92E00E94040F7B0119
:100870008C0180EB92E060E00E945B0F9B01AC0179
:100880000E94DE18882341F4C801B701A80197012E
:100890000E94DE18882399F08091E802813031F4BB
:1008A00084EF93E064EC71E00E94B0161092BD02F8
:1008B00006C084EF93E06BEF71E00E94B01685E014
:1008C00061E00E940C1062E370E080E090E00E9422
:1008D00099118CEC92E00E94C90D8CEC92E060E0E2
:1008E0000E94D20A8CEC92E00E94CF0A8093E90227
:1008F0001092EA0210E0612F70E08091E90290917D
:10090000EA02681779070CF066C053E0660F771F9C
:100910005A95E1F765517D4F8EEB92E00E94F40904
:10092000882309F458C01F5FE6CF8091E802813028
:1009300031F484EF93E061E272E00E94B01610920D
:10094000DF0227C081E08093DF028091E8028130DE
:1009500031F484EF93E065E372E00E94C615609184
:10096000E9027091EA0284EF93E04AE050E00E94CD
:10097000941584EF93E06FE372E00E94B0168091CB
:10098000BD02813031F484EF93E068E472E00E94AC
:10099000B0168091E802813031F468EC70E080E0BC
:1009A00090E00E94991189E060E00E940C10DF91B4
:1009B000CF911F910F91FF90EF90DF90CF90BF905C
:1009C000AF90089581E08093BD028091E80281306C
:1009D00009F075CF6ECF85E060E00E940C10809129
:1009E000E9029091EA02892B09F49FCFABCF1F92C5
:1009F0000F920FB60F9211242F933F934F935F9353
:100A00006F937F938F939F93AF93BF93EF93FF93D6
:100A10000E949A08FF91EF91BF91AF919F918F91A2
:100A20007F916F915F914F913F912F910F900FBEEA
:100A30000F901F901895782F8CB581608CBD6BB18D
:100A400021E030E040E050E000909D0204C0220F21
:100A5000331F441F551F0A94D2F7522F822F8095BF
:100A600086238BB99EBD0DB407FEFDCF8EB57EBD2E
:100A70000DB407FEFDCF4EB5382F20E08BB1582BBB
:100A80005BB98CB58E7F8CBD50E0422B532BCA01D5
:100A90000895E9980E941B05E99A089580E090E086
:100AA0000E941B0580915B03853009F054C080E0F3
:100AB00090EB0E941B05282F80915D03882371F421
:100AC00090915C03992351F080915D03E82FF0E051
:100AD000E35FFC4F90838F5F80935D0380915D03A4
:100AE000E82FF0E0E35FFC4F20838F5F80935D038E
:100AF00080910B0390910C038227282F22952827A1
:100B0000022E269526952025022E26952025277033
:100B1000082E892F269507942795902D82270694D5
:100B200027959025822790930C0380930B03809147
:100B30000F0320915D0390E0049630E08217930745
:100B40002CF080915D03873408F46DC08DE092E84D
:100B50000E941B05089580915B0387FF2EC0E091E2
:100B60000F0380915B038F5F80935B038150ED5F88
:100B7000E80FF0E0E35FFC4FE08180910B03909180
:100B80000C038E27282F22952827022E269526959E
:100B90002025022E269520252770082E892F2695A0
:100BA00007942795902D82270694279590258227D4
:100BB00090930C0380930B0330C080915B038F5F95
:100BC00080935B038150833019F184302CF48823A7
:100BD00099F0813009F516C0893019F08A30E1F4B6
:100BE00002C0EDE21AC0E0915C0390910F038EEF1A
:100BF000891B80935B0311C080910B0390910C03C0
:100C0000E82F0BC080910B0390910C03E92F05C0D6
:100C10008DE092E80E941B05EAEA8E2F90E080505A
:100C200098440E941B05089580915B03853009F06C
:100C300042C080910F0320915D0390E0049630E064
:100C40008217930724F080915D038734A0F184E03C
:100C500080935B0380910F03833430F081E090E058
:100C600090930C0380930B0380910E0386FF12C0B8
:100C700080915A03282F30E0C9018F7190704F97EF
:100C800049F080910E0390E0822793278F71907036
:100C9000892B89F480910B0390910C03892B09F027
:100CA00044C0E0915803F0915903309709F43DC0D6
:100CB00080E0099546C080915B03843011F080E0AC
:100CC000089510920F0380910F0380935D038FEFBF
:100CD0009FEF90930C0380930B0320915C032223DE
:100CE000D9F08227282F22952827022E269526958F
:100CF0002025022E269520252770082E892F26953F
:100D000007942795902D8227069427959025822772
:100D100090930C0380930B0385E080935B038DED30
:100D200092E80E941B0580E008958FEF9FEFAFEFE0
:100D3000BFEF8093540390935503A0935603B09351
:100D4000570381E0089580915B03853099F4809189
:100D50005D03882379F480E090E00E94490590FDCE
:100D600009C08DE092E80E94490584E080935B030E
:100D700081E0089580E00895982F86FD05C0907E5B
:100D800080915A038F71980F90930E03E09158034E
:100D9000F0915903309711F081E009958FEF9FEFA3
:100DA00090930C0380930B0380910B0390910C03A1
:100DB00020915C038227282F22952827022E269532
:100DC00026952025022E269520252770082E892F6E
:100DD000269507942795902D822706942795902590
:100DE000822790930C0380930B0386E080935B0330
:100DF0008DE392E80E941B050895282F16C0222338
:100E0000A1F093B7233011F484E005C0223011F033
:100E100080E001C08CE0917F892B83BF83B7816024
:100E200083BF889583B78E7F83BF80915B038430B7
:100E300031F708951F93182F87FF03C08DE092E8C4
:100E40000EC0992787FD9095956E0E94490585E013
:100E500092E80E944905112321F087E092E80E9460
:100E6000490584E080935B031F9108951F93182F19
:100E700040930F0320E133E0C90150E00E940D01CF
:100E8000812F0E94BC061F9108950F931F93CF934B
:100E9000DF93182FEB01042F02C00E9414060E945A
:100EA000A3068823D1F3812FBE01402F0E9436076D
:100EB000DF91CF911F910F9108952BB181E090E0C8
:100EC000A0E0B0E000909D0204C0880F991FAA1F07
:100ED000BB1F0A94D2F7282B2BB92AB1822B8AB9CF
:100EE0008AE061E00E940C108AE061E00E94CD0F70
:100EF0008BE061E00E94CD0F8CE060E00E94CD0F9E
:100F00008DE061E00E94CD0F80E58CBD8DB58160E4
:100F10008DBD83E060E00E94CD0F83E061E00E9420
:100F20000C1008951F93162F80935A0340935C036F
:100F30000E945D0780E090E00E941B0585E092E83A
:100F40000E941B0580E098EB02C080E090E00E94C8
:100F50001B0583E00E946010892BB9F3812F90E07C
:100F600074E0880F991F7A95E1F7876C90680E946A
:100F70001B0580E496EA0E941B0586E096EC0E9421
:100F80001B0582EA90E90E941B058CEA92EC0E9404
:100F90001B0510915C03112341F083E89AEC0E9439
:100FA0001B05812F90E09E6C06C08BE89AEC0E9496
:100FB0001B058DE29EEC0E941B0583E894EC0E94C9
:100FC0001B0580E598E90E941B0587E79CEC0E94C1
:100FD0001B0580E090EE0E941B0580E098EC0E94CB
:100FE0001B0589E490EC0E941B0584E080935B0361
:100FF00080915A0390E08F719070892B41F081E0CD
:101000006EE475E040E050E00E94B31003C081E060
:101010000E94D61080915A031F910895982F83FF44
:1010200002C088E2982797FF02C090E001C0906458
:1010300084B7877F84BFF894809160008861809333
:1010400060009093600078940895EAE7F0E0908162
:1010500080818F77808383B7817F846083BFF8949A
:1010600083B7816083BF85B7806685BF85B78F7979
:10107000806485BF7894889583B78E7F83BF909373
:101080007A000895CF92DF92EF92FF921F93CF9351
:10109000DF937C01EC0158E0C52ED12C20C01F5FEE
:1010A000193029F09695879580329105C0F71092F6
:1010B0005E03812F0E940E080E9425088FEF0E9478
:1010C0000E08960102C0220F331F1A95E2F7C21BC9
:1010D000D30B80915E03882351F0C21BD30BC03128
:1010E000D10510F461E004C0CE0110E0DDCF60E076
:1010F00020916703309168034091690350916A031E
:10110000EC1AFD0AC701A0E0B0E0820F931FA41FF4
:10111000B51F8093670390936803A0936903B0930E
:101120006A03862FDF91CF911F91FF90EF90DF90A0
:10113000CF90089580915E038F5F80935E03089542
:10114000FC0113861586148687E090E0128631979D
:10115000009711F00197FACF0895DC0180E00BC0F1
:10116000E82FF0E08D9190E0E827F927E859FF4F4C
:10117000E49161508E2F662399F70895DF92EF92E4
:10118000FF920F931F93FC01E08001811281F8947C
:10119000F80181818E2981838281DE2CD0948D217A
:1011A000828383E090E00E94F211F80181818D2119
:1011B00081838AE090E00E94F211F8010081789426
:1011C00085E390E00E94F21180E010E0FF240E2100
:1011D0001F21012B09F081E01F910F91FF90EF90EB
:1011E000DF900895EF92FF920F931F93CF93DF93B9
:1011F0007C0101E010E0C0E0D0E0C7010E94BE0821
:101200008111102B000F2196C830D105B1F7812F25
:10121000DF91CF911F910F91FF90EF9008951F9351
:10122000CF93DF93FC011081C181D281912F9095E2
:1012300060FF12C0F8948A8189238A838981812B77
:1012400089838AE090E00E94F2118A81812B8A834F
:10125000789487E390E011C0F8948A8189238A8387
:101260008981812B898381E490E00E94F2118A8137
:10127000812B8A83789485E090E00E94F211DF91BF
:10128000CF911F910895CF92DF92EF92FF920F932B
:101290001F93CF93DF938C01E42EFF24F394C0E0DF
:1012A000D0E0C62EDD2460E08F2D90E08C219D21C2
:1012B000892B09F061E0C8010E940F09FF0C2196FB
:1012C000C830D10581F7EE20A9F4F894D801119621
:1012D000ED91FC91129791818C9180959823918347
:1012E0001196ED91FC91129792818C9180959823A3
:1012F00092837894DF91CF911F910F91FF90EF909F
:10130000DF90CF9008956CEC40E00E94430908956F
:10131000EF92FF920F931F93CF93DF938C017B018A
:1013200065E540E00E944309C0E0D0E0F701EC0F22
:10133000FD1FC801608140E00E9443092196C8302A
:10134000D105A1F7DF91CF911F910F91FF90EF9001
:101350000895DF92EF92FF920F931F93CF93DF9345
:10136000FC010081C181D281F8948981D02ED09472
:101370008D21898378941DE7E02EFF24115059F1C7
:1013800082E090E00E94F211888190E08E219F21FE
:10139000892BA1F3F8948A818D218A838981802BFE
:1013A0008983789484EF91E00E94F211F894898106
:1013B0008D21898380E590E00E94F211888110E000
:1013C00090E0E822F922EF2809F411E0789484EA09
:1013D00091E00E94F211812FDF91CF911F910F9127
:1013E000FF90EF90DF900895AF92BF92DF92EF925F
:1013F000FF920F931F93CF93DF93EC015B018D85D9
:10140000882309F061C0CE010E94A909882329F42C
:101410001B861D861C8690E06BC0CE0160EF40E00D
:101420000E94430901E0DD24EE24FF24F394CE0161
:101430000E94BE08182FCE010E94BE08113019F478
:101440008130E1F439C0181709F58B85081770F45D
:1014500060E0FE01EE0DF11D838190E02F2D30E064
:1014600082239323181619064CF003C060E0081776
:1014700029F0093008F04CC00C874AC0FE01EE0D7F
:10148000F11D83818F29838361E009C0612FFE01F3
:10149000EE0DF11D9F2D9095838189238383CE01CD
:1014A0000E940F090F5FFF0C19F4E394FF24F394DB
:1014B00087E08E1508F0BBCF013430F0DB86DD20ED
:1014C00011F581E08D871FC01B861D861C8690E06C
:1014D000DE0120E030E0F501E20FF31F13968C915E
:1014E000139780832F5F3F4F11962830310599F76E
:1014F000892FDF91CF911F910F91FF90EF90DF9097
:10150000BF90AF9008958B818823F1F291E0E0CFF6
:10151000D02EBDCFFF920F931F938C01F62E862FF6
:1015200060E00E94CD0F8F2D90E0FC01E656FE4F4B
:10153000E491D801EC938A579E4FFC016491E62F09
:10154000F0E0EE0FFF1FE458FE4F85919491129644
:101550009C938E9311971B961C921B971D961C9221
:101560001D971C961C92F80187E090E01286319737
:10157000009711F00197FACF1F910F91FF900895F6
:10158000FC018CE89BE0928B818B768365831482CF
:10159000108289E0818381E0828383830895FC0146
:1015A00084810895FC01628308956F927F928F92E7
:1015B0009F92AF92BF92CF92DF92EF92FF920F93E2
:1015C0001F93CF93DF93FB01EA01998180E028818B
:1015D00030E0282B392BE081E23231F0E83221F083
:1015E000E03109F084C04BC04C814F3329F14034C5
:1015F00020F44F3109F07BC02FC04F3579F04F37C1
:1016000009F075C0B901882777FD8095982F0E9451
:10161000C71720E030E040E85DE32EC03595279500
:10162000B901882777FD8095982F0E94C71720E081
:1016300030E040E05EE320C035952795359527954D
:10164000B901882777FD8095982F0E94C71720E061
:1016500030E040E85EE310C093E0359527959A9519
:10166000E1F7B901882777FD8095982F0E94C71769
:1016700020E030E040E05FE30E947B1832C0EF8062
:1016800035952795B901882777FD8095982F0E9479
:10169000C71720E030E040E85EE30E94C3163B013C
:1016A0004C016E2D70E02E81621B7109882777FD39
:1016B0008095982F0E94C7175B016C01FF2400E002
:1016C00010E0C801B7010E94C5179B01AC01C6011B
:1016D000B5010E942C179B01AC01C401B3010E940B
:1016E000C4169B01AC01832F942F752F00C0262FA9
:1016F000382F492F572FB901CA01DF91CF911F9180
:101700000F91FF90EF90DF90CF90BF90AF909F90A0
:101710008F907F906F9008950895EF92FF920F93AE
:101720001F938C017B01FC01858196810E94A90990
:10173000F80185819681B7010E948809F8018581A9
:10174000968164EB40E00E944309F801858196810F
:101750000E94BE08F82EF801858196810E94A90991
:1017600080E0FF2009F481E01F910F91FF90EF903E
:101770000895EF92FF920F931F93CF93DF93EC01A5
:101780008B017A018D819E810E94A9098D819E81A4
:10179000B8010E9488098D819E816EE440E00E941C
:1017A00043098D819E81F701628140E00E944309D7
:1017B0008D819E81F701638140E00E944309F80119
:1017C0008081803139F08D819E81F701648140E014
:1017D0000E9443098D819E810E94A9098D819E816D
:1017E00068E448810E9443098881882331F06AE0D7
:1017F00070E080E090E00E9499118D819E810E94AE
:10180000A909DF91CF911F910F91FF90EF9008955B
:10181000CF92DF92EF92FF920F931F938C016B0197
:101820007A01FC01858196810E94A909F8018581D0
:101830009681B6010E948809F801858196816EEB38
:1018400040E00E944309F801858196810E94F208D8
:10185000F7018083F801858196810E94F208F701E3
:101860008183F801858196810E94F208F7018283C5
:10187000F801858196810E94F208F7018383F801BF
:10188000858196810E94F208F7018483F8018581A1
:1018900096810E94F208F7018583F801858196817F
:1018A0000E94F208F7018683F801858196810E94E3
:1018B000F208F7018783F801858196810E94F2087A
:1018C000F7018087F801858196810E94A9091F91FF
:1018D0000F91FF90EF90DF90CF900895DF93CF931B
:1018E000CDB7DEB729970FB6F894DEBF0FBECDBFD8
:1018F000AE014F5F5F4F0E94080C8981811181E02A
:1019000029960FB6F894DEBF0FBECDBFCF91DF9101
:101910000895CF92DF92EF92FF920F931F93CF9390
:10192000DF93EC016B01452BE1F08B818823C9F03B
:1019300088818823B1F40E948B117B018C01CE0138
:1019400060E070E00E946E0C882359F40E948B11B5
:101950006E197F09800B910B6E5E72408040904043
:1019600070F3F6016081693039F06930A0F06A30B7
:1019700041F06B3081F40AC06EE570E080E090E0E9
:101980000EC06CEB70E080E090E009C067E771E0AA
:1019900080E090E004C06EEE72E080E090E00E9493
:1019A0009911DF91CF911F910F91FF90EF90DF90F0
:1019B000CF900895CF93DF93EC018D819E810E949B
:1019C000A9098D819E810E9483098D819E8164E495
:1019D00048810E9443098A81882339F0CE012196EB
:1019E000BE0140E050E00E94890CDF91CF91089544
:1019F0000F931F938A010E94080CC80168E00E949F
:101A0000AD0820E0F8019085891709F421E0822FC4
:101A10001F910F910895CF92DF92EF92FF920F9353
:101A20001F93DF93CF93CDB7DEB729970FB6F89406
:101A3000DEBF0FBECDBF8C017B016E010894C11CBF
:101A4000D11CA6010E94F80C882329F460E070E004
:101A50008EEF92EC05C0C801B701A6010E94D50A1D
:101A600029960FB6F894DEBF0FBECDBFCF91DF91A0
:101A70001F910F91FF90EF90DF90CF900895DF932B
:101A8000CF93CDB7DEB729970FB6F894DEBF0FBE60
:101A9000CDBF9C01FB0180818031D9F0C901AE012D
:101AA0004F5F5F4F0E94F80C8823A9F08D818F3320
:101AB00071F0803418F48F3171F40BC08F3519F048
:101AC0008F3749F402C08BE007C08CE005C08AE084
:101AD00003C089E001C080E029960FB6F894DEBF0C
:101AE0000FBECDBFCF91DF910895CF92DF92EF92DD
:101AF000FF921F93DF93CF93CDB7DEB729970FB631
:101B0000F894DEBF0FBECDBF6C017B01142FAE0178
:101B10004F5F5F4F0E94F80C8823E1F0F70180814E
:101B20008031B9F01A3051F01A3050F01B3021F0EA
:101B30001C3031F48FE705C08FE503C08FE301C08F
:101B40008FE18D83C601B701AE014F5F5F4F0E94E9
:101B5000B90B81E029960FB6F894DEBF0FBECDBF5A
:101B6000CF91DF911F91FF90EF90DF90CF9008957C
:101B70000F931F938B01CB0167E00E94AD0820E01B
:101B8000F8019781891709F421E0822F1F910F91A5
:101B90000895AF92BF92CF92DF92EF92FF920F9390
:101BA0001F93DF93CF93CDB7DEB761970FB6F8944D
:101BB000DEBF0FBECDBF7C01FC01858196810E94F6
:101BC000A008F70114826E010894C11CD11C79E0B1
:101BD000A72EB12CAC0EBD1E01E02BC0C701B60173
:101BE0000E94B80D882329F1F7018081882341F4F0
:101BF000C701B6010E948D0B882311F0F701008305
:101C0000C701B601A5010E94080CF7011181C701A7
:101C1000B6010E943F0D811718F4F701818104C0BD
:101C2000C701B6010E943F0DF701818384818F5F58
:101C30008483F70185819681B6010E94F409882387
:101C400069F661960FB6F894DEBF0FBECDBFCF9197
:101C5000DF911F910F91FF90EF90DF90CF90BF9099
:101C6000AF900895FC016683478381E084870895DF
:101C70000F931F938C01FC01868160E00E94CD0FC1
:101C8000F801868161E00E940C10F801108611862F
:101C9000128613861F910F910895CF92DF92EF92D3
:101CA000FF920F931F93CF93DF93EC018E8161E03E
:101CB0000E940C106AEF70E080E090E00E949911A1
:101CC0000E948B119B01AC0188859985AA85BB85F3
:101CD000281739074A075B0720F4188619861A86E1
:101CE0001B868C85882371F488859985AA85BB8598
:101CF000281B390B4A0B5B0B205D3740404050409E
:101D000008F477C01C860E948B11688779878A87C0
:101D10009B871C821B821A82198218828E8161E045
:101D20000E94CD0F8E8160E00E940C1064E170E093
:101D300080E090E00E949911F8948E8161E00E9409
:101D40000C1088E290E00E94F2118E8160E00E9407
:101D5000CD0F81E0EE2400E010E00AC0F39481E0B2
:101D600090E00E94F2112FEFF21629F40AC0892F99
:101D7000FF24C82EDD248E810E9460108C159D05E5
:101D800069F38E810E946010982F8FEFF816C9F0CA
:101D9000043090F000FD10C08E2D869586958695B6
:101DA000FE01E80FF11D8081880F808326E02F154A
:101DB00010F481608083E3940F5F1F4F0535110598
:101DC000B1F6789487E28E1510F030E013C030E061
:101DD0004C8150E02981888190E0820F911D2A81F9
:101DE000820F911D2B81820F911D9070481759070A
:101DF00009F431E0832FDF91CF911F910F91FF9074
:101E0000EF90DF90CF900895EF92FF920F931F9382
:101E1000CF93DF93EC010E944D0E8823A9F18F81AF
:101E20008B3031F08B3080F18551823068F507C0FE
:101E3000688170E080E090E00E94C51722C0688150
:101E400070E080E090E00E94C51720E030E040E8BC
:101E500053E40E947B187B018C01698170E0882724
:101E600077FD8095982F0E94C7179B01AC01C80190
:101E7000B7010E94C41620E030E040E251E40E9425
:101E80002C17E62F692F0AC084EF93E065E872E013
:101E90000E94C615E0E070E080EC6FE72E2F372F30
:101EA000482F562FB901CA01DF91CF911F910F9191
:101EB000FF90EF900895CF92DF92EF92FF920F93F1
:101EC0001F93CF93DF93EC01C62E0E944D0E882303
:101ED00009F450C08F818B3041F08B3008F44AC038
:101EE0008551823008F046C007C06A8170E080E00A
:101EF00090E00E94C51729C0DA806D2D70E06F77E1
:101F00007070882777FD8095982F0E94C71720E072
:101F100030E040E853E40E947B187B018C016B8128
:101F200070E0882777FD8095982F0E94C7179B0146
:101F3000AC01C801B7010E94C41620E030E040E2C5
:101F400051E40E942C17D7FC9058CC20E9F020E0F7
:101F500030E040E151E40E947B1820E030E040EAAC
:101F600050E40E942C1720E030E040E052E40E9450
:101F7000C4160AC084EF93E065E872E00E94C615BB
:101F800060E070E080EC9FE7DF91CF911F910F91AF
:101F9000FF90EF90DF90CF900895CF93DF93482F7D
:101FA00050E0CA0186569E4FFC0134914A575E4F5D
:101FB000FA018491882369F190E0880F991FFC0150
:101FC000E859FE4FA591B491FC01EE58FE4FC59122
:101FD000D491662351F42FB7F8948C91932F909558
:101FE00089238C93888189230BC0623061F42FB7D9
:101FF000F8948C91932F909589238C938881832BCF
:1020000088832FBF06C09FB7F8948C91832B8C9345
:102010009FBFDF91CF910895482F50E0CA018255AC
:102020009E4FFC012491CA0186569E4FFC0194915B
:102030004A575E4FFA013491332309F440C02223FA
:1020400051F1233071F0243028F42130A1F02230F6
:1020500011F514C02630B1F02730C1F02430D9F486
:1020600004C0809180008F7703C0809180008F7DB5
:102070008093800010C084B58F7702C084B58F7DB7
:1020800084BD09C08091B0008F7703C08091B000FB
:102090008F7D8093B000E32FF0E0EE0FFF1FEE582E
:1020A000FE4FA591B4912FB7F894662321F48C913B
:1020B0009095892302C08C91892B8C932FBF089512
:1020C000682F70E0CB0182559E4FFC012491CB011B
:1020D00086569E4FFC0144916A577E4FFB019491B6
:1020E000992319F420E030E03CC0222351F1233041
:1020F00071F0243028F42130A1F0223011F514C001
:102100002630B1F02730C1F02430D9F404C08091DA
:1021100080008F7703C0809180008F7D8093800046
:1021200010C084B58F7702C084B58F7D84BD09C08F
:102130008091B0008F7703C08091B0008F7D809335
:10214000B000892F90E0880F991F84589E4FFC01A2
:10215000A591B4918C9120E030E0842311F021E02E
:1021600030E0C9010895823000F5E82FF0E0EE0F6D
:10217000FF1FE15AFC4F71836083882319F081307F
:10218000A1F408C0809169008C7F842B8093690042
:10219000E89A089580916900440F551F440F551F18
:1021A000837F842B80936900E99A0895823080F4BC
:1021B000882319F0813021F402C0E89801C0E99821
:1021C000E82FF0E0EE0FFF1FE15AFC4F1182108262
:1021D00008951F920F920FB60F9211242F933F93E1
:1021E0004F935F936F937F938F939F93AF93BF931F
:1021F000EF93FF9380915F0390916003892B29F007
:10220000E0915F03F09160030995FF91EF91BF9119
:10221000AF919F918F917F916F915F914F913F917E
:102220002F910F900FBE0F901F9018951F920F9235
:102230000FB60F9211242F933F934F935F936F9399
:102240007F938F939F93AF93BF93EF93FF9380916F
:10225000610390916203892B29F0E0916103F09171
:1022600062030995FF91EF91BF91AF919F918F917B
:102270007F916F915F914F913F912F910F900FBE82
:102280000F901F9018951F920F920FB60F92112466
:102290002F933F938F939F93AF93BF938091670347
:1022A00090916803A0916903B0916A0330916B0328
:1022B0000196A11DB11D232F2D5F2D3720F02D5725
:1022C0000196A11DB11D20936B038093670390932A
:1022D0006803A0936903B0936A03809163039091AC
:1022E0006403A0916503B09166030196A11DB11D21
:1022F0008093630390936403A0936503B093660394
:10230000BF91AF919F918F913F912F910F900FBEF1
:102310000F901F9018958FB7F89420916703309114
:1023200068034091690350916A038FBFB901CA01E4
:1023300008959B01AC017FB7F8948091630390915D
:102340006403A0916503B091660366B5A89B05C0C0
:102350006F3F19F00196A11DB11D7FBFBA2FA92FA4
:10236000982F8827860F911DA11DB11D62E0880F4F
:10237000991FAA1FBB1F6A95D1F7BC012DC0FFB7DB
:10238000F8948091630390916403A0916503B091E8
:102390006603E6B5A89B05C0EF3F19F00196A11DA5
:1023A000B11DFFBFBA2FA92F982F88278E0F911D1F
:1023B000A11DB11DE2E0880F991FAA1FBB1FEA955E
:1023C000D1F7861B970B885E9340C8F221503040AE
:1023D0004040504068517C4F211531054105510561
:1023E00071F60895019739F0880F991F880F991F8A
:1023F00002970197F1F70895789484B5826084BDBF
:1024000084B5816084BD85B5826085BD85B58160F8
:1024100085BDEEE6F0E0808181608083E1E8F0E058
:102420001082808182608083808181608083E0E887
:10243000F0E0808181608083E1EBF0E08081846066
:102440008083E0EBF0E0808181608083EAE7F0E068
:1024500080818460808380818260808380818160CC
:1024600080838081806880831092C1000895982FB6
:102470008E3008F09E50977080919E028295880F52
:10248000880F807C892B80937C0080917A00806407
:1024900080937A0080917A0086FDFCCF20917800AD
:1024A00040917900942F80E030E0282B392BC9012E
:1024B000089508951F920F920FB60F9211242F9333
:1024C0003F934F938F939F93EF93FF938091C0001F
:1024D00082FD1DC04091C6002091AC033091AD0338
:1024E0002F5F3F4F2F7330708091AE039091AF03F9
:1024F0002817390771F0E091AC03F091AD03E4596E
:10250000FC4F40833093AD032093AC0302C0809115
:10251000C600FF91EF919F918F914F913F912F9125
:102520000F900FBE0F901F901895E0910004F0914E
:102530000104E05CFF4F8191919120813181821BE8
:10254000930B8F739070892B11F00E94591208958C
:102550001F920F920FB60F9211242F933F938F93D8
:102560009F93EF93FF932091F0033091F1038091BB
:10257000F2039091F3032817390731F48091C100D9
:102580008F7D8093C10014C0E091F203F091F303BA
:10259000E055FC4F20818091F2039091F303019666
:1025A0008F7390709093F3038093F2032093C6008F
:1025B000FF91EF919F918F913F912F910F900FBEBF
:1025C0000F901F901895AF92BF92DF92EF92FF92FB
:1025D0000F931F93CF93DF93EC017A018B01DD24DE
:1025E000403081EE580780E0680780E0780711F0FE
:1025F000DD24D39491E0A92EB12CEC89FD89DD2056
:1026000069F0C50108A002C0880F991F0A94E2F77B
:10261000808360E079E08DE390E005C0108260E89F
:1026200074E88EE190E0A80197010E940119215001
:10263000304040405040569547953795279580E16A
:102640002030380720F0DD2011F0DD24D6CFE889D6
:10265000F9893083EA89FB89208319A2EE89FF89F1
:10266000408121E030E0C9010C8C02C0880F991F25
:102670000A94E2F7482B4083EE89FF894081C90123
:102680000D8C02C0880F991F0A94E2F7482B4083F3
:10269000EE89FF894081C9010E8C02C0880F991F05
:1026A0000A94E2F7482B4083EE89FF8980810F8CE2
:1026B00002C0220F331F0A94E2F7209528232083BB
:1026C000DF91CF911F910F91FF90EF90DF90BF901E
:1026D000AF900895DC011C96ED91FC911D97E05C94
:1026E000FF4F2191319180819181281B390B2F73EC
:1026F0003070C9010895DC011C96ED91FC911D9785
:10270000E05CFF4F20813181E054F040DF01AE5B9F
:10271000BF4F8D919C9111972817390719F42FEF0E
:102720003FEF07C08D919C91E80FF91F8081282F02
:1027300030E0C9010895DC011C96ED91FC911D97D4
:10274000E05CFF4F20813181E054F040DF01AE5B5F
:10275000BF4F8D919C9111972817390719F42FEFCE
:102760003FEF10C08D919C911197E80FF91F2081C8
:102770008D919C91119701968F73907011969C93F7
:102780008E9330E0C9010895DC0191968C91919768
:10279000882339F05496ED91FC915597808186FFFE
:1027A000F9CF91961C920895CF93DF93EC01EE85BB
:1027B000FF85E05CFF4F20813181E054F0402F5FC6
:1027C0003F4F2F733070DF01AE5BBF4F8D919C91F7
:1027D000119728173907D1F3E05CFF4F8081918171
:1027E000E054F040E80FF91F6083EE85FF85E05C60
:1027F000FF4F31832083EE89FF89208181E090E0C3
:102800000F8C02C0880F991F0A94E2F7282B2083AF
:1028100081E089A3EC89FD8980818064808381E0E7
:1028200090E0DF91CF91089581E008951092F70331
:102830001092F60388EE93E0A0E0B0E08093F803F6
:102840009093F903A093FA03B093FB0383EA92E019
:102850009093F5038093F4038CE693E09093010446
:102860008093000480EB93E0909303048093020430
:1028700085EC90E0909305048093040484EC90E050
:10288000909307048093060480EC90E090930904F1
:102890008093080481EC90E090930B0480930A04E9
:1028A00082EC90E090930D0480930C0486EC90E011
:1028B00090930F0480930E0484E08093100483E0CF
:1028C0008093110487E08093120485E080931304C1
:1028D00081E0809314040895CF93DF930E94FC114C
:1028E0000E943C03C5E9D2E10E9455012097E1F323
:1028F0000E949512F9CFCF92DF92EF92FF920F9341
:102900001F93CF93DF937C016B018A01C0E0D0E07D
:102910000FC0D6016D916D01D701ED91FC91019031
:10292000F081E02DC7010995C80FD91F0150104053
:102930000115110571F7CE01DF91CF911F910F9114
:10294000FF90EF90DF90CF900895EF92FF920F935A
:102950001F938C01DC01ED91FC910190F081E02D41
:102960006DE009957C01D801ED91FC910190F08119
:10297000E02DC8016AE009959C012E0D3F1DC9019B
:102980001F910F91FF90EF900895CF93DF93EC018B
:102990006115710519F420E030E00FC0DB010D90E6
:1029A0000020E9F71197A61BB70BE881F981028097
:1029B000F381E02DAD0109959C01C901DF91CF9113
:1029C00008954F925F927F928F929F92AF92BF92A3
:1029D000CF92DF92EF92FF920F931F93DF93CF93EB
:1029E000CDB7DEB7A1970FB6F894DEBF0FBECDBF4F
:1029F0002C01742ECB01223008F42AE019A231E216
:102A0000C32ED12CCC0EDD1E822E9924AA24BB24E9
:102A1000672D752FA50194010E94011979018A0182
:102A2000C801B701A50194010E94E218472D461B79
:102A30000894C108D1084A3014F4405D01C0495CD3
:102A4000F6014083E114F1040105110521F07E2C0B
:102A50005F2DC801DDCFC201B6010E94C514A19649
:102A60000FB6F894DEBF0FBECDBFCF91DF911F919F
:102A70000F91FF90EF90DF90CF90BF90AF909F901D
:102A80008F907F905F904F900895DC012115310564
:102A900041F4ED91FC910190F081E02D642F0995B6
:102AA00008950E94E1140895CF92DF92EF92FF9271
:102AB0000F931F93CF93DF93EC016A017B012115E4
:102AC000310541F4E881F9810190F081E02D642F16
:102AD00009951FC02A303105D1F477FF17C0E8816E
:102AE000F9810190F081E02D6DE209958C01442778
:102AF0005527BA014C195D096E097F09CE012AE0FC
:102B00000E94E1149801280F391F04C02AE00E9496
:102B1000E1149C01C901DF91CF911F910F91FF90AA
:102B2000EF90DF90CF900895EF92FF920F931F9355
:102B30007B019A010027F7FC0095102FB801A7012F
:102B40000E9454151F910F91FF90EF900895CF921E
:102B5000DF92EF92FF920F931F936C017B019A011A
:102B60000027F7FC0095102FB801A7010E9454150B
:102B70008C01C6010E94A514080F191FC8011F91DE
:102B80000F91FF90EF90DF90CF9008950E94C514B1
:102B900008957F928F929F92AF92BF92CF92DF92D1
:102BA000EF92FF920F931F93CF93DF934C017A0123
:102BB0008B01722ECB01BA01A80197010E94DE1889
:102BC000882321F0C4016FE872E021C0C0E0D0E0AA
:102BD00057016801E894D7F8C601B5012FEF3FEF20
:102BE0004FE75FE70E94DE18882351F4C601B50164
:102BF0002FEF3FEF4FE75FE70E942817181614F0FA
:102C0000C1E0D0E0219739F0C40163E972E00E948D
:102C1000C514EC0193C0C801B7012FEF3FEF4FE798
:102C20005FE40E947718181654F0C801B7012FEF1F
:102C30003FEF4FE75FEC0E942817882324F4C4017C
:102C400067E972E0E4CFC801B70120E030E040E07E
:102C500050E00E94281787FD03C0C0E0D0E00EC0FE
:102C6000D401ED91FC910190F081E02DC4016DE261
:102C70000995EC0117FB109517F9109520E030E04D
:102C800040E05FE3DD240BC0CA01B90120E030E081
:102C900040E251E40E942C179B01AC01D394D7145D
:102CA00098F3C801B7010E94C4165B016C010E9431
:102CB00099177B018C01C401B801A7012AE030E01B
:102CC0000E944515C80FD91F772039F0C4016BE960
:102CD00072E00E94C514C80FD91FC801B7010E9435
:102CE000C5179B01AC01C601B5010E94C31624C0E3
:102CF00020E030E040E251E40E947B187B018C012F
:102D00000E9494175B016C01CC24B7FCC094DC2CAE
:102D1000C401B601A5012AE030E00E945415C80F95
:102D2000D91FC601B5010E94C7179B01AC01C8019C
:102D3000B7010E94C3167A947720D1F6CE01DF91B5
:102D4000CF911F910F91FF90EF90DF90CF90BF90A8
:102D5000AF909F908F907F9008950E94C91508951D
:102D6000EF92FF920F931F937C010E94C5148C0178
:102D7000C7010E94A514080F191FC8011F910F91C8
:102D8000FF90EF9008955058BB27AA270ED075C129
:102D900066D130F06BD120F031F49F3F11F41EF476
:102DA0005BC10EF4E095E7FB51C1E92F77D180F3C9
:102DB000BA17620773078407950718F071F49EF538
:102DC0008FC10EF4E0950B2EBA2FA02D0B01B90187
:102DD00090010C01CA01A0011124FF27591B99F091
:102DE000593F50F4503E68F11A16F040A22F232F9D
:102DF000342F4427585FF3CF469537952795A795ED
:102E0000F0405395C9F77EF41F16BA0B620B730B93
:102E1000840BBAF09150A1F0FF0FBB1F661F771F04
:102E2000881FC2F70EC0BA0F621F731F841F48F4B9
:102E3000879577956795B795F7959E3F08F0B3CF3F
:102E40009395880F08F09927EE0F97958795089529
:102E5000D9D008F481E008950CD00FC107D140F01B
:102E6000FED030F021F45F3F19F0F0C0511139C1AC
:102E7000F3C014D198F39923C9F35523B1F3951BEB
:102E8000550BBB27AA2762177307840738F09F5F8B
:102E90005F4F220F331F441FAA1FA9F333D00E2EFA
:102EA0003AF0E0E830D091505040E695001CCAF767
:102EB00029D0FE2F27D0660F771F881FBB1F26172C
:102EC00037074807AB07B0E809F0BB0B802DBF01FF
:102ED000FF2793585F4F2AF09E3F510568F0B6C018
:102EE00000C15F3FECF3983EDCF3869577956795DC
:102EF000B795F7959F5FC9F7880F911D96958795B0
:102F000097F90895E1E0660F771F881FBB1F6217CE
:102F100073078407BA0720F0621B730B840BBA0B8C
:102F2000EE1F88F7E095089504D06894B111D9C0D8
:102F30000895BCD088F09F5790F0B92F9927B751CA
:102F4000A0F0D1F0660F771F881F991F1AF0BA956D
:102F5000C9F712C0B13081F0C3D0B1E00895C0C04C
:102F6000672F782F8827B85F39F0B93FCCF3869563
:102F700077956795B395D9F73EF4909580957095C0
:102F800061957F4F8F4F9F4F0895E89409C097FB3D
:102F90003EF490958095709561957F4F8F4F9F4F30
:102FA0009923A9F0F92F96E9BB279395F695879574
:102FB00077956795B795F111F8CFFAF4BB0F11F437
:102FC00060FF1BC06F5F7F4F8F4F9F4F16C08823DE
:102FD00011F096E911C0772321F09EE8872F762F14
:102FE00005C0662371F096E8862F70E060E02AF055
:102FF0009A95660F771F881FDAF7880F9695879541
:1030000097F90895990F0008550FAA0BE0E8FEEF15
:1030100016161706E807F907C0F012161306E4079C
:10302000F50798F0621B730B840B950B39F40A2695
:1030300061F0232B242B252B21F408950A2609F473
:10304000A140A6958FEF811D811D089597F99F6777
:1030500080E870E060E008959FEF80EC0895002420
:103060000A941616170618060906089500240A94ED
:1030700012161306140605060895092E0394000C73
:1030800011F4882352F0BB0F40F4BF2B11F460FF02
:1030900004C06F5F7F4F8F4F9F4F089557FD90582B
:1030A000440F551F59F05F3F71F04795880F97FB0C
:1030B000991F61F09F3F79F08795089512161306C6
:1030C0001406551FF2CF4695F1DF08C016161706F5
:1030D0001806991FF1CF869571056105089408952A
:1030E000E894BB2766277727CB0197F908958ADFF5
:1030F00008F48FEF08950BD0C0CFB1DF28F0B6DF12
:1031000018F0952309F0A2CFA7CF1124EACFC6DF8C
:10311000A0F3959FD1F3950F50E0551F629FF001EA
:10312000729FBB27F00DB11D639FAA27F00DB11D43
:10313000AA1F649F6627B00DA11D661F829F2227CC
:10314000B00DA11D621F739FB00DA11D621F839F53
:10315000A00D611D221F749F3327A00D611D231F29
:10316000849F600D211D822F762F6A2F11249F5777
:1031700050408AF0E1F088234AF0EE0FFF1FBB1F9A
:10318000661F771F881F91505040A9F79E3F510539
:1031900070F05CCFA6CF5F3FECF3983EDCF38695F2
:1031A00077956795B795F795E7959F5FC1F7FE2BE4
:1031B000880F911D9695879597F9089523DF880BC1
:1031C000990B0895629FD001739FF001829FE00DDB
:1031D000F11D649FE00DF11D929FF00D839FF00D96
:1031E000749FF00D659FF00D9927729FB00DE11D42
:1031F000F91F639FB00DE11DF91FBD01CF0111241F
:103200000895A1E21A2EAA1BBB1BFD010DC0AA1F27
:10321000BB1FEE1FFF1FA217B307E407F50720F03F
:10322000A21BB30BE40BF50B661F771F881F991FBA
:103230001A9469F760957095809590959B01AC0103
:10324000BD01CF010895EE0FFF1F0590F491E02D11
:063250000994F894FFCF81
:10325600445331384232302054656D706572617462
:103266007572653A2000432C2000444854323220BF
:1032760054656D70657261747572653A2000432CF1
:103286002044485432322048756D69646974793A2D
:103296002000252C20004261747465727920766FB7
:1032A6006C746167653A20005600656D6F6E544810
:1032B600004F70656E456E657267794D6F6E697405
:1032C6006F722E6F7267004E6F64653A200020465B
:1032D6007265713A20003836384D687A00204E659E
:1032E60074776F726B3A2000202D20556E61626CE8
:1032F6006520746F2066696E64204448543232201B
:1033060053656E736F722E2E747279696E672061C3
:1033160067696E00202D20556E61626C6520746FA2
:103326002066696E642044485432322053656E73B9
:103336006F7220666F7220326E642074696D652E1E
:103346002E676976696E67207570004465746563DB
:103356007465642044485432322074656D702026AA
:103366002068756D6964697479207365736E6F7210
:10337600004E6F2044533138423230206465746504
:103386006374656400446574656374656420002035
:1033960044533138423230004453313842323020BF
:1033A600616E6420444854323220666F756E642C18
:1033B60020617373756D696E6720445331384232EC
:1033C600302069732065787465726E616C20736550
:1033D6006E736F720052656164206661696C006E7F
:1033E600616E00696E66006F7666002E000401004D
:1033F600000000D4137B146A139B137B13C41300C1
:00000001FF
