:100000000C94E3000C94F6110C9423120C940B0145
:100010000C940B010C940B010C94ED040C940B014B
:100020000C940B010C940B010C940B010C940B0120
:100030000C940B010C940B010C940B010C940B0110
:100040000C94C40F0C940B010C94A8140C94F6148B
:100050000C940B010C940B010C940B010C940B01F0
:100060000C940B010C940B01005EBCE2613FDD833C
:10007000C29C7E20A3FD1F419DC3217FFCA2401E88
:100080005F01E3BD3E6082DC237D9FC1421CFEA078
:10009000E1BF5D0380DE3C62BEE0025CDF81633D68
:1000A0007C22C09E1D43A1FF4618FAA427799BC558
:1000B00084DA3866E5BB5907DB856739BAE4065848
:1000C0001947A5FB7826C49A653BD987045AB8E638
:1000D000A7F91B45C6987A24F8A6441A99C7257B28
:1000E0003A6486D85B05E7B98CD2306EEDB3510F18
:1000F0004E10F2AC2F7193CD114FADF3702ECC9208
:10010000D38D6F31B2EC0E50AFF1134DCE90722CF7
:100110006D33D18F0C52B0EE326C8ED0530DEFB1E7
:10012000F0AE4C1291CF2D73CA947628ABF51749D7
:100130000856B4EA6937D58B5709EBB536688AD4C7
:1001400095CB2977F4AA4816E9B7550B88D6346AB7
:100150002B7597C94A14F6A8742AC896154BA9F7A7
:10016000B6E80A54D7896B35000000002400270048
:100170002A0000000000250028002B0000000000DD
:1001800023002600290004040404040404040202D9
:100190000202020203030303030301020408102006
:1001A0004080010204081020010204081020000011
:1001B0000007000201000003040600000000000028
:1001C00000001601621611241FBECFEFD8E0DEBF7B
:1001D000CDBF12E0A0E0B1E0E0E4F2E302C00590A0
:1001E0000D92A03CB107D9F714E0A0ECB2E001C039
:1001F0001D92A632B107E1F711E0C6ECD1E004C0D0
:100200002297FE010E941A19C23CD107C9F70E9429
:1002100098140C941E190C940000FB01DC0102C020
:1002200001900D9241505040D8F708950F931F93BD
:1002300080EC92E062E146E126E00E94280E0FEC9D
:1002400012E0C80163E10E94800A8DED92E0B801DE
:100250000E94B60A1F910F9108959F92AF92BF928C
:10026000CF92DF92EF92FF920F931F933AE7C32E44
:10027000D12CF60190802BE7E22EF12CF701A08023
:100280000CE710E0F801B0800E944505F60190826D
:10029000F701A082F801B0821F910F91FF90EF90BB
:1002A000DF90CF90BF90AF909F900895EF92FF9214
:1002B0000F931F938091F002882311F58091CE0255
:1002C0008823F1F400E010E089E061E00E94F7107B
:1002D00068EC70E080E090E00E941A1089E060E035
:1002E0000E94F71068EC70E080E090E00E941A1025
:1002F0000F5F1F4F0431110539F7F8940E9428054C
:100300008091F002813009F06CC085E061E00E94CC
:10031000F71082E390E00E942D0100E010E00FC092
:10032000B80143E0660F771F4A95E1F765507D4FAE
:100330008DED92E04BE00E946B0D0F5F1F4F80919F
:10034000F9029091FA020817190754F38DED92E023
:100350000E94D00C87E791E00E942D018DED92E084
:100360006BEF72E00E94010D7B018C0185E060E083
:100370000E94F710C801B70120E030E04AEF52E4D4
:100380000E941D1788236CF5C801B70120E030E0FA
:1003900040E252EC0E946C1818161CF58091CE02B7
:1003A000882379F4C801B70120E030E040E251E44D
:1003B0000E9470180E9489177093F2026093F102F4
:1003C00010C0813071F4C801B70120E030E040E294
:1003D00051E40E9470180E9489177093F402609390
:1003E000F3028091CE02813009F043C086E061E0E3
:1003F0000E94F71080ED97E00E942D0180EC92E0C2
:100400000E94FB0E20E030E040E251E40E947018B0
:100410000E9489177093F6026093F50280EC92E0D7
:1004200060E00E94520F7B018C0120E030E04AEA3C
:1004300052E40E941D178823C4F4C801B70120E0CC
:1004400030E040E252EC0E946C18181674F4C801B7
:10045000B70120E030E040E251E40E9470180E94B1
:1004600089177093F2026093F10286E060E00E94C7
:10047000F71081E00E949E11AA2797FDA095BA2F40
:10048000BC01CD010E94BC1727E031E244E05DE3EE
:100490000E9470180E9489177093F8026093F70207
:1004A0008091AD02813009F0BAC08091F0028823BA
:1004B00009F444C084E094E060E071E00E949B1382
:1004C0008091CE028823C1F06091F3027091F40212
:1004D000882777FD8095982F0E94BC1720E030E098
:1004E00040E251E40E942117AB01BC0184E094E09A
:1004F00022E030E00E9482148091CE028823C1F471
:100500006091F1027091F202882777FD8095982F13
:100510000E94BC1720E030E040E251E40E94211725
:10052000AB01BC0184E094E022E030E00E94821440
:1005300084E094E066E171E00E949B138091CE021A
:10054000882309F442C084E094E06AE171E00E94EB
:100550009B136091F1027091F202882777FD8095DC
:10056000982F0E94BC1720E030E040E251E40E9446
:100570002117AB01BC0184E094E022E030E00E944E
:10058000821484E094E06EE271E00E949B1360911B
:10059000F5027091F602882777FD8095982F0E94CA
:1005A000BC1720E030E040E251E40E942117AB018B
:1005B000BC0184E094E022E030E00E94821484E0F8
:1005C00094E062E471E00E949B1384E094E066E4AE
:1005D00071E00E949B136091F7027091F8028827E6
:1005E00077FD8095982F0E94BC1720E030E040E214
:1005F00051E40E942117AB01BC0184E094E022E0A9
:1006000030E00E94821484E094E068E571E00E948A
:10061000851464E670E080E090E00E941A108091FA
:1006200064008B7F809364008FEF0E94A20780E0BC
:1006300061EF72E048E00E94CD0782E00E948507EA
:1006400080E00E94A207809164008460809364002F
:1006500010917A0000917B00F0907C0080E69AEE89
:100660000E94450510937A0000937B00F0927C0075
:100670001F910F91FF90EF900895AF92BF92CF928C
:10068000DF92EF92FF920F931F93CF93DF9389E056
:1006900061E00E94B81089E061E00E94F71083E1F8
:1006A00061E042ED0E941A08CAE0D0E0D093F20265
:1006B000C093F10280E061EF72E048E00E94CD0754
:1006C00064E670E080E090E00E941A1021978FEFBE
:1006D000CF3FD80759F782E00E9485071092F202B7
:1006E0001092F10280E00E94A2078091AD02813059
:1006F00009F042C084E094E040E855E260E070E038
:100700000E94311584E094E06AE571E00E9485144E
:1007100084E094E061E771E00E94851484E094E055
:1007200067E871E00E949B1384E094E063E170E06D
:100730004AE050E00E94691384E094E06EE871E0C2
:100740000E949B1384E094E066E971E00E949B1391
:1007500084E094E06DE971E00E949B1384E094E0F2
:1007600062ED70E04AE050E00E947C1364E670E0C5
:1007700080E090E00E941A1086E061E00E94B810CC
:1007800085E061E00E94B81081E060E00E94B8104E
:1007900086E060E00E94F71080B7806880BF80919B
:1007A000AD02882329F48091640082608093640004
:1007B0008091640080688093640080916400886008
:1007C000809364008091640084608093640086E07C
:1007D00061E00E94F71080ED97E00E942D0180EC0F
:1007E00092E00E942F0E80EC92E00E94FB0E5B01D3
:1007F0006C0180EC92E060E00E94520F7B018C0162
:1008000086E060E00E94F710C801B701A8019701D7
:100810000E94D318882349F4C601B501A6019501A9
:100820000E94D318882309F4C3C08091AD0281309F
:1008300031F484E094E068EA71E00E94851464E693
:1008400070E080E090E00E941A108CED95E00E942C
:10085000450580EC92E00E94FB0E7B018C0180EC50
:1008600092E060E00E94520F9B01AC010E94D318FD
:10087000882341F4C801B701A80197010E94D31849
:10088000882399F08091AD02813031F484E094E0C6
:1008900064ED71E00E9485141092CE0206C084E0DF
:1008A00094E06BE072E00E94851485E061E00E94B4
:1008B000F71062E370E080E090E00E941A108DED86
:1008C00092E00E94BF0D8DED92E060E00E94C80AA8
:1008D0008DED92E00E94C50A8093F9021092FA020F
:1008E00010E0612F70E08091F9029091FA02681790
:1008F00079070CF066C053E0660F771F5A95E1F751
:1009000065507D4F8FEC92E00E94EA09882309F43C
:1009100058C01F5FE6CF8091AD02813031F484E092
:1009200094E061E372E00E9485141092F00227C007
:1009300081E08093F0028091AD02813001F584E086
:1009400094E065E472E00E949B136091F90270915B
:10095000FA0284E094E04AE050E00E94691384E0E7
:1009600094E06FE472E00E9485148091CE028130A1
:1009700031F484E094E068E572E00E94851480918F
:10098000AD02813031F468EC70E080E090E00E94CC
:100990001A1089E060E00E94F710DF91CF911F915B
:1009A0000F91FF90EF90DF90CF90BF90AF900895A0
:1009B00081E08093CE028091AD02813009F075CF45
:1009C0006ECF85E060E00E94F7108091F90290916F
:1009D000FA02892B09F49FCFABCF1F920F920FB66B
:1009E0000F9211242F933F934F935F936F937F93B5
:1009F0008F939F93AF93BF93EF93FF930E949D05B7
:100A0000FF91EF91BF91AF919F918F917F916F91E6
:100A10005F914F913F912F910F900FBE0F901F90BC
:100A20001895982F83FF02C088E2982797FF02C08D
:100A300090E001C0906484B7877F84BFF894809170
:100A400060008861809360009093600078940895BE
:100A5000EAE7F0E0908180818F77808383B7817FA0
:100A6000846083BFF89483B7816083BF85B7806655
:100A700085BF85B78F79806485BF7894889583B763
:100A80008E7F83BF90937A000895CF92DF92EF928A
:100A9000FF921F93CF93DF937C01EC0158E0C52EAA
:100AA000D12C20C01F5F193029F096958795803290
:100AB0009105C0F710921B03812F0E9411050E941F
:100AC00028058FEF0E941105960102C0220F331FE7
:100AD0001A95E2F7C21BD30B80911B03882351F0B8
:100AE000C21BD30BC031D10510F461E004C0CE01AC
:100AF00010E0DDCF60E020917303309174034091EA
:100B0000750350917603EC1AFD0AC701A0E0B0E02E
:100B1000820F931FA41FB51F8093730390937403D8
:100B2000A0937503B0937603862FDF91CF911F9129
:100B3000FF90EF90DF90CF90089580911B038F5F1F
:100B400080931B030895782F8CB581608CBD6BB1A9
:100B500021E030E040E050E00090AE0204C0220FFF
:100B6000331F441F551F0A94D2F7522F822F8095AE
:100B700086238BB99EBD0DB407FEFDCF8EB57EBD1D
:100B80000DB407FEFDCF4EB5382F20E08BB1582BAA
:100B90005BB98CB58E7F8CBD50E0422B532BCA01C4
:100BA0000895E9980E94A305E99A089580E090E0ED
:100BB0000E94A30580916C03853009F054C080E049
:100BC00090EB0E94A305282F80916E03882371F477
:100BD00090916D03992351F080916E03E82FF0E01E
:100BE000E25EFC4F90838F5F80936E0380916E0373
:100BF000E82FF0E0E25EFC4F20838F5F80936E036E
:100C000080911C0390911D038227282F229528276D
:100C1000022E269526952025022E26952025277022
:100C2000082E892F269507942795902D82270694C4
:100C300027959025822790931D0380931C03809114
:100C4000200320916E0390E0049630E08217930712
:100C50002CF080916E03873408F46DC08DE092E82B
:100C60000E94A305089580916C0387FF2EC0E09138
:100C7000200380916C038F5F80936C038150ED5F44
:100C8000E80FF0E0E25EFC4FE08180911C03909160
:100C90001D038E27282F22952827022E269526957C
:100CA0002025022E269520252770082E892F26958F
:100CB00007942795902D82270694279590258227C3
:100CC00090931D0380931C0330C080916C038F5F51
:100CD00080936C038150833019F184302CF4882385
:100CE00099F0813009F516C0893019F08A30E1F4A5
:100CF00002C0EDE21AC0E0916D03909120038EEFE7
:100D0000891B80936C0311C080911C0390911D037B
:100D1000E82F0BC080911C0390911D03E92F05C0A3
:100D20008DE092E80E94A305EAEA8E2F90E08050C1
:100D300098440E94A305089580916C03853009F0C2
:100D400042C08091200320916E0390E0049630E031
:100D50008217930724F080916E038734A0F184E01A
:100D600080936C0380912003833430F081E090E025
:100D700090931D0380931C0380911F0386FF12C074
:100D800080916B03282F30E0C9018F7190704F97CD
:100D900049F080911F0390E0822793278F71907014
:100DA000892B89F480911C0390911D03892B09F0F4
:100DB00044C0E0916903F0916A03309709F43DC0A3
:100DC00080E0099546C080916C03843011F080E08A
:100DD0000895109220038091200380936E038FEF7B
:100DE0009FEF90931D0380931C0320916D0322239A
:100DF000D9F08227282F22952827022E269526957E
:100E00002025022E269520252770082E892F26952D
:100E100007942795902D8227069427959025822761
:100E200090931D0380931C0385E080936C038DEDEC
:100E300092E80E94A30580E008958FEF9FEFAFEF47
:100E4000BFEF8093650390936603A0936703B0930D
:100E5000680381E0089580916C03853099F4809156
:100E60006E03882379F480E090E00E94D10590FD24
:100E700009C08DE092E80E94D10584E080936C0364
:100E800081E0089580E00895982F86FD05C0907E4A
:100E900080916B038F71980F90931F03E09169030A
:100EA000F0916A03309711F081E009958FEF9FEF81
:100EB00090931D0380931C0380911C0390911D034C
:100EC00020916D038227282F22952827022E269510
:100ED00026952025022E269520252770082E892F5D
:100EE000269507942795902D82270694279590257F
:100EF000822790931D0380931C0386E080936C03EC
:100F00008DE392E80E94A3050895282F16C022239E
:100F1000A1F093B7233011F484E005C0223011F022
:100F200080E001C08CE0917F892B83BF83B7816013
:100F300083BF889583B78E7F83BF80916C03843095
:100F400031F708951F93182F87FF03C08DE092E8B3
:100F50000EC0992787FD9095956E0E94D10585E07A
:100F600092E80E94D105112321F087E092E80E94C7
:100F7000D10584E080936C031F9108951F93182F6F
:100F80004093200321E233E0C90150E00E940D01AB
:100F9000812F0E9444071F9108950F931F93CF93B1
:100FA000DF93182FEB01042F02C00E949C060E94C1
:100FB0002B078823D1F3812FBE01402F0E94BE074B
:100FC000DF91CF911F910F9108952BB181E090E0B7
:100FD000A0E0B0E00090AE0204C0880F991FAA1FE5
:100FE000BB1F0A94D2F7282B2BB92AB1822B8AB9BE
:100FF0008AE061E00E94F7108AE061E00E94B81088
:101000008BE061E00E94B8108CE060E00E94B810B4
:101010008DE061E00E94B81080E58CBD8DB58160E7
:101020008DBD83E060E00E94B81083E061E00E9423
:10103000F71008951F93162F80936B0340936D0351
:101040000E94E50780E090E00E94A30585E092E819
:101050000E94A30580E098EB02C080E090E00E942F
:10106000A30583E00E944B11892BB9F3812F90E0F7
:1010700074E0880F991F7A95E1F7876C90680E9459
:10108000A30580E496EA0E94A30586E096EC0E9400
:10109000A30582EA90E90E94A3058CEA92EC0E94E3
:1010A000A30510916D03112341F083E89AEC0E948F
:1010B000A305812F90E09E6C06C08BE89AEC0E94FD
:1010C000A3058DE29EEC0E94A30583E894EC0E94A8
:1010D000A30580E598E90E94A30587E79CEC0E94A0
:1010E000A30580E090EE0E94A30580E098EC0E94AA
:1010F000A30589E490EC0E94A30584E080936C032F
:1011000080916B0390E08F719070892B41F081E0AA
:1011100066ED75E040E050E00E94C01103C081E040
:101120000E94E31180916B031F910895FC011386C7
:101130001586148687E090E012863197009711F0AB
:101140000197FACF0895DC0180E00BC0E82FF0E0B2
:101150008D9190E0E827F927E859FF4FE49161501D
:101160008E2F662399F70895DF92EF92FF920F93E7
:101170001F93FC01E08001811281F894F8018181C4
:101180008E2981838281DE2CD0948D21828383E01D
:1011900090E00E947310F80181818D2181838AE0A3
:1011A00090E00E947310F8010081789485E390E04C
:1011B0000E94731080E010E0FF240E211F21012BFC
:1011C00009F081E01F910F91FF90EF90DF9008955B
:1011D000EF92FF920F931F93CF93DF937C0101E077
:1011E00010E0C0E0D0E0C7010E94B4088111102BCC
:1011F000000F2196C830D105B1F7812FDF91CF9133
:101200001F910F91FF90EF9008951F93CF93DF935D
:10121000FC011081C181D281912F909560FF12C095
:10122000F8948A8189238A838981812B89838AE042
:1012300090E00E9473108A81812B8A83789487E3DF
:1012400090E011C0F8948A8189238A838981812B57
:10125000898381E490E00E9473108A81812B8A83C4
:10126000789485E090E00E947310DF91CF911F91F8
:101270000895CF92DF92EF92FF920F931F93CF9337
:10128000DF938C01E42EFF24F394C0E0D0E0C62E5F
:10129000DD2460E08F2D90E08C219D21892B09F0C9
:1012A00061E0C8010E940509FF0C2196C830D105F4
:1012B00081F7EE20A9F4F894D8011196ED91FC91F4
:1012C000129791818C918095982391831196ED913D
:1012D000FC91129792818C918095982392837894B7
:1012E000DF91CF911F910F91FF90EF90DF90CF9002
:1012F00008956CEC40E00E9439090895EF92FF9246
:101300000F931F93CF93DF938C017B0165E540E042
:101310000E943909C0E0D0E0F701EC0FFD1FC801C1
:10132000608140E00E9439092196C830D105A1F7BB
:10133000DF91CF911F910F91FF90EF900895DF9271
:10134000EF92FF920F931F93CF93DF93FC010081E5
:10135000C181D281F8948981D02ED0948D21898346
:1013600078941DE7E02EFF24115059F182E090E0BF
:101370000E947310888190E08E219F21892BA1F318
:10138000F8948A818D218A838981802B898378943E
:1013900080EE91E00E947310F89489818D218983F9
:1013A00086E490E00E947310888110E090E0E822CB
:1013B000F922EF2809F411E078948AE991E00E947B
:1013C0007310812FDF91CF911F910F91FF90EF90BC
:1013D000DF900895AF92BF92DF92EF92FF920F934A
:1013E0001F93CF93DF93EC015B018D85882309F078
:1013F00061C0CE010E949F09882329F41B861D86A7
:101400001C8690E06BC0CE0160EF40E00E9439097D
:1014100001E0DD24EE24FF24F394CE010E94B40801
:10142000182FCE010E94B408113019F48130E1F474
:1014300039C0181709F58B85081770F460E0FE01B4
:10144000EE0DF11D838190E02F2D30E08223932358
:10145000181619064CF003C060E0081729F009308F
:1014600008F04CC00C874AC0FE01EE0DF11D8381CF
:101470008F29838361E009C0612FFE01EE0DF11D0C
:101480009F2D9095838189238383CE010E94050936
:101490000F5FFF0C19F4E394FF24F39487E08E159B
:1014A00008F0BBCF013430F0DB86DD2011F581E0A0
:1014B0008D871FC01B861D861C8690E0DE0120E004
:1014C00030E0F501E20FF31F13968C9113978083A0
:1014D0002F5F3F4F11962830310599F7892FDF9103
:1014E000CF911F910F91FF90EF90DF90BF90AF9041
:1014F00008958B818823F1F291E0E0CFD02EBDCF0B
:10150000FF920F931F938C01F62E862F60E00E94AE
:10151000B8108F2D90E0FC01E656FE4FE491D80103
:10152000EC938A579E4FFC016491E62FF0E0EE0F9A
:10153000FF1FE458FE4F8591949112969C938E93D1
:1015400011971B961C921B971D961C921D971C961B
:101550001C92F80187E090E012863197009711F015
:101560000197FACF1F910F91FF900895FC0182E837
:101570009BE0928B818B768365831482108289E055
:10158000818381E0828383830895FC0184810895AF
:10159000FC01628308956F927F928F929F92AF9227
:1015A000BF92CF92DF92EF92FF920F931F93CF9350
:1015B000DF93FB01EA01998180E0288130E0282B4C
:1015C000392BE081E23231F0E83221F0E03109F0EC
:1015D00084C04BC04C814F3329F1403420F44F314B
:1015E00009F07BC02FC04F3579F04F3709F075C037
:1015F000B901882777FD8095982F0E94BC1720E0BD
:1016000030E040E85DE32EC035952795B901882785
:1016100077FD8095982F0E94BC1720E030E040E0D5
:101620005EE320C03595279535952795B901882724
:1016300077FD8095982F0E94BC1720E030E040E8AD
:101640005EE310C093E0359527959A95E1F7B901CF
:10165000882777FD8095982F0E94BC1720E030E006
:1016600040E05FE30E94701832C0EF803595279507
:10167000B901882777FD8095982F0E94BC1720E03C
:1016800030E040E85EE30E94B8163B014C016E2D4D
:1016900070E02E81621B7109882777FD8095982F55
:1016A0000E94BC175B016C01FF2400E010E0C80140
:1016B000B7010E94BA179B01AC01C601B5010E9497
:1016C00021179B01AC01C401B3010E94B9169B0113
:1016D000AC01832F942F752F00C0262F382F492F50
:1016E000572FB901CA01DF91CF911F910F91FF9040
:1016F000EF90DF90CF90BF90AF909F908F907F90B2
:101700006F9008950895EF92FF920F931F938C01AD
:101710007B01FC01858196810E949F09F8018581EA
:101720009681B7010E947E09F8018581968164EB5C
:1017300040E00E943909F801858196810E94B40831
:10174000F82EF801858196810E949F0980E0FF2094
:1017500009F481E01F910F91FF90EF900895EF92AF
:10176000FF920F931F93CF93DF93EC018B017A01CC
:101770008D819E810E949F098D819E81B8010E946A
:101780007E098D819E816EE440E00E9439098D8141
:101790009E81F701628140E00E9439098D819E811E
:1017A000F701638140E00E943909F80180818031AE
:1017B00039F08D819E81F701648140E00E943909F2
:1017C0008D819E810E949F098D819E8168E4488160
:1017D0000E9439098881882331F06AE070E080E056
:1017E00090E00E941A108D819E810E949F09DF91D6
:1017F000CF911F910F91FF90EF900895CF92DF92BC
:10180000EF92FF920F931F938C016B017A01FC0101
:10181000858196810E949F09F80185819681B60194
:101820000E947E09F801858196816EEB40E00E945E
:101830003909F801858196810E94E808F7018083C3
:10184000F801858196810E94E808F7018183F801FB
:10185000858196810E94E808F7018283F8018581DD
:1018600096810E94E808F7018383F80185819681BB
:101870000E94E808F7018483F801858196810E941F
:10188000E808F7018583F801858196810E94E808C0
:10189000F7018683F801858196810E94E808F701A7
:1018A0008783F801858196810E94E808F701808787
:1018B000F801858196810E949F091F910F91FF90E9
:1018C000EF90DF90CF900895DF93CF93CDB7DEB741
:1018D00029970FB6F894DEBF0FBECDBFAE014F5FA4
:1018E0005F4F0E94FE0B8981811181E029960FB61E
:1018F000F894DEBF0FBECDBFCF91DF910895CF9298
:10190000DF92EF92FF920F931F93CF93DF93EC013F
:101910006B01452BE1F08B818823C9F088818823F6
:10192000B1F40E940C107B018C01CE0160E070E0EC
:101930000E94640C882359F40E940C106E197F09D0
:10194000800B910B6E5E72408040904070F3F60108
:101950006081693039F06930A0F06A3041F06B3055
:1019600081F40AC06EE570E080E090E00EC06CEBA0
:1019700070E080E090E009C067E771E080E090E00F
:1019800004C06EEE72E080E090E00E941A10DF91D9
:10199000CF911F910F91FF90EF90DF90CF9008951E
:1019A000CF93DF93EC018D819E810E949F098D81F1
:1019B0009E810E9479098D819E8164E448810E9404
:1019C00039098A81882339F0CE012196BE0140E091
:1019D00050E00E947F0CDF91CF9108950F931F93E9
:1019E0008A010E94FE0BC80168E00E94A30820E063
:1019F000F8019085891709F421E0822F1F910F913A
:101A00000895CF92DF92EF92FF920F931F93DF938F
:101A1000CF93CDB7DEB729970FB6F894DEBF0FBED0
:101A2000CDBF8C017B016E010894C11CD11CA601A5
:101A30000E94EE0C882329F460E070E08EEF92ECB7
:101A400005C0C801B701A6010E94CB0A29960FB6AE
:101A5000F894DEBF0FBECDBFCF91DF911F910F91E4
:101A6000FF90EF90DF90CF900895DF93CF93CDB7A5
:101A7000DEB729970FB6F894DEBF0FBECDBF9C012D
:101A8000FB0180818031D9F0C901AE014F5F5F4F0A
:101A90000E94EE0C8823A9F08D818F3371F0803481
:101AA00018F48F3171F40BC08F3519F08F3749F46A
:101AB00002C08BE007C08CE005C08AE003C089E06B
:101AC00001C080E029960FB6F894DEBF0FBECDBFEF
:101AD000CF91DF910895CF92DF92EF92FF921F9303
:101AE000DF93CF93CDB7DEB729970FB6F894DEBF5B
:101AF0000FBECDBF6C017B01142FAE014F5F5F4F56
:101B00000E94EE0C8823E1F0F70180818031B9F06A
:101B10001A3051F01A3050F01B3021F01C3031F4E3
:101B20008FE705C08FE503C08FE301C08FE18D8390
:101B3000C601B701AE014F5F5F4F0E94AF0B81E05E
:101B400029960FB6F894DEBF0FBECDBFCF91DF91BF
:101B50001F91FF90EF90DF90CF9008950F931F9308
:101B60008B01CB0167E00E94A30820E0F801978178
:101B7000891709F421E0822F1F910F910895AF92E8
:101B8000BF92CF92DF92EF92FF920F931F93DF935A
:101B9000CF93CDB7DEB761970FB6F894DEBF0FBE17
:101BA000CDBF7C01FC01858196810E949608F701DA
:101BB00014826E010894C11CD11C79E0A72EB12CAF
:101BC000AC0EBD1E01E02BC0C701B6010E94AE0DD8
:101BD000882329F1F7018081882341F4C701B601E8
:101BE0000E94830B882311F0F7010083C701B6011F
:101BF000A5010E94FE0BF7011181C701B6010E94E9
:101C0000350D811718F4F701818104C0C701B601B1
:101C10000E94350DF701818384818F5F8483F701F2
:101C200085819681B6010E94EA09882369F661964A
:101C30000FB6F894DEBF0FBECDBFCF91DF911F91DD
:101C40000F91FF90EF90DF90CF90BF90AF900895ED
:101C5000FC0166834783208781E0858708950F9381
:101C60001F938C01FC01868160E00E94B810F8018E
:101C7000868161E00E94F710F801118612861386B2
:101C800014861F910F910895CF92DF92EF92FF92E9
:101C90000F931F93CF93DF93EC018E8161E00E943D
:101CA000F7106AEF70E080E090E00E941A100E9446
:101CB0000C109B01AC0189859A85AB85BC852817E2
:101CC00039074A075B0720F419861A861B861C868B
:101CD0008D85882371F489859A85AB85BC85281B01
:101CE000390B4A0B5B0B205D37404040504008F4F5
:101CF00077C01D860E940C1069877A878B879C8726
:101D00001C821B821A82198218828E8161E00E94D5
:101D1000B8108E8160E00E94F71064E170E080E00E
:101D200090E00E941A10F8948E8161E00E94F710F2
:101D300088E290E00E9473108E8160E00E94B810EB
:101D400081E0EE2400E010E00AC0F39481E090E02E
:101D50000E9473108FEFF81629F40AC0822FFF2417
:101D6000C82EDD248E810E944B118C159D0569F3D0
:101D70008E810E944B11282F8FEFF816C9F0043086
:101D800090F000FD10C08E2D869586958695FE01FB
:101D9000E80FF11D9081990F908388858F1510F4BD
:101DA00091609083E3940F5F1F4F05351105B1F6E5
:101DB000789487E28E1510F030E013C030E04C814B
:101DC00050E02981888190E0820F911D2A81820F45
:101DD000911D2B81820F911D90704817590709F4AE
:101DE00031E0832FDF91CF911F910F91FF90EF9002
:101DF000DF90CF900895EF92FF920F931F93CF93B0
:101E0000DF93EC010E94440E8823A9F18F818B306F
:101E100031F08B3080F18551823068F507C06881E0
:101E200070E080E090E00E94BA1722C0688170E004
:101E300080E090E00E94BA1720E030E040E853E4F0
:101E40000E9470187B018C01698170E0882777FD02
:101E50008095982F0E94BC179B01AC01C801B70167
:101E60000E94B91620E030E040E251E40E942117C0
:101E7000E62F692F0AC084E094E065E972E00E94D1
:101E80009B13E0E070E080EC6FE72E2F372F482F98
:101E9000562FB901CA01DF91CF911F910F91FF9089
:101EA000EF900895CF92DF92EF92FF920F931F93DE
:101EB000CF93DF93EC01C62E0E94440E882309F4D1
:101EC00050C08F818B3041F08B3008F44AC085516F
:101ED000823008F046C007C06A8170E080E090E080
:101EE0000E94BA1729C0DA806D2D70E06F7770708C
:101EF000882777FD8095982F0E94BC1720E030E05E
:101F000040E853E40E9470187B018C016B8170E003
:101F1000882777FD8095982F0E94BC179B01AC0104
:101F2000C801B7010E94B91620E030E040E251E458
:101F30000E942117D7FC9058CC20E9F020E030E037
:101F400040E151E40E94701820E030E040EA50E4A3
:101F50000E94211720E030E040E052E40E94B916D0
:101F60000AC084E094E065E972E00E949B1360E09F
:101F700070E080EC9FE7DF91CF911F910F91FF9070
:101F8000EF90DF90CF9008951F920F920FB60F92AF
:101F900011242F933F938F939F93AF93BF9380917F
:101FA000730390917403A0917503B09176033091FF
:101FB00077030196A11DB11D232F2D5F2D3720F032
:101FC0002D570196A11DB11D2093770380937303B4
:101FD00090937403A0937503B093760380916F037D
:101FE00090917003A0917103B09172030196A11DAD
:101FF000B11D80936F0390937003A0937103B0930E
:102000007203BF91AF919F918F913F912F910F904C
:102010000FBE0F901F9018958FB7F89420917303FF
:102020003091740340917503509176038FBFB901CD
:10203000CA0108959B01AC017FB7F89480916F03AA
:1020400090917003A0917103B091720366B5A89B43
:1020500005C06F3F19F00196A11DB11D7FBFBA2FBA
:10206000A92F982F8827860F911DA11DB11D62E011
:10207000880F991FAA1FBB1F6A95D1F7BC012DC0FD
:10208000FFB7F89480916F0390917003A091710352
:10209000B0917203E6B5A89B05C0EF3F19F0019619
:1020A000A11DB11DFFBFBA2FA92F982F88278E0F12
:1020B000911DA11DB11DE2E0880F991FAA1FBB1F32
:1020C000EA95D1F7861B970B885E9340C8F22150A2
:1020D00030404040504068517C4F2115310541054A
:1020E000510571F60895019739F0880F991F880FEF
:1020F000991F02970197F1F70895789484B582604B
:1021000084BD84B5816084BD85B5826085BD85B59B
:10211000816085BDEEE6F0E0808181608083E1E84A
:10212000F0E0108280818260808380818160808382
:10213000E0E8F0E0808181608083E1EBF0E0808185
:1021400084608083E0EBF0E0808181608083EAE757
:10215000F0E08081846080838081826080838081E0
:10216000816080838081806880831092C10008959F
:10217000CF93DF93482F50E0CA0186569E4FFC0153
:1021800034914A575E4FFA018491882369F190E0B7
:10219000880F991FFC01E859FE4FA591B491FC01ED
:1021A000EE58FE4FC591D491662351F42FB7F894A1
:1021B0008C91932F909589238C93888189230BC0D0
:1021C000623061F42FB7F8948C91932F9095892306
:1021D0008C938881832B88832FBF06C09FB7F89488
:1021E0008C91832B8C939FBFDF91CF910895482FC3
:1021F00050E0CA0182559E4FFC012491CA018656C7
:102200009E4FFC0194914A575E4FFA01349133235B
:1022100009F440C0222351F1233071F0243028F416
:102220002130A1F0223011F514C02630B1F0273052
:10223000C1F02430D9F404C0809180008F7703C0AE
:10224000809180008F7D8093800010C084B58F774F
:1022500002C084B58F7D84BD09C08091B0008F77A6
:1022600003C08091B0008F7D8093B000E32FF0E039
:10227000EE0FFF1FEE58FE4FA591B4912FB7F894C3
:10228000662321F48C919095892302C08C91892B2F
:102290008C932FBF0895682F70E0CB0182559E4F1D
:1022A000FC012491CB0186569E4FFC0144916A5754
:1022B0007E4FFB019491992319F420E030E03CC05B
:1022C000222351F1233071F0243028F42130A1F081
:1022D000223011F514C02630B1F02730C1F024307F
:1022E000D9F404C0809180008F7703C08091800072
:1022F0008F7D8093800010C084B58F7702C084B535
:102300008F7D84BD09C08091B0008F7703C080911C
:10231000B0008F7D8093B000892F90E0880F991FC7
:1023200084589E4FFC01A591B4918C9120E030E03F
:10233000842311F021E030E0C9010895982F8E30F8
:1023400008F09E5097708091AF028295880F880F99
:10235000807C892B80937C0080917A0080648093BC
:102360007A0080917A0086FDFCCF20917800409120
:102370007900942F80E030E0282B392BC901089593
:10238000823000F5E82FF0E0EE0FFF1FE858FC4F19
:1023900071836083882319F08130A1F408C0809193
:1023A00069008C7F842B80936900E89A089580915E
:1023B0006900440F551F440F551F837F842B809362
:1023C0006900E99A0895823080F4882319F08130F9
:1023D00021F402C0E89801C0E998E82FF0E0EE0F80
:1023E000FF1FE858FC4F1182108208951F920F9230
:1023F0000FB60F9211242F933F934F935F936F93D8
:102400007F938F939F93AF93BF93EF93FF938091AD
:10241000780390917903892B29F0E0917803F0916A
:1024200079030995FF91EF91BF91AF919F918F91A2
:102430007F916F915F914F913F912F910F900FBEC0
:102440000F901F9018951F920F920FB60F921124A4
:102450002F933F934F935F936F937F938F939F93AC
:10246000AF93BF93EF93FF9380917A0390917B0397
:10247000892B29F0E0917A03F0917B030995FF9174
:10248000EF91BF91AF919F918F917F916F915F91EC
:102490004F913F912F910F900FBE0F901F90189565
:1024A000CF92DF92EF92FF920F931F93CF93DF9320
:1024B0007C016B018A01C0E0D0E00FC0D6016D91B4
:1024C0006D01D701ED91FC910190F081E02DC701E4
:1024D0000995C80FD91F015010400115110571F75A
:1024E000CE01DF91CF911F910F91FF90EF90DF9080
:1024F000CF900895EF92FF920F931F938C01DC0110
:10250000ED91FC910190F081E02D6DE009957C0149
:10251000D801ED91FC910190F081E02DC8016AE0B5
:1025200009959C012E0D3F1DC9011F910F91FF9030
:10253000EF900895CF93DF93EC016115710519F4C5
:1025400020E030E00FC0DB010D900020E9F711978B
:10255000A61BB70BE881F9810280F381E02DAD0164
:1025600009959C01C901DF91CF9108954F925F9227
:102570007F928F929F92AF92BF92CF92DF92EF9213
:10258000FF920F931F93DF93CF93CDB7DEB7A19741
:102590000FB6F894DEBF0FBECDBF2C01742ECB0159
:1025A000223008F42AE019A231E2C32ED12CCC0E3D
:1025B000DD1E822E9924AA24BB24672D752FA50128
:1025C00094010E94F61879018A01C801B701A5019A
:1025D00094010E94D718472D461B0894C108D108C2
:1025E0004A3014F4405D01C0495CF6014083E114B7
:1025F000F1040105110521F07E2C5F2DC801DDCF0E
:10260000C201B6010E949A12A1960FB6F894DEBFDD
:102610000FBECDBFCF91DF911F910F91FF90EF9033
:10262000DF90CF90BF90AF909F908F907F905F9002
:102630004F900895DC012115310541F4ED91FC9195
:102640000190F081E02D642F099508950E94B61243
:102650000895CF92DF92EF92FF920F931F93CF9343
:10266000DF93EC016A017B012115310541F4E8811A
:10267000F9810190F081E02D642F09951FC02A3067
:102680003105D1F477FF17C0E881F9810190F0811D
:10269000E02D6DE209958C0144275527BA014C19AC
:1026A0005D096E097F09CE012AE00E94B6129801E9
:1026B000280F391F04C02AE00E94B6129C01C901EC
:1026C000DF91CF911F910F91FF90EF90DF90CF900E
:1026D0000895EF92FF920F931F937B019A010027B9
:1026E000F7FC0095102FB801A7010E9429131F9134
:1026F0000F91FF90EF900895CF92DF92EF92FF92AB
:102700000F931F936C017B019A010027F7FC009542
:10271000102FB801A7010E9429138C01C6010E9445
:102720007A12080F191FC8011F910F91FF90EF90A7
:10273000DF90CF9008950E949A1208957F928F9211
:102740009F92AF92BF92CF92DF92EF92FF920F9340
:102750001F93CF93DF934C017A018B01722ECB0133
:10276000BA01A80197010E94D318882321F0C4015F
:102770006FE972E021C0C0E0D0E057016801E89441
:10278000D7F8C601B5012FEF3FEF4FE75FE70E9493
:10279000D318882351F4C601B5012FEF3FEF4FE75F
:1027A0005FE70E941D17181614F0C1E0D0E02197D2
:1027B00039F0C40163EA72E00E949A12EC0193C0FE
:1027C000C801B7012FEF3FEF4FE75FE40E946C189D
:1027D000181654F0C801B7012FEF3FEF4FE75FEC39
:1027E0000E941D17882324F4C40167EA72E0E4CF35
:1027F000C801B70120E030E040E050E00E941D1722
:1028000087FD03C0C0E0D0E00EC0D401ED91FC9183
:102810000190F081E02DC4016DE20995EC0117FBF8
:10282000109517F9109520E030E040E05FE3DD24DB
:102830000BC0CA01B90120E030E040E251E40E943F
:1028400021179B01AC01D394D71498F3C801B701A9
:102850000E94B9165B016C010E948E177B018C01EE
:10286000C401B801A7012AE030E00E941A13C80F82
:10287000D91F772039F0C4016BEA72E00E949A12E6
:10288000C80FD91FC801B7010E94BA179B01AC013C
:10289000C601B5010E94B81624C020E030E040E235
:1028A00051E40E9470187B018C010E9489175B0122
:1028B0006C01CC24B7FCC094DC2CC401B601A5018A
:1028C0002AE030E00E942913C80FD91FC601B501C4
:1028D0000E94BC179B01AC01C801B7010E94B81649
:1028E0007A947720D1F6CE01DF91CF911F910F918D
:1028F000FF90EF90DF90CF90BF90AF909F908F9020
:102900007F9008950E949E130895EF92FF920F9377
:102910001F937C010E949A128C01C7010E947A12B7
:10292000080F191FC8011F910F91FF90EF90089594
:10293000CF93DF930E947D100E943D03C3EED4E14C
:102940000E9456012097E1F30E94E314F9CF089505
:102950001F920F920FB60F9211242F933F934F9314
:102960008F939F93EF93FF938091C00082FD1DC0D2
:102970004091C6002091BC033091BD032F5F3F4FB3
:102980002F7330708091BE039091BF0328173907D1
:1029900071F0E091BC03F091BD03E458FC4F40831B
:1029A0003093BD032093BC0302C08091C600FF9109
:1029B000EF919F918F914F913F912F910F900FBE6B
:1029C0000F901F901895E0911004F0911104E05CB5
:1029D000FF4F8191919120813181821B930B8F73E5
:1029E0009070892B11F00E94A71408951F920F92E6
:1029F0000FB60F9211242F933F938F939F93EF93D2
:102A0000FF93209100043091010480910204909181
:102A100003042817390731F48091C1008F7D80931A
:102A2000C10014C0E0910204F0910304E054FC4F93
:102A30002081809102049091030401968F7390701D
:102A400090930304809302042093C600FF91EF91BA
:102A50009F918F913F912F910F900FBE0F901F90DC
:102A60001895AF92BF92DF92EF92FF920F931F9350
:102A7000CF93DF93EC017A018B01DD24403081EEAE
:102A8000580780E0680780E0780711F0DD24D394D0
:102A900091E0A92EB12CEC89FD89DD2069F0C501FA
:102AA00008A002C0880F991F0A94E2F7808360E0B3
:102AB00079E08DE390E005C0108260E874E88EE173
:102AC00090E0A80197010E94F61821503040404044
:102AD0005040569547953795279580E12030380727
:102AE00020F0DD2011F0DD24D6CFE889F98930838C
:102AF000EA89FB89208319A2EE89FF89408121E0C0
:102B000030E0C9010C8C02C0880F991F0A94E2F7CB
:102B1000482B4083EE89FF894081C9010D8C02C09A
:102B2000880F991F0A94E2F7482B4083EE89FF89AA
:102B30004081C9010E8C02C0880F991F0A94E2F7E8
:102B4000482B4083EE89FF8980810F8C02C0220FC1
:102B5000331F0A94E2F7209528232083DF91CF9139
:102B60001F910F91FF90EF90DF90BF90AF9008956D
:102B7000DC011C96ED91FC911D97E05CFF4F2191CB
:102B8000319180819181281B390B2F733070C901DD
:102B90000895DC011C96ED91FC911D97E05CFF4FC0
:102BA00020813181E054F040DF01AE5BBF4F8D9159
:102BB0009C9111972817390719F42FEF3FEF07C0A1
:102BC0008D919C91E80FF91F8081282F30E0C90179
:102BD0000895DC011C96ED91FC911D97E05CFF4F80
:102BE00020813181E054F040DF01AE5BBF4F8D9119
:102BF0009C9111972817390719F42FEF3FEF10C058
:102C00008D919C911197E80FF91F20818D919C91D6
:102C1000119701968F73907011969C938E9330E06C
:102C2000C9010895DC0191968C919197882339F020
:102C30005496ED91FC915597808186FFF9CF91963E
:102C40001C920895CF93DF93EC01EE85FF85E05C45
:102C5000FF4F20813181E054F0402F5F3F4F2F73B1
:102C60003070DF01AE5BBF4F8D919C91119728179B
:102C70003907D1F3E05CFF4F80819181E054F0404F
:102C8000E80FF91F6083EE85FF85E05CFF4F31831D
:102C90002083EE89FF89208181E090E00F8C02C0C3
:102CA000880F991F0A94E2F7282B208381E089A3DB
:102CB000EC89FD8980818064808381E090E0DF91F0
:102CC000CF910895109207041092060488EE93E0C5
:102CD000A0E0B0E08093080490930904A0930A0454
:102CE000B0930B0484EB92E090930504809304046A
:102CF0008CE793E0909311048093100480EC93E0B0
:102D0000909313048093120485EC90E09093150443
:102D10008093140484EC90E090931704809316043D
:102D200080EC90E0909319048093180481EC90E07B
:102D300090931B0480931A0482EC90E090931D04FE
:102D400080931C0486EC90E090931F0480931E04F3
:102D500084E08093200483E08093210487E08093C3
:102D6000220485E08093230481E080932404089565
:102D70005058BB27AA270ED075C166D130F06BD151
:102D800020F031F49F3F11F41EF45BC10EF4E09586
:102D9000E7FB51C1E92F77D180F3BA1762077307B8
:102DA0008407950718F071F49EF58FC10EF4E09535
:102DB0000B2EBA2FA02D0B01B90190010C01CA01F5
:102DC000A0011124FF27591B99F0593F50F4503EA0
:102DD00068F11A16F040A22F232F342F4427585F92
:102DE000F3CF469537952795A795F0405395C9F7AA
:102DF0007EF41F16BA0B620B730B840BBAF0915062
:102E0000A1F0FF0FBB1F661F771F881FC2F70EC000
:102E1000BA0F621F731F841F48F4879577956795D3
:102E2000B795F7959E3F08F0B3CF9395880F08F0BC
:102E30009927EE0F979587950895D9D008F481E0EA
:102E400008950CD00FC107D140F0FED030F021F42E
:102E50005F3F19F0F0C0511139C1F3C014D198F39C
:102E60009923C9F35523B1F3951B550BBB27AA270B
:102E700062177307840738F09F5F5F4F220F331F7D
:102E8000441FAA1FA9F333D00E2E3AF0E0E830D049
:102E900091505040E695001CCAF729D0FE2F27D04C
:102EA000660F771F881FBB1F261737074807AB071A
:102EB000B0E809F0BB0B802DBF01FF2793585F4F8F
:102EC0002AF09E3F510568F0B6C000C15F3FECF3A9
:102ED000983EDCF3869577956795B795F7959F5F54
:102EE000C9F7880F911D9695879597F90895E1E0A8
:102EF000660F771F881FBB1F621773078407BA0707
:102F000020F0621B730B840BBA0BEE1F88F7E09561
:102F1000089504D06894B111D9C00895BCD088F048
:102F20009F5790F0B92F9927B751A0F0D1F0660FB5
:102F3000771F881F991F1AF0BA95C9F712C0B130D0
:102F400081F0C3D0B1E00895C0C0672F782F8827E3
:102F5000B85F39F0B93FCCF3869577956795B3950F
:102F6000D9F73EF490958095709561957F4F8F4F7E
:102F70009F4F0895E89409C097FB3EF49095809583
:102F8000709561957F4F8F4F9F4F9923A9F0F92F2F
:102F900096E9BB279395F695879577956795B795AD
:102FA000F111F8CFFAF4BB0F11F460FF1BC06F5F93
:102FB0007F4F8F4F9F4F16C0882311F096E911C0A5
:102FC000772321F09EE8872F762F05C0662371F0C6
:102FD00096E8862F70E060E02AF09A95660F771FDA
:102FE000881FDAF7880F9695879597F90895990FB6
:102FF0000008550FAA0BE0E8FEEF16161706E807C3
:10300000F907C0F012161306E407F50798F0621BE3
:10301000730B840B950B39F40A2661F0232B242BB8
:10302000252B21F408950A2609F4A140A6958FEFD7
:10303000811D811D089597F99F6780E870E060E029
:1030400008959FEF80EC089500240A941616170641
:1030500018060906089500240A9412161306140689
:1030600005060895092E0394000C11F4882352F0EC
:10307000BB0F40F4BF2B11F460FF04C06F5F7F4FA4
:103080008F4F9F4F089557FD9058440F551F59F08B
:103090005F3F71F04795880F97FB991F61F09F3F45
:1030A00079F087950895121613061406551FF2CF6E
:1030B0004695F1DF08C0161617061806991FF1CFBE
:1030C00086957105610508940895E894BB276627E5
:1030D0007727CB0197F908958ADF08F48FEF0895D9
:1030E0000BD0C0CFB1DF28F0B6DF18F0952309F080
:1030F000A2CFA7CF1124EACFC6DFA0F3959FD1F3CB
:10310000950F50E0551F629FF001729FBB27F00D95
:10311000B11D639FAA27F00DB11DAA1F649F6627EA
:10312000B00DA11D661F829F2227B00DA11D621F39
:10313000739FB00DA11D621F839FA00D611D221FF3
:10314000749F3327A00D611D231F849F600D211DD7
:10315000822F762F6A2F11249F5750408AF0E1F07A
:1031600088234AF0EE0FFF1FBB1F661F771F881FC3
:1031700091505040A9F79E3F510570F05CCFA6CF0B
:103180005F3FECF3983EDCF3869577956795B795AE
:10319000F795E7959F5FC1F7FE2B880F911D9695D8
:1031A000879597F9089523DF880B990B0895629FFF
:1031B000D001739FF001829FE00DF11D649FE00D2F
:1031C000F11D929FF00D839FF00D749FF00D659F90
:1031D000F00D9927729FB00DE11DF91F639FB00D8F
:1031E000E11DF91FBD01CF0111240895A1E21A2E9E
:1031F000AA1BBB1BFD010DC0AA1FBB1FEE1FFF1F9B
:10320000A217B307E407F50720F0A21BB30BE40BEA
:10321000F50B661F771F881F991F1A9469F7609531
:103220007095809590959B01AC01BD01CF010895EB
:10323000EE0FFF1F0590F491E02D0994F894FFCF55
:10324000445331384232302054656D706572617478
:103250007572653A2000432C2000444854323220D5
:1032600054656D70657261747572653A2000432C07
:103270002044485432322048756D69646974793A43
:103280002000252C20004261747465727920766FCD
:103290006C746167653A20005600656D6F6E544826
:1032A000202D204669726D776172652056312E326D
:1032B000004F70656E456E657267794D6F6E69740B
:1032C0006F722E6F7267004E6F64653A2000204661
:1032D0007265713A20003433334D687A00204E65B0
:1032E00074776F726B3A2000202D20556E61626CEE
:1032F0006520746F2066696E642044485432322021
:1033000053656E736F722E2E747279696E672061C9
:1033100067696E00202D20556E61626C6520746FA8
:103320002066696E642044485432322053656E73BF
:103330006F7220666F7220326E642074696D652E24
:103340002E676976696E67207570004465746563E1
:103350007465642044485432322074656D702026B0
:103360002068756D6964697479207365736E6F7216
:10337000004E6F204453313842323020646574650A
:10338000637465640044657465637465642000203B
:1033900044533138423230004453313842323020C5
:1033A000616E6420444854323220666F756E642C1E
:1033B00020617373756D696E6720445331384232F2
:1033C000302069732065787465726E616C20736556
:1033D0006E736F720052656164206661696C006E85
:1033E000616E00696E66006F7666002E0001040152
:1033F0000000000022165012B815E915C915121662
:00000001FF
