:100000000C94E3000C9489110C94B6110C940B0120
:100010000C940B010C940B010C9480040C940B01B8
:100020000C940B010C940B010C940B010C940B0120
:100030000C940B010C940B010C940B010C940B0110
:100040000C94570F0C940B010C9445130C949313C0
:100050000C940B010C940B010C940B010C940B01F0
:100060000C940B010C940B01005EBCE2613FDD833C
:10007000C29C7E20A3FD1F419DC3217FFCA2401E88
:100080005F01E3BD3E6082DC237D9FC1421CFEA078
:10009000E1BF5D0380DE3C62BEE0025CDF81633D68
:1000A0007C22C09E1D43A1FF4618FAA427799BC558
:1000B00084DA3866E5BB5907DB856739BAE4065848
:1000C0001947A5FB7826C49A653BD987045AB8E638
:1000D000A7F91B45C6987A24F8A6441A99C7257B28
:1000E0003A6486D85B05E7B98CD2306EEDB3510F18
:1000F0004E10F2AC2F7193CD114FADF3702ECC9208
:10010000D38D6F31B2EC0E50AFF1134DCE90722CF7
:100110006D33D18F0C52B0EE326C8ED0530DEFB1E7
:10012000F0AE4C1291CF2D73CA947628ABF51749D7
:100130000856B4EA6937D58B5709EBB536688AD4C7
:1001400095CB2977F4AA4816E9B7550B88D6346AB7
:100150002B7597C94A14F6A8742AC896154BA9F7A7
:10016000B6E80A54D7896B35000000002400270048
:100170002A0000000000250028002B0000000000DD
:1001800023002600290004040404040404040202D9
:100190000202020203030303030301020408102006
:1001A0004080010204081020010204081020000011
:1001B0000007000201000003040600000000000028
:1001C00000001601011511241FBECFEFD8E0DEBFDD
:1001D000CDBF12E0A0E0B1E0EEE7FFE202C0059083
:1001E0000D92AA34B107D9F713E0AAE4B2E001C036
:1001F0001D92A13BB107E1F711E0C6ECD1E004C0CC
:100200002297FE010E94B917C23CD107C9F70E948C
:1002100035130C94BD170C940000FB01DC0102C0E7
:1002200001900D9241505040D8F708950F931F93BD
:100230008AE492E062E146E126E00E94BB0D09E516
:1002400012E0C80163E10E94130A87E692E0B80158
:100250000E94490A1F910F9108959F92AF92BF92F9
:10026000CF92DF92EF92FF920F931F933AE7C32E44
:10027000D12CF60190802BE7E22EF12CF701A08023
:100280000CE710E0F801B0800E94D804F6019082DB
:10029000F701A082F801B0821F910F91FF90EF90BB
:1002A000DF90CF90BF90AF909F900895EF92FF9214
:1002B0000F931F9380917A02882311F58091580241
:1002C0008823F1F400E010E089E061E00E948A10E8
:1002D00068EC70E080E090E00E94AD0F89E060E0A3
:1002E0000E948A1068EC70E080E090E00E94AD0F00
:1002F0000F5F1F4F0431110539F7F8940E94BB04BA
:1003000080917A02813009F06CC085E061E00E9442
:100310008A1082E390E00E942D0100E010E00FC0FF
:10032000B80143E0660F771F4A95E1F76A577D4FA2
:1003300087E692E04BE00E94FE0C0F5F1F4F80911A
:100340008402909185020817190754F387E692E01A
:100350000E94630C87E791E00E942D0187E692E0FE
:1003600066E872E00E94940C7B018C0185E060E0FD
:100370000E948A10C801B70120E030E04AEF52E441
:100380000E94BC1588236CF5C801B70120E030E05D
:1003900040E252EC0E940B1718161CF5809158028F
:1003A000882379F4C801B70120E030E040E251E44D
:1003B0000E940F170E94281670937C0260937B02A4
:1003C00010C0813071F4C801B70120E030E040E294
:1003D00051E40E940F170E94281670937E026093CA
:1003E0007D0280915802813009F047C086E061E0CB
:1003F0000E948A1080ED97E00E942D018AE492E02D
:100400000E948E0E20E030E040E251E40E940F177F
:100410000E9428167093800260937F0280917A0276
:10042000882339F58AE492E060E00E94E50E7B01C2
:100430008C0120E030E04AEA52E40E94BC15882397
:10044000C4F4C801B70120E030E040E252EC0E9461
:100450000B17181674F4C801B70120E030E040E231
:1004600051E40E940F170E94281670937C0260933B
:100470007B0286E060E00E948A10809164008E7F9B
:100480008093640081E00E943111AA2797FDA09516
:10049000BA2FBC01CD010E945B1627E031E244E097
:1004A0005DE30E940F170E942816709382026093EA
:1004B0008102809164008160809364008091830256
:1004C000813081F560917B0270917C028FE893E02E
:1004D0004AE050E00E94ED128FE893E060E071E0A6
:1004E0000E941F1360917F02709180028FE893E059
:1004F0004AE050E00E94ED128FE893E060E071E086
:100500000E941F1360918102709182028FE893E034
:100510004AE050E00E94001364E170E080E090E067
:100520000E94AD0F809164008B7F809364008FEFF9
:100530000E94350780E06BE772E048E00E946007A8
:1005400082E00E94180780E00E94350780916400D5
:1005500084608093640010917A0000917B00F09099
:100560007C0080E69AEE0E94D80410937A000093F3
:100570007B00F0927C001F910F91FF90EF90089507
:10058000AF92BF92CF92DF92EF92FF920F931F93A1
:10059000CF93DF9389E061E00E944B1089E061E036
:1005A0000E948A1083E161E042ED0E94AD07C0E045
:1005B000D0E0D0937C02C0937B0280E06BE772E0D6
:1005C00048E00E94600764E670E080E090E00E94EE
:1005D000AD0F2196CA30D10561F782E00E9418075D
:1005E00010927C0210927B0280E00E9435078FE817
:1005F00093E00E94FF14882321F081E0809383021E
:1006000002C01092830280918302813009F042C0BF
:100610008FE893E040E855E260E070E00E94CE137E
:100620008FE893E062E071E00E9422138FE893E08C
:1006300069E071E00E9422138FE893E06FE171E0BE
:100640000E941F138FE893E063E170E04AE050E0FE
:100650000E94ED128FE893E066E271E00E941F13A2
:100660008FE893E06EE271E00E941F138FE893E041
:1006700065E371E00E941F138FE893E062ED70E084
:100680004AE050E00E94001364E670E080E090E0F1
:100690000E94AD0F86E061E00E944B1085E061E0B2
:1006A0000E944B1081E060E00E944B1086E060E009
:1006B0000E948A1080B7806880BF8091640081604A
:1006C0008093640080918302882329F480916400E0
:1006D00082608093640080916400806880936400ED
:1006E00080916400886080936400809164008460DD
:1006F0008093640086E061E00E948A1080ED97E0BC
:100700000E942D018AE492E00E94C20D8AE492E0E8
:100710000E948E0E5B016C018AE492E060E00E9410
:10072000E50E7B018C0186E060E00E948A10C80122
:10073000B701A80197010E947217882349F4C601E6
:10074000B501A60195010E947217882309F4C3C060
:1007500080918302813031F48FE893E060E471E0AE
:100760000E94221364E670E080E090E00E94AD0FEA
:100770008CED95E00E94D8048AE492E00E948E0EEF
:100780007B018C018AE492E060E00E94E50E9B010F
:10079000AC010E947217882341F4C801B701A80177
:1007A00097010E947217882399F08091830281300B
:1007B00031F48FE893E06CE671E00E94221310920E
:1007C000580206C08FE893E063EA71E00E942213AA
:1007D00085E061E00E948A1062E370E080E090E0D2
:1007E0000E94AD0F87E692E00E94520D87E692E0EC
:1007F00060E00E945B0A87E692E00E94580A8093BC
:1008000084021092850210E0612F70E080918402D2
:1008100090918502681779070CF066C053E0660F67
:10082000771F5A95E1F76A577D4F89E592E00E945C
:100830007D09882309F458C01F5FE6CF80918302A9
:10084000813031F48FE893E069EC71E00E9422136B
:1008500010927A0227C081E080937A02809183020D
:10086000813031F48FE893E06DED71E00E941F1349
:1008700060918402709185028FE893E04AE050E035
:100880000E94ED128FE893E067EE71E00E94221360
:1008900080915802813031F48FE893E060EF71E08D
:1008A0000E941F1380918302813031F468EC70E064
:1008B00080E090E00E94AD0F89E060E00E948A1025
:1008C000DF91CF911F910F91FF90EF90DF90CF902C
:1008D000BF90AF90089581E0809358028091830289
:1008E000813009F075CF6ECF85E060E00E948A10FC
:1008F0008091840290918502892B09F49FCFABCF20
:100900001F920F920FB60F9211242F933F934F9384
:100910005F936F937F938F939F93AF93BF93EF9367
:10092000FF930E943005FF91EF91BF91AF919F918E
:100930008F917F916F915F914F913F912F910F9088
:100940000FBE0F901F901895982F83FF02C088E26A
:10095000982797FF02C090E001C0906484B7877F1A
:1009600084BFF894809160008861809360009093C8
:10097000600078940895EAE7F0E0908180818F77B5
:10098000808383B7817F846083BFF89483B781605D
:1009900083BF85B7806685BF85B78F79806485BF43
:1009A0007894889583B78E7F83BF90937A0008955B
:1009B000CF92DF92EF92FF921F93CF93DF937C0150
:1009C000EC0158E0C52ED12C20C01F5F193029F052
:1009D0009695879580329105C0F71092A602812FD7
:1009E0000E94A4040E94BB048FEF0E94A4049601FD
:1009F00002C0220F331F1A95E2F7C21BD30B80915E
:100A0000A602882351F0C21BD30BC031D10510F4CC
:100A100061E004C0CE0110E0DDCF60E02091FE0275
:100A20003091FF024091000350910103EC1AFD0A3E
:100A3000C701A0E0B0E0820F931FA41FB51F8093F1
:100A4000FE029093FF02A0930003B0930103862F50
:100A5000DF91CF911F91FF90EF90DF90CF9008959D
:100A60008091A6028F5F8093A6020895782F8CB59F
:100A700081608CBD6BB121E030E040E050E000903F
:100A8000370204C0220F331F441F551F0A94D2F7A8
:100A9000522F822F809586238BB99EBD0DB407FE01
:100AA000FDCF8EB57EBD0DB407FEFDCF4EB5382F00
:100AB00020E08BB1582B5BB98CB58E7F8CBD50E09C
:100AC000422B532BCA010895E9980E943605E99AF2
:100AD000089580E090E00E9436058091F70285300D
:100AE00009F054C080E090EB0E943605282F8091D9
:100AF000F902882371F49091F802992351F08091C2
:100B0000F902E82FF0E0E755FD4F90838F5F809367
:100B1000F9028091F902E82FF0E0E755FD4F2083BC
:100B20008F5F8093F9028091A7029091A80282279B
:100B3000282F22952827022E269526952025022E3D
:100B4000269520252770082E892F2695079427950E
:100B5000902D822706942795902582279093A802AE
:100B60008093A7028091AB022091F90290E0049655
:100B700030E0821793072CF08091F902873408F453
:100B80006DC08DE092E80E94360508958091F702CD
:100B900087FF2EC0E091AB028091F7028F5F8093B8
:100BA000F7028150ED5FE80FF0E0E755FD4FE0817F
:100BB0008091A7029091A8028E27282F229528279E
:100BC000022E269526952025022E26952025277073
:100BD000082E892F269507942795902D8227069415
:100BE0002795902582279093A8028093A70230C072
:100BF0008091F7028F5F8093F7028150833019F163
:100C000084302CF4882399F0813009F516C089309E
:100C100019F08A30E1F402C0EDE21AC0E091F80266
:100C20009091AB028EEF891B8093F70211C08091E7
:100C3000A7029091A802E82F0BC08091A702909183
:100C4000A802E92F05C08DE092E80E943605EAEA85
:100C50008E2F90E0805098440E9436050895809130
:100C6000F702853009F042C08091AB022091F90271
:100C700090E0049630E08217930724F08091F90207
:100C80008734A0F184E08093F7028091AB02833433
:100C900030F081E090E09093A8028093A7028091C9
:100CA000AA0286FF12C08091F602282F30E0C90107
:100CB0008F7190704F9749F08091AA0290E082273F
:100CC00093278F719070892B89F48091A70290915E
:100CD000A802892B09F044C0E091F402F091F502DA
:100CE000309709F43DC080E0099546C08091F70235
:100CF000843011F080E008951092AB028091AB0235
:100D00008093F9028FEF9FEF9093A8028093A70240
:100D10002091F8022223D9F08227282F2295282714
:100D2000022E269526952025022E26952025277011
:100D3000082E892F269507942795902D82270694B3
:100D40002795902582279093A8028093A70285E09B
:100D50008093F7028DED92E80E94360580E00895B9
:100D60008FEF9FEFAFEFBFEF8093F0029093F10210
:100D7000A093F202B093F30281E008958091F7020C
:100D8000853099F48091F902882379F480E090E02D
:100D90000E94640590FD09C08DE092E80E94640500
:100DA00084E08093F70281E0089580E00895982F11
:100DB00086FD05C0907E8091F6028F71980F90930A
:100DC000AA02E091F402F091F502309711F081E06F
:100DD00009958FEF9FEF9093A8028093A7028091CF
:100DE000A7029091A8022091F8028227282F22952D
:100DF0002827022E269526952025022E2695202589
:100E00002770082E892F269507942795902D8227E5
:100E100006942795902582279093A8028093A70295
:100E200086E08093F7028DE392E80E9436050895EC
:100E3000282F16C02223A1F093B7233011F484E0A9
:100E400005C0223011F080E001C08CE0917F892B39
:100E500083BF83B7816083BF889583B78E7F83BF4D
:100E60008091F702843031F708951F93182F87FF80
:100E700003C08DE092E80EC0992787FD9095956E8E
:100E80000E94640585E092E80E946405112321F028
:100E900087E092E80E94640584E08093F7021F9146
:100EA00008951F93182F4093AB022CEA32E0C9013A
:100EB00050E00E940D01812F0E94D7061F910895D6
:100EC0000F931F93CF93DF93182FEB01042F02C0D2
:100ED0000E942F060E94BE068823D1F3812FBE01F7
:100EE000402F0E945107DF91CF911F910F910895DC
:100EF0002BB181E090E0A0E0B0E00090370204C0A8
:100F0000880F991FAA1FBB1F0A94D2F7282B2BB951
:100F10002AB1822B8AB98AE061E00E948A108AE0B5
:100F200061E00E944B108BE061E00E944B108CE06E
:100F300060E00E944B108DE061E00E944B1080E564
:100F40008CBD8DB581608DBD83E060E00E944B104B
:100F500083E061E00E948A1008951F93162F80930A
:100F6000F6024093F8020E94780780E090E00E9429
:100F7000360585E092E80E94360580E098EB02C0D5
:100F800080E090E00E94360583E00E94DE10892B0D
:100F9000B9F3812F90E074E0880F991F7A95E1F7FB
:100FA000876C90680E94360580E496EA0E943605B8
:100FB00086E096EC0E94360582EA90E90E943605AA
:100FC0008CEA92EC0E9436051091F802112341F050
:100FD00083E89AEC0E943605812F90E09E6C06C053
:100FE0008BE89AEC0E9436058DE29EEC0E94360555
:100FF00083E894EC0E94360580E598E90E94360566
:1010000087E79CEC0E94360580E090EE0E94360552
:1010100080E098EC0E94360589E490EC0E94360549
:1010200084E08093F7028091F60290E08F719070D7
:10103000892B41F081E069E675E040E050E00E94D4
:10104000531103C081E00E9476118091F6021F9136
:101050000895FC0113861586148687E090E01286B9
:101060003197009711F00197FACF0895DC0180E0E5
:101070000BC0E82FF0E08D9190E0E827F927E859C0
:10108000FF4FE49161508E2F662399F70895DF9208
:10109000EF92FF920F931F93FC01E0800181128178
:1010A000F894F80181818E2981838281DE2CD0948D
:1010B0008D21828383E090E00E940610F8018181F7
:1010C0008D2181838AE090E00E940610F801008162
:1010D000789485E390E00E94061080E010E0FF2401
:1010E0000E211F21012B09F081E01F910F91FF902C
:1010F000EF90DF900895EF92FF920F931F93CF939D
:10110000DF937C0101E010E0C0E0D0E0C7010E9465
:1011100047088111102B000F2196C830D105B1F777
:10112000812FDF91CF911F910F91FF90EF90089544
:101130001F93CF93DF93FC011081C181D281912F46
:10114000909560FF12C0F8948A8189238A838981EF
:10115000812B89838AE090E00E9406108A81812B8E
:101160008A83789487E390E011C0F8948A81892378
:101170008A838981812B898381E490E00E94061013
:101180008A81812B8A83789485E090E00E94061002
:10119000DF91CF911F910895CF92DF92EF92FF924E
:1011A0000F931F93CF93DF938C01E42EFF24F394CE
:1011B000C0E0D0E0C62EDD2460E08F2D90E08C21D1
:1011C0009D21892B09F061E0C8010E949808FF0C5D
:1011D0002196C830D10581F7EE20A9F4F894D80102
:1011E0001196ED91FC91129791818C9180959823A5
:1011F00091831196ED91FC91129792818C9180953B
:10120000982392837894DF91CF911F910F91FF9053
:10121000EF90DF90CF9008956CEC40E00E94CC08F6
:101220000895EF92FF920F931F93CF93DF938C015A
:101230007B0165E540E00E94CC08C0E0D0E0F7010A
:10124000EC0FFD1FC801608140E00E94CC08219690
:10125000C830D105A1F7DF91CF911F910F91FF9079
:10126000EF900895DF92EF92FF920F931F93CF9329
:10127000DF93FC010081C181D281F8948981D02E55
:10128000D0948D21898378941DE7E02EFF2411509E
:1012900059F182E090E00E940610888190E08E2152
:1012A0009F21892BA1F3F8948A818D218A838981DA
:1012B000802B8983789480EE91E00E940610F89448
:1012C00089818D21898386E490E00E9406108881BF
:1012D00010E090E0E822F922EF2809F411E0789478
:1012E0008AE991E00E940610812FDF91CF911F9132
:1012F0000F91FF90EF90DF900895AF92BF92DF9231
:10130000EF92FF920F931F93CF93DF93EC015B015A
:101310008D85882309F061C0CE010E94320988239F
:1013200029F41B861D861C8690E06BC0CE0160EF01
:1013300040E00E94CC0801E0DD24EE24FF24F39479
:10134000CE010E944708182FCE010E944708113095
:1013500019F48130E1F439C0181709F58B850817A5
:1013600070F460E0FE01EE0DF11D838190E02F2D01
:1013700030E082239323181619064CF003C060E076
:10138000081729F0093008F04CC00C874AC0FE014C
:10139000EE0DF11D83818F29838361E009C0612FE8
:1013A000FE01EE0DF11D9F2D90958381892383838E
:1013B000CE010E9498080F5FFF0C19F4E394FF24FC
:1013C000F39487E08E1508F0BBCF013430F0DB8654
:1013D000DD2011F581E08D871FC01B861D861C86D0
:1013E00090E0DE0120E030E0F501E20FF31F1396FC
:1013F0008C91139780832F5F3F4F119628303105D2
:1014000099F7892FDF91CF911F910F91FF90EF9066
:10141000DF90BF90AF9008958B818823F1F291E027
:10142000E0CFD02EBDCFFF920F931F938C01F62EED
:10143000862F60E00E944B108F2D90E0FC01E65655
:10144000FE4FE491D801EC938A579E4FFC016491C2
:10145000E62FF0E0EE0FFF1FE458FE4F85919491C8
:1014600012969C938E9311971B961C921B971D9618
:101470001C921D971C961C92F80187E090E0128642
:101480003197009711F00197FACF1F910F91FF90BC
:101490000895FC0185E19BE0928B818B76836583C7
:1014A0001482108289E0818381E08283838308959E
:1014B000FC0184810895FC01628308956F927F92FC
:1014C0008F929F92AF92BF92CF92DF92EF92FF9254
:1014D0000F931F93CF93DF93FB01EA01998180E083
:1014E000288130E0282B392BE081E23231F0E832DC
:1014F00021F0E03109F084C04BC04C814F3329F119
:10150000403420F44F3109F07BC02FC04F3579F0C3
:101510004F3709F075C0B901882777FD8095982F5E
:101520000E945B1620E030E040E85DE32EC0359578
:101530002795B901882777FD8095982F0E945B1623
:1015400020E030E040E05EE320C0359527953595FA
:101550002795B901882777FD8095982F0E945B1603
:1015600020E030E040E85EE310C093E03595279539
:101570009A95E1F7B901882777FD8095982F0E9409
:101580005B1620E030E040E05FE30E940F1732C0BE
:10159000EF8035952795B901882777FD8095982F9D
:1015A0000E945B1620E030E040E85EE30E945715A1
:1015B0003B014C016E2D70E02E81621B7109882762
:1015C00077FD8095982F0E945B165B016C01FF24CC
:1015D00000E010E0C801B7010E9459169B01AC0160
:1015E000C601B5010E94C0159B01AC01C401B30145
:1015F0000E9458159B01AC01832F942F752F00C0BA
:10160000262F382F492F572FB901CA01DF91CF91CB
:101610001F910F91FF90EF90DF90CF90BF90AF9010
:101620009F908F907F906F9008950895EF92FF9212
:101630000F931F938C017B01FC01858196810E9491
:101640003209F80185819681B7010E941109F801DC
:101650008581968164EB40E00E94CC08F801858189
:1016600096810E944708F82EF801858196810E9494
:10167000320980E0FF2009F481E01F910F91FF9073
:10168000EF900895EF92FF920F931F93CF93DF9304
:10169000EC018B017A018D819E810E9432098D813E
:1016A0009E81B8010E9411098D819E816EE440E007
:1016B0000E94CC088D819E81F701628140E00E94EA
:1016C000CC088D819E81F701638140E00E94CC08A7
:1016D000F8018081803139F08D819E81F70164812C
:1016E00040E00E94CC088D819E810E9432098D814C
:1016F0009E8168E448810E94CC088881882331F06B
:101700006AE070E080E090E00E94AD0F8D819E81E4
:101710000E943209DF91CF911F910F91FF90EF90BE
:101720000895CF92DF92EF92FF920F931F938C0157
:101730006B017A01FC01858196810E943209F801D2
:1017400085819681B6010E941109F80185819681F3
:101750006EEB40E00E94CC08F801858196810E94E2
:101760007B08F7018083F801858196810E947B08C0
:10177000F7018183F801858196810E947B08F7013A
:101780008283F801858196810E947B08F70183831B
:10179000F801858196810E947B08F7018483F80116
:1017A000858196810E947B08F7018583F8018581F8
:1017B00096810E947B08F7018683F80185819681D6
:1017C0000E947B08F7018783F801858196810E943A
:1017D0007B08F7018087F801858196810E94320994
:1017E0001F910F91FF90EF90DF90CF900895DF93BE
:1017F000CF93CDB7DEB729970FB6F894DEBF0FBEF3
:10180000CDBFAE014F5F5F4F0E94910B8981811167
:1018100081E029960FB6F894DEBF0FBECDBFCF9101
:10182000DF910895CF92DF92EF92FF920F931F9373
:10183000CF93DF93EC016B01452BE1F08B81882383
:10184000C9F088818823B1F40E949F0F7B018C012D
:10185000CE0160E070E00E94F70B882359F40E94EB
:101860009F0F6E197F09800B910B6E5E7240804056
:10187000904070F3F6016081693039F06930A0F072
:101880006A3041F06B3081F40AC06EE570E080E0B0
:1018900090E00EC06CEB70E080E090E009C067E77C
:1018A00071E080E090E004C06EEE72E080E090E0D5
:1018B0000E94AD0FDF91CF911F910F91FF90EF909C
:1018C000DF90CF900895CF93DF93EC018D819E81BF
:1018D0000E9432098D819E810E940C098D819E811A
:1018E00064E448810E94CC088A81882339F0CE01C3
:1018F0002196BE0140E050E00E94120CDF91CF9192
:1019000008950F931F938A010E94910BC80168E00C
:101910000E94360820E0F8019085891709F421E03B
:10192000822F1F910F910895CF92DF92EF92FF9235
:101930000F931F93DF93CF93CDB7DEB729970FB6E1
:10194000F894DEBF0FBECDBF8C017B016E01089401
:10195000C11CD11CA6010E94810C882329F460E0DF
:1019600070E08EEF92EC05C0C801B701A6010E949D
:101970005E0A29960FB6F894DEBF0FBECDBFCF9199
:10198000DF911F910F91FF90EF90DF90CF9008951E
:10199000DF93CF93CDB7DEB729970FB6F894DEBFAC
:1019A0000FBECDBF9C01FB0180818031D9F0C90100
:1019B000AE014F5F5F4F0E94810C8823A9F08D819B
:1019C0008F3371F0803418F48F3171F40BC08F3580
:1019D00019F08F3749F402C08BE007C08CE005C0D6
:1019E0008AE003C089E001C080E029960FB6F89430
:1019F000DEBF0FBECDBFCF91DF910895CF92DF92B2
:101A0000EF92FF921F93DF93CF93CDB7DEB7299765
:101A10000FB6F894DEBF0FBECDBF6C017B01142F53
:101A2000AE014F5F5F4F0E94810C8823E1F0F70108
:101A300080818031B9F01A3051F01A3050F01B30EB
:101A400021F01C3031F48FE705C08FE503C08FE330
:101A500001C08FE18D83C601B701AE014F5F5F4FBB
:101A60000E94420B81E029960FB6F894DEBF0FBEAC
:101A7000CDBFCF91DF911F91FF90EF90DF90CF907E
:101A800008950F931F938B01CB0167E00E943608E6
:101A900020E0F8019781891709F421E0822F1F9136
:101AA0000F910895AF92BF92CF92DF92EF92FF9283
:101AB0000F931F93DF93CF93CDB7DEB761970FB628
:101AC000F894DEBF0FBECDBF7C01FC0185819681FD
:101AD0000E942908F70114826E010894C11CD11CD0
:101AE00079E0A72EB12CAC0EBD1E01E02BC0C701C2
:101AF000B6010E94410D882329F1F70180818823D6
:101B000041F4C701B6010E94160B882311F0F701BA
:101B10000083C701B601A5010E94910BF701118155
:101B2000C701B6010E94C80C811718F4F701818122
:101B300004C0C701B6010E94C80CF70181838481EB
:101B40008F5F8483F70185819681B6010E947D09AC
:101B5000882369F661960FB6F894DEBF0FBECDBF3D
:101B6000CF91DF911F910F91FF90EF90DF90CF9079
:101B7000BF90AF900895FC0166834783208781E082
:101B8000858708950F931F938C01FC01868160E087
:101B90000E944B10F801868161E00E948A10F801D2
:101BA00011861286138614861F910F910895CF9285
:101BB000DF92EF92FF920F931F93CF93DF93EC018D
:101BC0008E8161E00E948A106AEF70E080E090E010
:101BD0000E94AD0F0E949F0F9B01AC0189859A85E1
:101BE000AB85BC85281739074A075B0720F419869F
:101BF0001A861B861C868D85882371F489859A85B3
:101C0000AB85BC85281B390B4A0B5B0B205D37402D
:101C10004040504008F477C01D860E949F0F69879E
:101C20007A878B879C871C821B821A821982188272
:101C30008E8161E00E944B108E8160E00E948A10CC
:101C400064E170E080E090E00E94AD0FF8948E8136
:101C500061E00E948A1088E290E00E9406108E8166
:101C600060E00E944B1081E0EE2400E010E00AC02A
:101C7000F39481E090E00E9406108FEFF81629F4AB
:101C80000AC0822FFF24C82EDD248E810E94DE1020
:101C90008C159D0569F38E810E94DE10282F8FEF31
:101CA000F816C9F0043090F000FD10C08E2D869516
:101CB00086958695FE01E80FF11D9081990F90831E
:101CC00088858F1510F491609083E3940F5F1F4F08
:101CD00005351105B1F6789487E28E1510F030E0E5
:101CE00013C030E04C8150E02981888190E0820F60
:101CF000911D2A81820F911D2B81820F911D907061
:101D00004817590709F431E0832FDF91CF911F91D4
:101D10000F91FF90EF90DF90CF900895EF92FF9298
:101D20000F931F93CF93DF93EC010E94D70D88236D
:101D3000A9F18F818B3031F08B3080F18551823069
:101D400068F507C0688170E080E090E00E94591655
:101D500022C0688170E080E090E00E94591620E087
:101D600030E040E853E40E940F177B018C01698149
:101D700070E0882777FD8095982F0E945B169B0165
:101D8000AC01C801B7010E94581520E030E040E2E4
:101D900051E40E94C015E62F692F0AC08FE893E036
:101DA0006DE272E00E941F13E0E070E080EC6FE7EC
:101DB0002E2F372F482F562FB901CA01DF91CF910F
:101DC0001F910F91FF90EF900895CF92DF92EF92C5
:101DD000FF920F931F93CF93DF93EC01C62E0E94C7
:101DE000D70D882309F450C08F818B3041F08B30A0
:101DF00008F44AC08551823008F046C007C06A81A5
:101E000070E080E090E00E94591629C0DA806D2DC4
:101E100070E06F777070882777FD8095982F0E940B
:101E20005B1620E030E040E853E40E940F177B018E
:101E30008C016B8170E0882777FD8095982F0E9438
:101E40005B169B01AC01C801B7010E94581520E048
:101E500030E040E251E40E94C015D7FC9058CC20FD
:101E6000E9F020E030E040E151E40E940F1720E06B
:101E700030E040EA50E40E94C01520E030E040E04D
:101E800052E40E9458150AC08FE893E06DE272E0B8
:101E90000E941F1360E070E080EC9FE7DF91CF911C
:101EA0001F910F91FF90EF90DF90CF9008951F92B8
:101EB0000F920FB60F9211242F933F938F939F93FE
:101EC000AF93BF938091FE029091FF02A091000317
:101ED000B0910103309102030196A11DB11D232F82
:101EE0002D5F2D3720F02D570196A11DB11D209398
:101EF00002038093FE029093FF02A0930003B0932D
:101F000001038091FA029091FB02A091FC02B09132
:101F1000FD020196A11DB11D8093FA029093FB0270
:101F2000A093FC02B093FD02BF91AF919F918F915E
:101F30003F912F910F900FBE0F901F9018958FB764
:101F4000F8942091FE023091FF02409100035091DD
:101F500001038FBFB901CA0108959B01AC017FB78E
:101F6000F8948091FA029091FB02A091FC02B0914A
:101F7000FD0266B5A89B05C06F3F19F00196A11D33
:101F8000B11D7FBFBA2FA92F982F8827860F911DCB
:101F9000A11DB11D62E0880F991FAA1FBB1F6A9582
:101FA000D1F7BC012DC0FFB7F8948091FA0290914F
:101FB000FB02A091FC02B091FD02E6B5A89B05C012
:101FC000EF3F19F00196A11DB11DFFBFBA2FA92F38
:101FD000982F88278E0F911DA11DB11DE2E0880F5B
:101FE000991FAA1FBB1FEA95D1F7861B970B885E26
:101FF0009340C8F2215030404040504068517C4FDF
:10200000211531054105510571F60895019739F003
:10201000880F991F880F991F02970197F1F708956C
:10202000789484B5826084BD84B5816084BD85B5B3
:10203000826085BD85B5816085BDEEE6F0E080817A
:1020400081608083E1E8F0E010828081826080839B
:10205000808181608083E0E8F0E08081816080831E
:10206000E1EBF0E0808184608083E0EBF0E0808150
:1020700081608083EAE7F0E08081846080838081F2
:10208000826080838081816080838081806880839A
:102090001092C1000895CF93DF93482F50E0CA01FA
:1020A00086569E4FFC0134914A575E4FFA01849147
:1020B000882369F190E0880F991FFC01E859FE4FD1
:1020C000A591B491FC01EE58FE4FC591D4916623C1
:1020D00051F42FB7F8948C91932F909589238C937A
:1020E000888189230BC0623061F42FB7F8948C91FA
:1020F000932F909589238C938881832B88832FBF7E
:1021000006C09FB7F8948C91832B8C939FBFDF916F
:10211000CF910895482F50E0CA0182559E4FFC018F
:102120002491CA0186569E4FFC0194914A575E4FF6
:10213000FA013491332309F440C0222351F12330B2
:1021400071F0243028F42130A1F0223011F514C0B0
:102150002630B1F02730C1F02430D9F404C080918A
:1021600080008F7703C0809180008F7D80938000F6
:1021700010C084B58F7702C084B58F7D84BD09C03F
:102180008091B0008F7703C08091B0008F7D8093E5
:10219000B000E32FF0E0EE0FFF1FEE58FE4FA591C9
:1021A000B4912FB7F894662321F48C9190958923EC
:1021B00002C08C91892B8C932FBF0895682F70E0FB
:1021C000CB0182559E4FFC012491CB0186569E4F38
:1021D000FC0144916A577E4FFB019491992319F4B5
:1021E00020E030E03CC0222351F1233071F0243054
:1021F00028F42130A1F0223011F514C02630B1F0BE
:102200002730C1F02430D9F404C0809180008F774A
:1022100003C0809180008F7D8093800010C084B5C2
:102220008F7702C084B58F7D84BD09C08091B000D6
:102230008F7703C08091B0008F7D8093B000892F8D
:1022400090E0880F991F84589E4FFC01A591B4918E
:102250008C9120E030E0842311F021E030E0C901CE
:102260000895982F8E3008F09E5097708091380214
:102270008295880F880F807C892B80937C008091C9
:102280007A00806480937A0080917A0086FDFCCF8A
:102290002091780040917900942F80E030E0282B45
:1022A000392BC9010895823000F5E82FF0E0EE0FD8
:1022B000FF1FED5FFC4F71836083882319F081302D
:1022C000A1F408C0809169008C7F842B8093690001
:1022D000E89A089580916900440F551F440F551FD7
:1022E000837F842B80936900E99A0895823080F47B
:1022F000882319F0813021F402C0E89801C0E998E0
:10230000E82FF0E0EE0FFF1FED5FFC4F118210820F
:1023100008951F920F920FB60F9211242F933F939F
:102320004F935F936F937F938F939F93AF93BF93DD
:10233000EF93FF938091030390910403892B29F07D
:10234000E0910303F09104030995FF91EF91BF9190
:10235000AF919F918F917F916F915F914F913F913D
:102360002F910F900FBE0F901F9018951F920F92F4
:102370000FB60F9211242F933F934F935F936F9358
:102380007F938F939F93AF93BF93EF93FF9380912E
:10239000050390910603892B29F0E0910503F09144
:1023A00006030995FF91EF91BF91AF919F918F9196
:1023B0007F916F915F914F913F912F910F900FBE41
:1023C0000F901F901895CF92DF92EF92FF920F938C
:1023D0001F93CF93DF937C016B018A01C0E0D0E0B3
:1023E0000FC0D6016D916D01D701ED91FC91019067
:1023F000F081E02DC7010995C80FD91F0150104089
:102400000115110571F7CE01DF91CF911F910F9149
:10241000FF90EF90DF90CF900895EF92FF920F938F
:102420001F938C01DC01ED91FC910190F081E02D76
:102430006DE009957C01D801ED91FC910190F0814E
:10244000E02DC8016AE009959C012E0D3F1DC901D0
:102450001F910F91FF90EF900895CF93DF93EC01C0
:102460006115710519F420E030E00FC0DB010D901B
:102470000020E9F71197A61BB70BE881F9810280CC
:10248000F381E02DAD0109959C01C901DF91CF9148
:1024900008954F925F927F928F929F92AF92BF92D8
:1024A000CF92DF92EF92FF920F931F93DF93CF9320
:1024B000CDB7DEB7A1970FB6F894DEBF0FBECDBF84
:1024C0002C01742ECB01223008F42AE019A231E24B
:1024D000C32ED12CCC0EDD1E822E9924AA24BB241F
:1024E000672D752FA50194010E94951779018A0126
:1024F000C801B701A50194010E947617472D461B1C
:102500000894C108D1084A3014F4405D01C0495C08
:10251000F6014083E114F1040105110521F07E2C40
:102520005F2DC801DDCFC201B6010E942D12A19618
:102530000FB6F894DEBF0FBECDBFCF91DF911F91D4
:102540000F91FF90EF90DF90CF90BF90AF909F9052
:102550008F907F905F904F900895CF92DF92EF928F
:10256000FF920F931F93CF93DF93EC016A017B01DE
:102570002115310541F4E881F9810190F081E02DC8
:10258000642F09951FC02A303105D1F477FF17C099
:10259000E881F9810190F081E02D6DE209958C01CF
:1025A00044275527BA014C195D096E097F09CE01F0
:1025B0002AE00E9449129801280F391F04C02AE01E
:1025C0000E9449129C01C901DF91CF911F910F9187
:1025D000FF90EF90DF90CF900895EF92FF920F93CE
:1025E0001F937B019A010027F7FC0095102FB8017B
:1025F000A7010E94AD121F910F91FF90EF900895D7
:10260000CF92DF92EF92FF920F931F936C017B01A9
:102610009A010027F7FC0095102FB801A7010E942E
:10262000AD128C01C6010E940D12080F191FC801BE
:102630001F910F91FF90EF90DF90CF9008950E942F
:102640002D120895EF92FF920F931F937C010E9429
:102650002D128C01C7010E940D12080F191FC8010D
:102660001F910F91FF90EF900895CF93DF930E94F9
:1026700010100E94C002C0E8D3E10E9456012097CA
:10268000E1F30E948013F9CF08951F920F920FB6C5
:102690000F9211242F933F934F938F939F93EF9318
:1026A000FF938091C00082FD1DC04091C600209123
:1026B0004703309148032F5F3F4F2F733070809155
:1026C000490390914A032817390771F0E0914703B5
:1026D000F0914803E95FFC4F408330934803209317
:1026E000470302C08091C600FF91EF919F918F91A7
:1026F0004F913F912F910F900FBE0F901F90189503
:10270000E0919B03F0919C03E05CFF4F81919191DC
:1027100020813181821B930B8F739070892B11F074
:102720000E94441308951F920F920FB60F92112426
:102730002F933F938F939F93EF93FF9320918B035E
:1027400030918C0380918D0390918E032817390767
:1027500031F48091C1008F7D8093C10014C0E0915D
:102760008D03F0918E03E55BFC4F208180918D03FA
:1027700090918E0301968F73907090938E03809347
:102780008D032093C600FF91EF919F918F913F9110
:102790002F910F900FBE0F901F901895AF92BF9280
:1027A000DF92EF92FF920F931F93CF93DF93EC0191
:1027B0007A018B01DD24403081EE580780E0680704
:1027C00080E0780711F0DD24D39491E0A92EB12C9C
:1027D000EC89FD89DD2069F0C50108A002C0880FE1
:1027E000991F0A94E2F7808360E079E08DE390E03E
:1027F00005C0108260E874E88EE190E0A8019701BE
:102800000E949517215030404040504056954795C2
:102810003795279580E12030380720F0DD2011F032
:10282000DD24D6CFE889F9893083EA89FB892083C2
:1028300019A2EE89FF89408121E030E0C9010C8CAA
:1028400002C0880F991F0A94E2F7482B4083EE8953
:10285000FF894081C9010D8C02C0880F991F0A941D
:10286000E2F7482B4083EE89FF894081C9010E8C35
:1028700002C0880F991F0A94E2F7482B4083EE8923
:10288000FF8980810F8C02C0220F331F0A94E2F768
:10289000209528232083DF91CF911F910F91FF90E6
:1028A000EF90DF90BF90AF900895DC011C96ED9102
:1028B000FC911D97E05CFF4F2191319180819181C6
:1028C000281B390B2F733070C9010895DC011C9649
:1028D000ED91FC911D97E05CFF4F20813181E05428
:1028E000F040DF01AE5BBF4F8D919C91119728178F
:1028F000390719F42FEF3FEF07C08D919C91E80F36
:10290000F91F8081282F30E0C9010895DC011C9651
:10291000ED91FC911D97E05CFF4F20813181E054E7
:10292000F040DF01AE5BBF4F8D919C91119728174E
:10293000390719F42FEF3FEF10C08D919C9111973B
:10294000E80FF91F20818D919C91119701968F734B
:10295000907011969C938E9330E0C9010895DC012C
:1029600091968C919197882339F05496ED91FC9132
:102970005597808186FFF9CF91961C920895CF9349
:10298000DF93EC01EE85FF85E05CFF4F2081318114
:10299000E054F0402F5F3F4F2F733070DF01AE5B8C
:1029A000BF4F8D919C91119728173907D1F3E05CA7
:1029B000FF4F80819181E054F040E80FF91F608360
:1029C000EE85FF85E05CFF4F31832083EE89FF8930
:1029D000208181E090E00F8C02C0880F991F0A943B
:1029E000E2F7282B208381E089A3EC89FD8980818F
:1029F0008064808381E090E0DF91CF91089581E051
:102A00000895109292031092910388EE93E0A0E053
:102A1000B0E08093930390939403A0939503B093B5
:102A200096038DE392E09093900380938F0387E069
:102A300093E090939C0380939B038BE493E09093AB
:102A40009E0380939D0385EC90E09093A003809378
:102A50009F0384EC90E09093A2038093A10380EC09
:102A600090E09093A4038093A30381EC90E0909373
:102A7000A6038093A50382EC90E09093A803809333
:102A8000A70386EC90E09093AA038093A90384E0C7
:102A90008093AB0383E08093AC0387E08093AD0326
:102AA00085E08093AE0381E08093AF030895505892
:102AB000BB27AA270ED075C166D130F06BD120F0AC
:102AC00031F49F3F11F41EF45BC10EF4E095E7FB77
:102AD00051C1E92F77D180F3BA17620773078407D2
:102AE000950718F071F49EF58FC10EF4E0950B2E4A
:102AF000BA2FA02D0B01B90190010C01CA01A00150
:102B00001124FF27591B99F0593F50F4503E68F1AA
:102B10001A16F040A22F232F342F4427585FF3CFEB
:102B2000469537952795A795F0405395C9F77EF4BC
:102B30001F16BA0B620B730B840BBAF09150A1F005
:102B4000FF0FBB1F661F771F881FC2F70EC0BA0F8B
:102B5000621F731F841F48F4879577956795B79513
:102B6000F7959E3F08F0B3CF9395880F08F099270B
:102B7000EE0F979587950895D9D008F481E00895D0
:102B80000CD00FC107D140F0FED030F021F45F3FF0
:102B900019F0F0C0511139C1F3C014D198F3992341
:102BA000C9F35523B1F3951B550BBB27AA27621711
:102BB0007307840738F09F5F5F4F220F331F441F56
:102BC000AA1FA9F333D00E2E3AF0E0E830D091508E
:102BD0005040E695001CCAF729D0FE2F27D0660F7B
:102BE000771F881FBB1F261737074807AB07B0E8BA
:102BF00009F0BB0B802DBF01FF2793585F4F2AF0D0
:102C00009E3F510568F0B6C000C15F3FECF3983EAF
:102C1000DCF3869577956795B795F7959F5FC9F72C
:102C2000880F911D9695879597F90895E1E0660FB5
:102C3000771F881FBB1F621773078407BA0720F02E
:102C4000621B730B840BBA0BEE1F88F7E095089597
:102C500004D06894B111D9C00895BCD088F09F57B2
:102C600090F0B92F9927B751A0F0D1F0660F771FD8
:102C7000881F991F1AF0BA95C9F712C0B13081F0B8
:102C8000C3D0B1E00895C0C0672F782F8827B85F00
:102C900039F0B93FCCF3869577956795B395D9F719
:102CA0003EF490958095709561957F4F8F4F9F4F23
:102CB0000895E89409C097FB3EF49095809570952F
:102CC00061957F4F8F4F9F4F9923A9F0F92F96E978
:102CD000BB279395F695879577956795B795F111ED
:102CE000F8CFFAF4BB0F11F460FF1BC06F5F7F4F8A
:102CF0008F4F9F4F16C0882311F096E911C077239C
:102D000021F09EE8872F762F05C0662371F096E8A4
:102D1000862F70E060E02AF09A95660F771F881F73
:102D2000DAF7880F9695879597F90895990F000817
:102D3000550FAA0BE0E8FEEF16161706E807F9078D
:102D4000C0F012161306E407F50798F0621B730B28
:102D5000840B950B39F40A2661F0232B242B252BA9
:102D600021F408950A2609F4A140A6958FEF811D4C
:102D7000811D089597F99F6780E870E060E00895ED
:102D80009FEF80EC089500240A9416161706180683
:102D90000906089500240A9412161306140605065F
:102DA0000895092E0394000C11F4882352F0BB0FF0
:102DB00040F4BF2B11F460FF04C06F5F7F4F8F4F53
:102DC0009F4F089557FD9058440F551F59F05F3F8E
:102DD00071F04795880F97FB991F61F09F3F79F03D
:102DE00087950895121613061406551FF2CF4695BF
:102DF000F1DF08C0161617061806991FF1CF869541
:102E00007105610508940895E894BB276627772724
:102E1000CB0197F908958ADF08F48FEF08950BD05E
:102E2000C0CFB1DF28F0B6DF18F0952309F0A2CFAC
:102E3000A7CF1124EACFC6DFA0F3959FD1F3950F5A
:102E400050E0551F629FF001729FBB27F00DB11D2E
:102E5000639FAA27F00DB11DAA1F649F6627B00DBE
:102E6000A11D661F829F2227B00DA11D621F739FA7
:102E7000B00DA11D621F839FA00D611D221F749FB5
:102E80003327A00D611D231F849F600D211D822FFC
:102E9000762F6A2F11249F5750408AF0E1F0882343
:102EA0004AF0EE0FFF1FBB1F661F771F881F915050
:102EB0005040A9F79E3F510570F05CCFA6CF5F3F11
:102EC000ECF3983EDCF3869577956795B795F79583
:102ED000E7959F5FC1F7FE2B880F911D969587950B
:102EE00097F9089523DF880B990B0895629FD0010D
:102EF000739FF001829FE00DF11D649FE00DF11DB5
:102F0000929FF00D839FF00D749FF00D659FF00D63
:102F10009927729FB00DE11DF91F639FB00DE11D50
:102F2000F91FBD01CF0111240895A1E21A2EAA1B99
:102F3000BB1BFD010DC0AA1FBB1FEE1FFF1FA21769
:102F4000B307E407F50720F0A21BB30BE40BF50B66
:102F5000661F771F881F991F1A9469F760957095EF
:102F6000809590959B01AC01BD01CF010895EE0FB6
:0E2F7000FF1F0590F491E02D0994F894FFCF17
:102F7E002000656D6F6E5448004F70656E456E652E
:102F8E007267794D6F6E69746F722E6F7267004E35
:102F9E006F64653A200020467265713A2000343322
:102FAE00334D687A00204E6574776F726B3A20004D
:102FBE00202D20556E61626C6520746F2066696EDF
:102FCE00642044485432322053656E736F722E2E35
:102FDE00747279696E67206167696E00202D2055C5
:102FEE006E61626C6520746F2066696E6420444861
:102FFE005432322053656E736F7220666F722032B8
:10300E006E642074696D652E2E676976696E672011
:10301E007570004465746563746564204448543269
:10302E00322074656D7020262068756D6964697430
:10303E0079207365736E6F72004E6F204453313872
:10304E00423230206465746563746564004465744F
:10305E006563746564200020445331384232300079
:10306E004453313842323020616E64204448543229
:10307E003220666F756E642C20617373756D696E88
:10308E00672044533138423230206973206578749A
:10309E0065726E616C2073656E736F72005265613E
:1030AE0064206661696C00040100000000BF14E337
:0A30BE0011551486146614AF1400B7
:00000001FF
