:100000000C94E3000C94F5110C9422120C940B0147
:100010000C940B010C940B010C94EC040C940B014C
:100020000C940B010C940B010C940B010C940B0120
:100030000C940B010C940B010C940B010C940B0110
:100040000C94C30F0C940B010C94A7140C94F5148E
:100050000C940B010C940B010C940B010C940B01F0
:100060000C940B010C940B01005EBCE2613FDD833C
:10007000C29C7E20A3FD1F419DC3217FFCA2401E88
:100080005F01E3BD3E6082DC237D9FC1421CFEA078
:10009000E1BF5D0380DE3C62BEE0025CDF81633D68
:1000A0007C22C09E1D43A1FF4618FAA427799BC558
:1000B00084DA3866E5BB5907DB856739BAE4065848
:1000C0001947A5FB7826C49A653BD987045AB8E638
:1000D000A7F91B45C6987A24F8A6441A99C7257B28
:1000E0003A6486D85B05E7B98CD2306EEDB3510F18
:1000F0004E10F2AC2F7193CD114FADF3702ECC9208
:10010000D38D6F31B2EC0E50AFF1134DCE90722CF7
:100110006D33D18F0C52B0EE326C8ED0530DEFB1E7
:10012000F0AE4C1291CF2D73CA947628ABF51749D7
:100130000856B4EA6937D58B5709EBB536688AD4C7
:1001400095CB2977F4AA4816E9B7550B88D6346AB7
:100150002B7597C94A14F6A8742AC896154BA9F7A7
:10016000B6E80A54D7896B35000000002400270048
:100170002A0000000000250028002B0000000000DD
:1001800023002600290004040404040404040202D9
:100190000202020203030303030301020408102006
:1001A0004080010204081020010204081020000011
:1001B0000007000201000003040600000000000028
:1001C00000001601611611241FBECFEFD8E0DEBF7C
:1001D000CDBF12E0A0E0B1E0EEE3F2E302C0059093
:1001E0000D92A03BB107D9F714E0A0EBB2E001C03B
:1001F0001D92A731B107E1F711E0C6ECD1E004C0D0
:100200002297FE010E941919C23CD107C9F70E942A
:1002100097140C941D190C940000FB01DC0102C022
:1002200001900D9241505040D8F708950F931F93BD
:1002300081EB92E062E146E126E00E94270E00ECAD
:1002400012E0C80163E10E947F0A8EEC92E0B801DF
:100250000E94B50A1F910F9108959F92AF92BF928D
:10026000CF92DF92EF92FF920F931F933AE7C32E44
:10027000D12CF60190802BE7E22EF12CF701A08023
:100280000CE710E0F801B0800E944405F60190826E
:10029000F701A082F801B0821F910F91FF90EF90BB
:1002A000DF90CF90BF90AF909F900895EF92FF9214
:1002B0000F931F938091E102882311F58091BF0273
:1002C0008823F1F400E010E089E061E00E94F6107C
:1002D00068EC70E080E090E00E94191089E060E036
:1002E0000E94F61068EC70E080E090E00E94191027
:1002F0000F5F1F4F0431110539F7F8940E9427054D
:100300008091E102813009F06CC085E061E00E94DB
:10031000F61082E390E00E942D0100E010E00FC093
:10032000B80143E0660F771F4A95E1F764517D4FAE
:100330008EEC92E04BE00E946A0D0F5F1F4F8091A0
:10034000EA029091EB020817190754F38EEC92E041
:100350000E94CF0C87E791E00E942D018EEC92E085
:100360006CEE72E00E94000D7B018C0185E060E084
:100370000E94F610C801B70120E030E04AEF52E4D5
:100380000E941C1788236CF5C801B70120E030E0FB
:1003900040E252EC0E946B1818161CF58091BF02C7
:1003A000882379F4C801B70120E030E040E251E44D
:1003B0000E946F180E9488177093E3026093E20214
:1003C00010C0813071F4C801B70120E030E040E294
:1003D00051E40E946F180E9488177093E5026093A1
:1003E000E4028091BF02813009F043C086E061E001
:1003F0000E94F61080ED97E00E942D0181EB92E0C3
:100400000E94FA0E20E030E040E251E40E946F18B2
:100410000E9488177093E7026093E60281EB92E0F6
:1004200060E00E94510F7B018C0120E030E04AEA3D
:1004300052E40E941C178823C4F4C801B70120E0CD
:1004400030E040E252EC0E946B18181674F4C801B8
:10045000B70120E030E040E251E40E946F180E94B2
:1004600088177093E3026093E20286E060E00E94E6
:10047000F61081E00E949D11AA2797FDA095BA2F42
:10048000BC01CD010E94BB1727E031E244E05DE3EF
:100490000E946F180E9488177093E9026093E80227
:1004A0008091B002813009F0BAC08091E1028823C6
:1004B00009F444C085EF93E060E071E00E949A1374
:1004C0008091BF028823C1F06091E4027091E5023F
:1004D000882777FD8095982F0E94BB1720E030E099
:1004E00040E251E40E942017AB01BC0185EF93E08C
:1004F00022E030E00E9481148091BF028823C1F481
:100500006091E2027091E302882777FD8095982F31
:100510000E94BB1720E030E040E251E40E94201727
:10052000AB01BC0185EF93E022E030E00E94811432
:1005300085EF93E066E171E00E949A138091BF021B
:10054000882309F442C085EF93E06AE171E00E94DC
:100550009A136091E2027091E302882777FD8095FB
:10056000982F0E94BB1720E030E040E251E40E9447
:100570002017AB01BC0185EF93E022E030E00E9440
:10058000811485EF93E06EE271E00E949A1360910E
:10059000E6027091E702882777FD8095982F0E94E8
:1005A000BB1720E030E040E251E40E942017AB018D
:1005B000BC0185EF93E022E030E00E94811485EFDA
:1005C00093E062E471E00E949A1385EF93E066E4A1
:1005D00071E00E949A136091E8027091E902882705
:1005E00077FD8095982F0E94BB1720E030E040E215
:1005F00051E40E942017AB01BC0185EF93E022E09B
:1006000030E00E94811485EF93E068E571E00E947C
:10061000841464E670E080E090E00E9419108091FC
:1006200064008B7F809364008FEF0E94A10780E0BD
:1006300062EE72E048E00E94CC0782E00E948407EC
:1006400080E00E94A1078091640084608093640030
:1006500010917A0000917B00F0907C0080E69AEE89
:100660000E94440510937A0000937B00F0927C0076
:100670001F910F91FF90EF900895AF92BF92CF928C
:10068000DF92EF92FF920F931F93CF93DF9389E056
:1006900061E00E94B71089E061E00E94F61083E1FA
:1006A00061E042ED0E941908C0E0D0E0D093E3027F
:1006B000C093E20280E062EE72E048E00E94CC0764
:1006C00064E670E080E090E00E9419102196CA3044
:1006D000D10561F782E00E9484071092E302109234
:1006E000E20280E00E94A1078091B002813009F00F
:1006F00042C085EF93E040E855E260E070E00E9480
:10070000301585EF93E06AE571E00E94841485EF6F
:1007100093E061E671E00E94841485EF93E067E75F
:1007200071E00E949A1385EF93E063E170E04AE084
:1007300050E00E94681385EF93E06EE771E00E943D
:100740009A1385EF93E066E871E00E949A1385EFB3
:1007500093E06DE871E00E949A1385EF93E062EDFB
:1007600070E04AE050E00E947B1364E670E080E0B5
:1007700090E00E94191086E061E00E94B71085E0C9
:1007800061E00E94B71081E060E00E94B71086E04F
:1007900060E00E94F61080B7806880BF8091B00250
:1007A000882329F4809164008260809364008091A2
:1007B0006400806880936400809164008860809306
:1007C00064008091640084608093640086E061E04E
:1007D0000E94F61080ED97E00E942D0181EB92E0DF
:1007E0000E942E0E81EB92E00E94FA0E5B016C01DA
:1007F00081EB92E060E00E94510F7B018C0186E06A
:1008000060E00E94F610C801B701A80197010E949C
:10081000D218882349F4C601B501A60195010E94AA
:10082000D218882309F4C3C08091B002813031F41A
:1008300085EF93E068E971E00E94841464E670E05B
:1008400080E090E00E9419108CED95E00E94440534
:1008500081EB92E00E94FA0E7B018C0181EB92E029
:1008600060E00E94510F9B01AC010E94D2188823C6
:1008700041F4C801B701A80197010E94D21888234A
:1008800099F08091B002813031F485EF93E064EC0F
:1008900071E00E9484141092BF0206C085EF93E0BD
:1008A0006BEF71E00E94841485E061E00E94F61015
:1008B00062E370E080E090E00E9419108EEC92E01C
:1008C0000E94BE0D8EEC92E060E00E94C70A8EECA2
:1008D00092E00E94C40A8093EA021092EB0210E0B8
:1008E000612F70E08091EA029091EB02681779071E
:1008F0000CF066C053E0660F771F5A95E1F764511C
:100900007D4F80EC92E00E94E909882309F458C0E9
:100910001F5FE6CF8091B002813031F485EF93E024
:1009200061E272E00E9484141092E10227C081E02B
:100930008093E1028091B002813031F485EF93E041
:1009400065E372E00E949A136091EA027091EB02F3
:1009500085EF93E04AE050E00E94681385EF93E052
:100960006FE372E00E9484148091BF02813031F401
:1009700085EF93E068E472E00E9484148091B002F5
:10098000813031F468EC70E080E090E00E94191052
:1009900089E060E00E94F610DF91CF911F910F91E6
:1009A000FF90EF90DF90CF90BF90AF90089581E0DF
:1009B0008093BF028091B002813009F075CF6ECF75
:1009C00085E060E00E94F6108091EA029091EB02CF
:1009D000892B09F49FCFABCF1F920F920FB60F92C6
:1009E00011242F933F934F935F936F937F938F9334
:1009F0009F93AF93BF93EF93FF930E949C05FF914A
:100A0000EF91BF91AF919F918F917F916F915F9186
:100A10004F913F912F910F900FBE0F901F901895FF
:100A2000982F83FF02C088E2982797FF02C090E0CA
:100A300001C0906484B7877F84BFF8948091600080
:100A40008861809360009093600078940895EAE74D
:100A5000F0E0908180818F77808383B7817F84608D
:100A600083BFF89483B7816083BF85B7806685BFF5
:100A700085B78F79806485BF7894889583B78E7F9A
:100A800083BF90937A000895CF92DF92EF92FF9206
:100A90001F93CF93DF937C01EC0158E0C52ED12C3E
:100AA00020C01F5F193029F09695879580329105F7
:100AB000C0F710920C03812F0E9410050E94270599
:100AC0008FEF0E941005960102C0220F331F1A9566
:100AD000E2F7C21BD30B80910C03882351F0C21B99
:100AE000D30BC031D10510F461E004C0CE0110E099
:100AF000DDCF60E02091640330916503409166038F
:100B000050916703EC1AFD0AC701A0E0B0E0820F24
:100B1000931FA41FB51F8093640390936503A09354
:100B20006603B0936703862FDF91CF911F91FF90EB
:100B3000EF90DF90CF90089580910C038F5F8093AA
:100B40000C030895782F8CB581608CBD6BB121E0CA
:100B500030E040E050E000909D0204C0220F331FBF
:100B6000441F551F0A94D2F7522F822F8095862357
:100B70008BB99EBD0DB407FEFDCF8EB57EBD0DB405
:100B800007FEFDCF4EB5382F20E08BB1582B5BB957
:100B90008CB58E7F8CBD50E0422B532BCA0108953B
:100BA000E9980E94A205E99A089580E090E00E94E9
:100BB000A20580915D03853009F054C080E090EB80
:100BC0000E94A205282F80915F03882371F49091E1
:100BD0005E03992351F080915F03E82FF0E0E15F1D
:100BE000FC4F90838F5F80935F0380915F03E82FBA
:100BF000F0E0E15FFC4F20838F5F80935F03809183
:100C00000D0390910E038227282F22952827022E6C
:100C1000269526952025022E269520252770082E1C
:100C2000892F269507942795902D8227069427953E
:100C30009025822790930E0380930D0380911103DA
:100C400020915F0390E0049630E0821793072CF028
:100C500080915F03873408F46DC08DE092E80E94B4
:100C6000A205089580915D0387FF2EC0E0911103D6
:100C700080915D038F5F80935D038150ED5FE80F8E
:100C8000F0E0E15FFC4FE08180910D0390910E0355
:100C90008E27282F22952827022E26952695202557
:100CA000022E269520252770082E892F2695079439
:100CB0002795902D8227069427959025822790933B
:100CC0000E0380930D0330C080915D038F5F80938E
:100CD0005D038150833019F184302CF4882399F01E
:100CE000813009F516C0893019F08A30E1F402C06C
:100CF000EDE21AC0E0915E03909111038EEF891B23
:100D000080935D0311C080910D0390910E03E82F35
:100D10000BC080910D0390910E03E92F05C08DE06B
:100D200092E80E94A205EAEA8E2F90E08050984453
:100D30000E94A205089580915D03853009F042C0AC
:100D40008091110320915F0390E0049630E08217B8
:100D5000930724F080915F038734A0F184E08093AF
:100D60005D0380911103833430F081E090E0909333
:100D70000E0380930D038091100386FF12C08091B3
:100D80005C03282F30E0C9018F7190704F9749F0B4
:100D90008091100390E0822793278F719070892BA8
:100DA00089F480910D0390910E03892B09F044C0C2
:100DB000E0915A03F0915B03309709F43DC080E065
:100DC000099546C080915D03843011F080E008955C
:100DD000109211038091110380935F038FEF9FEFB7
:100DE00090930E0380930D0320915E032223D9F08C
:100DF0008227282F22952827022E26952695202502
:100E0000022E269520252770082E892F26950794D7
:100E10002795902D822706942795902582279093D9
:100E20000E0380930D0385E080935D038DED92E8C2
:100E30000E94A20580E008958FEF9FEFAFEFBFEF14
:100E40008093560390935703A0935803B09359038C
:100E500081E0089580915D03853099F480915F036E
:100E6000882379F480E090E00E94D00590FD09C0CD
:100E70008DE092E80E94D00584E080935D0381E0DC
:100E8000089580E00895982F86FD05C0907E80919A
:100E90005C038F71980F90931003E0915A03F091C7
:100EA0005B03309711F081E009958FEF9FEF9093EE
:100EB0000E0380930D0380910D0390910E032091FA
:100EC0005E038227282F22952827022E2695269515
:100ED0002025022E269520252770082E892F26955D
:100EE00007942795902D8227069427959025822791
:100EF00090930E0380930D0386E080935D038DE352
:100F000092E80E94A2050895282F16C02223A1F07E
:100F100093B7233011F484E005C0223011F080E053
:100F200001C08CE0917F892B83BF83B7816083BF31
:100F3000889583B78E7F83BF80915D03843031F7BE
:100F400008951F93182F87FF03C08DE092E80EC00D
:100F5000992787FD9095956E0E94D00585E092E8CF
:100F60000E94D005112321F087E092E80E94D0056D
:100F700084E080935D031F9108951F93182F409381
:100F8000110322E133E0C90150E00E940D01812FDD
:100F90000E9443071F9108950F931F93CF93DF93F0
:100FA000182FEB01042F02C00E949B060E942A0703
:100FB0008823D1F3812FBE01402F0E94BD07DF910E
:100FC000CF911F910F9108952BB181E090E0A0E0A7
:100FD000B0E000909D0204C0880F991FAA1FBB1F9C
:100FE0000A94D2F7282B2BB92AB1822B8AB98AE02E
:100FF00061E00E94F6108AE061E00E94B7108BE089
:1010000061E00E94B7108CE060E00E94B7108DE0B4
:1010100061E00E94B71080E58CBD8DB581608DBD0B
:1010200083E060E00E94B71083E061E00E94F61068
:1010300008951F93162F80935C0340935E030E94D4
:10104000E40780E090E00E94A20585E092E80E941B
:10105000A20580E098EB02C080E090E00E94A2052B
:1010600083E00E944A11892BB9F3812F90E074E04C
:10107000880F991F7A95E1F7876C90680E94A20506
:1010800080E496EA0E94A20586E096EC0E94A20502
:1010900082EA90E90E94A2058CEA92EC0E94A205E5
:1010A00010915E03112341F083E89AEC0E94A2059F
:1010B000812F90E09E6C06C08BE89AEC0E94A205FE
:1010C0008DE29EEC0E94A20583E894EC0E94A205AA
:1010D00080E598E90E94A20587E79CEC0E94A205A2
:1010E00080E090EE0E94A20580E098EC0E94A205AC
:1010F00089E490EC0E94A20584E080935D038091D6
:101100005C0390E08F719070892B41F081E065ED78
:1011100075E040E050E00E94BF1103C081E00E94F2
:10112000E21180915C031F910895FC0113861586DE
:10113000148687E090E012863197009711F00197AE
:10114000FACF0895DC0180E00BC0E82FF0E08D912C
:1011500090E0E827F927E859FF4FE49161508E2F7E
:10116000662399F70895DF92EF92FF920F931F93F2
:10117000FC01E08001811281F894F80181818E29BF
:1011800081838281DE2CD0948D21828383E090E064
:101190000E947210F80181818D2181838AE090E0A4
:1011A0000E947210F8010081789485E390E00E941B
:1011B000721080E010E0FF240E211F21012B09F0A6
:1011C00081E01F910F91FF90EF90DF900895EF92D3
:1011D000FF920F931F93CF93DF937C0101E010E008
:1011E000C0E0D0E0C7010E94B3088111102B000FAE
:1011F0002196C830D105B1F7812FDF91CF911F9192
:101200000F91FF90EF9008951F93CF93DF93FC0110
:101210001081C181D281912F909560FF12C0F89406
:101220008A8189238A838981812B89838AE090E05E
:101230000E9472108A81812B8A83789487E390E0E0
:1012400011C0F8948A8189238A838981812B8983BB
:1012500081E490E00E9472108A81812B8A837894C5
:1012600085E090E00E947210DF91CF911F91089568
:10127000CF92DF92EF92FF920F931F93CF93DF9362
:101280008C01E42EFF24F394C0E0D0E0C62EDD24D0
:1012900060E08F2D90E08C219D21892B09F061E089
:1012A000C8010E940409FF0C2196C830D10581F7BE
:1012B000EE20A9F4F894D8011196ED91FC911297C3
:1012C00091818C918095982391831196ED91FC9159
:1012D000129792818C918095982392837894DF91D4
:1012E000CF911F910F91FF90EF90DF90CF900895D5
:1012F0006CEC40E00E9438090895EF92FF920F9342
:101300001F93CF93DF938C017B0165E540E00E9442
:101310003809C0E0D0E0F701EC0FFD1FC801608183
:1013200040E00E9438092196C830D105A1F7DF912D
:10133000CF911F910F91FF90EF900895DF92EF9260
:10134000FF920F931F93CF93DF93FC010081C18124
:10135000D281F8948981D02ED0948D21898378947C
:101360001DE7E02EFF24115059F182E090E00E9429
:101370007210888190E08E219F21892BA1F3F8942F
:101380008A818D218A838981802B8983789480EE5C
:1013900091E00E947210F89489818D21898386E4FE
:1013A00090E00E947210888110E090E0E822F9221B
:1013B000EF2809F411E078948AE991E00E94721014
:1013C000812FDF91CF911F910F91FF90EF90DF90D0
:1013D0000895AF92BF92DF92EF92FF920F931F9307
:1013E000CF93DF93EC015B018D85882309F061C009
:1013F000CE010E949E09882329F41B861D861C8627
:1014000090E06BC0CE0160EF40E00E94380901E03F
:10141000DD24EE24FF24F394CE010E94B308182F9C
:10142000CE010E94B308113019F48130E1F439C0C3
:10143000181709F58B85081770F460E0FE01EE0DB2
:10144000F11D838190E02F2D30E082239323181625
:1014500019064CF003C060E0081729F0093008F0C5
:101460004CC00C874AC0FE01EE0DF11D83818F290F
:10147000838361E009C0612FFE01EE0DF11D9F2DF8
:101480009095838189238383CE010E9404090F5F95
:10149000FF0C19F4E394FF24F39487E08E1508F011
:1014A000BBCF013430F0DB86DD2011F581E08D8784
:1014B0001FC01B861D861C8690E0DE0120E030E008
:1014C000F501E20FF31F13968C91139780832F5F22
:1014D0003F4F11962830310599F7892FDF91CF9131
:1014E0001F910F91FF90EF90DF90BF90AF90089504
:1014F0008B818823F1F291E0E0CFD02EBDCFFF9217
:101500000F931F938C01F62E862F60E00E94B71078
:101510008F2D90E0FC01E656FE4FE491D801EC934C
:101520008A579E4FFC016491E62FF0E0EE0FFF1FFB
:10153000E458FE4F8591949112969C938E93119747
:101540001B961C921B971D961C921D971C961C9215
:10155000F80187E090E012863197009711F001972B
:10156000FACF1F910F91FF900895FC0181E89BE055
:10157000928B818B768365831482108289E08183CC
:1015800081E0828383830895FC0184810895FC01B6
:10159000628308956F927F928F929F92AF92BF92D3
:1015A000CF92DF92EF92FF920F931F93CF93DF932F
:1015B000FB01EA01998180E0288130E0282B392B5A
:1015C000E081E23231F0E83221F0E03109F084C00C
:1015D0004BC04C814F3329F1403420F44F3109F096
:1015E0007BC02FC04F3579F04F3709F075C0B90176
:1015F000882777FD8095982F0E94BB1720E030E068
:1016000040E85DE32EC035952795B901882777FD21
:101610008095982F0E94BB1720E030E040E05EE309
:1016200020C03595279535952795B901882777FDF1
:101630008095982F0E94BB1720E030E040E85EE3E1
:1016400010C093E0359527959A95E1F7B901882761
:1016500077FD8095982F0E94BB1720E030E040E096
:101660005FE30E946F1832C0EF8035952795B9016E
:10167000882777FD8095982F0E94BB1720E030E0E7
:1016800040E85EE30E94B7163B014C016E2D70E00E
:101690002E81621B7109882777FD8095982F0E9403
:1016A000BB175B016C01FF2400E010E0C801B7012B
:1016B0000E94B9179B01AC01C601B5010E94201719
:1016C0009B01AC01C401B3010E94B8169B01AC019F
:1016D000832F942F752F00C0262F382F492F572F77
:1016E000B901CA01DF91CF911F910F91FF90EF9047
:1016F000DF90CF90BF90AF909F908F907F906F9032
:1017000008950895EF92FF920F931F938C017B0130
:10171000FC01858196810E949E09F8018581968150
:10172000B7010E947D09F8018581968164EB40E054
:101730000E943809F801858196810E94B308F82E2D
:10174000F801858196810E949E0980E0FF2009F4BE
:1017500081E01F910F91FF90EF900895EF92FF921B
:101760000F931F93CF93DF93EC018B017A018D814F
:101770009E810E949E098D819E81B8010E947D09F3
:101780008D819E816EE440E00E9438098D819E81AA
:10179000F701628140E00E9438098D819E81F70146
:1017A000638140E00E943809F8018081803139F07E
:1017B0008D819E81F701648140E00E9438098D810E
:1017C0009E810E949E098D819E8168E448810E94CD
:1017D00038098881882331F06AE070E080E090E089
:1017E0000E9419108D819E810E949E09DF91CF91E8
:1017F0001F910F91FF90EF900895CF92DF92EF929B
:10180000FF920F931F938C016B017A01FC0185817C
:1018100096810E949E09F80185819681B6010E94F9
:101820007D09F801858196816EEB40E00E943809C0
:10183000F801858196810E94E708F7018083F8010D
:10184000858196810E94E708F7018183F8018581EF
:1018500096810E94E708F7018283F80185819681CD
:101860000E94E708F7018383F801858196810E9431
:10187000E708F7018483F801858196810E94E708D3
:10188000F7018583F801858196810E94E708F701B9
:101890008683F801858196810E94E708F701878396
:1018A000F801858196810E94E708F7018087F80199
:1018B000858196810E949E091F910F91FF90EF9064
:1018C000DF90CF900895DF93CF93CDB7DEB7299700
:1018D0000FB6F894DEBF0FBECDBFAE014F5F5F4FB6
:1018E0000E94FD0B8981811181E029960FB6F89441
:1018F000DEBF0FBECDBFCF91DF910895CF92DF92B3
:10190000EF92FF920F931F93CF93DF93EC016B0144
:10191000452BE1F08B818823C9F088818823B1F4BD
:101920000E940B107B018C01CE0160E070E00E94F0
:10193000630C882359F40E940B106E197F09800BE9
:10194000910B6E5E72408040904070F3F6016081B2
:10195000693039F06930A0F06A3041F06B3081F4C1
:101960000AC06EE570E080E090E00EC06CEB70E0C5
:1019700080E090E009C067E771E080E090E004C09B
:101980006EEE72E080E090E00E941910DF91CF913E
:101990001F910F91FF90EF90DF90CF900895CF931C
:1019A000DF93EC018D819E810E949E098D819E8135
:1019B0000E9478098D819E8164E448810E943809E3
:1019C0008A81882339F0CE012196BE0140E050E0A3
:1019D0000E947E0CDF91CF9108950F931F938A018F
:1019E0000E94FD0BC80168E00E94A20820E0F801F7
:1019F0009085891709F421E0822F1F910F91089596
:101A0000CF92DF92EF92FF920F931F93DF93CF93CA
:101A1000CDB7DEB729970FB6F894DEBF0FBECDBFA6
:101A20008C017B016E010894C11CD11CA6010E948F
:101A3000ED0C882329F460E070E08EEF92EC05C095
:101A4000C801B701A6010E94CA0A29960FB6F894E8
:101A5000DEBF0FBECDBFCF91DF911F910F91FF90E1
:101A6000EF90DF90CF900895DF93CF93CDB7DEB79F
:101A700029970FB6F894DEBF0FBECDBF9C01FB01C6
:101A800080818031D9F0C901AE014F5F5F4F0E9464
:101A9000ED0C8823A9F08D818F3371F0803418F418
:101AA0008F3171F40BC08F3519F08F3749F402C0B4
:101AB0008BE007C08CE005C08AE003C089E001C06C
:101AC00080E029960FB6F894DEBF0FBECDBFCF9150
:101AD000DF910895CF92DF92EF92FF921F93DF93F1
:101AE000CF93CDB7DEB729970FB6F894DEBF0FBE00
:101AF000CDBF6C017B01142FAE014F5F5F4F0E9481
:101B0000ED0C8823E1F0F70180818031B9F01A30C3
:101B100051F01A3050F01B3021F01C3031F48FE7B7
:101B200005C08FE503C08FE301C08FE18D83C6013F
:101B3000B701AE014F5F5F4F0E94AE0B81E0299667
:101B40000FB6F894DEBF0FBECDBFCF91DF911F91CE
:101B5000FF90EF90DF90CF9008950F931F938B012C
:101B6000CB0167E00E94A20820E0F8019781891765
:101B700009F421E0822F1F910F910895AF92BF9237
:101B8000CF92DF92EF92FF920F931F93DF93CF9349
:101B9000CDB7DEB761970FB6F894DEBF0FBECDBFED
:101BA0007C01FC01858196810E949508F7011482D1
:101BB0006E010894C11CD11C79E0A72EB12CAC0E8B
:101BC000BD1E01E02BC0C701B6010E94AD0D8823E8
:101BD00029F1F7018081882341F4C701B6010E94F1
:101BE000820B882311F0F7010083C701B601A5011C
:101BF0000E94FD0BF7011181C701B6010E94340D4F
:101C0000811718F4F701818104C0C701B6010E9451
:101C1000340DF701818384818F5F8483F70185818F
:101C20009681B6010E94E909882369F661960FB68C
:101C3000F894DEBF0FBECDBFCF91DF911F910F9102
:101C4000FF90EF90DF90CF90BF90AF900895FC0190
:101C500066834783208781E0858708950F931F93CC
:101C60008C01FC01868160E00E94B710F80186813A
:101C700061E00E94F610F801118612861386148620
:101C80001F910F910895CF92DF92EF92FF920F93E1
:101C90001F93CF93DF93EC018E8161E00E94F610D9
:101CA0006AEF70E080E090E00E9419100E940B1033
:101CB0009B01AC0189859A85AB85BC8528173907BE
:101CC0004A075B0720F419861A861B861C868D85B9
:101CD000882371F489859A85AB85BC85281B390BCF
:101CE0004A0B5B0B205D37404040504008F477C002
:101CF0001D860E940B1069877A878B879C871C82C0
:101D00001B821A82198218828E8161E00E94B710AC
:101D10008E8160E00E94F61064E170E080E090E067
:101D20000E941910F8948E8161E00E94F61088E2FA
:101D300090E00E9472108E8160E00E94B71081E0F6
:101D4000EE2400E010E00AC0F39481E090E00E94ED
:101D500072108FEFF81629F40AC0822FFF24C82EC4
:101D6000DD248E810E944A118C159D0569F38E81B8
:101D70000E944A11282F8FEFF816C9F0043090F016
:101D800000FD10C08E2D869586958695FE01E80F84
:101D9000F11D9081990F908388858F1510F49160C3
:101DA0009083E3940F5F1F4F05351105B1F67894CA
:101DB00087E28E1510F030E013C030E04C8150E027
:101DC0002981888190E0820F911D2A81820F911DC7
:101DD0002B81820F911D90704817590709F431E04B
:101DE000832FDF91CF911F910F91FF90EF90DF90A4
:101DF000CF900895EF92FF920F931F93CF93DF93AD
:101E0000EC010E94430E8823A9F18F818B3031F0C1
:101E10008B3080F18551823068F507C0688170E0B1
:101E200080E090E00E94B91722C0688170E080E0F5
:101E300090E00E94B91720E030E040E853E40E94AF
:101E40006F187B018C01698170E0882777FD809590
:101E5000982F0E94BB179B01AC01C801B7010E94DB
:101E6000B81620E030E040E251E40E942017E62F4F
:101E7000692F0AC085EF93E065E872E00E949A132B
:101E8000E0E070E080EC6FE72E2F372F482F562FC1
:101E9000B901CA01DF91CF911F910F91FF90EF908F
:101EA0000895CF92DF92EF92FF920F931F93CF93FB
:101EB000DF93EC01C62E0E94430E882309F450C024
:101EC0008F818B3041F08B3008F44AC085518230CD
:101ED00008F046C007C06A8170E080E090E00E9490
:101EE000B91729C0DA806D2D70E06F777070882780
:101EF00077FD8095982F0E94BB1720E030E040E8E6
:101F000053E40E946F187B018C016B8170E088277D
:101F100077FD8095982F0E94BB179B01AC01C801EB
:101F2000B7010E94B81620E030E040E251E40E9480
:101F30002017D7FC9058CC20E9F020E030E040E1B9
:101F400051E40E946F1820E030E040EA50E40E9423
:101F5000201720E030E040E052E40E94B8160AC0AA
:101F600085EF93E065E872E00E949A1360E070E00C
:101F700080EC9FE7DF91CF911F910F91FF90EF9041
:101F8000DF90CF9008951F920F920FB60F921124F9
:101F90002F933F938F939F93AF93BF93809164034D
:101FA00090916503A0916603B09167033091680337
:101FB0000196A11DB11D232F2D5F2D3720F02D5728
:101FC0000196A11DB11D2093680380936403909333
:101FD0006503A0936603B0936703809160039091BB
:101FE0006103A0916203B09163030196A11DB11D2D
:101FF0008093600390936103A0936203B0936303A3
:10200000BF91AF919F918F913F912F910F900FBEF4
:102010000F901F9018958FB7F8942091640330911A
:10202000650340916603509167038FBFB901CA01F0
:1020300008959B01AC017FB7F89480916003909163
:102040006103A0916203B091630366B5A89B05C0CC
:102050006F3F19F00196A11DB11D7FBFBA2FA92FA7
:10206000982F8827860F911DA11DB11D62E0880F52
:10207000991FAA1FBB1F6A95D1F7BC012DC0FFB7DE
:10208000F8948091600390916103A0916203B091F4
:102090006303E6B5A89B05C0EF3F19F00196A11DAB
:1020A000B11DFFBFBA2FA92F982F88278E0F911D22
:1020B000A11DB11DE2E0880F991FAA1FBB1FEA9561
:1020C000D1F7861B970B885E9340C8F221503040B1
:1020D0004040504068517C4F211531054105510564
:1020E00071F60895019739F0880F991F880F991F8D
:1020F00002970197F1F70895789484B5826084BDC2
:1021000084B5816084BD85B5826085BD85B58160FB
:1021100085BDEEE6F0E0808181608083E1E8F0E05B
:102120001082808182608083808181608083E0E88A
:10213000F0E0808181608083E1EBF0E08081846069
:102140008083E0EBF0E0808181608083EAE7F0E06B
:1021500080818460808380818260808380818160CF
:1021600080838081806880831092C1000895CF931E
:10217000DF93482F50E0CA0186569E4FFC013491F0
:102180004A575E4FFA018491882369F190E0880FE5
:10219000991FFC01E859FE4FA591B491FC01EE583E
:1021A000FE4FC591D491662351F42FB7F8948C91CA
:1021B000932F909589238C93888189230BC062305B
:1021C00061F42FB7F8948C91932F909589238C9379
:1021D0008881832B88832FBF06C09FB7F8948C918A
:1021E000832B8C939FBFDF91CF910895482F50E0B0
:1021F000CA0182559E4FFC012491CA0186569E4F0A
:10220000FC0194914A575E4FFA013491332309F44B
:1022100040C0222351F1233071F0243028F42130C2
:10222000A1F0223011F514C02630B1F02730C1F0F2
:102230002430D9F404C0809180008F7703C080914E
:1022400080008F7D8093800010C084B58F7702C09E
:1022500084B58F7D84BD09C08091B0008F7703C0A5
:102260008091B0008F7D8093B000E32FF0E0EE0FFF
:10227000FF1FEE58FE4FA591B4912FB7F894662337
:1022800021F48C919095892302C08C91892B8C9399
:102290002FBF0895682F70E0CB0182559E4FFC013F
:1022A0002491CB0186569E4FFC0144916A577E4F84
:1022B000FB019491992319F420E030E03CC02223E3
:1022C00051F1233071F0243028F42130A1F0223074
:1022D00011F514C02630B1F02730C1F02430D9F404
:1022E00004C0809180008F7703C0809180008F7D33
:1022F0008093800010C084B58F7702C084B58F7D35
:1023000084BD09C08091B0008F7703C08091B00078
:102310008F7D8093B000892F90E0880F991F84589B
:102320009E4FFC01A591B4918C9120E030E0842374
:1023300011F021E030E0C9010895982F8E3008F0A7
:102340009E50977080919E028295880F880F807CA6
:10235000892B80937C0080917A00806480937A003E
:1023600080917A0086FDFCCF209178004091790021
:10237000942F80E030E0282B392BC901089582305A
:1023800000F5E82FF0E0EE0FFF1FE759FC4F7183D7
:102390006083882319F08130A1F408C0809169001E
:1023A0008C7F842B80936900E89A0895809169005E
:1023B000440F551F440F551F837F842B8093690062
:1023C000E99A0895823080F4882319F0813021F44D
:1023D00002C0E89801C0E998E82FF0E0EE0FFF1F77
:1023E000E759FC4F1182108208951F920F920FB689
:1023F0000F9211242F933F934F935F936F937F938B
:102400008F939F93AF93BF93EF93FF938091690353
:1024100090916A03892B29F0E0916903F0916A0396
:102420000995FF91EF91BF91AF919F918F917F910E
:102430006F915F914F913F912F910F900FBE0F9031
:102440001F9018951F920F920FB60F9211242F9381
:102450003F934F935F936F937F938F939F93AF932C
:10246000BF93EF93FF9380916B0390916C03892B43
:1024700029F0E0916B03F0916C030995FF91EF91C6
:10248000BF91AF919F918F917F916F915F914F918C
:102490003F912F910F900FBE0F901F901895CF92E4
:1024A000DF92EF92FF920F931F93CF93DF937C0104
:1024B0006B018A01C0E0D0E00FC0D6016D916D01C3
:1024C000D701ED91FC910190F081E02DC7010995B4
:1024D000C80FD91F015010400115110571F7CE0129
:1024E000DF91CF911F910F91FF90EF90DF90CF90F0
:1024F0000895EF92FF920F931F938C01DC01ED91F1
:10250000FC910190F081E02D6DE009957C01D801EE
:10251000ED91FC910190F081E02DC8016AE00995F0
:102520009C012E0D3F1DC9011F910F91FF90EF904F
:102530000895CF93DF93EC016115710519F420E044
:1025400030E00FC0DB010D900020E9F71197A61BCA
:10255000B70BE881F9810280F381E02DAD01099587
:102560009C01C901DF91CF9108954F925F927F92B4
:102570008F929F92AF92BF92CF92DF92EF92FF9293
:102580000F931F93DF93CF93CDB7DEB7A1970FB60D
:10259000F894DEBF0FBECDBF2C01742ECB012230CC
:1025A00008F42AE019A231E2C32ED12CCC0EDD1E94
:1025B000822E9924AA24BB24672D752FA50194018E
:1025C0000E94F51879018A01C801B701A50194019B
:1025D0000E94D618472D461B0894C108D1084A30DE
:1025E00014F4405D01C0495CF6014083E114F1043C
:1025F0000105110521F07E2C5F2DC801DDCFC20140
:10260000B6010E949912A1960FB6F894DEBF0FBED4
:10261000CDBFCF91DF911F910F91FF90EF90DF9091
:10262000CF90BF90AF909F908F907F905F904F9092
:102630000895DC012115310541F4ED91FC910190E3
:10264000F081E02D642F099508950E94B512089538
:10265000CF92DF92EF92FF920F931F93CF93DF936E
:10266000EC016A017B012115310541F4E881F98112
:102670000190F081E02D642F09951FC02A303105AB
:10268000D1F477FF17C0E881F9810190F081E02D46
:102690006DE209958C0144275527BA014C195D0953
:1026A0006E097F09CE012AE00E94B5129801280F19
:1026B000391F04C02AE00E94B5129C01C901DF91B4
:1026C000CF911F910F91FF90EF90DF90CF900895E1
:1026D000EF92FF920F931F937B019A010027F7FC63
:1026E0000095102FB801A7010E9428131F910F9188
:1026F000FF90EF900895CF92DF92EF92FF920F93A9
:102700001F936C017B019A010027F7FC0095102FA5
:10271000B801A7010E9428138C01C6010E947912FA
:10272000080F191FC8011F910F91FF90EF90DF90C4
:10273000CF9008950E94991208957F928F929F9250
:10274000AF92BF92CF92DF92EF92FF920F931F93BF
:10275000CF93DF934C017A018B01722ECB01BA012A
:10276000A80197010E94D218882321F0C4016FE8C4
:1027700072E021C0C0E0D0E057016801E894D7F8CA
:10278000C601B5012FEF3FEF4FE75FE70E94D21878
:10279000882351F4C601B5012FEF3FEF4FE75FE704
:1027A0000E941C17181614F0C1E0D0E0219739F0F0
:1027B000C40163E972E00E949912EC0193C0C80160
:1027C000B7012FEF3FEF4FE75FE40E946B18181639
:1027D00054F0C801B7012FEF3FEF4FE75FEC0E94C5
:1027E0001C17882324F4C40167E972E0E4CFC80110
:1027F000B70120E030E040E050E00E941C1787FD68
:1028000003C0C0E0D0E00EC0D401ED91FC91019076
:10281000F081E02DC4016DE20995EC0117FB1095E4
:1028200017F9109520E030E040E05FE3DD240BC0B5
:10283000CA01B90120E030E040E251E40E942017D3
:102840009B01AC01D394D71498F3C801B7010E943F
:10285000B8165B016C010E948D177B018C01C401CD
:10286000B801A7012AE030E00E941913C80FD91F50
:10287000772039F0C4016BE972E00E949912C80F09
:10288000D91FC801B7010E94B9179B01AC01C6014D
:10289000B5010E94B71624C020E030E040E251E4C8
:1028A0000E946F187B018C010E9488175B016C01EC
:1028B000CC24B7FCC094DC2CC401B601A5012AE0ED
:1028C00030E00E942813C80FD91FC601B5010E942D
:1028D000BB179B01AC01C801B7010E94B7167A94DF
:1028E0007720D1F6CE01DF91CF911F910F91FF900C
:1028F000EF90DF90CF90BF90AF909F908F907F90A0
:1029000008950E949D130895EF92FF920F931F93D5
:102910007C010E9499128C01C7010E947912080F54
:10292000191FC8011F910F91FF90EF900895CF9349
:10293000DF930E947C100E943D03C2EED4E10E940E
:1029400056012097E1F30E94E214F9CF08951F92F7
:102950000F920FB60F9211242F933F934F938F93A3
:102960009F93EF93FF938091C00082FD1DC0409123
:10297000C6002091AD033091AE032F5F3F4F2F7300
:1029800030708091AF039091B0032817390771F030
:10299000E091AD03F091AE03E359FC4F40833093D7
:1029A000AE032093AD0302C08091C600FF91EF916A
:1029B0009F918F914F913F912F910F900FBE0F904C
:1029C0001F901895E0910104F0910204E05CFF4F24
:1029D0008191919120813181821B930B8F73907033
:1029E000892B11F00E94A61408951F920F920FB622
:1029F0000F9211242F933F938F939F93EF93FF9305
:102A00002091F1033091F2038091F3039091F4034C
:102A10002817390731F48091C1008F7D8093C10060
:102A200014C0E091F303F091F403EF54FC4F2081C4
:102A30008091F3039091F40301968F7390709093BB
:102A4000F4038093F3032093C600FF91EF919F91CD
:102A50008F913F912F910F900FBE0F901F9018955F
:102A6000AF92BF92DF92EF92FF920F931F93CF939B
:102A7000DF93EC017A018B01DD24403081EE5807B1
:102A800080E0680780E0780711F0DD24D39491E0BE
:102A9000A92EB12CEC89FD89DD2069F0C50108A0C3
:102AA00002C0880F991F0A94E2F7808360E079E002
:102AB0008DE390E005C0108260E874E88EE190E05C
:102AC000A80197010E94F518215030404040504025
:102AD000569547953795279580E12030380720F0A7
:102AE000DD2011F0DD24D6CFE889F9893083EA8929
:102AF000FB89208319A2EE89FF89408121E030E023
:102B0000C9010C8C02C0880F991F0A94E2F7482B68
:102B10004083EE89FF894081C9010D8C02C0880F76
:102B2000991F0A94E2F7482B4083EE89FF89408180
:102B3000C9010E8C02C0880F991F0A94E2F7482B36
:102B40004083EE89FF8980810F8C02C0220F331FE2
:102B50000A94E2F7209528232083DF91CF911F91DB
:102B60000F91FF90EF90DF90BF90AF900895DC0140
:102B70001C96ED91FC911D97E05CFF4F21913191E6
:102B800080819181281B390B2F733070C901089502
:102B9000DC011C96ED91FC911D97E05CFF4F2081BC
:102BA0003181E054F040DF01AE5BBF4F8D919C91CD
:102BB00011972817390719F42FEF3FEF07C08D91B0
:102BC0009C91E80FF91F8081282F30E0C9010895FA
:102BD000DC011C96ED91FC911D97E05CFF4F20817C
:102BE0003181E054F040DF01AE5BBF4F8D919C918D
:102BF00011972817390719F42FEF3FEF10C08D9167
:102C00009C911197E80FF91F20818D919C9111974C
:102C100001968F73907011969C938E9330E0C9014A
:102C20000895DC0191968C919197882339F0549600
:102C3000ED91FC915597808186FFF9CF91961C927A
:102C40000895CF93DF93EC01EE85FF85E05CFF4FA5
:102C500020813181E054F0402F5F3F4F2F7330705F
:102C6000DF01AE5BBF4F8D919C91119728173907FB
:102C7000D1F3E05CFF4F80819181E054F040E80F98
:102C8000F91F6083EE85FF85E05CFF4F3183208371
:102C9000EE89FF89208181E090E00F8C02C0880FCF
:102CA000991F0A94E2F7282B208381E089A3EC89FD
:102CB000FD8980818064808381E090E0DF91CF9105
:102CC00008951092F8031092F70388EE93E0A0E0C5
:102CD000B0E08093F9039093FA03A093FB03B093C1
:102CE000FC0383EA92E09093F6038093F5038DE66C
:102CF00093E0909302048093010481EB93E090931E
:102D000004048093030485EC90E090930604809380
:102D1000050484EC90E0909308048093070480EC11
:102D200090E090930A048093090481EC90E09093E2
:102D30000C0480930B0482EC90E090930E0480933B
:102D40000D0486EC90E09093100480930F0484E0CF
:102D50008093110483E08093120487E0809313042E
:102D600085E08093140481E0809315040895505801
:102D7000BB27AA270ED075C166D130F06BD120F0E9
:102D800031F49F3F11F41EF45BC10EF4E095E7FBB4
:102D900051C1E92F77D180F3BA176207730784070F
:102DA000950718F071F49EF58FC10EF4E0950B2E87
:102DB000BA2FA02D0B01B90190010C01CA01A0018D
:102DC0001124FF27591B99F0593F50F4503E68F1E8
:102DD0001A16F040A22F232F342F4427585FF3CF29
:102DE000469537952795A795F0405395C9F77EF4FA
:102DF0001F16BA0B620B730B840BBAF09150A1F043
:102E0000FF0FBB1F661F771F881FC2F70EC0BA0FC8
:102E1000621F731F841F48F4879577956795B79550
:102E2000F7959E3F08F0B3CF9395880F08F0992748
:102E3000EE0F979587950895D9D008F481E008950D
:102E40000CD00FC107D140F0FED030F021F45F3F2D
:102E500019F0F0C0511139C1F3C014D198F399237E
:102E6000C9F35523B1F3951B550BBB27AA2762174E
:102E70007307840738F09F5F5F4F220F331F441F93
:102E8000AA1FA9F333D00E2E3AF0E0E830D09150CB
:102E90005040E695001CCAF729D0FE2F27D0660FB8
:102EA000771F881FBB1F261737074807AB07B0E8F7
:102EB00009F0BB0B802DBF01FF2793585F4F2AF00D
:102EC0009E3F510568F0B6C000C15F3FECF3983EED
:102ED000DCF3869577956795B795F7959F5FC9F76A
:102EE000880F911D9695879597F90895E1E0660FF3
:102EF000771F881FBB1F621773078407BA0720F06C
:102F0000621B730B840BBA0BEE1F88F7E0950895D4
:102F100004D06894B111D9C00895BCD088F09F57EF
:102F200090F0B92F9927B751A0F0D1F0660F771F15
:102F3000881F991F1AF0BA95C9F712C0B13081F0F5
:102F4000C3D0B1E00895C0C0672F782F8827B85F3D
:102F500039F0B93FCCF3869577956795B395D9F756
:102F60003EF490958095709561957F4F8F4F9F4F60
:102F70000895E89409C097FB3EF49095809570956C
:102F800061957F4F8F4F9F4F9923A9F0F92F96E9B5
:102F9000BB279395F695879577956795B795F1112A
:102FA000F8CFFAF4BB0F11F460FF1BC06F5F7F4FC7
:102FB0008F4F9F4F16C0882311F096E911C07723D9
:102FC00021F09EE8872F762F05C0662371F096E8E2
:102FD000862F70E060E02AF09A95660F771F881FB1
:102FE000DAF7880F9695879597F90895990F000855
:102FF000550FAA0BE0E8FEEF16161706E807F907CB
:10300000C0F012161306E407F50798F0621B730B65
:10301000840B950B39F40A2661F0232B242B252BE6
:1030200021F408950A2609F4A140A6958FEF811D89
:10303000811D089597F99F6780E870E060E008952A
:103040009FEF80EC089500240A94161617061806C0
:103050000906089500240A9412161306140605069C
:103060000895092E0394000C11F4882352F0BB0F2D
:1030700040F4BF2B11F460FF04C06F5F7F4F8F4F90
:103080009F4F089557FD9058440F551F59F05F3FCB
:1030900071F04795880F97FB991F61F09F3F79F07A
:1030A00087950895121613061406551FF2CF4695FC
:1030B000F1DF08C0161617061806991FF1CF86957E
:1030C0007105610508940895E894BB276627772762
:1030D000CB0197F908958ADF08F48FEF08950BD09C
:1030E000C0CFB1DF28F0B6DF18F0952309F0A2CFEA
:1030F000A7CF1124EACFC6DFA0F3959FD1F3950F98
:1031000050E0551F629FF001729FBB27F00DB11D6B
:10311000639FAA27F00DB11DAA1F649F6627B00DFB
:10312000A11D661F829F2227B00DA11D621F739FE4
:10313000B00DA11D621F839FA00D611D221F749FF2
:103140003327A00D611D231F849F600D211D822F39
:10315000762F6A2F11249F5750408AF0E1F0882380
:103160004AF0EE0FFF1FBB1F661F771F881F91508D
:103170005040A9F79E3F510570F05CCFA6CF5F3F4E
:10318000ECF3983EDCF3869577956795B795F795C0
:10319000E7959F5FC1F7FE2B880F911D9695879548
:1031A00097F9089523DF880B990B0895629FD0014A
:1031B000739FF001829FE00DF11D649FE00DF11DF2
:1031C000929FF00D839FF00D749FF00D659FF00DA1
:1031D0009927729FB00DE11DF91F639FB00DE11D8E
:1031E000F91FBD01CF0111240895A1E21A2EAA1BD7
:1031F000BB1BFD010DC0AA1FBB1FEE1FFF1FA217A7
:10320000B307E407F50720F0A21BB30BE40BF50BA3
:10321000661F771F881F991F1A9469F7609570952C
:10322000809590959B01AC01BD01CF010895EE0FF3
:0E323000FF1F0590F491E02D0994F894FFCF54
:10323E00445331384232302054656D70657261747A
:10324E007572653A2000432C2000444854323220D7
:10325E0054656D70657261747572653A2000432C09
:10326E002044485432322048756D69646974793A45
:10327E002000252C20004261747465727920766FCF
:10328E006C746167653A20005600656D6F6E544828
:10329E00004F70656E456E657267794D6F6E69741D
:1032AE006F722E6F7267004E6F64653A2000204673
:1032BE007265713A20003433334D687A00204E65C2
:1032CE0074776F726B3A2000202D20556E61626C00
:1032DE006520746F2066696E642044485432322033
:1032EE0053656E736F722E2E747279696E672061DC
:1032FE0067696E00202D20556E61626C6520746FBB
:10330E002066696E642044485432322053656E73D1
:10331E006F7220666F7220326E642074696D652E36
:10332E002E676976696E67207570004465746563F3
:10333E007465642044485432322074656D702026C2
:10334E002068756D6964697479207365736E6F7228
:10335E00004E6F204453313842323020646574651C
:10336E00637465640044657465637465642000204D
:10337E0044533138423230004453313842323020D7
:10338E00616E6420444854323220666F756E642C30
:10339E0020617373756D696E672044533138423204
:1033AE00302069732065787465726E616C20736568
:1033BE006E736F720052656164206661696C006E97
:1033CE00616E00696E66006F7666002E0004010065
:1033DE0000000021164F12B715E815C8151116007A
:00000001FF
