:200000000C94F5000C94B0140C94DD140C941D010C941D010C941D010C9447050C941D0172
:200020000C941D010C941D010C941D010C941D010C941D010C941D010C941D010C941D01D0
:200040000C94030A0C941D010C946C050C94BA050C941D010C941D010C941D010C941D01CD
:200060000C941D010C941D0100000000240027002A0000000000250028002B000000000017
:20008000230026002900040404040404040402020202020203030303030301020408102071
:2000A0004080010204081020010204081020000000070002010000030406000000000000EB
:2000C0000000005EBCE2613FDD83C29C7E20A3FD1F419DC3217FFCA2401E5F01E3BD3E608E
:2000E00082DC237D9FC1421CFEA0E1BF5D0380DE3C62BEE0025CDF81633D7C22C09E1D4352
:20010000A1FF4618FAA427799BC584DA3866E5BB5907DB856739BAE406581947A5FB7826AD
:20012000C49A653BD987045AB8E6A7F91B45C6987A24F8A6441A99C7257B3A6486D85B0511
:20014000E7B98CD2306EEDB3510F4E10F2AC2F7193CD114FADF3702ECC92D38D6F31B2EC6D
:200160000E50AFF1134DCE90722C6D33D18F0C52B0EE326C8ED0530DEFB1F0AE4C1291CFD1
:200180002D73CA947628ABF517490856B4EA6937D58B5709EBB536688AD495CB2977F4AA2D
:2001A0004816E9B7550B88D6346A2B7597C94A14F6A8742AC896154BA9F7B6E80A54D78991
:2001C0006B35010402000302048A050506C30B2019421E2C25802E882F2D370038003C8F51
:2001E0003D106F2000001F01260711241FBECFEFD8E0DEBFCDBF12E0A0E0B1E0E6E1F5E383
:2002000002C005900D92A03DB107D9F714E0A0EDB2E001C01D92AB33B107E1F711E0CAEEE9
:20022000D1E004C02297FE010E94851AC63ED107C9F70E94F4090C94891A0C9400000F9390
:200240001F9380ED92E062E146E126E00E94DE120FED12E0C80163E10E94360F8DEE92E03C
:20026000B8010E946C0F1F910F9108959F92AF92BF92CF92DF92EF92FF920F931F933AE79F
:20028000C32ED12CF60190802BE7E22EF12CF701A0800CE710E0F801B0800E94330CF6012E
:2002A0009082F701A082F801B0821F910F91FF90EF90DF90CF90BF90AF909F900895EF92E0
:2002C000FF920F931F9380910003882311F58091DE028823F1F400E010E089E061E00E94D7
:2002E000580B68EC70E080E090E00E94590A89E060E00E94580B68EC70E080E090E00E945E
:20030000590A0F5F1F4F0431110539F7F8940E94160C80910003813009F06CC085E061E043
:200320000E94580B82E390E00E94360100E010E00FC0B80143E0660F771F4A95E1F7655F09
:200340007C4F8DEE92E04BE00E9421120F5F1F4F8091090390910A030817190754F38DEEBD
:2003600092E00E94861187E791E00E9436018DEE92E06BE073E00E94B7117B018C0185E0B7
:2003800060E00E94580BC801B70120E030E04AEF52E40E94881888236CF5C801B70120E049
:2003A00030E040E252EC0E94D71918161CF58091DE02882379F4C801B70120E030E040E240
:2003C00051E40E94DB190E94F418709302036093010310C0813071F4C801B70120E030E02E
:2003E00040E251E40E94DB190E94F41870930403609303038091DE02813009F043C086E05B
:2004000061E00E94580B80ED97E00E94360180ED92E00E94B11320E030E040E251E40E948B
:20042000DB190E94F418709306036093050380ED92E060E00E9408147B018C0120E030E01D
:200440004AEA52E40E9488188823C4F4C801B70120E030E040E252EC0E94D719181674F474
:20046000C801B70120E030E040E251E40E94DB190E94F418709302036093010386E060E0AB
:200480000E94580B81E00E94F70AAA2797FDA095BA2FBC01CD010E94271927E031E244E025
:2004A0005DE30E94DB190E94F41870930803609307038091BC02813009F0BAC080910003A6
:2004C000882309F444C083EB93E060E071E00E94F7088091DE028823C1F060910303709118
:2004E0000403882777FD8095982F0E94271920E030E040E251E40E948C18AB01BC0183EB90
:2005000093E022E030E00E94DE098091DE028823C1F46091010370910203882777FD809549
:20052000982F0E94271920E030E040E251E40E948C18AB01BC0183EB93E022E030E00E9467
:20054000DE0983EB93E066E171E00E94F7088091DE02882309F442C083EB93E06AE171E082
:200560000E94F7086091010370910203882777FD8095982F0E94271920E030E040E251E497
:200580000E948C18AB01BC0183EB93E022E030E00E94DE0983EB93E06EE271E00E94F7080D
:2005A0006091050370910603882777FD8095982F0E94271920E030E040E251E40E948C18AA
:2005C000AB01BC0183EB93E022E030E00E94DE0983EB93E062E471E00E94F70883EB93E03C
:2005E00066E471E00E94F7086091070370910803882777FD8095982F0E94271920E030E0C7
:2006000040E251E40E948C18AB01BC0183EB93E022E030E00E94DE0983EB93E068E571E0D9
:200620000E94E10964E670E080E090E00E94590A809164008B7F809364008FEF0E94910C0C
:2006400080E061E073E048E00E94CB0C82E00E94990C80E00E94910C809164008460809351
:20066000640010917A0000917B00F0907C0080E69AEE0E94330C10937A0000937B00F09277
:200680007C001F910F91FF90EF900895AF92BF92CF92DF92EF92FF920F931F93CF93DF9345
:2006A00089E061E00E94190B89E061E00E94580B8091BD0261E042ED20E436E00E94E30C30
:2006C000CAE0D0E0D0930203C093010380E061E073E048E00E94CB0C64E670E080E090E002
:2006E0000E94590A21978FEFCF3FD80759F782E00E94990C109202031092010380E00E948A
:20070000910C87E062E00E94190B88E062E00E94190B87E00E94AC0B082F88E00E94AC0BA5
:20072000182F013021F4813009F094C11AC00023C1F4813009F092C18091BD029091BE02CD
:2007400001960BC08091BD029091BE02029605C08091BD029091BE0203969093BE028093E9
:20076000BD028091BC02813009F058C083EB93E040E855E260E070E00E94F50583EB93E0DC
:20078000602F4AE050E00E94550883EB93E0612F4AE050E00E94670883EB93E06AE571E014
:2007A0000E94E10983EB93E061E771E00E94E10983EB93E067E871E00E94E10983EB93E0B9
:2007C00066E971E00E94F7086091BD027091BE0283EB93E04AE050E00E94C50883EB93E0DC
:2007E0006DE971E00E94F70883EB93E065EA71E00E94F70883EB93E06CEA71E00E94F70866
:2008000083EB93E062ED70E04AE050E00E94D80864E670E080E090E00E94590A86E061E066
:200820000E94190B85E061E00E94190B81E060E00E94190B86E060E00E94580B80B7806855
:2008400080BF8091BC02882329F4809164008260809364008091640080688093640080910F
:2008600064008860809364008091640084608093640086E061E00E94580B80ED97E00E94B3
:20088000360180ED92E00E94E51280ED92E00E94B1135B016C0180ED92E060E00E940814BE
:2008A0007B018C0186E060E00E94580BC801B701A80197010E943E1A882349F4C601B50163
:2008C000A60195010E943E1A882309F4CBC08091BC02813031F483EB93E067EB71E00E94E3
:2008E000E10964E670E080E090E00E94590A8CED95E00E94330C80ED92E00E94B1137B010F
:200900008C0180ED92E060E00E9408149B01AC010E943E1A882341F4C801B701A801970188
:200920000E943E1A882399F08091BC02813031F483EB93E063EE71E00E94E1091092DE0253
:2009400006C083EB93E06AE172E00E94E10985E061E00E94580B62E370E080E090E00E9415
:20096000590A8DEE92E00E9475128DEE92E060E00E947E0F8DEE92E00E947B0F809309036A
:2009800010920A0310E0612F70E08091090390910A03681779070CF06EC053E0660F771F26
:2009A0005A95E1F7655F7C4F8FED92E00E94A00E882309F460C01F5FE6CF8091BC02813028
:2009C00031F483EB93E060E472E00E94E1091092000327C081E0809300038091BC0281306C
:2009E00001F583EB93E064E572E00E94F7086091090370910A0383EB93E04AE050E00E94FC
:200A0000C50883EB93E06EE572E00E94E1098091DE02813031F483EB93E067E672E00E940E
:200A2000E1098091BC02813031F468EC70E080E090E00E94590A89E060E00E94580BDF9190
:200A4000CF911F910F91FF90EF90DF90CF90BF90AF900895882309F475CE83CE882309F4FB
:200A600077CE7FCE81E08093DE028091BC02813009F06DCF66CF85E060E00E94580B8091EB
:200A8000090390910A03892B09F497CFA3CF1F920F920FB60F9211242F933F934F935F933E
:200AA0006F937F938F939F93AF93BF93EF93FF930E948B0CFF91EF91BF91AF919F918F91FD
:200AC0007F916F915F914F913F912F910F900FBE0F901F90189508951F920F920FB60F92EA
:200AE00011242F933F934F938F939F93EF93FF938091C00082FD1DC04091C60020916B0300
:200B000030916C032F5F3F4F2F73307080916D0390916E032817390771F0E0916B03F091F4
:200B20006C03E55DFC4F408330936C0320936B0302C08091C600FF91EF919F918F914F91CA
:200B40003F912F910F900FBE0F901F901895E091BF03F091C003E05CFF4F819191912081C8
:200B60003181821B930B8F739070892B11F00E946B0508951F920F920FB60F9211242F9373
:200B80003F938F939F93EF93FF932091AF033091B0038091B1039091B2032817390731F405
:200BA0008091C1008F7D8093C10014C0E091B103F091B203E159FC4F20818091B103909148
:200BC000B20301968F7390709093B2038093B1032093C600FF91EF919F918F913F912F91BF
:200BE0000F900FBE0F901F901895AF92BF92DF92EF92FF920F931F93CF93DF93EC017A01E9
:200C00008B01DD24403081EE580780E0680780E0780711F0DD24D39491E0A92EB12CEC8958
:200C2000FD89DD2069F0C50108A002C0880F991F0A94E2F7808360E079E08DE390E005C0A1
:200C4000108260E874E88EE190E0A80197010E94611A21503040404050405695479537959D
:200C6000279580E12030380720F0DD2011F0DD24D6CFE889F9893083EA89FB89208319A219
:200C8000EE89FF89408121E030E0C9010C8C02C0880F991F0A94E2F7482B4083EE89FF8964
:200CA0004081C9010D8C02C0880F991F0A94E2F7482B4083EE89FF894081C9010E8C02C06C
:200CC000880F991F0A94E2F7482B4083EE89FF8980810F8C02C0220F331F0A94E2F720950C
:200CE00028232083DF91CF911F910F91FF90EF90DF90BF90AF900895DC011C96ED91FC91A4
:200D00001D97E05CFF4F2191319180819181281B390B2F733070C9010895DC011C96ED91D1
:200D2000FC911D97E05CFF4F20813181E054F040DF01AE5BBF4F8D919C91119728173907C8
:200D400019F42FEF3FEF07C08D919C91E80FF91F8081282F30E0C9010895DC011C96ED913D
:200D6000FC911D97E05CFF4F20813181E054F040DF01AE5BBF4F8D919C9111972817390788
:200D800019F42FEF3FEF10C08D919C911197E80FF91F20818D919C91119701968F739070FB
:200DA00011969C938E9330E0C9010895DC0191968C919197882339F05496ED91FC915597C7
:200DC000808186FFF9CF91961C920895CF93DF93EC01EE85FF85E05CFF4F20813181E0548A
:200DE000F0402F5F3F4F2F733070DF01AE5BBF4F8D919C91119728173907D1F3E05CFF4FAE
:200E000080819181E054F040E80FF91F6083EE85FF85E05CFF4F31832083EE89FF892081F1
:200E200081E090E00F8C02C0880F991F0A94E2F7282B208381E089A3EC89FD89808180645B
:200E4000808381E090E0DF91CF9108951092B6031092B50388EE93E0A0E0B0E08093B703D6
:200E60009093B803A093B903B093BA0384EC92E09093B4038093B3038BE293E09093C0035A
:200E80008093BF038FE693E09093C2038093C10385EC90E09093C4038093C30384EC90E052
:200EA0009093C6038093C50380EC90E09093C8038093C70381EC90E09093CA038093C90318
:200EC00082EC90E09093CC038093CB0386EC90E09093CE038093CD0384E08093CF0383E0FC
:200EE0008093D00387E08093D10385E08093D20381E08093D3030895CF92DF92EF92FF92A6
:200F00000F931F93CF93DF937C016B018A01C0E0D0E00FC0D6016D916D01D701ED91FC91F0
:200F20000190F081E02DC7010995C80FD91F015010400115110571F7CE01DF91CF911F91E9
:200F40000F91FF90EF90DF90CF900895EF92FF920F931F938C01DC01ED91FC910190F0819B
:200F6000E02D6DE009957C01D801ED91FC910190F081E02DC8016AE009959C012E0D3F1D24
:200F8000C9011F910F91FF90EF900895CF93DF93EC016115710519F420E030E00FC0DB0117
:200FA0000D900020E9F71197A61BB70BE881F9810280F381E02DAD0109959C01C901DF9160
:200FC000CF9108954F925F927F928F929F92AF92BF92CF92DF92EF92FF920F931F93DF93A3
:200FE000CF93CDB7DEB7A1970FB6F894DEBF0FBECDBF2C01742ECB01223008F42AE019A249
:2010000031E2C32ED12CCC0EDD1E822E9924AA24BB24672D752FA50194010E94611A7901D6
:201020008A01C801B701A50194010E94421A472D461B0894C108D1084A3014F4405D01C078
:20104000495CF6014083E114F1040105110521F07E2C5F2DC801DDCFC201B6010E94C60786
:20106000A1960FB6F894DEBF0FBECDBFCF91DF911F910F91FF90EF90DF90CF90BF90AF9068
:201080009F908F907F905F904F900895DC012115310541F4ED91FC910190F081E02D642F5D
:2010A000099508950E94E2070895EF92FF920F931F939A01E62EFF2400E010E0B801A70164
:2010C0000E9446081F910F91FF90EF900895CF92DF92EF92FF920F931F936C01E62E9A01D1
:2010E000FF2400E010E0B801A7010E9446088C01C6010E94A607080F191FC8011F910F91A1
:20110000FF90EF90DF90CF900895CF92DF92EF92FF920F931F93CF93DF93EC016A017B0176
:201120002115310541F4E881F9810190F081E02D642F09951FC02A303105D1F477FF17C06A
:20114000E881F9810190F081E02D6DE209958C0144275527BA014C195D096E097F09CE01E8
:201160002AE00E94E2079801280F391F04C02AE00E94E2079C01C901DF91CF911F910F91D2
:20118000FF90EF90DF90CF900895EF92FF920F931F937B019A010027F7FC0095102FB801B2
:2011A000A7010E9485081F910F91FF90EF900895CF92DF92EF92FF920F931F936C017B013C
:2011C0009A010027F7FC0095102FB801A7010E9485088C01C6010E94A607080F191FC8013B
:2011E0001F910F91FF90EF90DF90CF9008950E94C60708957F928F929F92AF92BF92CF92C4
:20120000DF92EF92FF920F931F93CF93DF934C017A018B01722ECB01BA01A80197010E94C5
:201220003E1A882321F0C40164EA72E021C0C0E0D0E057016801E894D7F8C601B5012FEF5D
:201240003FEF4FE75FE70E943E1A882351F4C601B5012FEF3FEF4FE75FE70E948818181645
:2012600014F0C1E0D0E0219739F0C40168EA72E00E94C607EC0193C0C801B7012FEF3FEF53
:201280004FE75FE40E94D719181654F0C801B7012FEF3FEF4FE75FEC0E948818882324F47E
:2012A000C4016CEA72E0E4CFC801B70120E030E040E050E00E94881887FD03C0C0E0D0E054
:2012C0000EC0D401ED91FC910190F081E02DC4016DE20995EC0117FB109517F9109520E046
:2012E00030E040E05FE3DD240BC0CA01B90120E030E040E251E40E948C189B01AC01D394CE
:20130000D71498F3C801B7010E9424185B016C010E94F9187B018C01C401B801A7012AE043
:2013200030E00E944608C80FD91F772039F0C40160EB72E00E94C607C80FD91FC801B701FD
:201340000E9425199B01AC01C601B5010E94231824C020E030E040E251E40E94DB197B01AD
:201360008C010E94F4185B016C01CC24B7FCC094DC2CC401B601A5012AE030E00E948508FF
:20138000C80FD91FC601B5010E9427199B01AC01C801B7010E9423187A947720D1F6CE013D
:2013A000DF91CF911F910F91FF90EF90DF90CF90BF90AF909F908F907F9008950E94FA0805
:2013C0000895EF92FF920F931F937C010E94C6078C01C7010E94A607080F191FC8011F91B2
:2013E0000F91FF90EF900895CF93DF930E94BC0A0E944603C7EAD5E00E945F012097E1F388
:201400000E94A705F9CF1F920F920FB60F9211242F933F938F939F93AF93BF938091D90360
:201420009091DA03A091DB03B091DC033091DD030196A11DB11D232F2D5F2D3720F02D57E5
:201440000196A11DB11D2093DD038093D9039093DA03A093DB03B093DC038091D5039091AA
:20146000D603A091D703B091D8030196A11DB11D8093D5039093D603A093D703B093D80337
:20148000BF91AF919F918F913F912F910F900FBE0F901F9018958FB7F8942091D903309155
:2014A000DA034091DB035091DC038FBFB901CA0108959B01AC017FB7F8948091D50390915B
:2014C000D603A091D703B091D80366B5A89B05C06F3F19F00196A11DB11D7FBFBA2FA92F10
:2014E000982F8827860F911DA11DB11D62E0880F991FAA1FBB1F6A95D1F7BC012DC0FFB74C
:20150000F8948091D5039091D603A091D703B091D803E6B5A89B05C0EF3F19F00196A11D06
:20152000B11DFFBFBA2FA92F982F88278E0F911DA11DB11DE2E0880F991FAA1FBB1FEA95DE
:20154000D1F7861B970B885E9340C8F2215030404040504068517C4F211531054105510590
:2015600071F60895019739F0880F991F880F991F02970197F1F70895789484B5826084BDEA
:2015800084B5816084BD85B5826085BD85B5816085BDEEE6F0E0808181608083E1E8F0E013
:2015A0001082808182608083808181608083E0E8F0E0808181608083E1EBF0E080818460D0
:2015C0008083E0EBF0E0808181608083EAE7F0E08081846080838081826080838081816037
:2015E00080838081806880831092C1000895982F8E3008F09E5097708091BF028295880F0A
:20160000880F807C892B80937C0080917A00806480937A0080917A0086FDFCCF20917800F6
:2016200040917900942F80E030E0282B392BC9010895CF93DF93482F50E0CA0186569F4FFF
:20164000FC0134914A575F4FFA018491882369F190E0880F991FFC01E859FF4FA591B4919E
:20166000FC01EE58FF4FC591D491662351F42FB7F8948C91932F909589238C93888189235A
:201680000BC0623061F42FB7F8948C91932F909589238C938881832B88832FBF06C09FB78B
:2016A000F8948C91832B8C939FBFDF91CF910895482F50E0CA0182559F4FFC012491CA0135
:2016C00086569F4FFC0194914A575F4FFA013491332309F440C0222351F1233071F024302D
:2016E00028F42130A1F0223011F514C02630B1F02730C1F02430D9F404C0809180008F7745
:2017000003C0809180008F7D8093800010C084B58F7702C084B58F7D84BD09C08091B000F5
:201720008F7703C08091B0008F7D8093B000E32FF0E0EE0FFF1FEE58FF4FA591B4912FB75E
:20174000F894662321F48C919095892302C08C91892B8C932FBF0895682F70E0CB018255AA
:201760009F4FFC012491CB0186569F4FFC0144916A577F4FFB019491992319F420E030E0D8
:201780003CC0222351F1233071F0243028F42130A1F0223011F514C02630B1F02730C1F095
:2017A0002430D9F404C0809180008F7703C0809180008F7D8093800010C084B58F7702C0E9
:2017C00084B58F7D84BD09C08091B0008F7703C08091B0008F7D8093B000892F90E0880FE1
:2017E000991F84589F4FFC01A591B4918C9120E030E0842311F021E030E0C9010895982FDB
:2018000083FF02C088E2982797FF02C090E001C0906484B7877F84BFF89480916000886174
:20182000809360009093600078940895EAE7F0E0908180818F77808383B7817F846083BFED
:20184000F89483B7816083BF85B7806685BF85B78F79806485BF7894889583B78E7F83BF1B
:2018600090937A000895CF92DF92EF92FF921F93CF93DF937C01EC0158E0C52ED12C20C052
:201880001F5F193029F09695879580329105C0F71092DE03812F0E94FF0B0E94160C8FEF01
:2018A0000E94FF0B960102C0220F331F1A95E2F7C21BD30B8091DE03882351F0C21BD30BC4
:2018C000C031D10510F461E004C0CE0110E0DDCF60E02091D9033091DA034091DB035091D2
:2018E000DC03EC1AFD0AC701A0E0B0E0820F931FA41FB51F8093D9039093DA03A093DB034A
:20190000B093DC03862FDF91CF911F91FF90EF90DF90CF9008958091DE038F5F8093DE0323
:20192000089590E0882309F491E0892F0E94831508951F93182F16C01123A1F093B71330D1
:2019400011F484E005C0123011F080E001C08CE0917F892B83BF83B7816083BF889583B7CF
:201960008E7F83BF0E947B15882331F71F91089581EE93E00E9445169093E0038093DF03EC
:201980008091DF039091E00320E08F5F9F4F09F021E0822F08950F931F93CF93DF93182FBD
:2019A000EB01042F02C00E94B80C0E946A158823D1F3812FBE01402F0E94B716DF91CF9133
:2019C0001F910F910895BF92CF92DF92EF92FF920F931F93CF93DF93C82ED62EB42EE901F7
:2019E00082E0681751F083E0681749F081E0681711F060E005C06BE203C066E501C06AE559
:201A000070E080E090E020E836E948E950E00E94421A7B018C016D2D70E080E090E024EC4D
:201A200039E040E050E00E94421A9E0140E050E00E94421AE60EF71E081F191FC801B70169
:201A40000E944D15B09232048C2D8F718093330464E170E080E090E00E94590A8091330455
:201A6000882341F080E06AE777E143E050E00E947A1403C080E00E949D140E948E15C092F1
:201A800029048C2DDF91CF911F910F91FF90EF90DF90CF90BF900895FC01138615861486AD
:201AA00087E090E012863197009711F00197FACF0895DC0180E00BC0E82FF0E08D9190E0DC
:201AC000E827F927EE53FF4FE49161508E2F662399F70895DF92EF92FF920F931F93FC01DB
:201AE000E08001811281F894F80181818E2981838281DE2CD0948D21828383E090E00E9496
:201B0000B20AF80181818D2181838AE090E00E94B20AF8010081789485E390E00E94B20A68
:201B200080E010E0FF240E211F21012B09F081E01F910F91FF90EF90DF900895EF92FF92C1
:201B40000F931F93CF93DF937C0101E010E0C0E0D0E0C7010E946A0D8111102B000F21964B
:201B6000C830D105B1F7812FDF91CF911F910F91FF90EF9008951F93CF93DF93FC01108160
:201B8000C181D281912F909560FF12C0F8948A8189238A838981812B89838AE090E00E940C
:201BA000B20A8A81812B8A83789487E390E011C0F8948A8189238A838981812B898381E477
:201BC00090E00E94B20A8A81812B8A83789485E090E00E94B20ADF91CF911F910895CF92B6
:201BE000DF92EF92FF920F931F93CF93DF938C01E42EFF24F394C0E0D0E0C62EDD2460E06C
:201C00008F2D90E08C219D21892B09F061E0C8010E94BB0DFF0C2196C830D10581F7EE20F6
:201C2000A9F4F894D8011196ED91FC91129791818C918095982391831196ED91FC911297D9
:201C400092818C918095982392837894DF91CF911F910F91FF90EF90DF90CF9008956CEC72
:201C600040E00E94EF0D0895EF92FF920F931F93CF93DF938C017B0165E540E00E94EF0DBE
:201C8000C0E0D0E0F701EC0FFD1FC801608140E00E94EF0D2196C830D105A1F7DF91CF9190
:201CA0001F910F91FF90EF900895DF92EF92FF920F931F93CF93DF93FC010081C181D2816B
:201CC000F8948981D02ED0948D21898378941DE7E02EFF24115059F182E090E00E94B20A36
:201CE000888190E08E219F21892BA1F3F8948A818D218A838981802B8983789480EE91E0B6
:201D00000E94B20AF89489818D21898386E490E00E94B20A888110E090E0E822F922EF2838
:201D200009F411E078948AE991E00E94B20A812FDF91CF911F910F91FF90EF90DF9008957D
:201D4000AF92BF92DF92EF92FF920F931F93CF93DF93EC015B018D85882309F061C0CE0157
:201D60000E94550E882329F41B861D861C8690E06BC0CE0160EF40E00E94EF0D01E0DD2457
:201D8000EE24FF24F394CE010E946A0D182FCE010E946A0D113019F48130E1F439C0181774
:201DA00009F58B85081770F460E0FE01EE0DF11D838190E02F2D30E08223932318161906C2
:201DC0004CF003C060E0081729F0093008F04CC00C874AC0FE01EE0DF11D83818F298383E8
:201DE00061E009C0612FFE01EE0DF11D9F2D9095838189238383CE010E94BB0D0F5FFF0CE8
:201E000019F4E394FF24F39487E08E1508F0BBCF013430F0DB86DD2011F581E08D871FC0FB
:201E20001B861D861C8690E0DE0120E030E0F501E20FF31F13968C91139780832F5F3F4FD5
:201E400011962830310599F7892FDF91CF911F910F91FF90EF90DF90BF90AF9008958B8131
:201E60008823F1F291E0E0CFD02EBDCFFF920F931F938C01F62E862F60E00E94190B8F2D1D
:201E800090E0FC01E656FF4FE491D801EC938A579F4FFC016491E62FF0E0EE0FFF1FE45881
:201EA000FF4F8591949112969C938E9311971B961C921B971D961C921D971C961C92F8017A
:201EC00087E090E012863197009711F00197FACF1F910F91FF900895FC0188E390E1928B60
:201EE000818B768365831482108289E0818381E0828383830895FC0184810895FC016283D6
:201F000008956F927F928F929F92AF92BF92CF92DF92EF92FF920F931F93CF93DF93FB0126
:201F2000EA01998180E0288130E0282B392BE081E23231F0E83221F0E03109F084C04BC0B2
:201F40004C814F3329F1403420F44F3109F07BC02FC04F3579F04F3709F075C0B9018827E3
:201F600077FD8095982F0E94271920E030E040E85DE32EC035952795B901882777FD809551
:201F8000982F0E94271920E030E040E05EE320C03595279535952795B901882777FD809549
:201FA000982F0E94271920E030E040E85EE310C093E0359527959A95E1F7B901882777FD52
:201FC0008095982F0E94271920E030E040E05FE30E94DB1932C0EF8035952795B9018827EB
:201FE00077FD8095982F0E94271920E030E040E85EE30E9423183B014C016E2D70E02E8136
:20200000621B7109882777FD8095982F0E9427195B016C01FF2400E010E0C801B7010E9409
:2020200025199B01AC01C601B5010E948C189B01AC01C401B3010E9424189B01AC01832FBB
:20204000942F752F00C0262F382F492F572FB901CA01DF91CF911F910F91FF90EF90DF907D
:20206000CF90BF90AF909F908F907F906F9008950895EF92FF920F931F938C017B01FC0171
:20208000858196810E94550EF80185819681B7010E94340EF8018581968164EB40E00E9445
:2020A000EF0DF801858196810E946A0DF82EF801858196810E94550E80E0FF2009F481E0D7
:2020C0001F910F91FF90EF900895EF92FF920F931F93CF93DF93EC018B017A018D819E81AA
:2020E0000E94550E8D819E81B8010E94340E8D819E816EE440E00E94EF0D8D819E81F701AF
:20210000628140E00E94EF0D8D819E81F701638140E00E94EF0DF8018081803139F08D8175
:202120009E81F701648140E00E94EF0D8D819E810E94550E8D819E8168E448810E94EF0DD3
:202140008881882331F06AE070E080E090E00E94590A8D819E810E94550EDF91CF911F9189
:202160000F91FF90EF900895CF92DF92EF92FF920F931F938C016B017A01FC01858196814E
:202180000E94550EF80185819681B6010E94340EF801858196816EEB40E00E94EF0DF80163
:2021A000858196810E949E0DF7018083F801858196810E949E0DF7018183F8018581968145
:2021C0000E949E0DF7018283F801858196810E949E0DF7018383F801858196810E949E0DF1
:2021E000F7018483F801858196810E949E0DF7018583F801858196810E949E0DF701868319
:20220000F801858196810E949E0DF7018783F801858196810E949E0DF7018087F8018581F8
:2022200096810E94550E1F910F91FF90EF90DF90CF900895DF93CF93CDB7DEB729970FB647
:20224000F894DEBF0FBECDBFAE014F5F5F4F0E94B4108981811181E029960FB6F894DEBFE1
:202260000FBECDBFCF91DF910895CF92DF92EF92FF920F931F93CF93DF93EC016B01452BC3
:20228000E1F08B818823C9F088818823B1F40E944B0A7B018C01CE0160E070E00E941A1178
:2022A000882359F40E944B0A6E197F09800B910B6E5E72408040904070F3F6016081693017
:2022C00039F06930A0F06A3041F06B3081F40AC06EE570E080E090E00EC06CEB70E080E0BF
:2022E00090E009C067E771E080E090E004C06EEE72E080E090E00E94590ADF91CF911F916F
:202300000F91FF90EF90DF90CF900895CF93DF93EC018D819E810E94550E8D819E810E94E2
:202320002F0E8D819E8164E448810E94EF0D8A81882339F0CE012196BE0140E050E00E946E
:202340003511DF91CF9108950F931F938A010E94B410C80168E00E94590D20E0F80190855E
:20236000891709F421E0822F1F910F910895CF92DF92EF92FF920F931F93DF93CF93CDB791
:20238000DEB729970FB6F894DEBF0FBECDBF8C017B016E010894C11CD11CA6010E94A411C5
:2023A000882329F460E070E08EEF92EC05C0C801B701A6010E94810F29960FB6F894DEBFFE
:2023C0000FBECDBFCF91DF911F910F91FF90EF90DF90CF900895DF93CF93CDB7DEB729975E
:2023E0000FB6F894DEBF0FBECDBF9C01FB0180818031D9F0C901AE014F5F5F4F0E94A41156
:202400008823A9F08D818F3371F0803418F48F3171F40BC08F3519F08F3749F402C08BE09A
:2024200007C08CE005C08AE003C089E001C080E029960FB6F894DEBF0FBECDBFCF91DF9117
:202440000895CF92DF92EF92FF921F93DF93CF93CDB7DEB729970FB6F894DEBF0FBECDBF55
:202460006C017B01142FAE014F5F5F4F0E94A4118823E1F0F70180818031B9F01A3051F074
:202480001A3050F01B3021F01C3031F48FE705C08FE503C08FE301C08FE18D83C601B70141
:2024A000AE014F5F5F4F0E94651081E029960FB6F894DEBF0FBECDBFCF91DF911F91FF9084
:2024C000EF90DF90CF9008950F931F938B01CB0167E00E94590D20E0F8019781891709F469
:2024E00021E0822F1F910F910895AF92BF92CF92DF92EF92FF920F931F93DF93CF93CDB71B
:20250000DEB761970FB6F894DEBF0FBECDBF7C01FC01858196810E944C0DF70114826E0158
:202520000894C11CD11C79E0A72EB12CAC0EBD1E01E02BC0C701B6010E946412882329F16D
:20254000F7018081882341F4C701B6010E943910882311F0F7010083C701B601A5010E944A
:20256000B410F7011181C701B6010E94EB11811718F4F701818104C0C701B6010E94EB1171
:20258000F701818384818F5F8483F70185819681B6010E94A00E882369F661960FB6F894D7
:2025A000DEBF0FBECDBFCF91DF911F910F91FF90EF90DF90CF90BF90AF900895FC01668318
:2025C0004783208781E0858708950F931F938C01FC01868160E00E94190BF801868161E054
:2025E0000E94580BF80111861286138614861F910F910895CF92DF92EF92FF920F931F9356
:20260000CF93DF93EC018E8161E00E94580B6AEF70E080E090E00E94590A0E944B0A9B0193
:20262000AC0189859A85AB85BC85281739074A075B0720F419861A861B861C868D858823CA
:2026400071F489859A85AB85BC85281B390B4A0B5B0B205D37404040504008F477C01D865B
:202660000E944B0A69877A878B879C871C821B821A82198218828E8161E00E94190B8E810C
:2026800060E00E94580B64E170E080E090E00E94590AF8948E8161E00E94580B88E290E0D0
:2026A0000E94B20A8E8160E00E94190B81E0EE2400E010E00AC0F39481E090E00E94B20AE4
:2026C0008FEFF81629F40AC0822FFF24C82EDD248E810E94AC0B8C159D0569F38E810E9404
:2026E000AC0B282F8FEFF816C9F0043090F000FD10C08E2D869586958695FE01E80FF11DF6
:202700009081990F908388858F1510F491609083E3940F5F1F4F05351105B1F6789487E275
:202720008E1510F030E013C030E04C8150E02981888190E0820F911D2A81820F911D2B810E
:20274000820F911D90704817590709F431E0832FDF91CF911F910F91FF90EF90DF90CF90BF
:202760000895EF92FF920F931F93CF93DF93EC010E94FA128823A9F18F818B3031F08B30FB
:2027800080F18551823068F507C0688170E080E090E00E94251922C0688170E080E090E048
:2027A0000E94251920E030E040E853E40E94DB197B018C01698170E0882777FD8095982FF2
:2027C0000E9427199B01AC01C801B7010E94241820E030E040E251E40E948C18E62F692F15
:2027E0000AC083EB93E062EB72E00E94F708E0E070E080EC6FE72E2F372F482F562FB901A3
:20280000CA01DF91CF911F910F91FF90EF900895CF92DF92EF92FF920F931F93CF93DF9316
:20282000EC01C62E0E94FA12882309F450C08F818B3041F08B3008F44AC08551823008F014
:2028400046C007C06A8170E080E090E00E94251929C0DA806D2D70E06F777070882777FDAA
:202860008095982F0E94271920E030E040E853E40E94DB197B018C016B8170E0882777FD2D
:202880008095982F0E9427199B01AC01C801B7010E94241820E030E040E251E40E948C1825
:2028A000D7FC9058CC20E9F020E030E040E151E40E94DB1920E030E040EA50E40E948C18E8
:2028C00020E030E040E052E40E9424180AC083EB93E062EB72E00E94F70860E070E080ECCD
:2028E0009FE7DF91CF911F910F91FF90EF90DF90CF900895823000F5E82FF0E0EE0FFF1F10
:20290000E65DFB4F71836083882319F08130A1F408C0809169008C7F842B80936900E89A5F
:20292000089580916900440F551F440F551F837F842B80936900E99A0895823080F48823D4
:2029400019F0813021F402C0E89801C0E998E82FF0E0EE0FFF1FE65DFB4F118210820895D3
:202960001F920F920FB60F9211242F933F934F935F936F937F938F939F93AF93BF93EF9384
:20298000FF9380912A0490912B04892B29F0E0912A04F0912B040995FF91EF91BF91AF91BC
:2029A0009F918F917F916F915F914F913F912F910F900FBE0F901F9018951F920F920FB6D9
:2029C0000F9211242F933F934F935F936F937F938F939F93AF93BF93EF93FF9380912C0468
:2029E00090912D04892B29F0E0912C04F0912D040995FF91EF91BF91AF919F918F917F91C7
:202A00006F915F914F913F912F910F900FBE0F901F90189598E20EC0E8982A981EBC0DB4CA
:202A200007FEFDCF8EB51EBC0DB407FEFDCF8EB52A9AE89AE8982A989EBD0DB407FEFDCF5E
:202A40008EB51EBC0DB407FEFDCF8EB52A9AE89A807511F70895282FE8982A9881E08EBD5F
:202A60000DB407FEFDCF8EB51EBC0DB407FEFDCF9EB52A9AE89AE8982A9881E88EBD0DB4C5
:202A800007FEFDCF8EB5937E922B9EBD0DB407FEFDCF8EB52A9AE89A089522E0660F771F34
:202AA000881F991F2A95D1F729E03DE340E050E00E94611A86E0220F331F441F551F8A95BB
:202AC000D1F720932E0430932F044093300450933104089580913904853059F480913A04F8
:202AE000882339F484E0809339040E942B1581E0089580E008958091390490E084300CF4FB
:202B000091E0892F0895882311F484E001C080E00E942B1584E08093390408952A9A229A07
:202B20002A9A84B18C6284B980E58CBD8DB581608DBD3FEA2AEA9FE2E8982A983EBD0DB49A
:202B400007FEFDCF8EB52EBD0DB407FEFDCF8EB52A9AE89AE8982A989EBD0DB407FEFDCF2C
:202B60008EB51EBC0DB407FEFDCF8EB52A9AE89A8A3A11F73FEA25E59FE2E8982A983EBD60
:202B80000DB407FEFDCF8EB52EBD0DB407FEFDCF8EB52A9AE89AE8982A989EBD0DB407FEF7
:202BA000FDCF8EB51EBC0DB407FEFDCF8EB52A9AE89A853511F7E2ECF1E084918823A1F05F
:202BC0003196949131978068E8982A988EBD0DB407FEFDCF8EB59EBD0DB407FEFDCF8EB5C7
:202BE0002A9AE89A3296E9CF90913204E8982A9880EB8EBD0DB407FEFDCF8EB59EBD0DB4CF
:202C000007FEFDCF8EB52A9AE89A20912E0430912F044091300450913104E8982A9887E8B7
:202C20008EBD0DB407FEFDCF8EB5CA01AA27BB278EBD0DB407FEFDCF8EB52A9AE89AE89810
:202C40002A9888E88EBD0DB407FEFDCF8EB5BB27A52F942F832F8EBD0DB407FEFDCF8EB5D7
:202C60002A9AE89AE8982A9889E88EBD0DB407FEFDCF8EB52EBD0DB407FEFDCF8EB52A9AB7
:202C8000E89A84E0809339040895AC0180913904843021F0853009F066C032C01092E30353
:202CA0008091E30380933A04209132048FEF9FEF8227282F22952827022E269526952025E8
:202CC000022E269520252770082E892F269507942795902D822706942795902582279093F0
:202CE000350480933404509338044093370485E0809339040E940A1580E10E942B1533C077
:202D00008091E30320913A0490E0049630E08217930724F080913A04883428F184E08093D1
:202D200039040E942B158091E303833430F081E090E090933504809334048091E20386FFB3
:202D40000DC0209133042F3149F08091E20390E08F71907030E08217930729F42091340476
:202D60003091350402C02FEF3FEFC9010895982F4093E30320E030E050E00AC0F901EC5123
:202D8000FC4FDB01A20FB31F8C9180832F5F3F4F241735079CF396FD04C0907E809133049A
:202DA000980F9093E203209132048FEF9FEF8227282F22952827022E269526952025022E50
:202DC000269520252770082E892F269507942795902D822706942795902582279093E0033C
:202DE0008093DF039091E3038EEF891B809339040E940A158CE00E942B15E8982A9885EAA6
:202E00008EBD0DB407FEFDCF8EB51EBC0DB407FEFDCF8EB52A9AE89A409137045091380474
:202E200068E230E861C0E8982A986EBD0DB407FEFDCF8EB51EBC0DB407FEFDCF8EB52A9A5A
:202E4000E89A87FD51C08091390487FF2DC02091E30380913904992787FD9095FA01E20F60
:202E6000F11DE80FF91F238180913404909135048227782F72957827072E76957695702518
:202E8000072E769570257770082E892F769507947795902D8727069477959025872790933F
:202EA0003504809334040DC080913904882321F0813029F02AEA05C02091340402C02091B8
:202EC0003504E8982A983EBD0DB407FEFDCF8EB52EBD0DB407FEFDCF8EB52A9AE89A809190
:202EE00039048F5F809339048091390483300CF49ACF089580913904853009F07DC0E89897
:202F00002A9884E28EBD0DB407FEFDCF8EB51EBC0DB407FEFDCF8EB52A9AE89A8093360427
:202F2000789448E2E8982A984EBD0DB407FEFDCF8EB51EBC0DB407FEFDCF8EB52A9AE89A44
:202F4000807581F380913A04882371F480913A04E0913704F0913804E80FF11D9091320495
:202F600090838F5F80933A04E8982A981EBC0DB407FEFDCF8EB51EBC0DB407FEFDCF2EB5BF
:202F80002A9AE89A80913A04E0913704F0913804E80FF11D20838F5F80933A048091340403
:202FA000909135048227282F22952827022E269526952025022E269520252770082E892F11
:202FC000269507942795902D8227069427959025822790933504809334048091E303209176
:202FE0003A0490E0049630E0821793075CF180913A04883438F596CFE8982A9888E28EBD65
:203000000DB407FEFDCF8EB51EBC0DB407FEFDCF8EB52A9AE89A83FF15C084E080933904DB
:203020000E942B15E8982A9885EA8EBD0DB407FEFDCF8EB580E88EBD0DB407FEFDCF8EB555
:203040002A9AE89A08955058BB27AA270ED075C166D130F06BD120F031F49F3F11F41EF461
:203060005BC10EF4E095E7FB51C1E92F77D180F3BA17620773078407950718F071F49EF51B
:203080008FC10EF4E0950B2EBA2FA02D0B01B90190010C01CA01A0011124FF27591B99F052
:2030A000593F50F4503E68F11A16F040A22F232F342F4427585FF3CF469537952795A795E4
:2030C000F0405395C9F77EF41F16BA0B620B730B840BBAF09150A1F0FF0FBB1F661F771F13
:2030E000881FC2F70EC0BA0F621F731F841F48F4879577956795B795F7959E3F08F0B3CF94
:203100009395880F08F09927EE0F979587950895D9D008F481E008950CD00FC107D140F0FF
:20312000FED030F021F45F3F19F0F0C0511139C1F3C014D198F39923C9F35523B1F3951B72
:20314000550BBB27AA2762177307840738F09F5F5F4F220F331F441FAA1FA9F333D00E2E80
:203160003AF0E0E830D091505040E695001CCAF729D0FE2F27D0660F771F881FBB1F2617AE
:2031800037074807AB07B0E809F0BB0B802DBF01FF2793585F4F2AF09E3F510568F0B6C052
:2031A00000C15F3FECF3983EDCF3869577956795B795F7959F5FC9F7880F911D96958795E7
:2031C00097F90895E1E0660F771F881FBB1F621773078407BA0720F0621B730B840BBA0BD7
:2031E000EE1F88F7E095089504D06894B111D9C00895BCD088F09F5790F0B92F9927B7513F
:20320000A0F0D1F0660F771F881F991F1AF0BA95C9F712C0B13081F0C3D0B1E00895C0C075
:20322000672F782F8827B85F39F0B93FCCF3869577956795B395D9F73EF4909580957095FF
:2032400061957F4F8F4F9F4F0895E89409C097FB3EF490958095709561957F4F8F4F9F4F69
:203260009923A9F0F92F96E9BB279395F695879577956795B795F111F8CFFAF4BB0F11F4C7
:2032800060FF1BC06F5F7F4F8F4F9F4F16C0882311F096E911C0772321F09EE8872F762F2E
:2032A00005C0662371F096E8862F70E060E02AF09A95660F771F881FDAF7880F96958795F2
:2032C00097F90895990F0008550FAA0BE0E8FEEF16161706E807F907C0F012161306E4072F
:2032E000F50798F0621B730B840B950B39F40A2661F0232B242B252B21F408950A2609F4A6
:20330000A140A6958FEF811D811D089597F99F6780E870E060E008959FEF80EC0895002454
:203320000A941616170618060906089500240A9412161306140605060895092E0394000C3D
:2033400011F4882352F0BB0F40F4BF2B11F460FF04C06F5F7F4F8F4F9F4F089557FD90582A
:20336000440F551F59F05F3F71F04795880F97FB991F61F09F3F79F08795089512161306EF
:203380001406551FF2CF4695F1DF08C0161617061806991FF1CF869571056105089408955C
:2033A000E894BB2766277727CB0197F908958ADF08F48FEF08950BD0C0CFB1DF28F0B6DF64
:2033C00018F0952309F0A2CFA7CF1124EACFC6DFA0F3959FD1F3950F50E0551F629FF001F5
:2033E000729FBB27F00DB11D639FAA27F00DB11DAA1F649F6627B00DA11D661F829F2227AE
:20340000B00DA11D621F739FB00DA11D621F839FA00D611D221F749F3327A00D611D231F3A
:20342000849F600D211D822F762F6A2F11249F5750408AF0E1F088234AF0EE0FFF1FBB1FEF
:20344000661F771F881F91505040A9F79E3F510570F05CCFA6CF5F3FECF3983EDCF3869529
:2034600077956795B795F795E7959F5FC1F7FE2B880F911D9695879597F9089523DF880BC3
:20348000990B0895629FD001739FF001829FE00DF11D649FE00DF11D929FF00D839FF00DAF
:2034A000749FF00D659FF00D9927729FB00DE11DF91F639FB00DE11DF91FBD01CF011124BF
:2034C0000895A1E21A2EAA1BBB1BFD010DC0AA1FBB1FEE1FFF1FA217B307E407F50720F0E6
:2034E000A21BB30BE40BF50B661F771F881F991F1A9469F760957095809590959B01AC015D
:20350000BD01CF010895EE0FFF1F0590F491E02D0994F894FFCF44533138423230205465CA
:203520006D70657261747572653A2000432C200044485432322054656D7065726174757240
:20354000653A2000432C2044485432322048756D69646974793A2000252C20004261747416
:2035600065727920766F6C746167653A20005600656D6F6E5448202D204669726D776172A9
:20358000652056312E35004F70656E456E657267794D6F6E69746F722E6F72670052464D7D
:2035A0003639435720496E69743E20004E6F64653A200020467265713A20003433334D68B9
:2035C0007A00204E6574776F726B3A2000202D20556E61626C6520746F2066696E64204421
:2035E000485432322053656E736F722E2E747279696E67206167696E00202D20556E616286
:203600006C6520746F2066696E642044485432322053656E736F7220666F7220326E64206C
:2036200074696D652E2E676976696E672075700044657465637465642044485432322074DC
:20364000656D7020262068756D6964697479207365736E6F72004E6F20445331384232301A
:2036600020646574656374656400446574656374656420002044533138423230004453311A
:203680003842323020616E6420444854323220666F756E642C20617373756D696E67204444
:2036A0005331384232302069732065787465726E616C2073656E736F72006E616E00696E5D
:2036C00066006F7666002E0052656164206661696C000113000100000000E6067C077C06CD
:2036E000AD068D06D60674656400446574656374656420002044533138423230004453319D
:203700008D223B014C016E2D70E02E81621B7109882777FD8095982F0E9491235B016C01C2
:20372000FF2400E010E0C801B7010E948F239B01AC01C601B5010E94F6229B01AC01C40133
:20374000B3010E948E229B01AC01832F942F752F00C0262F382F492F572FB901CA01DF9192
:20376000CF911F910F91FF90EF90DF90CF90BF90AF909F908F907F906F9008950895EF9218
:20378000FF920F931F938C017B01FC01858196810E94DE19F80185819681B7010E94BD1942
:2037A000F8018581968164EB40E00E947819F801858196810E94F318F82EF8018581968152
:2037C0000E94DE1980E0FF2009F481E01F910F91FF90EF900895EF92FF920F931F93CF93B0
:2037E000DF93EC018B017A018D819E810E94DE198D819E81B8010E94BD198D819E816EE4C0
:2038000040E00E9478198D819E81F701628140E00E9478198D819E81F701638140E00E942F
:203820007819F8018081803139F08D819E81F701648140E00E9478198D819E810E94DE1900
:203840008D819E8168E448810E9478198881882331F06AE070E080E090E00E94450F8D81B0
:203860009E810E94DE19DF91CF911F910F91FF90EF900895CF92DF92EF92FF920F931F938D
:203880008C016B017A01FC01858196810E94DE19F80185819681B6010E94BD19F8018581BD
:2038A00096816EEB40E00E947819F801858196810E942719F7018083F801858196810E949A
:2038C0002719F7018183F801858196810E942719F7018283F801858196810E942719F701C7
:2038E0008383F801858196810E942719F7018483F801858196810E942719F7018583F801DA
:20390000858196810E942719F7018683F801858196810E942719F7018783F8018581968197
:203920000E942719F7018087F801858196810E94DE191F910F91FF90EF90DF90CF9008952E
:20394000DF93CF93CDB7DEB729970FB6F894DEBF0FBECDBFAE014F5F5F4F0E943A1C898166
:20396000811181E029960FB6F894DEBF0FBECDBFCF91DF910895CF92DF92EF92FF920F935B
:203980001F93CF93DF93EC016B01452BE1F08B818823C9F088818823B1F40E94370F7B01DA
:2039A0008C01CE0160E070E00E94A01C882359F40E94370F6E197F09800B910B6E5E724029
:2039C0008040904070F3F6016081693039F06930A0F06A3041F06B3081F40AC06EE570E0E9
:2039E00080E090E00EC06CEB70E080E090E009C067E771E080E090E004C06EEE72E080E0A8
:203A000090E00E94450FDF91CF911F910F91FF90EF90DF90CF900895CF93DF93EC018D81D8
:203A20009E810E94DE198D819E810E94B8198D819E8164E448810E9478198A81882339F0DE
:203A4000CE012196BE0140E050E00E94BB1CDF91CF9108950F931F938A010E943A1CC8014B
:203A600068E00E94E21820E0F8019085891709F421E0822F1F910F910895CF92DF92EF92C5
:203A8000FF920F931F93DF93CF93CDB7DEB729970FB6F894DEBF0FBECDBF8C017B016E01D5
:203AA0000894C11CD11CA6010E942A1D882329F460E070E08EEF92EC05C0C801B701A601D0
:203AC0000E94071B29960FB6F894DEBF0FBECDBFCF91DF911F910F91FF90EF90DF90CF9020
:203AE0000895DF93CF93CDB7DEB729970FB6F894DEBF0FBECDBF9C01FB0180818031D9F021
:203B0000C901AE014F5F5F4F0E942A1D8823A9F08D818F3371F0803418F48F3171F40BC0C2
:203B20008F3519F08F3749F402C08BE007C08CE005C08AE003C089E001C080E029960FB655
:203B4000F894DEBF0FBECDBFCF91DF910895CF92DF92EF92FF921F93DF93CF93CDB7DEB7F3
:203B600029970FB6F894DEBF0FBECDBF6C017B01142FAE014F5F5F4F0E942A1D8823E1F0A2
:203B8000F70180818031B9F01A3051F01A3050F01B3021F01C3031F48FE705C08FE503C07E
:203BA0008FE301C08FE18D83C601B701AE014F5F5F4F0E94EB1B81E029960FB6F894DEBF12
:203BC0000FBECDBFCF91DF911F91FF90EF90DF90CF9008950F931F938B01CB0167E00E94FE
:203BE000E21820E0F8019781891709F421E0822F1F910F910895AF92BF92CF92DF92EF9299
:203C0000FF920F931F93DF93CF93CDB7DEB761970FB6F894DEBF0FBECDBF7C01FC01858113
:203C200096810E94D518F70114826E010894C11CD11C79E0A72EB12CAC0EBD1E01E02BC00F
:203C4000C701B6010E94EA1D882329F1F7018081882341F4C701B6010E94BF1B882311F0F7
:203C6000F7010083C701B601A5010E943A1CF7011181C701B6010E94711D811718F4F701D7
:203C8000818104C0C701B6010E94711DF701818384818F5F8483F70185819681B6010E944B
:203CA000291A882369F661960FB6F894DEBF0FBECDBFCF91DF911F910F91FF90EF90DF90DC
:203CC000CF90BF90AF900895FC011382128287E293E09183808364834187228713860895B3
:203CE000CF92DF92EF92FF920F931F936C01062F83E2E82E86E0F82EC701F60164810E949D
:203D00009A1F10E0F601838590E0082B192BC701602F0E941C20C7010E945F201F910F91A6
:203D2000FF90EF90DF90CF900895FF920F931F938C01F62E64600E94701E81E090E00E940D
:203D40009E0F8BEFF822C8016F2D0E94701E82E390E00E949E0F1F910F91FF900895FF925C
:203D60000F931F938C01F62E0E94701EC8016F2D0E94951E1F910F91FF900895EF92FF92C6
:203D80000F931F937C01162F042F607F642B0E94AF1E1295107F102BC701612F0E94AF1EC5
:203DA0001F910F91FF90EF90089541E00E94BE1E80E090E0089540E00E94BE1E0895FC01C4
:203DC0006681862F846086836C60CF010E94DB1E0895DF93CF93CDB7DEB728970FB6F89489
:203DE000DEBF0FBECDBF9C01FE013196ABE2B3E088E00D9001928150E1F7F901808584176F
:203E000010F4482F4150E42FF0E0EE0FFF1FEC0FFD1F8181680F6068C9010E94DB1E28961D
:203E20000FB6F894DEBF0FBECDBFCF91DF91089562E00E94DB1E80ED97E00E949E0F089521
:203E400061E00E94DB1E80ED97E00E949E0F0895FC0188E08387CF0160E00E94701E08956A
:203E6000CF93DF93EC01423018F08D8188608D834887222329F0413019F48D8184608D8354
:203E800062E370E080E090E00E94450FCE016B850E94701E68EE73E080E090E00E94450F69
:203EA000CE0160E30E94AF1E84E991E10E949E0FCE0160E30E94AF1E84E991E10E949E0FA4
:203EC000CE0160E30E94AF1E86E990E00E949E0FCE0160E20E94AF1E6D816062CE010E9492
:203EE000DB1E84E08E83CE010E94DF1ECE010E94201F82E08F83CE0166E00E94DB1ECE0143
:203F00000E94181FDF91CF9108950F931F938C0183E296E00E946320F8011582C80161853B
:203F2000428520E00E94301F1F910F9108950E94851F089581E0809322066093FF051092C4
:203F400020061092210608952091FE0530E08091FD05281B3109C90108954091FD05809136
:203F6000FE05481718F02FEF3FEF0AC0E42FF0E0E352FA4F8081282F30E04F5F4093FD0575
:203F8000C9010895E091FD058091FE05E81718F0EFEFFFEF06C0F0E0E352FA4F8081E82F34
:203FA000F0E0CF0108950895109226061092250688EE93E0A0E0B0E0809327069093280602
:203FC000A0932906B0932A0687E393E090932406809323060895CF92DF92EF92FF920F9383
:203FE0001F93CF93DF937C016B018A01809122068823A1F0C0E0D0E00DC0D701ED91FC9152
:20400000D601AC0FBD1F0190F081E02DC7016C9109952196C017D10780F304C0CB01642FC4
:204020000E94C320C801DF91CF911F910F91FF90EF90DF90CF900895DF93CF930F92CDB7A0
:20404000DEB7FC016983809122068823C9F080912106803238F081E090E09383828320E047
:2040600030E015C080912006E82FF0E0E050FA4F998190838F5F809320068093210605C071
:20408000CE01019661E00E94C32021E030E0C9010F90CF91DF9108950F93062F8091FF0521
:2040A00060E076E04091210621E00E946E201092200610922106109222060F91089561E068
:2040C0000E944C2008951092FD051092FE0510922006109221060E946F2208950F931F9337
:2040E000582F122F413210F081E04AC080912F068823E1F782E080932F06009331068FEF5F
:2041000080939C061092570640935806A7E3B6E0FB0102C081918D938E2F861B8417D0F3EE
:204120001092300680913006550F852B8093300680913206813041F41092320680913006B3
:204140008093BB0085EC01C085EE8093BC00112321F080912F068230E1F380919C068F3F8B
:2041600011F480E00DC080919C06803211F482E007C080919C06803311F084E001C083E08B
:204180001F910F910895482F613210F081E0089580912F06843011F082E0089560937A06BD
:2041A000A9E5B6E0842F9C01F90102C081918D938E2F841B8617D0F380E008951F920F9292
:2041C0000FB60F9211242F933F934F935F936F937F938F939F93AF93BF93EF93FF938091BB
:2041E000B90090E0887F90708036910509F4F2C081369105CCF58832910509F47BC0893243
:204200009105B4F48031910509F46FC0813191053CF4009709F447C1089709F04FC165C00C
:204220008831910509F466C0809709F047C182C08034910509F4A4C08134910544F48033D1
:20424000910509F482C0C89709F038C189C08035910509F489C08835910509F496C08834FC
:20426000910509F02BC1AEC08839910509F413C189399105ECF48837910509F4ABC0893778
:2042800091054CF48836910509F4A4C08037910509F014C19FC08838910509F4FCC0803951
:2042A000910509F49DC08038910509F007C198C0803B910509F4C6C0813B91054CF4803A87
:2042C000910509F49FC0883A910509F0F7C0BAC0803C910509F4E3C0883C910509F4DFC082
:2042E000883B910509F0EAC0C2C0809130068093BB00CFC09091570680915806981768F4A4
:2043000090915706E92FF0E0E95CF94F80818093BB009F5F90935706BCC0809131068823EE
:2043200009F44BC085ED8093BC008091BC0084FDFCCFC2C080E280939C0685ED8093BC0041
:204340008091BC0084FDFCCFB7C080E380939C0685ED8093BC008091BC0084FDFCCFACC0EF
:2043600088E380939C069BC0809157069091BB00E82FF0E0E95CF94F90838F5F8093570693
:20438000909157068091580682C0809157069091BB00E82FF0E0E95CF94F90838F5F80931C
:2043A000570680913106882341F085ED8093BC008091BC0084FDFCCF7FC081E08093320637
:2043C00084EA6EC085ED8093BC008091BC0084FDFCCF72C083E080932F0610929B0659C0AE
:2043E00080919B06803208F056C080919B069091BB00E82FF0E0E558F94F90838F5F80933D
:204400009B0647C080919B06803230F4E0919B06F0E0E558F94F108285ED8093BC00809121
:20442000BC0084FDFCCF10922F0660919B06E0913506F09136068BE796E070E0099510922A
:204440009B062DC084E080932F061092790610927A06E0913306F0913406099580917A064B
:20446000882329F481E080937A061092590690917906E92FF0E0E75AF94F80818093BB009F
:204480009F5F909379069091790680917A06981710F485EC01C085E88093BC000FC085ECEA
:2044A0008093BC0009C010929C0685ED8093BC008091BC0084FDFCCF10922F06FF91EF91DF
:2044C000BF91AF919F918F917F916F915F914F913F912F910F900FBE0F901F901895109283
:2044E0002F0681E0809331061092320682E161E00E94441083E161E00E944410E9EBF0E029
:2045000080818E7F808380818D7F808388E48093B80085E48093BC0008955058BB27AA2713
:204520000ED075C166D130F06BD120F031F49F3F11F41EF45BC10EF4E095E7FB51C1E92F0B
:2045400077D180F3BA17620773078407950718F071F49EF58FC10EF4E0950B2EBA2FA02D0F
:204560000B01B90190010C01CA01A0011124FF27591B99F0593F50F4503E68F11A16F040F0
:20458000A22F232F342F4427585FF3CF469537952795A795F0405395C9F77EF41F16BA0BCE
:2045A000620B730B840BBAF09150A1F0FF0FBB1F661F771F881FC2F70EC0BA0F621F731F58
:2045C000841F48F4879577956795B795F7959E3F08F0B3CF9395880F08F09927EE0F979509
:2045E00087950895D9D008F481E008950CD00FC107D140F0FED030F021F45F3F19F0F0C051
:20460000511139C1F3C014D198F39923C9F35523B1F3951B550BBB27AA2762177307840746
:2046200038F09F5F5F4F220F331F441FAA1FA9F333D00E2E3AF0E0E830D091505040E6953E
:20464000001CCAF729D0FE2F27D0660F771F881FBB1F261737074807AB07B0E809F0BB0B01
:20466000802DBF01FF2793585F4F2AF09E3F510568F0B6C000C15F3FECF3983EDCF38695F5
:2046800077956795B795F7959F5FC9F7880F911D9695879597F90895E1E0660F771F881F50
:2046A000BB1F621773078407BA0720F0621B730B840BBA0BEE1F88F7E095089504D0689414
:2046C000B111D9C00895BCD088F09F5790F0B92F9927B751A0F0D1F0660F771F881F991FFD
:2046E0001AF0BA95C9F712C0B13081F0C3D0B1E00895C0C0672F782F8827B85F39F0B93F18
:20470000CCF3869577956795B395D9F73EF490958095709561957F4F8F4F9F4F0895E89485
:2047200009C097FB3EF490958095709561957F4F8F4F9F4F9923A9F0F92F96E9BB27939517
:20474000F695879577956795B795F111F8CFFAF4BB0F11F460FF1BC06F5F7F4F8F4F9F4F36
:2047600016C0882311F096E911C0772321F09EE8872F762F05C0662371F096E8862F70E0A9
:2047800060E02AF09A95660F771F881FDAF7880F9695879597F90895990F0008550FAA0B39
:2047A000E0E8FEEF16161706E807F907C0F012161306E407F50798F0621B730B840B950B82
:2047C00039F40A2661F0232B242B252B21F408950A2609F4A140A6958FEF811D811D0895EC
:2047E00097F99F6780E870E060E008959FEF80EC089500240A941616170618060906089522
:2048000000240A9412161306140605060895092E0394000C11F4882352F0BB0F40F4BF2B1F
:2048200011F460FF04C06F5F7F4F8F4F9F4F089557FD9058440F551F59F05F3F71F0479524
:20484000880F97FB991F61F09F3F79F087950895121613061406551FF2CF4695F1DF08C023
:20486000161617061806991FF1CF86957105610508940895E894BB2766277727CB0197F944
:2048800008958ADF08F48FEF08950BD0C0CFB1DF28F0B6DF18F0952309F0A2CFA7CF11247F
:2048A000EACFC6DFA0F3959FD1F3950F50E0551F629FF001729FBB27F00DB11D639FAA2744
:2048C000F00DB11DAA1F649F6627B00DA11D661F829F2227B00DA11D621F739FB00DA11DC1
:2048E000621F839FA00D611D221F749F3327A00D611D231F849F600D211D822F762F6A2F12
:2049000011249F5750408AF0E1F088234AF0EE0FFF1FBB1F661F771F881F91505040A9F7E4
:204920009E3F510570F05CCFA6CF5F3FECF3983EDCF3869577956795B795F795E7959F5FAD
:20494000C1F7FE2B880F911D9695879597F9089511F40EF44BCF4EC073DFD0F39923D9F3F1
:20496000CEF39F57550B87FF55D056959795B0E020F4660F771F881FBB1F1F930F930024B6
:204980009001A0018001F001A0E80E0F1F1F0A1E511D601B710B8009B50B48F4600F711F7F
:2049A000801DB51F0E1B1F0B0A0A510907C02E0F3F1F4A1F0E0F1F1F0A1E511D660F771FFE
:2049C000881FBB1FA695F795E795F8F60617170708065B07211D311D411D0F911F91B90186
:2049E000842F9158880F969587950895D5DE880B990B08959F3F49F0915028F486957795DE
:204A00006795B7959F5F80389F4F880F9695879597F9089591505040660F771F881FD2F7B3
:204A20000895629FD001739FF001829FE00DF11D649FE00DF11D929FF00D839FF00D749F8A
:204A4000F00D659FF00D9927729FB00DE11DF91F639FB00DE11DF91FBD01CF01112408957F
:204A6000A1E21A2EAA1BBB1BFD010DC0AA1FBB1FEE1FFF1FA217B307E407F50720F0A21B10
:204A8000B30BE40BF50B661F771F881F991F1A9469F760957095809590959B01AC01BD01A6
:204AA000CF01089597FB092E05260ED057FD04D0D7DF0AD0001C38F4509540953095219582
:204AC0003F4F4F4F5F4F0895F6F790958095709561957F4F8F4F9F4F0895EE0FFF1F059056
:204AE000F491E02D0994F894FFCF656D6F6E50692056004F70656E456E657267794D6F6E29
:204B000069746F722E6F726700706C6561736520776169742E2E2E2E2E004F4B200020282A
:204B20002D302900435420312043616C3A2000435420322043616C3A200056524D53204161
:204B400043207E00560041432057617665204465746563746564004143205761766520440A
:204B600065746563746564202D205265616C20506F7765722063616C6320656E61626C65FF
:204B80006400555341206D6F6465005663616C3A200050686173652053686966743A2000BA
:204BA0004143204E4F54204465746563746564004143204E4F542064657465637465642007
:204BC0002D204170706172656E7420506F7765722063616C6320656E61626C6564004173CE
:204BE00073756D696E672056524D533A00446574656374656420006E6F204354206465744D
:204C00006563746564004E6F204354277300435420312064657465637400435431200043D5
:204C200054203220646574656374004354320044657465637420002044533138423230002F
:204C400044657465637465643A2000445331384232302054656D70003020445331384232BA
:204C6000302064657465637465640052464D3639435720496E69743A20004E6F6465200000
:204C8000204672657120003433334D687A003836384D687A003931354D687A00204E657493
:204CA000776F726B20004F70656E456E657267794D6F6E004F4B00200028002900202D3E55
:204CC0002061636B005B656D6F6E50692E005D0020690020670020402000204D487A002058
:204CE00055534120006E616E00696E66006F7666002E00297C8643010105D2000100000070
:204D000000340BCA0BCA0AFB0ADB0A240B00000000D51ECA0B000040001400540000000022
:204D2000001C20EB1FA41FAD1FC21FD31F0067794D6F6E004F4B00200028002900202D3E2B
:204D40002061636B005B656D6F6E50692E005D0020690020670020402000204D487A0020D7
:204D600055534120006E616E00696E66006F7666002E00297C8643010105D20001000000EF
:204D8000FFFFFFFFFFFFFFFFFFFFFFFFFFFFFFFFFFFFFFFFFFFFFFFFFFFFFFFFFFFFFFFF33
:204DA000FFFFFFFFFFFFFFFFFFFFFFFFFFFFFFFFFFFFFFFFFFFFFFFFFFFFFFFFFFFFFFFF13
:204DC000FFFFFFFFFFFFFFFFFFFFFFFFFFFFFFFFFFFFFFFFFFFFFFFFFFFFFFFFFFFFFFFFF3
:204DE000FFFFFFFFFFFFFFFFFFFFFFFFFFFFFFFFFFFFFFFFFFFFFFFFFFFFFFFFFFFFFFFFD3
:207E0000112484B714BE81FFF0D085E08093810082E08093C00088E18093C10086E08093FC
:207E2000C20080E18093C4008EE0C9D0259A86E020E33CEF91E0309385002093840096BBAD
:207E4000B09BFECF1D9AA8958150A9F7CC24DD2488248394B5E0AB2EA1E19A2EF3E0BF2E79
:207E6000A2D0813461F49FD0082FAFD0023811F0013811F484E001C083E08DD089C0823404
:207E800011F484E103C0853419F485E0A6D080C0853579F488D0E82EFF2485D0082F10E0A0
:207EA000102F00270E291F29000F111F8ED068016FC0863521F484E090D080E0DECF84364D
:207EC00009F040C070D06FD0082F6DD080E0C81680E7D80618F4F601B7BEE895C0E0D1E0ED
:207EE00062D089930C17E1F7F0E0CF16F0E7DF0618F0F601B7BEE89568D007B600FCFDCF1A
:207F0000A601A0E0B1E02C9130E011968C91119790E0982F8827822B932B1296FA010C016F
:207F200087BEE89511244E5F5F4FF1E0A038BF0751F7F601A7BEE89507B600FCFDCF97BE85
:207F4000E89526C08437B1F42ED02DD0F82E2BD03CD0F601EF2C8F010F5F1F4F84911BD0B8
:207F6000EA94F801C1F70894C11CD11CFA94CF0CD11C0EC0853739F428D08EE10CD085E9AE
:207F80000AD08FE07ACF813511F488E018D01DD080E101D065CF982F8091C00085FFFCCF0A
:207FA0009093C60008958091C00087FFFCCF8091C00084FD01C0A8958091C6000895E0E68F
:207FC000F0E098E1908380830895EDDF803219F088E0F5DFFFCF84E1DECF1F93182FE3DF47
:207FE0001150E9F7F2DF1F91089580E0E8DFEE27FF270994FFFFFFFFFFFFFFFFFFFF040425
:00000001FF
