:100000000C94F5000C9482110C94AF110C941D010A
:100010000C941D010C941D010C941F010C941D01E6
:100020000C941D010C941D010C941D010C941D01D8
:100030000C941D010C941D010C941D010C941D01C8
:100040000C948D0F0C941D010C94DC110C940E1269
:100050000C941D010C941D010C941D010C941D01A8
:100060000C941D010C941D01010402000302048A7A
:10007000050506C30B2019421E2C25802E882F2D26
:10008000370038003C8F3D106F2000005EBCE261FD
:100090003FDD83C29C7E20A3FD1F419DC3217FFCC9
:1000A000A2401E5F01E3BD3E6082DC237D9FC14212
:1000B0001CFEA0E1BF5D0380DE3C62BEE0025CDFAF
:1000C00081633D7C22C09E1D43A1FF4618FAA427F0
:1000D000799BC584DA3866E5BB5907DB856739BA91
:1000E000E406581947A5FB7826C49A653BD98704CE
:1000F0005AB8E6A7F91B45C6987A24F8A6441A9977
:10010000C7257B3A6486D85B05E7B98CD2306EEDA3
:10011000B3510F4E10F2AC2F7193CD114FADF37060
:100120002ECC92D38D6F31B2EC0E50AFF1134DCE79
:1001300090722C6D33D18F0C52B0EE326C8ED05346
:100140000DEFB1F0AE4C1291CF2D73CA947628AB5F
:10015000F517490856B4EA6937D58B5709EBB53618
:10016000688AD495CB2977F4AA4816E9B7550B8845
:10017000D6346A2B7597C94A14F6A8742AC89615FE
:100180004BA9F7B6E80A54D7896B35000000080080
:10019000020100000304070000000000000000014D
:1001A000020408102040800102040810200102040B
:1001B00008102004040404040404040202020202DD
:1001C00002030303030303000000002300260029A9
:1001D0000000000000250028002B00000000002483
:1001E0000027002A000042053E1211241FBECFEF57
:1001F000D8E0DEBFCDBF12E0A0E0B1E0ECEAF0E372
:1002000002C005900D92AA3DB107D9F724E0AAEDEE
:10021000B2E001C01D92A833B207E1F711E0CAEEC7
:10022000D1E004C02297FE010E945018C63ED107BB
:10023000C9F70E949F140C9454180C9400001F924C
:100240000F920FB60F9211242F933F934F935F930A
:100250006F937F938F939F93AF93BF93EF93FF938E
:100260000E948B06FF91EF91BF91AF919F918F916B
:100270007F916F915F914F913F912F910F900FBEA2
:100280000F901F901895BF92CF92DF92EF92FF923E
:100290000F931F93CF93DF932AE7E22EF12CF70100
:1002A000B0800BE710E0F801C080CCE7D0E0D88048
:1002B0000E943606F701B082F801C082D882DF9131
:1002C000CF911F910F91FF90EF90DF90CF90BF9053
:1002D00008958F929F92AF92BF92CF92DF92EF924A
:1002E000FF920F931F93CF93DF9361E089E00E9409
:1002F0009C1061E089E00E94D51062E087E00E94D6
:100300009C1062E088E00E949C1087E00E940B1124
:1003100001E0892B09F400E088E00E940B1111E054
:10032000892B09F410E0011109C080910601909118
:100330000701112309F4BDC1019607C0111109C0BD
:100340008091060190910701029690930701809396
:10035000060120E436E042ED61E0809106010E9452
:100360005405CAE0D0E0D093FD02C093FC0248E0FF
:100370006CEF72E080E00E94BF0564E670E080E010
:1003800090E00E940610219770F782E00E94DE053F
:100390001092FD021092FC0280E00E94FD05809107
:1003A0000801882309F45BC026E040E855E260E0DC
:1003B00070E08BE993E00E949115602F70E04AE0B5
:1003C00050E08BE993E00E949113612F70E04AE0C6
:1003D00050E08BE993E00E9499136AE071E08BE9A9
:1003E00093E00E94DC1261E271E08BE993E00E94ED
:1003F000DC1267E371E08BE993E00E94DC1266E4B3
:1004000071E08BE993E00E94BF1260910601709148
:1004100007014AE050E08BE993E00E9491136DE4FC
:1004200071E08BE993E00E94BF1265E571E08BE912
:1004300093E00E94BF126CE571E08BE993E00E94AB
:10044000BF124AE050E062ED70E08BE993E00E9459
:10045000991364E670E080E090E00E94061061E08D
:1004600086E00E949C1061E085E00E949C1060E0A4
:1004700081E00E949C1060E086E00E94D51080B769
:10048000806880BF80910801811105C0809164005F
:10049000826080936400809164008068809364002F
:1004A000809164008860809364008091640084601F
:1004B0008093640061E086E00E94D51080ED97E0B3
:1004C0000E94430187E293E00E94080E87E293E0D6
:1004D0000E94420F6B017C0160E087E293E00E9482
:1004E000C80E4B015C0160E086E00E94D510A501BA
:1004F0009401C501B4010E940E18C0910801811138
:1005000009C0A7019601C701B6010E940E188823F1
:1005100009F46BC0CC2331F067E671E08BE993E01E
:100520000E94DC1264E670E080E090E00E94061019
:100530008CED95E00E94360687E293E00E94420F20
:100540006B017C0160E087E293E00E94C80E9B0192
:10055000AC010E940E18811108C0A7019601C701C5
:10056000B6010E940E18882361F08091080188234B
:1005700031F063E971E08BE993E00E94DC121092A4
:10058000260361E085E00E94D51062E370E080E020
:1005900090E00E94061085E093E00E94380C60E035
:1005A00085E093E00E94A00C85E093E00E94B10AF0
:1005B00090E09093FB028093FA02C0E06C2F70E011
:1005C0008091FA029091FB0268177907D4F433E026
:1005D000660F771F3A95E1F766527D4F88E193E009
:1005E0000E94FD09811163C00CC081E08093260345
:1005F000CC2339F26AEC71E08BE993E00E94DC12C3
:10060000C0CF60E085E00E94D5108091FA02909101
:10061000FB0220910801892B59F4222331F060EF6D
:1006200071E08BE993E00E94DC121092040325C074
:1006300081E080930403222301F164E072E08BE9FE
:1006400093E00E94BF126091FA027091FB024AE0AF
:1006500050E08BE993E00E9491136EE072E08BE929
:1006600093E00E94DC1280912603882331F067E139
:1006700072E08BE993E00E94DC12809108018823EC
:1006800031F068EC70E080E090E00E94061060E0DD
:1006900089E0DF91CF911F910F91FF90EF90DF9054
:1006A000CF90BF90AF909F908F900C94D510CF5F5C
:1006B00085CF03964ACECF92DF92EF92FF92CF93EF
:1006C000DF938091040381111FC080912603811163
:1006D0001BC0C4E1D0E061E089E00E94D51068EC65
:1006E00070E080E090E00E94061060E089E00E94E7
:1006F000D51068EC70E080E090E00E940610219731
:1007000051F7F8940E94190680910403882309F494
:1007100058C061E085E00E94D51082E390E00E941D
:100720004301CAEDD2E0E12CF12C8091FA029091C4
:10073000FB02E816F9065CF44BE0BE0185E093E0AD
:100740000E94C20B8FEFE81AF80A2896EECF85E0D8
:1007500093E00E940D0D87E791E00E9443016AED4E
:1007600072E085E093E00E94D10D6B017C0160E0B6
:1007700085E00E94D51020E030E04AEF52E4C70146
:10078000B6010E94581687FF1CC020E030E040E20E
:1007900052ECC701B6010E94A717181694F4809175
:1007A000260320E030E040E251E4811160C1C7013E
:1007B000B6010E94AB170E94C4167093FD026093AD
:1007C000FC0280912603882309F443C061E086E09F
:1007D0000E94D51080ED97E00E94430187E293E0EC
:1007E0000E94420F20E030E040E251E40E94AB174B
:1007F0000E94C416709301036093000360E087E2D7
:1008000093E00E94C80E6B017C0120E030E04AEAD0
:1008100052E40E94581687FF18C020E030E040E202
:1008200052ECC701B6010E94A717181674F420E015
:1008300030E040E251E4C701B6010E94AB170E94CC
:10084000C4167093FD026093FC0260E086E00E9493
:10085000D51081E00E943411BC01882777FD809576
:10086000982F0E94F71627E031E244E05DE30E94F2
:10087000AB170E94C4167093030360930203809128
:100880000801882309F4BAC080910403882309F47D
:1008900044C064E572E08BE993E00E94BF1280914E
:1008A00026038823C1F06091FE027091FF02882721
:1008B00077FD8095982F0E94F71620E030E040E207
:1008C00051E40E945C16AB01BC0122E030E08BE9F0
:1008D00093E00E949C1480912603811118C06091BE
:1008E000FC027091FD02882777FD8095982F0E9469
:1008F000F71620E030E040E251E40E945C16AB01C4
:10090000BC0122E030E08BE993E00E949C146AE68F
:1009100072E08BE993E00E94BF1280912603882346
:1009200009F442C06EE672E08BE993E00E94BF12C8
:100930006091FC027091FD02882777FD8095982FC9
:100940000E94F71620E030E040E251E40E945C167D
:10095000AB01BC0122E030E08BE993E00E949C14E3
:1009600062E872E08BE993E00E94BF12609100039D
:1009700070910103882777FD8095982F0E94F716C4
:1009800020E030E040E251E40E945C16AB01BC0183
:1009900022E030E08BE993E00E949C1466E972E06B
:1009A0008BE993E00E94BF126AE972E08BE993E061
:1009B0000E94BF126091020370910303882777FDA4
:1009C0008095982F0E94F71620E030E040E251E435
:1009D0000E945C16AB01BC0122E030E08BE993E0A1
:1009E0000E949C146CEA72E08BE993E00E94DC1296
:1009F00064E670E080E090E00E9406108091640060
:100A00008B7F809364008FEF0E94FD0564E170E0AE
:100A100080E090E00E94061048E06CEF72E080E019
:100A20000E94BF0582E00E94DE0580E00E94FD0575
:100A300084E690E00E94430180916400846080938A
:100A4000640061E089E00E94D51084E690E00E9495
:100A5000430160E089E00E94D51088ED96EDDF91BA
:100A6000CF91FF90EF90DF90CF900C944301C7019E
:100A7000B6010E94AB170E94C4167093FF026093E8
:100A8000FE029FCE26E046E162E187E293E00E940B
:100A9000010E63E188E193E00E94DA0968E173E006
:100AA00085E093E00C94A20ACF92DF92EF92FF923E
:100AB0001F93CF93DF93C82F162FD42FF901AFEFD9
:100AC000A60FA33028F4B0E0A255BD4FAC9101C0F1
:100AD000A0E0B0E020E836E948E950E00E94431881
:100AE0006B017C01212F30E0A4ECB9E00E943418A6
:100AF000DF019B01AC010E944318C60ED71EE81E01
:100B0000F91EC701B6010E94D106D09389038C2F2C
:100B10008F718093880364E170E080E090E00E9430
:100B2000061080918803882341F043E050E060E4A0
:100B300078E080E00E94521103C080E00E947211B0
:100B40000E941107C09335038C2FDF91CF911F9125
:100B5000FF90EF90DF90CF90089586E393E00E949E
:100B60006A0790937F0380937E0320917E033091E8
:100B70007F0381E02F3F3F4F09F480E00895EF921B
:100B8000FF921F93CF93DF931F92CDB7DEB7182F3D
:100B90007B0149830E94EE064981811105C049838A
:100BA0000E94AD054981F5CFB701812F0F90DF91EC
:100BB000CF911F91FF90EF900C94CC07CF93C82F4B
:100BC0000E94FF068823B9F0CC23D1F383B7817F3D
:100BD000C33021F0C23021F49CE003C094E001C096
:100BE00090E0892B83BF83B7816083BF889583B7EB
:100BF0008E7F83BFE5CFCF91089591E0811190E082
:100C0000892F0C94060783FF02C098E2892787FD8D
:100C100002C0806401C080E094B7977F94BFF894CD
:100C20009091600098619093600080936000789448
:100C30000895EAE7F0E0908180818F77808383B721
:100C4000817F846083BFF89483B7816083BF85B759
:100C5000806685BF85B78F79806485BF78948895D5
:100C600083B78E7F83BF90937A000895DF92EF92CF
:100C7000FF920F931F93CF93DF938C01EC0128E039
:100C8000E22EF12CC031D10538F19E01D12C203259
:100C9000310538F0D39489E0D81619F036952795A8
:100CA000F6CF109280038D2D0E9403060E94190634
:100CB0008FEF0E940306C70102C0880F991FDA94C4
:100CC000E2F7C81BD90B20918003222319F0C81B1F
:100CD000D90BD8CF80E001C081E040918F035091C3
:100CE000900360919103709192030C1B1D0B400FB8
:100CF000511F611D711D40938F03509390036093AA
:100D0000910370939203DF91CF911F910F91FF9008
:100D1000EF90DF900895809180038F5F8093800330
:100D200008958627682F62956827062E6695669532
:100D30006025062E669560256770082E892F6695BA
:100D400007946795902D86270694679590258627AA
:100D50000895E8982A988EBD0DB407FEFDCF8EB594
:100D60006EBD0DB407FEFDCF8EB52A9AE89A0895A0
:100D700060E00C94A90688E20E94B806807521F014
:100D800080E00E94B806F7CF0895CF93C82F81E086
:100D90000E94B806682F637E6C2B81E8CF910C947B
:100DA000A90622E0660F771F881F991F2A95D1F7A1
:100DB00029E03DE340E050E00E94121866E0220F77
:100DC000331F441F551F6A95D1F720938A03309330
:100DD0008B0340938C0350938D030895809183037C
:100DE000853021F480918403882311F080E00895F8
:100DF00084E0809383030E94C50681E0089590916A
:100E0000830381E094300CF080E00895882311F092
:100E100080E001C084E00E94C50684E080938303E3
:100E20000895CF93DF932A9A229A2A9A84B18C62EA
:100E300084B980E58CBD8DB581608DBD6AEA8FEA8D
:100E40000E94A9068FE20E94B8068A3AB9F765E5C2
:100E50008FEA0E94A9068FE20E94B8068535B9F78D
:100E6000C8E6D0E0FE018491882339F03196649180
:100E700080680E94A9062296F5CF6091890380EBD5
:100E80000E94A90680918A0390918B03A0918C0304
:100E9000B0918D03BD018827992787E80E94A90694
:100EA00080918A0390918B03A0918C03B0918D0364
:100EB000692F7A2F8B2F992788E80E94A9066091C5
:100EC0008A0389E80E94A90684E080938303DF9166
:100ED000CF910895CF93DF93EC0180918303843009
:100EE00019F0853021F14DC010923803109284031F
:100EF000609189038FEF9FEF0E9491069093870383
:100F000080938603D0938203C093810385E080930E
:100F100083030E94BB0660E885EA0E94A90680E17F
:100F20000E94C50662E08EE90E94A9062AC080914F
:100F300038032091840390E0049630E082179307F1
:100F400024F0809184038834E0F084E0809383036C
:100F50000E94C506809138038334B0F480918603E3
:100F600090918703892B81F48091370386FF0FC00E
:100F7000909188039F3159F0809137038F718917C1
:100F800031F08FEF9FEF05C081E090E002C080E07C
:100F900090E0DF91CF910895CF9340933803FB0108
:100FA00020E030E050E02417350744F4D901A75C75
:100FB000BC4F91919C932F5F3F4FF5CF86FD04C0AE
:100FC000807E90918803890F809337036091890315
:100FD0008FEF9FEF0E949106909387038093860383
:100FE000909138038EEF891B809383030E94BB0688
:100FF0008CE00E94C50660E085EA0E94A906809107
:1010000083038330DCF588E20E94B80687FDF7CFC2
:101010008091830387FF1BC09091380380918303E5
:10102000E0918103F0918203E90FF11DE80FF11DBA
:1010300087FDFA95C3816C2F809186039091870379
:101040000E94910690938703809386030DC0809140
:101050008303882329F0813031F4C091870304C0D1
:10106000C091860301C0CAEA6C2F80E80E94A906DD
:10107000809183038F5F80938303C1CFCF910895C5
:1010800080918303853009F04DC060E485EA0E94B9
:10109000A90684E20E94B80680938503789488E2CA
:1010A0000E94B8068075D9F38091840381110FC026
:1010B000E0918103F09182038091840391E0980F85
:1010C0009093840390918903E80FF11D908380E051
:1010D0000E94B806E0918103F0918203909184030D
:1010E00021E0290F20938403E90FF11D8083682FED
:1010F00080918603909187030E94910690938703C5
:1011000080938603809138032091840390E00496B5
:1011100030E082179307A4F080918403883408F4A8
:10112000BECF089588E20E94B80683FF09C084E01C
:10113000809383030E94C50660E885EA0C94A906A3
:101140000895FF920F931F93CF93DF93FC010081CB
:10115000C181D281F8948981F02EF0948F21898306
:1011600078941DE7115029F182E090E00E942E1042
:1011700088818023B9F3F8948A818F218A838981B9
:10118000802B8983789480EE91E00E942E10F89451
:1011900089818F21898386E490E00E942E108881C6
:1011A000802311E009F010E078948AE991E00E9430
:1011B0002E10812FDF91CF911F910F91FF900895F5
:1011C0001F93CF93DF93FC011081C181D281912FB6
:1011D000909560FF12C0F8948A8189238A8389815F
:1011E000812B89838AE090E00E942E108A81812BD6
:1011F0008A83789487E390E011C0F8948A818923E8
:101200008A838981812B898381E490E00E942E105A
:101210008A81812B8A83789485E090E0DF91CF9159
:101220001F910C942E100F931F93CF93DF93FC010B
:101230001081C181D281F8948981812B89838A812F
:10124000012F009580238A8383E090E00E942E1076
:101250008981802389838AE090E00E942E10C881D2
:10126000789485E390E00E942E101C2381E009F41D
:1012700080E0DF91CF911F910F910895CF92DF927F
:10128000EF92FF920F931F93CF93DF931F92CDB7EF
:10129000DEB76C01E62E08E010E0FF24F39461E075
:1012A0009F2D9E2109F460E0C60149830E94E00859
:1012B000FF0C0150110949810115110581F74111F8
:1012C00015C0F894D6011196ED91FC911297918179
:1012D0008C918095892381831196ED91FC911297D1
:1012E00092818C9180958923828378940F90DF91ED
:1012F000CF911F910F91FF90EF90DF90CF900895C5
:10130000EF92FF920F931F93CF93DF938C01C8E06E
:10131000D0E0F12CEE24E394C8010E94130981115E
:10132000FE28EE0C2197C1F78F2DDF91CF911F91F1
:101330000F91FF90EF900895CF92DF92FF920F935D
:101340001F93CF93DF931F92CDB7DEB78C01F62E9C
:1013500040E065E579830E943E09CF2C7981D72E44
:1013600088E0F82EF60161916F0140E0C8010E940B
:101370003E09FA94B9F70F90DF91CF911F910F9129
:10138000FF90DF90CF90089540E06CEC0C943E0904
:10139000FC0113861586148627E030E0DF01A20FDA
:1013A000B31F13961C922115310519F021503109F4
:1013B000F5CF08951F93CF93DF93EC01162F60E0D4
:1013C000812F0E949C10612F70E0FB01E156FE4FBF
:1013D000E491E883FB01ED54FE4FE491F0E0EE0F61
:1013E000FF1FE953FE4F859194919A838983CE0123
:1013F000DF91CF911F910C94C809AF92BF92CF9209
:10140000DF92EF92FF920F931F93CF93DF931F9280
:10141000CDB7DEB75C01E62ED72EFC0185858111A4
:101420005DC0C5010E94A108811105C0F5011386A8
:10143000158614866EC040E060EFC5010E943E092B
:1014400001E0F12CC12C11E0C5010E941309682FA5
:10145000C50169830E9413096981613019F48130E3
:10146000B9F433C02F2D30E068131BC0F50183851C
:10147000181730F4E20FF31F8381802349F402C070
:10148000181731F060E0193058F4F501148708C0DE
:10149000F501EF0DF11D8381802B838361E009C08D
:1014A000C12EF501E20FF31F8381902F90958923C0
:1014B0008383C5010E94E0081F5F000F11F4F394BD
:1014C00001E0F7E0FF1508F0BFCF113438F0F50167
:1014D000C386C11018C081E0858715C0F501138649
:1014E0001586148680E0EE2DFD2D20E030E0D5013C
:1014F000A20FB31F13969C9191932F5F3F4F2830FB
:101500003105A9F706C0F5018381882339F381E00D
:10151000EACF0F90DF91CF911F910F91FF90EF9045
:10152000DF90CF90BF90AF900895DC0180E06150D4
:1015300038F0ED91E827F0E0E557FF4F8491F7CFC1
:1015400008950895FC0181EA9AE0928B818B76835D
:1015500065831482108289E0818381E082838383A2
:101560000895FC0184810895CF93DF93EB0167E038
:10157000CE010E94950A91E02F81821390E0892F7D
:10158000DF91CF910895EF92FF920F931F93CF9326
:10159000DF9300D0CDB7DEB77C018A01FC018581E5
:1015A000968169837A830E94A10869817A81F70113
:1015B000858196810E949C0940E06EEBF701858150
:1015C00096810E943E09F701858196810E948009DB
:1015D000F8018083F701858196810E948009F801D6
:1015E0008183F701858196810E948009F8018283B9
:1015F000F701858196810E948009F8018383F701B4
:10160000858196810E948009F8018483F701858194
:1016100096810E948009F8018583F7018581968172
:101620000E948009F8018683F701858196810E94D6
:101630008009F8018783F701858196810E948009DE
:10164000F8018087F701858196810F900F90DF91D7
:10165000CF911F910F91FF90EF900C94A108CF9321
:10166000DF93EA010E94C30A68E0CE010E94950A56
:1016700091E02885821390E0892FDF91CF91089522
:10168000EF92FF920F931F93CF93DF93EC017B01B7
:101690008A018D819E810E94A108B7018D819E8162
:1016A0000E949C0940E06EE48D819E810E943E096B
:1016B00040E0F80162818D819E810E943E0940E0F8
:1016C000F80163818D819E810E943E09F70180812E
:1016D000803139F040E0F80164818D819E810E9463
:1016E0003E098D819E810E94A108488168E48D8118
:1016F0009E810E943E098881882331F06AE070E073
:1017000080E090E00E9406108D819E81DF91CF9154
:101710001F910F91FF90EF900C94A108EF92FF9210
:101720001F93CF93DF9300D0CDB7DEB77C01FC01D0
:101730008581968169837A830E94A10869817A8173
:10174000F701858196810E949C0940E064EBF701D6
:10175000858196810E943E09F701858196810E94CC
:101760001309182FF701858196810E94A10881E055
:10177000111180E00F900F90DF91CF911F91FF909A
:10178000EF900895EF92FF920F931F93CF93DF9303
:10179000CDB7DEB72A970FB6F894DEBF0FBECDBF28
:1017A0007C018B01242FAE014F5F5F4F2A870E947F
:1017B0002F0B2A858823D1F0F80180818031C1F078
:1017C0002B3041F02C3021F02A3031F48FE305C06A
:1017D0008FE703C08FE501C08FE18D83AE014F5FBE
:1017E0005F4FB801C7010E94400B02C080E001C0FA
:1017F00081E02A960FB6F894DEBF0FBECDBFDF9111
:10180000CF911F910F91FF90EF900895CF93DF93A9
:10181000CDB7DEB729970FB6F894DEBF0FBECDBFA8
:10182000FB0120812031D1F0AE014F5F5F4F0E945C
:101830002F0B882379F08D818F3351F018F48F317D
:1018400069F008C08F3541F08F3721F48CE007C074
:101850008AE005C080E003C08BE001C089E02996E2
:101860000FB6F894DEBF0FBECDBFDF91CF910895C4
:10187000EF92FF920F931F93CF93DF93CDB7DEB715
:1018800061970FB6F894DEBF0FBECDBF8C01FC018F
:10189000858196810E94C809F8011482FF24F3947F
:1018A000BE01665F7F4FF801858196810E94FD0928
:1018B0008823C9F1BE01665F7F4FC8010E94B40A48
:1018C000882371F3F8018081811108C0BE01665F31
:1018D0007F4FC8010E948E0B811122C0AE014F5F65
:1018E0005F4FBE01665F7F4FC8010E94C30AF801C7
:1018F000E180BE01665F7F4FC8010E94060C8E1515
:1019000018F4F801818106C0BE01665F7F4FC801EF
:101910000E94060CF801818384818F5F8483C0CF8D
:10192000F801F082DBCF61960FB6F894DEBF0FBEF0
:10193000CDBFDF91CF911F910F91FF90EF90089550
:10194000FC0162830895CF93DF93CDB7DEB729976B
:101950000FB6F894DEBF0FBECDBFAE014F5F5F4F35
:101960000E94C30A81E09981911101C080E029960B
:101970000FB6F894DEBF0FBECDBFDF91CF910895B3
:10198000CF92DF92EF92FF920F931F93CF93DF934B
:10199000EC018B01452BE1F08B818823C9F0888114
:1019A000811116C00E94D70F6B017C0160E070E0CE
:1019B000CE010E94A30C81110BC00E94D70F6C199D
:1019C0007D098E099F096E3E72408105910570F375
:1019D000F80180818A3049F08B3061F0893079F4E8
:1019E0006EE570E080E090E00EC06CEB70E080E0AF
:1019F00090E009C067E771E080E090E004C06EEE1F
:101A000072E080E090E0DF91CF911F910F91FF9005
:101A1000EF90DF90CF900C940610CF93DF93EC0102
:101A20008D819E810E94A1088D819E810E94C409A2
:101A3000488164E48D819E810E943E098A818823C9
:101A400051F0BE016F5F7F4F40E050E0CE01DF916B
:101A5000CF910C94C00CDF91CF9108958F929F92FB
:101A6000AF92BF92CF92DF92EF92FF921F93CF93EC
:101A7000DF93FB01EA01698170E0762F6627888198
:101A8000682B80818232B1F18832A1F1803109F076
:101A900078C01F8175956795882777FD8095982F69
:101AA0000E94F71620E030E040E85EE30E94F31564
:101AB0006B017C01612F70E08E81681B71098827A2
:101AC00077FD8095982F0E94F7164B015C01612FDE
:101AD00070E080E090E00E94F5169B01AC01C5012A
:101AE000B4010E945C169B01AC01C701B6010E94C3
:101AF000F41543C08C818F3381F198F48F3109F054
:101B000040C093E0759567959A95E1F7882777FD32
:101B10008095982F0E94F71620E030E040E05FE3C8
:101B20002AC08F3569F08F3761F5882777FD80955A
:101B3000982F0E94F71620E030E040E85DE31BC0DC
:101B400075956795882777FD8095982F0E94F716E1
:101B500020E030E040E05EE30EC075956795759536
:101B60006795882777FD8095982F0E94F71620E0CB
:101B700030E040E85EE30E94AB17562F472F382F26
:101B8000292F652F742F832F922FDF91CF911F91D3
:101B9000FF90EF90DF90CF90BF90AF909F908F908D
:101BA0000895EF92FF920F931F93CF93DF93CDB7DA
:101BB000DEB729970FB6F894DEBF0FBECDBF8C01FC
:101BC0007B01AE014F5F5F4F0E942F0B882341F0D6
:101BD000AE014F5F5F4FB701C8010E942E0D04C0D8
:101BE00060E070E08EEF92EC29960FB6F894DEBFBD
:101BF0000FBECDBFDF91CF911F910F91FF90EF905E
:101C00000895FC0166834783208781E085870895D6
:101C1000CF93DF93EC0160E08E810E949C1061E025
:101C20008E810E94D51019861A861B861C86DF912C
:101C3000CF910895DF92EF92FF920F931F93CF936E
:101C4000DF93EC0161E08E810E94D5106AEF70E0B5
:101C500080E090E00E9406100E94D70F09851A8547
:101C60002B853C85601771078207930720F419863E
:101C70001A861B861C862D85211111C009851A859F
:101C80002B853C85DC01CB01801B910BA20BB30B98
:101C9000803D9740A105B10510F481E071C01D861B
:101CA0000E94D70F69877A878B879C871C821B824B
:101CB0001A821982188261E08E810E949C1060E075
:101CC0008E810E94D51064E170E080E090E00E9477
:101CD0000610F89461E08E810E94D51088E290E0B1
:101CE0000E942E1060E08E810E949C10F12CD12C5D
:101CF00081E0E12C082F10E08E810E940B118017EB
:101D0000910741F4E39481E090E00E942E108FEF60
:101D1000E812F2CF8E810E940B119FEFE916C9F0F5
:101D200023E02F1590F4F0FC10C09D2D969596950C
:101D30009695FE01E90FF11D9081990F90832885FA
:101D40002E1510F491609083D394F39495E5F912D5
:101D5000D0CF789427E22D1590F42C8130E0488183
:101D6000898190E0840F911D4A81840F911D4B81E0
:101D7000840F911D99272817390709F48ECF80E029
:101D8000DF91CF911F910F91FF90EF90DF90089519
:101D9000CF92DF92EF92FF920F931F93CF93DF9337
:101DA000EC01162F0E941A0E882309F450C08F816F
:101DB0008B3031F008F44BC08551823078F047C049
:101DC0006A8170E080E090E00E94F516112309F42A
:101DD00049C020E030E040E151E42AC00A81602F90
:101DE0006F7770E080E090E00E94F71620E030E02E
:101DF00040E853E40E94AB176B017C016B8170E0FB
:101E000080E090E00E94F7169B01AC01C701B6018B
:101E10000E94F41520E030E040E251E40E945C169C
:101E200007FD9058112309F120E030E040E151E432
:101E30000E94AB1720E030E040EA50E40E945C16BC
:101E400020E030E040E052E40E94F4150EC061EB67
:101E500072E08BE993E00E94BF1220E030E040EC9A
:101E60005FE705C09B01AC0102C09B01AC01B90159
:101E7000CA01DF91CF911F910F91FF90EF90DF90FA
:101E8000CF900895CF92DF92EF92FF92CF93DF939E
:101E9000EC010E941A0E882379F18F818B3029F191
:101EA00058F18551823040F5688170E080E090E023
:101EB0000E94F51620E030E040E853E40E94AB17A2
:101EC0006B017C01698170E080E090E00E94F71670
:101ED0009B01AC01C701B6010E94F41520E030E07F
:101EE00040E251E40E945C1611C0688170E080E01D
:101EF00090E00E94F5160AC061EB72E08BE993E076
:101F00000E94BF1260E070E080EC9FE7DF91CF910C
:101F1000FF90EF90DF90CF9008951F920F920FB631
:101F20000F9211242F933F938F939F93AF93BF935F
:101F300080918F0390919003A0919103B0919203AF
:101F400030918E0323E0230F2D3720F40196A11D3D
:101F5000B11D05C026E8230F0296A11DB11D2093D7
:101F60008E0380938F0390939003A0939103B0937B
:101F700092038091930390919403A0919503B09163
:101F800096030196A11DB11D809393039093940332
:101F9000A0939503B0939603BF91AF919F918F91BA
:101FA0003F912F910F900FBE0F901F9018952FB754
:101FB000F89460918F0370919003809191039091B8
:101FC00092032FBF08953FB7F894809193039091A7
:101FD0009403A0919503B091960326B5A89B05C0E4
:101FE0002F3F19F00196A11DB11D3FBF6627782F25
:101FF000892F9A2F620F711D811D911D42E0660F7E
:10200000771F881F991F4A95D1F70895CF92DF92C5
:10201000EF92FF92CF93DF936B017C010E94E30F5D
:10202000EB01C114D104E104F10489F00E945111C3
:102030000E94E30F6C1B7D0B683E734090F381E0C0
:10204000C81AD108E108F108C851DC4FEACFDF9186
:10205000CF91FF90EF90DF90CF900895019739F0E6
:10206000880F991F880F991F02970197F1F708951C
:10207000789484B5826084BD84B5816084BD85B563
:10208000826085BD85B5816085BDEEE6F0E080812A
:1020900081608083E1E8F0E010828081826080834B
:1020A000808181608083E0E8F0E0808181608083CE
:1020B000E1EBF0E0808184608083E0EBF0E0808100
:1020C00081608083EAE7F0E08081846080838081A2
:1020D000826080838081816080838081806880834A
:1020E0001092C1000895833081F028F4813099F076
:1020F0008230A1F008958730A9F08830B9F084309B
:10210000D1F4809180008F7D03C0809180008F7713
:1021100080938000089584B58F7702C084B58F7D49
:1021200084BD08958091B0008F7703C08091B00086
:102130008F7D8093B0000895CF93DF9390E0FC01F2
:10214000E156FE4F2491FC01ED54FE4F849188230B
:1021500049F190E0880F991FFC01E552FE4FA591CF
:10216000B4918F529E4FFC01C591D4919FB76111DC
:1021700008C0F8948C91209582238C9388818223C7
:102180000AC0623051F4F8948C91322F3095832339
:102190008C938881822B888304C0F8948C91822B45
:1021A0008C939FBFDF91CF9108950F931F93CF938F
:1021B000DF931F92CDB7DEB7282F30E0F901E55746
:1021C000FE4F8491F901E156FE4F1491F901ED544F
:1021D000FE4F04910023C9F0882321F069830E94F7
:1021E00073106981E02FF0E0EE0FFF1FEF52FE4FFA
:1021F000A591B4919FB7F8948C91611103C010958B
:10220000812301C0812B8C939FBF0F90DF91CF91D1
:102210001F910F910895CF93DF93282F30E0F9019C
:10222000E557FE4F8491F901E156FE4FD491F90133
:10223000ED54FE4FC491CC2391F081110E94731094
:10224000EC2FF0E0EE0FFF1FE953FE4FA591B49184
:102250002C912D2381E090E021F480E002C080E009
:1022600090E0DF91CF9108958E3008F08E50877006
:102270002091090190E4299F90011124822B8093E1
:102280007C0080917A00806480937A0080917A004B
:1022900086FDFCCF809178002091790090E0922B10
:1022A000089508958230E8F4E82FF0E0EE0FFF1F64
:1022B000E956FC4F71836083813041F08091690061
:1022C0008C7F842B80936900E89A0895809169003F
:1022D000440F551F440F551F837F842B8093690043
:1022E000E99A0895823068F4813011F0E89801C0CD
:1022F000E998E82FF0E0EE0FFF1FE956FC4F11823E
:10230000108208951F920F920FB60F9211242F93EF
:102310003F934F935F936F937F938F939F93AF936D
:10232000BF93EF93FF938091970390919803892B2C
:1023300029F0E0919703F09198030995FF91EF91AF
:10234000BF91AF919F918F917F916F915F914F91CD
:102350003F912F910F900FBE0F901F9018951F92D5
:102360000F920FB60F9211242F933F934F935F93C9
:102370006F937F938F939F93AF93BF93EF93FF934D
:102380008091990390919A03892B29F0E091990308
:10239000F0919A030995FF91EF91BF91AF919F91B1
:1023A0008F917F916F915F914F913F912F910F90FE
:1023B0000FBE0F901F9018951F920F920FB60F929D
:1023C00011242F938F939F93EF93FF93E091AB038F
:1023D000F091AC038081E091B103F091B20382FDF2
:1023E00012C090818091B4038F5F8F732091B503E9
:1023F000821751F0E091B403F0E0E556FC4F958F61
:102400008093B40301C08081FF91EF919F918F91E0
:102410002F910F900FBE0F901F9018951F920F9243
:102420000FB60F9211242F933F934F935F936F93A7
:102430007F938F939F93AF93BF93EF93FF938BE91A
:1024400093E00E94E914FF91EF91BF91AF919F91AA
:102450008F917F916F915F914F913F912F910F904D
:102460000FBE0F901F9018958BE993E00E94AE1459
:1024700021E0892B09F420E0822F089510929E0319
:1024800010929D0388EE93E0A0E0B0E080939F035C
:102490009093A003A093A103B093A2038DEC92E0CC
:1024A00090939C0380939B0385EC90E09093A8030A
:1024B0008093A70384EC90E09093AA038093A903F0
:1024C00080EC90E09093AC038093AB0381EC90E0C0
:1024D0009093AE038093AD0382EC90E09093B003B1
:1024E0008093AF0386EC90E09093B2038093B103A6
:1024F0001092B4031092B5031092B6031092B70372
:102500000895CF92DF92EF92FF920F931F93CF9394
:10251000DF936C017A01EB01E60EF71E00E010E09C
:10252000CE15DF0561F06991D601ED91FC91019026
:10253000F081E02DC6010995080F191FF1CFC801E0
:10254000DF91CF911F910F91FF90EF90DF90CF908F
:1025500008956115710581F0DB010D900020E9F708
:10256000AD0141505109461B570BDC01ED91FC9127
:102570000280F381E02D099480E090E008950C94AE
:10258000A912DC01ED91FC910190F081E02D0994FC
:102590000F931F93CF93DF93EC016DE00E94C11264
:1025A0008C016AE0CE010E94C112800F911FDF9161
:1025B000CF911F910F9108950F931F93CF93DF93A6
:1025C000EC010E94A9128C01CE010E94C812800F5A
:1025D000911FDF91CF911F910F9108958F929F923C
:1025E000AF92BF92CF92DF92EF92FF920F931F9321
:1025F000CF93DF93CDB7DEB7A1970FB6F894DEBFC8
:102600000FBECDBF7C01C42EE52FCB01D22E19A267
:1026100021E02D1510F02AE0D22E8E010F5D1F4F04
:102620008D2C912CA12CB12C6C2D7E2FA501940109
:102630000E9412188C2DD29E80191124015011096C
:102640008A3014F4805D01C0895CF8018083211513
:1026500031054105510521F0C22EE32FCA01E4CF17
:10266000B801C7010E94A912A1960FB6F894DEBF67
:102670000FBECDBFDF91CF911F910F91FF90EF90D3
:10268000DF90CF90BF90AF909F908F900895CF92A2
:10269000DF92EF92FF920F931F93CF93DF93EC01A2
:1026A0006A017B012115310579F4E881F9810190F6
:1026B000F081E02D642FDF91CF911F910F91FF905A
:1026C000EF90DF90CF9009942A303105E9F477FF3D
:1026D0001AC06DE20E94C1128C0144275527BA012D
:1026E0004C195D096E097F092AE0CE010E94EE12A5
:1026F000800F911FDF91CF911F910F91FF90EF906D
:10270000DF90CF9008952AE0B701A601CE01DF91B6
:10271000CF911F910F91FF90EF90DF90CF900C948D
:10272000EE129A01AB01662757FD6095762F0C9447
:1027300047130F931F93CF93DF93EC019A01AB01E3
:10274000662757FD6095762F0E9447138C01CE01B6
:102750000E94C812800F911FDF91CF911F910F919E
:1027600008954F925F926F927F928F929F92AF9255
:10277000BF92CF92DF92EF92FF920F931F93CF936E
:10278000DF93EC016A017B01B22E9A01AB01C70114
:10279000B6010E940E18882319F06BEB72E027C077
:1027A00026013701E89477F82FEF3FEF4FE75FE717
:1027B000C301B2010E940E1881110DC02FEF3FEF2F
:1027C0004FE75FE7C301B2010E94581618161CF4C8
:1027D0006FEB72E00CC02FEF3FEF4FE75FE4C701F4
:1027E000B6010E94A7171816ACF463EC72E0CE0194
:1027F000DF91CF911F910F91FF90EF90DF90CF90DD
:10280000BF90AF909F908F907F906F905F904F9010
:102810000C94A9122FEF3FEF4FE75FECC701B60111
:102820000E94581687FDE1CF20E030E0A901C701E2
:10283000B6010E94581687FF0AC06DE2CE010E94C1
:10284000C1128C01F7FAF094F7F8F09402C000E09E
:1028500010E0A12C60E070E080E09FE3AB1441F059
:1028600020E030E040E251E40E945C16A394F6CFF1
:102870009B01AC01C701B6010E94F4156B017C01FC
:102880000E94C9162B013C010E94F5169B01AC0168
:10289000C701B6010E94F3156B017C012AE0B30168
:1028A000A201CE010E94EE12080F191FBB2039F0C1
:1028B00067EC72E0CE010E94A912080F191F7B2C51
:1028C000772041F120E030E040E251E4C701B60159
:1028D0000E94AB176B017C010E94C4164B01AA2415
:1028E00097FCA094BA2C2AE030E0B501A401CE01F7
:1028F0000E944713080F191FC501B4010E94F71663
:102900009B01AC01C701B6010E94F3156B017C016C
:102910007A94D6CFC801DF91CF911F910F91FF908C
:10292000EF90DF90CF90BF90AF909F908F907F906F
:102930006F905F904F9008950C94B11308950E948A
:1029400038100E949E140E946901CBEDD4E10E94D0
:102950005B032097E1F30E94DB14F9CFFC01818D2A
:10296000228D90E0805C9F4F821B91098F73992785
:102970000895FC01918D828D981731F0828DE80FBA
:10298000F11D858D90E008958FEF9FEF0895FC0174
:10299000918D828D981761F0828DDF01A80FB11D96
:1029A0005D968C91928D9F5F9F73928F90E00895BA
:1029B0008FEF9FEF089584E392E1892B49F080E047
:1029C00090E0892B29F00E94341281110C940000B0
:1029D0000895FC01848DDF01A80FB11DA35ABF4FDC
:1029E0002C91848D90E001968F739927848FA6890E
:1029F000B7892C93A089B1898C9180648C93938D35
:102A0000848D981306C00288F389E02D80818F7D24
:102A100080830895CF93DF93EC01888D8823C9F0DC
:102A2000EA89FB89808185FD05C0A889B9898C91D7
:102A300086FD0FC00FB607FCF5CF808185FFF2CF72
:102A4000A889B9898C9185FFEDCFCE010E94E91448
:102A5000E7CFDF91CF910895CF92DF92FF920F934E
:102A60001F93CF93DF931F92CDB7DEB76C01DC01CC
:102A70005B969C915B975C968C915C97981307C0D2
:102A80005096ED91FC915197808185FD32C0F60101
:102A9000038D10E00F5F1F4F0F731127F02EF6010B
:102AA000848DF81211C00FB607FCF9CFD6015096ED
:102AB000ED91FC915197808185FFF1CFC60169832B
:102AC0000E94E9146981EBCF838DE80FF11DE35A71
:102AD000FF4F6083D6015B960C935B975296ED9106
:102AE000FC91539780818062808381E058968C931B
:102AF0000DC0D6015696ED91FC9157976083509684
:102B0000ED91FC91519780818064808381E090E019
:102B10000F90DF91CF911F910F91FF90DF90CF9099
:102B20000895BF92CF92DF92EF92FF92CF93DF93FF
:102B3000EC016A017B01B22EE889F98982E0808389
:102B4000411581EE580761057105A1F060E079E05B
:102B50008DE390E0A70196010E94121821503109DF
:102B6000410951095695479537952795211580E1DB
:102B7000380798F0E889F989108260E874E88EE1F6
:102B800090E0A70196010E941218215031094109D5
:102B900051095695479537952795EC85FD853083E6
:102BA000EE85FF852083188EEC89FD89B082EA8945
:102BB000FB89808180618083EA89FB8980818860CC
:102BC0008083EA89FB89808180688083EA89FB8928
:102BD00080818F7D8083DF91CF91FF90EF90DF9098
:102BE000CF90BF9008955058BB27AA270ED075C12B
:102BF00066D130F06BD120F031F49F3F11F41EF418
:102C00005BC10EF4E095E7FB51C1E92F77D180F36A
:102C1000BA17620773078407950718F071F49EF5D9
:102C20008FC10EF4E0950B2EBA2FA02D0B01B90128
:102C300090010C01CA01A0011124FF27591B99F032
:102C4000593F50F4503E68F11A16F040A22F232F3E
:102C5000342F4427585FF3CF469537952795A7958E
:102C6000F0405395C9F77EF41F16BA0B620B730B35
:102C7000840BBAF09150A1F0FF0FBB1F661F771FA6
:102C8000881FC2F70EC0BA0F621F731F841F48F45B
:102C9000879577956795B795F7959E3F08F0B3CFE1
:102CA0009395880F08F09927EE0F979587950895CB
:102CB000D9D008F481E008950CD00FC107D140F0BD
:102CC000FED030F021F45F3F19F0F0C0511139C14E
:102CD000F3C014D198F39923C9F35523B1F3951B8D
:102CE000550BBB27AA2762177307840738F09F5F2D
:102CF0005F4F220F331F441FAA1FA9F333D00E2E9C
:102D00003AF0E0E830D091505040E695001CCAF708
:102D100029D0FE2F27D0660F771F881FBB1F2617CD
:102D200037074807AB07B0E809F0BB0B802DBF01A0
:102D3000FF2793585F4F2AF09E3F510568F0B6C0B9
:102D400000C15F3FECF3983EDCF38695779567957D
:102D5000B795F7959F5FC9F7880F911D9695879551
:102D600097F90895E1E0660F771F881FBB1F621770
:102D700073078407BA0720F0621B730B840BBA0B2E
:102D8000EE1F88F7E095089504D06894B111D9C07A
:102D90000895BCD088F09F5790F0B92F9927B7516C
:102DA000A0F0D1F0660F771F881F991F1AF0BA950F
:102DB000C9F712C0B13081F0C3D0B1E00895C0C0EE
:102DC000672F782F8827B85F39F0B93FCCF3869505
:102DD00077956795B395D9F73EF490958095709562
:102DE00061957F4F8F4F9F4F0895E89409C097FBDF
:102DF0003EF490958095709561957F4F8F4F9F4FD2
:102E00009923A9F0F92F96E9BB279395F695879515
:102E100077956795B795F111F8CFFAF4BB0F11F4D8
:102E200060FF1BC06F5F7F4F8F4F9F4F16C088237F
:102E300011F096E911C0772321F09EE8872F762FB5
:102E400005C0662371F096E8862F70E060E02AF0F6
:102E50009A95660F771F881FDAF7880F96958795E2
:102E600097F90895990F0008550FAA0BE0E8FEEFB7
:102E700016161706E807F907C0F012161306E4073E
:102E8000F50798F0621B730B840B950B39F40A2637
:102E900061F0232B242B252B21F408950A2609F415
:102EA000A140A6958FEF811D811D089597F99F6719
:102EB00080E870E060E008959FEF80EC08950024C2
:102EC0000A941616170618060906089500240A948F
:102ED00012161306140605060895092E0394000C15
:102EE00011F4882352F0BB0F40F4BF2B11F460FFA4
:102EF00004C06F5F7F4F8F4F9F4F089557FD9058CD
:102F0000440F551F59F05F3F71F04795880F97FBAD
:102F1000991F61F09F3F79F0879508951216130667
:102F20001406551FF2CF4695F1DF08C01616170696
:102F30001806991FF1CF86957105610508940895CB
:102F4000E894BB2766277727CB0197F908958ADF96
:102F500008F48FEF08950BD0C0CFB1DF28F0B6DFB3
:102F600018F0952309F0A2CFA7CF1124EACFC6DF2E
:102F7000A0F3959FD1F3950F50E0551F629FF0018C
:102F8000729FBB27F00DB11D639FAA27F00DB11DE5
:102F9000AA1F649F6627B00DA11D661F829F22276E
:102FA000B00DA11D621F739FB00DA11D621F839FF5
:102FB000A00D611D221F749F3327A00D611D231FCB
:102FC000849F600D211D822F762F6A2F11249F5719
:102FD00050408AF0E1F088234AF0EE0FFF1FBB1F3C
:102FE000661F771F881F91505040A9F79E3F5105DB
:102FF00070F05CCFA6CF5F3FECF3983EDCF3869594
:1030000077956795B795F795E7959F5FC1F7FE2B85
:10301000880F911D9695879597F9089523DF880B62
:10302000990B0895A1E21A2EAA1BBB1BFD010DC02E
:10303000AA1FBB1FEE1FFF1FA217B307E407F50768
:1030400020F0A21BB30BE40BF50B661F771F881F44
:10305000991F1A9469F760957095809590959B01DA
:10306000AC01BD01CF010895A29FB001B39FC00183
:10307000A39F700D811D1124911DB29F700D811DA4
:103080001124911D08950E943418A59F900DB49F9E
:10309000900DA49F800D911D11240895EE0FFF1F28
:0C30A0000590F491E02D0994F894FFCF06
:1030AC0000003804800013000101656D6F6E5448F8
:1030BC00202D204669726D776172652056312E364F
:1030CC00004F70656E456E657267794D6F6E6974F1
:1030DC006F722E6F72670052464D36394357204936
:1030EC006E69743E20004E6F64653A200020467273
:1030FC0065713A20003433334D687A00204E657484
:10310C00776F726B3A2000202D20556E61626C65D2
:10311C0020746F2066696E64204448543232205308
:10312C00656E736F722E2E747279696E672061678B
:10313C00696E00202D20556E61626C6520746F20C5
:10314C0066696E642044485432322053656E736F46
:10315C007220666F7220326E642074696D652E2E3B
:10316C00676976696E672075700044657465637471
:10317C0065642044485432322074656D70202620DA
:10318C0068756D6964697479207365736E6F72000C
:10319C004E6F20445331384232302064657465637D
:1031AC007465640044657465637465642000204430
:1031BC00533138423230004453313842323020617E
:1031CC006E6420444854323220666F756E642C2035
:1031DC00617373756D696E672044533138423230B8
:1031EC002069732065787465726E616C2073656EEE
:1031FC00736F7200445331384232302054656D7015
:10320C00657261747572653A2000432C2000444845
:10321C005432322054656D70657261747572653A02
:10322C002000432C2044485432322048756D696488
:10323C006974793A2000252C2000426174746572FF
:10324C007920766F6C746167653A200056002B56B6
:10325C005A52656164206661696C006E616E00692A
:10326C006E66006F7666002E00000000002C158143
:0A327C0012AE14C714B9140A1500AD
:00000001FF
