:100000000C94F5000C946C110C9499110C941D0136
:100010000C941D010C941D010C941F010C941D01E6
:100020000C941D010C941D010C941D010C941D01D8
:100030000C941D010C941D010C941D010C941D01C8
:100040000C94770F0C941D010C94C6110C94F811AC
:100050000C941D010C941D010C941D010C941D01A8
:100060000C941D010C941D01010402000302048A7A
:10007000050506C30B2019421E2C25802E882F2D26
:10008000370038003C8F3D106F2000005EBCE261FD
:100090003FDD83C29C7E20A3FD1F419DC3217FFCC9
:1000A000A2401E5F01E3BD3E6082DC237D9FC14212
:1000B0001CFEA0E1BF5D0380DE3C62BEE0025CDFAF
:1000C00081633D7C22C09E1D43A1FF4618FAA427F0
:1000D000799BC584DA3866E5BB5907DB856739BA91
:1000E000E406581947A5FB7826C49A653BD98704CE
:1000F0005AB8E6A7F91B45C6987A24F8A6441A9977
:10010000C7257B3A6486D85B05E7B98CD2306EEDA3
:10011000B3510F4E10F2AC2F7193CD114FADF37060
:100120002ECC92D38D6F31B2EC0E50AFF1134DCE79
:1001300090722C6D33D18F0C52B0EE326C8ED05346
:100140000DEFB1F0AE4C1291CF2D73CA947628AB5F
:10015000F517490856B4EA6937D58B5709EBB53618
:10016000688AD495CB2977F4AA4816E9B7550B8845
:10017000D6346A2B7597C94A14F6A8742AC89615FE
:100180004BA9F7B6E80A54D7896B35000000080080
:10019000020100000304070000000000000000014D
:1001A000020408102040800102040810200102040B
:1001B00008102004040404040404040202020202DD
:1001C00002030303030303000000002300260029A9
:1001D0000000000000250028002B00000000002483
:1001E0000027002A00003905281211241FBECFEF76
:1001F000D8E0DEBFCDBF12E0A0E0B1E0E0E8F0E380
:1002000002C005900D92AC3DB107D9F724E0ACEDEA
:10021000B2E001C01D92AA33B207E1F711E0CAEEC5
:10022000D1E004C02297FE010E943A18C63ED107D1
:10023000C9F70E9489140C943E180C9400001F9278
:100240000F920FB60F9211242F933F934F935F930A
:100250006F937F938F939F93AF93BF93EF93FF938E
:100260000E948206FF91EF91BF91AF919F918F9174
:100270007F916F915F914F913F912F910F900FBEA2
:100280000F901F901895BF92CF92DF92EF92FF923E
:100290000F931F93CF93DF932AE7E22EF12CF70100
:1002A000B0800BE710E0F801C080CCE7D0E0D88048
:1002B0000E942D06F701B082F801C082D882DF913A
:1002C000CF911F910F91FF90EF90DF90CF90BF9053
:1002D00008958F929F92AF92BF92CF92DF92EF924A
:1002E000FF920F931F93CF93DF9361E089E00E9409
:1002F000861061E089E00E94BF1062E087E00E9402
:10030000861062E088E00E94861087E00E94F51067
:1003100001E0892B09F400E088E00E94F51011E06B
:10032000892B09F410E0011109C080910601909118
:100330000701112309F4BDC1019607C0111109C0BD
:100340008091060190910701029690930701809396
:10035000060120E436E042ED62E0809106010E9451
:100360004B05CAE0D0E0D093FF02C093FE0248E004
:100370006EEF72E080E00E94B60564E670E080E017
:1003800090E00E94F00F219770F782E00E94D5055F
:100390001092FF021092FE0280E00E94F40580910C
:1003A0000801882309F45BC026E040E855E260E0DC
:1003B00070E08DE993E00E947B15602F70E04AE0C9
:1003C00050E08DE993E00E947B13612F70E04AE0DA
:1003D00050E08DE993E00E9483136AE071E08DE9BB
:1003E00093E00E94C61263E271E08DE993E00E94FF
:1003F000C61269E371E08DE993E00E94C61268E4D9
:1004000071E08DE993E00E94A9126091060170915C
:1004100007014AE050E08DE993E00E947B136FE40E
:1004200071E08DE993E00E94A91267E571E08DE922
:1004300093E00E94A9126EE571E08DE993E00E94BD
:10044000A9124AE050E062ED70E08DE993E00E946D
:10045000831364E670E080E090E00E94F00F61E0BA
:1004600086E00E94861061E085E00E94861060E0D0
:1004700081E00E94861060E086E00E94BF1080B795
:10048000806880BF80910801811105C0809164005F
:10049000826080936400809164008068809364002F
:1004A000809164008860809364008091640084601F
:1004B0008093640061E086E00E94BF1080ED97E0C9
:1004C0000E94430189E293E00E94F20D89E293E0E9
:1004D0000E942C0F6B017C0160E089E293E00E9496
:1004E000B20E4B015C0160E086E00E94BF10A501E6
:1004F0009401C501B4010E94F817C091080181114F
:1005000009C0A7019601C701B6010E94F817882308
:1005100009F46BC0CC2331F069E671E08DE993E01A
:100520000E94C61264E670E080E090E00E94F00F46
:100530008CED95E00E942D0689E293E00E942C0F3D
:100540006B017C0160E089E293E00E94B20E9B01A6
:10055000AC010E94F817811108C0A7019601C701DC
:10056000B6010E94F817882361F080910801882362
:1005700031F065E971E08DE993E00E94C6121092B6
:10058000280361E085E00E94BF1062E370E080E034
:1005900090E00E94F00F87E093E00E94220C60E060
:1005A00087E093E00E948A0C87E093E00E949B0A18
:1005B00090E09093FD028093FC02C0E06C2F70E00D
:1005C0008091FC029091FD0268177907D4F433E022
:1005D000660F771F3A95E1F764527D4F8AE193E009
:1005E0000E94E709811163C00CC081E08093280359
:1005F000CC2339F26CEC71E08DE993E00E94C612D5
:10060000C0CF60E085E00E94BF108091FC02909115
:10061000FD0220910801892B59F4222331F062EF69
:1006200071E08DE993E00E94C6121092060325C086
:1006300081E080930603222301F166E072E08DE9F8
:1006400093E00E94A9126091FC027091FD024AE0C1
:1006500050E08DE993E00E947B1360E172E08DE948
:1006600093E00E94C61280912803882331F069E14B
:1006700072E08DE993E00E94C61280910801882300
:1006800031F068EC70E080E090E00E94F00F60E0F4
:1006900089E0DF91CF911F910F91FF90EF90DF9054
:1006A000CF90BF90AF909F908F900C94BF10CF5F72
:1006B00085CF03964ACECF92DF92EF92FF92CF93EF
:1006C000DF938091060381111FC08091280381115F
:1006D0001BC0C4E1D0E061E089E00E94BF1068EC7B
:1006E00070E080E090E00E94F00F60E089E00E94FE
:1006F000BF1068EC70E080E090E00E94F00F21975E
:1007000051F7F8940E94100680910603882309F49B
:1007100058C061E085E00E94BF1082E390E00E9433
:100720004301CCEDD2E0E12CF12C8091FC029091C0
:10073000FD02E816F9065CF44BE0BE0187E093E0A9
:100740000E94AC0B8FEFE81AF80A2896EECF87E0EC
:1007500093E00E94F70C87E791E00E9443016CED63
:1007600072E087E093E00E94BB0D6B017C0160E0CA
:1007700085E00E94BF1020E030E04AEF52E4C7015C
:10078000B6010E94421687FF1CC020E030E040E224
:1007900052ECC701B6010E949117181694F480918B
:1007A000280320E030E040E251E4811157C1C70145
:1007B000B6010E9495170E94AE167093FF026093D7
:1007C000FE0280912803882309F443C061E086E09B
:1007D0000E94BF1080ED97E00E94430189E293E000
:1007E0000E942C0F20E030E040E251E40E94951777
:1007F0000E94AE16709303036093020360E089E2E7
:1008000093E00E94B20E6B017C0120E030E04AEAE6
:1008100052E40E94421687FF18C020E030E040E218
:1008200052ECC701B6010E949117181674F420E02B
:1008300030E040E251E4C701B6010E9495170E94E2
:10084000AE167093FF026093FE0260E086E00E94A5
:10085000BF1081E00E941E11BC01882777FD8095A2
:10086000982F0E94E11627E031E244E05DE30E9408
:1008700095170E94AE167093050360930403809150
:100880000801882309F4BAC080910603882309F47B
:1008900044C066E572E08DE993E00E94A912809160
:1008A00028038823C1F06091000370910103882719
:1008B00077FD8095982F0E94E11620E030E040E21D
:1008C00051E40E944616AB01BC0122E030E08DE904
:1008D00093E00E94861480912803811118C06091D2
:1008E000FE027091FF02882777FD8095982F0E9465
:1008F000E11620E030E040E251E40E944616AB01F0
:10090000BC0122E030E08DE993E00E9486146CE6A1
:1009100072E08DE993E00E94A91280912803882358
:1009200009F442C060E772E08DE993E00E94A912E9
:100930006091FE027091FF02882777FD8095982FC5
:100940000E94E11620E030E040E251E40E944616A9
:10095000AB01BC0122E030E08DE993E00E948614F7
:1009600064E872E08DE993E00E94A91260910203AD
:1009700070910303882777FD8095982F0E94E116D8
:1009800020E030E040E251E40E944616AB01BC0199
:1009900022E030E08DE993E00E94861468E972E07D
:1009A0008DE993E00E94A9126CE972E08DE993E071
:1009B0000E94A9126091040370910503882777FDB6
:1009C0008095982F0E94E11620E030E040E251E44B
:1009D0000E944616AB01BC0122E030E08DE993E0B5
:1009E0000E9486146EEA72E08DE993E00E94C612BE
:1009F00064E670E080E090E00E94F00F8091640077
:100A00008B7F809364008FEF0E94F40548E06EEFC7
:100A100072E080E00E94B60582E00E94D50580E089
:100A20000E94F40580916400846080936400F090DB
:100A30007A00D0917B00C0917C0080E69AEE0E9403
:100A40002D06F0927A00D0937B00C0937C00DF915A
:100A5000CF91FF90EF90DF90CF900895C701B6013E
:100A60000E9495170E94AE167093010360930003D5
:100A7000A8CE26E046E162E189E293E00E94EB0D18
:100A800063E18AE193E00E94C4096AE173E087E0D0
:100A900093E00C948C0ACF92DF92EF92FF921F9317
:100AA000CF93DF93C82F162FD42FF901AFEFA60FE6
:100AB000A33028F4B0E0A055BD4FAC9101C0A0E038
:100AC000B0E020E836E948E950E00E942D186B01BB
:100AD0007C01212F30E0A4ECB9E00E941E18DF0158
:100AE0009B01AC010E942D18C60ED71EE81EF91EF0
:100AF000C701B6010E94C806D0938B038C2F8F715B
:100B000080938A0364E170E080E090E00E94F00F3F
:100B100080918A03882341F043E050E06EE278E060
:100B200080E00E943C1103C080E00E945C110E94A2
:100B30000807C09337038C2FDF91CF911F91FF904F
:100B4000EF90DF90CF90089588E393E00E946107D3
:100B500090938103809380032091800330918103DF
:100B600081E02F3F3F4F09F480E00895EF92FF921C
:100B70001F93CF93DF931F92CDB7DEB7182F7B0162
:100B800049830E94E5064981811105C049830E947D
:100B9000A4054981F5CFB701812F0F90DF91CF9147
:100BA0001F91FF90EF900C94BA07CF93C82F0E942B
:100BB000F6068823B9F0CC23D1F383B7817FC33005
:100BC00021F0C23021F49CE003C094E001C090E029
:100BD000892B83BF83B7816083BF889583B78E7F5E
:100BE00083BFE5CFCF91089591E0811190E0892FE7
:100BF0000C94FD0683FF02C098E2892787FD02C09E
:100C0000806401C080E094B7977F94BFF89490917E
:100C100060009861909360008093600078940895DC
:100C2000EAE7F0E0908180818F77808383B7817FCE
:100C3000846083BFF89483B7816083BF85B7806683
:100C400085BF85B78F79806485BF7894889583B791
:100C50008E7F83BF90937A000895DF92EF92FF9288
:100C60000F931F93CF93DF938C01EC0128E0E22ECA
:100C7000F12CC031D10538F19E01D12C2032310543
:100C800038F0D39489E0D81619F036952795F6CF29
:100C9000109282038D2D0E94FA050E9410068FEF9C
:100CA0000E94FA05C70102C0880F991FDA94E2F783
:100CB000C81BD90B20918203222319F0C81BD90B22
:100CC000D8CF80E001C081E0409191035091920320
:100CD00060919303709194030C1B1D0B400F511FE7
:100CE000611D711D40939103509392036093930390
:100CF00070939403DF91CF911F910F91FF90EF902C
:100D0000DF900895809182038F5F8093820308951E
:100D10008627682F62956827062E6695669560255A
:100D2000062E669560256770082E892F66950794B4
:100D30006795902D862706946795902586270895B8
:100D4000E8982A988EBD0DB407FEFDCF8EB56EBD16
:100D50000DB407FEFDCF8EB52A9AE89A089560E09B
:100D60000C94A00688E20E94AF06807521F080E016
:100D70000E94AF06F7CF0895CF93C82F81E00E945D
:100D8000AF06682F637E6C2B81E8CF910C94A00690
:100D900022E0660F771F881F991F2A95D1F729E057
:100DA0003DE340E050E00E94FC1766E0220F331F55
:100DB000441F551F6A95D1F720938C0330938D0300
:100DC00040938E0350938F0308958091850385305F
:100DD00021F480918603882311F080E0089584E057
:100DE000809385030E94BC0681E00895909185035D
:100DF00081E094300CF080E00895882311F080E0C9
:100E000001C084E00E94BC0684E0809385030895BD
:100E1000CF93DF932A9A229A2A9A84B18C6284B95A
:100E200080E58CBD8DB581608DBD6AEA8FEA0E9438
:100E3000A0068FE20E94AF068A3AB9F765E58FEA0D
:100E40000E94A0068FE20E94AF068535B9F7C8E67A
:100E5000D0E0FE018491882339F031966491806856
:100E60000E94A0062296F5CF60918B0380EB0E9432
:100E7000A00680918C0390918D03A0918E03B09178
:100E80008F03BD018827992787E80E94A0068091DB
:100E90008C0390918D03A0918E03B0918F03692FE5
:100EA0007A2F8B2F992788E80E94A00660918C03E7
:100EB00089E80E94A00684E080938503DF91CF91AA
:100EC0000895CF93DF93EC0180918503843019F06E
:100ED0008530E1F045C010923A031092860360918C
:100EE0008B038FEF9FEF0E94880690938903809376
:100EF0008803D0938403C093830385E080938503A4
:100F00000E94B20680E10E94BC062AC080913A038A
:100F10002091860390E0049630E08217930724F036
:100F2000809186038834E0F084E0809385030E94FA
:100F3000BC0680913A03833430F081E090E09093D6
:100F40008903809388038091390386FF0CC09091B8
:100F50008A039F3141F0809139038F71891719F00D
:100F60008FEF9FEF04C08091880390918903DF91F8
:100F7000CF910895CF9340933A03FB0120E030E0F6
:100F800050E02417350744F4D901A55CBC4F91917A
:100F90009C932F5F3F4FF5CF86FD04C0807E9091DC
:100FA0008A03890F8093390360918B038FEF9FEF42
:100FB0000E948806909389038093880390913A0356
:100FC0008EEF891B809385030E94B2068CE00E94FD
:100FD000BC0660E085EA0E94A0068091850383300C
:100FE000DCF588E20E94AF0687FDF7CF809185038C
:100FF00087FF1BC090913A0380918503E0918303A2
:10100000F0918403E90FF11DE80FF11D87FDFA95BA
:10101000C3816C2F80918803909189030E94880678
:1010200090938903809388030DC080918503882362
:1010300029F0813031F4C091890304C0C091880344
:1010400001C0CAEA6C2F80E80E94A0068091850347
:101050008F5F80938503C1CFCF91089580918503E1
:10106000853009F049C084E20E94AF06809387036F
:10107000789488E20E94AF068075D9F38091860348
:1010800081110FC0E0918303F09184038091860366
:1010900091E0980F9093860390918B03E80FF11DD8
:1010A000908380E00E94AF06E0918303F091840377
:1010B0009091860321E0290F20938603E90FF11D0B
:1010C0008083682F80918803909189030E9488060D
:1010D000909389038093880380913A03209186033B
:1010E00090E0049630E082179307A4F08091860385
:1010F000883408F4BECF089588E20E94AF0683FFCB
:1011000009C084E0809385030E94BC0660E885EAFC
:101110000C94A0060895FF920F931F93CF93DF9333
:10112000FC010081C181D281F8948981F02EF09474
:101130008F21898378941DE7115029F182E090E096
:101140000E94181088818023B9F3F8948A818F2136
:101150008A838981802B8983789480EE91E00E9434
:101160001810F89489818F21898386E490E00E9489
:1011700018108881802311E009F010E078948AE942
:1011800091E00E941810812FDF91CF911F910F9154
:10119000FF9008951F93CF93DF93FC011081C181CD
:1011A000D281912F909560FF12C0F8948A81892393
:1011B0008A838981812B89838AE090E00E941810BC
:1011C0008A81812B8A83789487E390E011C0F89418
:1011D0008A8189238A838981812B898381E490E0B4
:1011E0000E9418108A81812B8A83789485E090E090
:1011F000DF91CF911F910C9418100F931F93CF93F1
:10120000DF93FC011081C181D281F8948981812B07
:1012100089838A81012F009580238A8383E090E06F
:101220000E9418108981802389838AE090E00E94BF
:101230001810C881789485E390E00E9418101C2350
:1012400081E009F480E0DF91CF911F910F91089523
:10125000CF92DF92EF92FF920F931F93CF93DF9382
:101260001F92CDB7DEB76C01E62E08E010E0FF2438
:10127000F39461E09F2D9E2109F460E0C60149834B
:101280000E94CA08FF0C015011094981011511057E
:1012900081F7411115C0F894D6011196ED91FC919A
:1012A000129791818C918095892381831196ED917C
:1012B000FC91129792818C918095892382837894F6
:1012C0000F90DF91CF911F910F91FF90EF90DF90E2
:1012D000CF900895EF92FF920F931F93CF93DF93D8
:1012E0008C01C8E0D0E0F12CEE24E394C8010E9408
:1012F000FD088111FE28EE0C2197C1F78F2DDF919B
:10130000CF911F910F91FF90EF900895CF92DF92B0
:10131000FF920F931F93CF93DF931F92CDB7DEB74A
:101320008C01F62E40E065E579830E942809CF2CD8
:101330007981D72E88E0F82EF60161916F0140E0A7
:10134000C8010E942809FA94B9F70F90DF91CF9154
:101350001F910F91FF90DF90CF90089540E06CECCB
:101360000C942809FC0113861586148627E030E0CA
:10137000DF01A20FB31F13961C922115310519F03E
:1013800021503109F5CF08951F93CF93DF93EC01DE
:10139000162F60E0812F0E948610612F70E0FB0104
:1013A000E156FE4FE491E883FB01ED54FE4FE491DA
:1013B000F0E0EE0FFF1FE953FE4F859194919A8361
:1013C0008983CE01DF91CF911F910C94B209AF9226
:1013D000BF92CF92DF92EF92FF920F931F93CF9322
:1013E000DF931F92CDB7DEB75C01E62ED72EFC014E
:1013F000858581115DC0C5010E948B08811105C0E2
:10140000F5011386158614866EC040E060EFC501B5
:101410000E94280901E0F12CC12C11E0C5010E94B5
:10142000FD08682FC50169830E94FD08698161304C
:1014300019F48130B9F433C02F2D30E068131BC08C
:10144000F5018385181730F4E20FF31F83818023A1
:1014500049F402C0181731F060E0193058F4F50172
:10146000148708C0F501EF0DF11D8381802B838364
:1014700061E009C0C12EF501E20FF31F8381902FB7
:10148000909589238383C5010E94CA081F5F000FBE
:1014900011F4F39401E0F7E0FF1508F0BFCF113429
:1014A00038F0F501C386C11018C081E0858715C0EA
:1014B000F50113861586148680E0EE2DFD2D20E0C3
:1014C00030E0D501A20FB31F13969C9191932F5F2B
:1014D0003F4F28303105A9F706C0F50183818823E5
:1014E00039F381E0EACF0F90DF91CF911F910F91F7
:1014F000FF90EF90DF90CF90BF90AF900895DC0108
:1015000080E0615038F0ED91E827F0E0E557FF4FBB
:101510008491F7CF08950895FC018BE89AE0928BAF
:10152000818B768365831482108289E0818381E0D8
:10153000828383830895FC0184810895CF93DF9390
:10154000EB0167E0CE010E947F0A91E02F818213B8
:1015500090E0892FDF91CF910895EF92FF920F9342
:101560001F93CF93DF9300D0CDB7DEB77C018A0104
:10157000FC018581968169837A830E948B08698149
:101580007A81F701858196810E94860940E06EEBA1
:10159000F701858196810E942809F701858196814E
:1015A0000E946A09F8018083F701858196810E9473
:1015B0006A09F8018183F701858196810E946A0991
:1015C000F8018283F701858196810E946A09F801FA
:1015D0008383F701858196810E946A09F8018483DB
:1015E000F701858196810E946A09F8018583F701D8
:1015F000858196810E946A09F8018683F7018581B9
:1016000096810E946A09F8018783F7018581968196
:101610000E946A09F8018087F701858196810F9001
:101620000F90DF91CF911F910F91FF90EF900C944D
:101630008B08CF93DF93EA010E94AD0A68E0CE01E8
:101640000E947F0A91E02885821390E0892FDF9124
:10165000CF910895EF92FF920F931F93CF93DF9353
:10166000EC017B018A018D819E810E948B08B7016C
:101670008D819E810E94860940E06EE48D819E816D
:101680000E94280940E0F80162818D819E810E94BC
:10169000280940E0F80163818D819E810E9428091C
:1016A000F7018081803139F040E0F80164818D815B
:1016B0009E810E9428098D819E810E948B0848810D
:1016C00068E48D819E810E9428098881882331F0F9
:1016D0006AE070E080E090E00E94F00F8D819E81D2
:1016E000DF91CF911F910F91FF90EF900C948B0899
:1016F000EF92FF921F93CF93DF9300D0CDB7DEB769
:101700007C01FC018581968169837A830E948B0824
:1017100069817A81F701858196810E94860940E07E
:1017200064EBF701858196810E942809F701858184
:1017300096810E94FD08182FF701858196810E94ED
:101740008B0881E0111180E00F900F90DF91CF9115
:101750001F91FF90EF900895EF92FF920F931F93C8
:10176000CF93DF93CDB7DEB72A970FB6F894DEBFDD
:101770000FBECDBF7C018B01242FAE014F5F5F4FA9
:101780002A870E94190B2A858823D1F0F8018081CD
:101790008031C1F02B3041F02C3021F02A3031F46F
:1017A0008FE305C08FE703C08FE501C08FE18D8314
:1017B000AE014F5F5F4FB801C7010E942A0B02C004
:1017C00080E001C081E02A960FB6F894DEBF0FBE1C
:1017D000CDBFDF91CF911F910F91FF90EF900895B2
:1017E000CF93DF93CDB7DEB729970FB6F894DEBF5E
:1017F0000FBECDBFFB0120812031D1F0AE014F5F84
:101800005F4F0E94190B882379F08D818F3351F03F
:1018100018F48F3169F008C08F3541F08F3721F40B
:101820008CE007C08AE005C080E003C08BE001C007
:1018300089E029960FB6F894DEBF0FBECDBFDF91C9
:10184000CF910895EF92FF920F931F93CF93DF9361
:10185000CDB7DEB761970FB6F894DEBF0FBECDBF30
:101860008C01FC01858196810E94B209F8011482E5
:10187000FF24F394BE01665F7F4FF8018581968156
:101880000E94E7098823C9F1BE01665F7F4FC80146
:101890000E949E0A882371F3F8018081811108C09B
:1018A000BE01665F7F4FC8010E94780B811122C084
:1018B000AE014F5F5F4FBE01665F7F4FC8010E9460
:1018C000AD0AF801E180BE01665F7F4FC8010E944A
:1018D000F00B8E1518F4F801818106C0BE01665F19
:1018E0007F4FC8010E94F00BF801818384818F5FD4
:1018F0008483C0CFF801F082DBCF61960FB6F894F5
:10190000DEBF0FBECDBFDF91CF911F910F91FF9032
:10191000EF900895FC0162830895CF93DF93CDB7D4
:10192000DEB729970FB6F894DEBF0FBECDBFAE016C
:101930004F5F5F4F0E94AD0A81E09981911101C014
:1019400080E029960FB6F894DEBF0FBECDBFDF91C1
:10195000CF910895CF92DF92EF92FF920F931F9352
:10196000CF93DF93EC018B01452BE1F08B81882332
:10197000C9F08881811116C00E94C10F6B017C01E2
:1019800060E070E0CE010E948D0C81110BC00E94BE
:10199000C10F6C197D098E099F096E3E7240810549
:1019A000910570F3F80180818A3049F08B3061F045
:1019B000893079F46EE570E080E090E00EC06CEB69
:1019C00070E080E090E009C067E771E080E090E0BF
:1019D00004C06EEE72E080E090E0DF91CF911F9145
:1019E0000F91FF90EF90DF90CF900C94F00FCF937A
:1019F000DF93EC018D819E810E948B088D819E81F9
:101A00000E94AE09488164E48D819E810E9428096C
:101A10008A81882351F0BE016F5F7F4F40E050E024
:101A2000CE01DF91CF910C94AA0CDF91CF91089554
:101A30008F929F92AF92BF92CF92DF92EF92FF92DE
:101A40001F93CF93DF93FB01EA01698170E0762F4A
:101A500066278881682B80818232B1F18832A1F1BA
:101A6000803109F078C01F8175956795882777FDCB
:101A70008095982F0E94E11620E030E040E85EE378
:101A80000E94DD156B017C01612F70E08E81681B67
:101A90007109882777FD8095982F0E94E1164B01E8
:101AA0005C01612F70E080E090E00E94DF169B01F6
:101AB000AC01C501B4010E9446169B01AC01C701EF
:101AC000B6010E94DE1543C08C818F3381F198F4FA
:101AD0008F3109F040C093E0759567959A95E1F7CD
:101AE000882777FD8095982F0E94E11620E030E04E
:101AF00040E05FE32AC08F3569F08F3761F58827B2
:101B000077FD8095982F0E94E11620E030E040E8B4
:101B10005DE31BC075956795882777FD8095982FA5
:101B20000E94E11620E030E040E05EE30EC07595D3
:101B3000679575956795882777FD8095982F0E9402
:101B4000E11620E030E040E85EE30E949517562F52
:101B5000472F382F292F652F742F832F922FDF9136
:101B6000CF911F91FF90EF90DF90CF90BF90AF90FB
:101B70009F908F900895EF92FF920F931F93CF93B2
:101B8000DF93CDB7DEB729970FB6F894DEBF0FBE4F
:101B9000CDBF8C017B01AE014F5F5F4F0E94190BDF
:101BA000882341F0AE014F5F5F4FB701C8010E942B
:101BB000180D04C060E070E08EEF92EC29960FB62D
:101BC000F894DEBF0FBECDBFDF91CF911F910F9173
:101BD000FF90EF900895FC0166834783208781E0A2
:101BE00085870895CF93DF93EC0160E08E810E949A
:101BF000861061E08E810E94BF1019861A861B86AE
:101C00001C86DF91CF910895DF92EF92FF920F93A0
:101C10001F93CF93DF93EC0161E08E810E94BF1090
:101C20006AEF70E080E090E00E94F00F0E94C10F28
:101C300009851A852B853C856017710782079307F4
:101C400020F419861A861B861C862D85211111C049
:101C500009851A852B853C85DC01CB01801B910B06
:101C6000A20BB30B803D9740A105B10510F481E0B4
:101C700071C01D860E94C10F69877A878B879C87F8
:101C80001C821B821A821982188261E08E810E9456
:101C9000861060E08E810E94BF1064E170E080E0F9
:101CA00090E00E94F00FF89461E08E810E94BF10D6
:101CB00088E290E00E94181060E08E810E948610F9
:101CC000F12CD12C81E0E12C082F10E08E810E94B4
:101CD000F5108017910741F4E39481E090E00E94B1
:101CE00018108FEFE812F2CF8E810E94F5109FEF4F
:101CF000E916C9F023E02F1590F4F0FC10C09D2DDB
:101D0000969596959695FE01E90FF11D9081990F94
:101D1000908328852E1510F491609083D394F394CA
:101D200095E5F912D0CF789427E22D1590F42C8107
:101D300030E04881898190E0840F911D4A81840FB1
:101D4000911D4B81840F911D99272817390709F49C
:101D50008ECF80E0DF91CF911F910F91FF90EF9098
:101D6000DF900895CF92DF92EF92FF920F931F932F
:101D7000CF93DF93EC01162F0E94040E882309F401
:101D800050C08F818B3031F008F44BC085518230C8
:101D900078F047C06A8170E080E090E00E94DF1632
:101DA000112309F449C020E030E040E151E42AC0A9
:101DB0000A81602F6F7770E080E090E00E94E1166A
:101DC00020E030E040E853E40E9495176B017C016D
:101DD0006B8170E080E090E00E94E1169B01AC0115
:101DE000C701B6010E94DE1520E030E040E251E478
:101DF0000E94461607FD9058112309F120E030E0BB
:101E000040E151E40E94951720E030E040EA50E4C0
:101E10000E94461620E030E040E052E40E94DE15C9
:101E20000EC063EB72E08DE993E00E94A91220E0FE
:101E300030E040EC5FE705C09B01AC0102C09B01B4
:101E4000AC01B901CA01DF91CF911F910F91FF90B1
:101E5000EF90DF90CF900895CF92DF92EF92FF92B4
:101E6000CF93DF93EC010E94040E882379F18F81D8
:101E70008B3029F158F18551823040F5688170E04E
:101E800080E090E00E94DF1620E030E040E853E47C
:101E90000E9495176B017C01698170E080E090E001
:101EA0000E94E1169B01AC01C701B6010E94DE153C
:101EB00020E030E040E251E40E94461611C0688103
:101EC00070E080E090E00E94DF160AC063EB72E0F1
:101ED0008DE993E00E94A91260E070E080EC9FE73A
:101EE000DF91CF91FF90EF90DF90CF9008951F92F8
:101EF0000F920FB60F9211242F933F938F939F93BE
:101F0000AF93BF938091910390919203A09193031B
:101F1000B09194033091900323E0230F2D3720F4E8
:101F20000196A11DB11D05C026E8230F0296A11D33
:101F3000B11D209390038093910390939203A093FB
:101F40009303B09394038091950390919603A0918D
:101F50009703B09198030196A11DB11D809395033D
:101F600090939603A0939703B0939803BF91AF917A
:101F70009F918F913F912F910F900FBE0F901F90C7
:101F800018952FB7F8946091910370919203809106
:101F90009303909194032FBF08953FB7F8948091D5
:101FA000950390919603A0919703B091980326B55D
:101FB000A89B05C02F3F19F00196A11DB11D3FBF81
:101FC0006627782F892F9A2F620F711D811D911D11
:101FD00042E0660F771F881F991F4A95D1F7089531
:101FE000CF92DF92EF92FF92CF93DF936B017C0150
:101FF0000E94CD0FEB01C114D104E104F10489F07A
:102000000E943B110E94CD0F6C1B7D0B683E7340FC
:1020100090F381E0C81AD108E108F108C851DC4FFB
:10202000EACFDF91CF91FF90EF90DF90CF900895AE
:10203000019739F0880F991F880F991F0297019710
:10204000F1F70895789484B5826084BD84B5816089
:1020500084BD85B5826085BD85B5816085BDEEE6B0
:10206000F0E0808181608083E1E8F0E0108280818F
:1020700082608083808181608083E0E8F0E08081FD
:1020800081608083E1EBF0E0808184608083E0EB1D
:10209000F0E0808181608083EAE7F0E08081846005
:1020A0008083808182608083808181608083808161
:1020B000806880831092C1000895833081F028F4F5
:1020C000813099F08230A1F008958730A9F08830EE
:1020D000B9F08430D1F4809180008F7D03C080916D
:1020E00080008F7780938000089584B58F7702C039
:1020F00084B58F7D84BD08958091B0008F7703C033
:102100008091B0008F7D8093B0000895CF93DF93CE
:1021100090E0FC01E156FE4F2491FC01ED54FE4F8E
:102120008491882349F190E0880F991FFC01E552C2
:10213000FE4FA591B4918F529E4FFC01C591D49151
:102140009FB7611108C0F8948C91209582238C93DD
:10215000888182230AC0623051F4F8948C91322F26
:10216000309583238C938881822B888304C0F894D4
:102170008C91822B8C939FBFDF91CF9108950F9309
:102180001F93CF93DF931F92CDB7DEB7282F30E098
:10219000F901E557FE4F8491F901E156FE4F149184
:1021A000F901ED54FE4F04910023C9F0882321F07A
:1021B00069830E945D106981E02FF0E0EE0FFF1F40
:1021C000EF52FE4FA591B4919FB7F8948C91611195
:1021D00003C01095812301C0812B8C939FBF0F906A
:1021E000DF91CF911F910F910895CF93DF93282F07
:1021F00030E0F901E557FE4F8491F901E156FE4FB9
:10220000D491F901ED54FE4FC491CC2391F081118A
:102210000E945D10EC2FF0E0EE0FFF1FE953FE4F20
:10222000A591B4912C912D2381E090E021F480E0E0
:1022300002C080E090E0DF91CF9108958E3008F0E9
:102240008E5087702091090190E4299F90011124FC
:10225000822B80937C0080917A00806480937A0046
:1022600080917A0086FDFCCF8091780020917900E2
:1022700090E0922B089508958230E8F4E82FF0E082
:10228000EE0FFF1FE756FC4F71836083813041F0F2
:10229000809169008C7F842B80936900E89A08956F
:1022A00080916900440F551F440F551F837F842B75
:1022B00080936900E99A0895823068F4813011F0C2
:1022C000E89801C0E998E82FF0E0EE0FFF1FE7560D
:1022D000FC4F1182108208951F920F920FB60F9239
:1022E00011242F933F934F935F936F937F938F931B
:1022F0009F93AF93BF93EF93FF9380919903909136
:102300009A03892B29F0E0919903F0919A0309959A
:10231000FF91EF91BF91AF919F918F917F916F91BD
:102320005F914F913F912F910F900FBE0F901F9093
:1023300018951F920F920FB60F9211242F933F936F
:102340004F935F936F937F938F939F93AF93BF93BD
:10235000EF93FF9380919B0390919C03892B29F02D
:10236000E0919B03F0919C030995FF91EF91BF9140
:10237000AF919F918F917F916F915F914F913F911D
:102380002F910F900FBE0F901F9018951F920F92D4
:102390000FB60F9211242F938F939F93EF93FF9378
:1023A000E091AD03F091AE038081E091B303F09131
:1023B000B40382FD12C090818091B6038F5F8F734A
:1023C0002091B703821751F0E091B603F0E0E35695
:1023D000FC4F958F8093B60301C08081FF91EF91F0
:1023E0009F918F912F910F900FBE0F901F90189576
:1023F0001F920F920FB60F9211242F933F934F937A
:102400005F936F937F938F939F93AF93BF93EF935C
:10241000FF938DE993E00E94D314FF91EF91BF9158
:10242000AF919F918F917F916F915F914F913F916C
:102430002F910F900FBE0F901F9018958DE993E08C
:102440000E94981421E0892B09F420E0822F08953E
:102450001092A00310929F0388EE93E0A0E0B0E0FA
:102460008093A1039093A203A093A303B093A4032A
:102470008FEC92E090939E0380939D0385EC90E017
:102480009093AA038093A90384EC90E09093AC030B
:102490008093AB0380EC90E09093AE038093AD0308
:1024A00081EC90E09093B0038093AF0382EC90E0D6
:1024B0009093B2038093B10386EC90E09093B403C1
:1024C0008093B3031092B6031092B7031092B8032F
:1024D0001092B9030895CF92DF92EF92FF920F937B
:1024E0001F93CF93DF936C017A01EB01E60EF71E89
:1024F00000E010E0CE15DF0561F06991D601ED91A5
:10250000FC910190F081E02DC6010995080F191F7B
:10251000F1CFC801DF91CF911F910F91FF90EF9004
:10252000DF90CF9008956115710581F0DB010D906A
:102530000020E9F7AD0141505109461B570BDC0162
:10254000ED91FC910280F381E02D099480E090E010
:1025500008950C949312DC01ED91FC910190F081AF
:10256000E02D09940F931F93CF93DF93EC016DE05F
:102570000E94AB128C016AE0CE010E94AB12800F68
:10258000911FDF91CF911F910F9108950F931F938A
:10259000CF93DF93EC010E9493128C01CE010E9435
:1025A000B212800F911FDF91CF911F910F9108956B
:1025B0008F929F92AF92BF92CF92DF92EF92FF9253
:1025C0000F931F93CF93DF93CDB7DEB7A1970FB6CD
:1025D000F894DEBF0FBECDBF7C01C42EE52FCB012A
:1025E000D22E19A221E02D1510F02AE0D22E8E0154
:1025F0000F5D1F4F8D2C912CA12CB12C6C2D7E2F9B
:10260000A50194010E94FC178C2DD29E80191124E3
:10261000015011098A3014F4805D01C0895CF80111
:102620008083211531054105510521F0C22EE32F8C
:10263000CA01E4CFB801C7010E949312A1960FB658
:10264000F894DEBF0FBECDBFDF91CF911F910F91E8
:10265000FF90EF90DF90CF90BF90AF909F908F90C2
:102660000895CF92DF92EF92FF920F931F93CF9333
:10267000DF93EC016A017B012115310579F4E881D2
:10268000F9810190F081E02D642FDF91CF911F91AE
:102690000F91FF90EF90DF90CF9009942A30310591
:1026A000E9F477FF1AC06DE20E94AB128C01442757
:1026B0005527BA014C195D096E097F092AE0CE0140
:1026C0000E94D812800F911FDF91CF911F910F911F
:1026D000FF90EF90DF90CF9008952AE0B701A60118
:1026E000CE01DF91CF911F910F91FF90EF90DF907E
:1026F000CF900C94D8129A01AB01662757FD6095D4
:10270000762F0C9431130F931F93CF93DF93EC012B
:102710009A01AB01662757FD6095762F0E94311311
:102720008C01CE010E94B212800F911FDF91CF91D8
:102730001F910F9108954F925F926F927F928F92A7
:102740009F92AF92BF92CF92DF92EF92FF920F9340
:102750001F93CF93DF93EC016A017B01B22E9A01A4
:10276000AB01C701B6010E94F817882319F06DEB81
:1027700072E027C026013701E89477F82FEF3FEF8A
:102780004FE75FE7C301B2010E94F81781110DC046
:102790002FEF3FEF4FE75FE7C301B2010E94421600
:1027A00018161CF461EC72E00CC02FEF3FEF4FE7FE
:1027B0005FE4C701B6010E9491171816ACF465ECEE
:1027C00072E0CE01DF91CF911F910F91FF90EF90BA
:1027D000DF90CF90BF90AF909F908F907F906F9041
:1027E0005F904F900C9493122FEF3FEF4FE75FEC09
:1027F000C701B6010E94421687FDE1CF20E030E01C
:10280000A901C701B6010E94421687FF0AC06DE206
:10281000CE010E94AB128C01F7FAF094F7F8F09415
:1028200002C000E010E0A12C60E070E080E09FE3D7
:10283000AB1441F020E030E040E251E40E94461643
:10284000A394F6CF9B01AC01C701B6010E94DE152F
:102850006B017C010E94B3162B013C010E94DF1624
:102860009B01AC01C701B6010E94DD156B017C0123
:102870002AE0B301A201CE010E94D812080F191F4D
:10288000BB2039F069EC72E0CE010E949312080F70
:10289000191F7B2C772041F120E030E040E251E429
:1028A000C701B6010E9495176B017C010E94AE160C
:1028B0004B01AA2497FCA094BA2C2AE030E0B50181
:1028C000A401CE010E943113080F191FC501B401E4
:1028D0000E94E1169B01AC01C701B6010E94DD1503
:1028E0006B017C017A94D6CFC801DF91CF911F9103
:1028F0000F91FF90EF90DF90CF90BF90AF909F909F
:102900008F907F906F905F904F9008950C949B13E1
:1029100008950E9422100E9488140E946901C5EC4B
:10292000D4E10E945B032097E1F30E94C514F9CF24
:10293000FC01818D228D90E0805C9F4F821B91096C
:102940008F7399270895FC01918D828D981731F02E
:10295000828DE80FF11D858D90E008958FEF9FEF38
:102960000895FC01918D828D981761F0828DDF01B1
:10297000A80FB11D5D968C91928D9F5F9F73928F72
:1029800090E008958FEF9FEF08958EE192E1892BFB
:1029900049F080E090E0892B29F00E941E128111FD
:1029A0000C9400000895FC01848DDF01A80FB11D77
:1029B000A35ABF4F2C91848D90E001968F73992775
:1029C000848FA689B7892C93A089B1898C91806462
:1029D0008C93938D848D981306C00288F389E02D23
:1029E00080818F7D80830895CF93DF93EC01888D64
:1029F0008823C9F0EA89FB89808185FD05C0A88903
:102A0000B9898C9186FD0FC00FB607FCF5CF808188
:102A100085FFF2CFA889B9898C9185FFEDCFCE01D2
:102A20000E94D314E7CFDF91CF910895CF92DF9228
:102A3000FF920F931F93CF93DF931F92CDB7DEB713
:102A40006C01DC015B969C915B975C968C915C972A
:102A5000981307C05096ED91FC915197808185FDA8
:102A600032C0F601038D10E00F5F1F4F0F73112767
:102A7000F02EF601848DF81211C00FB607FCF9CFC5
:102A8000D6015096ED91FC915197808185FFF1CF51
:102A9000C60169830E94D3146981EBCF838DE80F4F
:102AA000F11DE35AFF4F6083D6015B960C935B9751
:102AB0005296ED91FC91539780818062808381E0F2
:102AC00058968C930DC0D6015696ED91FC91579770
:102AD00060835096ED91FC91519780818064808352
:102AE00081E090E00F90DF91CF911F910F91FF90C7
:102AF000DF90CF900895BF92CF92DF92EF92FF9236
:102B0000CF93DF93EC016A017B01B22EE889F9894A
:102B100082E08083411581EE580761057105A1F0BF
:102B200060E079E08DE390E0A70196010E94FC1738
:102B300021503109410951095695479537952795F7
:102B4000211580E1380798F0E889F989108260E85A
:102B500074E88EE190E0A70196010E94FC172150D5
:102B60003109410951095695479537952795EC85C7
:102B7000FD853083EE85FF852083188EEC89FD89E5
:102B8000B082EA89FB89808180618083EA89FB8940
:102B9000808188608083EA89FB8980818068808366
:102BA000EA89FB8980818F7D8083DF91CF91FF90BF
:102BB000EF90DF90CF90BF9008955058BB27AA2781
:102BC0000ED075C166D130F06BD120F031F49F3F4B
:102BD00011F41EF45BC10EF4E095E7FB51C1E92F3F
:102BE00077D180F3BA17620773078407950718F047
:102BF00071F49EF58FC10EF4E0950B2EBA2FA02D27
:102C00000B01B90190010C01CA01A0011124FF2799
:102C1000591B99F0593F50F4503E68F11A16F04094
:102C2000A22F232F342F4427585FF3CF4695379593
:102C30002795A795F0405395C9F77EF41F16BA0B58
:102C4000620B730B840BBAF09150A1F0FF0FBB1F06
:102C5000661F771F881FC2F70EC0BA0F621F731F4F
:102C6000841F48F4879577956795B795F7959E3FAC
:102C700008F0B3CF9395880F08F09927EE0F97953A
:102C800087950895D9D008F481E008950CD00FC13C
:102C900007D140F0FED030F021F45F3F19F0F0C0D2
:102CA000511139C1F3C014D198F39923C9F35523B5
:102CB000B1F3951B550BBB27AA276217730784072F
:102CC00038F09F5F5F4F220F331F441FAA1FA9F3E5
:102CD00033D00E2E3AF0E0E830D091505040E695D7
:102CE000001CCAF729D0FE2F27D0660F771F881F38
:102CF000BB1F261737074807AB07B0E809F0BB0B27
:102D0000802DBF01FF2793585F4F2AF09E3F51054A
:102D100068F0B6C000C15F3FECF3983EDCF38695E7
:102D200077956795B795F7959F5FC9F7880F911DC0
:102D30009695879597F90895E1E0660F771F881FAC
:102D4000BB1F621773078407BA0720F0621B730B5F
:102D5000840BBA0BEE1F88F7E095089504D06894B1
:102D6000B111D9C00895BCD088F09F5790F0B92F09
:102D70009927B751A0F0D1F0660F771F881F991FD0
:102D80001AF0BA95C9F712C0B13081F0C3D0B1E0E2
:102D90000895C0C0672F782F8827B85F39F0B93FF2
:102DA000CCF3869577956795B395D9F73EF49095D2
:102DB0008095709561957F4F8F4F9F4F0895E89450
:102DC00009C097FB3EF490958095709561957F4F73
:102DD0008F4F9F4F9923A9F0F92F96E9BB27939521
:102DE000F695879577956795B795F111F8CFFAF431
:102DF000BB0F11F460FF1BC06F5F7F4F8F4F9F4F62
:102E000016C0882311F096E911C0772321F09EE8BF
:102E1000872F762F05C0662371F096E8862F70E025
:102E200060E02AF09A95660F771F881FDAF7880FFF
:102E30009695879597F90895990F0008550FAA0B55
:102E4000E0E8FEEF16161706E807F907C0F01216BD
:102E50001306E407F50798F0621B730B840B950BC0
:102E600039F40A2661F0232B242B252B21F4089515
:102E70000A2609F4A140A6958FEF811D811D0895B2
:102E800097F99F6780E870E060E008959FEF80EC1D
:102E9000089500240A9416161706180609060895C0
:102EA00000240A9412161306140605060895092E26
:102EB0000394000C11F4882352F0BB0F40F4BF2B95
:102EC00011F460FF04C06F5F7F4F8F4F9F4F0895D5
:102ED00057FD9058440F551F59F05F3F71F04795CB
:102EE000880F97FB991F61F09F3F79F087950895B0
:102EF000121613061406551FF2CF4695F1DF08C0CF
:102F0000161617061806991FF1CF869571056105EB
:102F100008940895E894BB2766277727CB0197F993
:102F200008958ADF08F48FEF08950BD0C0CFB1DF8A
:102F300028F0B6DF18F0952309F0A2CFA7CF11240F
:102F4000EACFC6DFA0F3959FD1F3950F50E0551F50
:102F5000629FF001729FBB27F00DB11D639FAA27EE
:102F6000F00DB11DAA1F649F6627B00DA11D661F3D
:102F7000829F2227B00DA11D621F739FB00DA11D5E
:102F8000621F839FA00D611D221F749F3327A00D18
:102F9000611D231F849F600D211D822F762F6A2FB4
:102FA00011249F5750408AF0E1F088234AF0EE0F39
:102FB000FF1FBB1F661F771F881F91505040A9F746
:102FC0009E3F510570F05CCFA6CF5F3FECF3983E7B
:102FD000DCF3869577956795B795F795E7959F5FAD
:102FE000C1F7FE2B880F911D9695879597F9089547
:102FF00023DF880B990B0895A1E21A2EAA1BBB1B95
:10300000FD010DC0AA1FBB1FEE1FFF1FA217B307B4
:10301000E407F50720F0A21BB30BE40BF50B661FCA
:10302000771F881F991F1A9469F76095709580958E
:1030300090959B01AC01BD01CF010895A29FB00105
:10304000B39FC001A39F700D811D1124911DB29FDC
:10305000700D811D1124911D08950E941E18A59FB9
:10306000900DB49F900DA49F800D911D1124089583
:10307000EE0FFF1F0590F491E02D0994F894FFCF17
:1030800000003A04800013000101656D6F6E544822
:10309000202D204669726D776172652056312E357C
:1030A0002E31004F70656E456E657267794D6F6E9B
:1030B00069746F722E6F72670052464D36394357EE
:1030C00020496E69743E20004E6F64653A200020EE
:1030D000467265713A20003836384D687A00204EC5
:1030E0006574776F726B3A2000202D20556E6162F7
:1030F0006C6520746F2066696E64204448543232D7
:103100002053656E736F722E2E747279696E67200C
:103110006167696E00202D20556E61626C652074B8
:103120006F2066696E642044485432322053656EC5
:10313000736F7220666F7220326E642074696D65E1
:103140002E2E676976696E67207570004465746518
:10315000637465642044485432322074656D702075
:10316000262068756D6964697479207365736E6F64
:1031700072004E6F204453313842323020646574FF
:1031800065637465640044657465637465642000F8
:1031900020445331384232300044533138423230C7
:1031A00020616E6420444854323220666F756E642C
:1031B0002C20617373756D696E67204453313842FA
:1031C00032302069732065787465726E616C20738B
:1031D000656E736F7200445331384232302054654B
:1031E0006D70657261747572653A2000432C200021
:1031F00044485432322054656D7065726174757242
:10320000653A2000432C2044485432322048756DE2
:1032100069646974793A2000252C20004261747435
:1032200065727920766F6C746167653A200056008C
:103230002B565A52656164206661696C006E616E3E
:1032400000696E66006F7666002E000000000016B2
:0C325000156B129814B114A314F41400B0
:00000001FF
