:10000000F5C000000C94E4090C940B0A17C1000021
:1000100015C1000013C1000029C100000FC100007C
:100020000DC100000BC1000009C1000007C10000A4
:1000300005C1000003C1000001C10000FFC00000B5
:100040000C943E0AFBC00000DBC600000BC700009A
:10005000F5C00000F3C00000F1C00000EFC00000D8
:10006000EDC00000EBC0000000000008000201002D
:100070000003040700000000000000000102040863
:100080001020408001020408102001020408102002
:10009000040404040404040402020202020203032E
:1000A00003030303000000002300260029000000D2
:1000B0000000250028002B0000000000240027007D
:1000C0002A00005EBCE2613FDD83C29C7E20A3FD6E
:1000D0001F419DC3217FFCA2401E5F01E3BD3E6026
:1000E00082DC237D9FC1421CFEA0E1BF5D0380DE58
:1000F0003C62BEE0025CDF81633D7C22C09E1D430A
:10010000A1FF4618FAA427799BC584DA3866E5BBB7
:100110005907DB856739BAE406581947A5FB7826E5
:10012000C49A653BD987045AB8E6A7F91B45C69817
:100130007A24F8A6441A99C7257B3A6486D85B05C9
:10014000E7B98CD2306EEDB3510F4E10F2AC2F7177
:1001500093CD114FADF3702ECC92D38D6F31B2ECA5
:100160000E50AFF1134DCE90722C6D33D18F0C52D7
:10017000B0EE326C8ED0530DEFB1F0AE4C1291CF89
:100180002D73CA947628ABF517490856B4EA693737
:10019000D58B5709EBB536688AD495CB2977F4AA65
:1001A0004816E9B7550B88D6346A2B7597C94A1497
:1001B000F6A8742AC896154BA9F7B6E80A54D78949
:1001C0006B35010402000302048A050506C30B20F7
:1001D00019421E2C25802E902FAA302D3700380072
:1001E0003C8F3D106F200000AD05600711241FBE3D
:1001F000CFEFD8E0DEBFCDBF12E0A0E0B1E0E8ED88
:10020000F1E302C005900D92AA35B107D9F723E0BA
:10021000AAE5B2E001C01D92AA3CB207E1F711E0E5
:10022000CCEED1E004C02297FE010E94C716C83E62
:10023000D107C9F70E94330A0C94EA18E1CE81E095
:1002400080935E028091630290916402A0916502A6
:10025000B09166020196A11DB11D80936302909337
:100260006402A0936502B093660208951F920F92F4
:100270000FB60F9211242F933F934F935F936F9379
:100280007F938F939F93AF93BF93EF93FF930E94BE
:100290009210FF91EF91BF91AF919F918F917F91BC
:1002A0006F915F914F913F912F910F900FBE0F90E3
:1002B0001F901895BF92CF92DF92EF92FF920F930B
:1002C0001F93CF93DF932AE7E22EF12CF701B08042
:1002D0000BE710E0F801C080CCE7D0E0D8800E94A6
:1002E0004010F701B082F801C082D882DF91CF912F
:1002F0001F910F91FF90EF90DF90CF90BF900895E6
:100300008F929F92AF92BF92CF92DF92EF92FF9225
:100310000F931F93CF93DF9361E089E00E947A0BE4
:1003200061E089E00E94B30B62E087E00E947A0BF3
:1003300062E088E00E947A0B87E00E94E80B01E00F
:10034000892B09F400E088E00E94E80B11E0892B7A
:1003500009F410E0011109C0809106019091070194
:10036000112309F4CFC1019607C0111109C0809172
:100370000601909107010296909307018093060170
:1003800020E436E042ED61E0809106010E94981081
:10039000CAE0D0E0D0938A02C09389024CE069E8B9
:1003A00072E080E00E94FA1064E670E080E090E085
:1003B0000E94B70A219770F782E00E9416111092EE
:1003C0008A021092890280E00E9434118091080113
:1003D000882309F458C026E040E855E260E070E068
:1003E0008AEC92E0ABD4602F70E04AE050E08AECF7
:1003F00092E097D6612F70E04AE050E08AEC92E0FC
:1004000097D66EE071E08AEC92E0E6D564E271E0A6
:100410008AEC92E0D6D522E030E047E656E666E286
:1004200070E48AEC92E08DD768E371E08AEC92E0A8
:10043000D3D567E471E08AEC92E0C3D56091060100
:10044000709107014AE050E08AEC92E06AD66EE4CF
:1004500071E08AEC92E0B5D566E571E08AEC92E055
:10046000B0D56DE571E08AEC92E0ABD54AE050E0A2
:1004700062ED70E08AEC92E05BD664E670E080E0CA
:1004800090E00E94B70A61E086E00E947A0B61E08A
:1004900085E00E947A0B60E081E00E947A0B60E0C8
:1004A00086E00E94B30B62E083E00E947A0B80B783
:1004B000806880BF80910801811105C0809164002F
:1004C00082608093640080916400806880936400FF
:1004D00080916400886080936400809164008460EF
:1004E0008093640061E086E00E94B30B80ED97E0AA
:1004F000E1DE88EB92E00E94320C60E088EB92E053
:100500000E94D40D6B017C0140E060E088EB92E03A
:100510000E94750D4B015C0160E086E00E94B30B08
:10052000A5019401C501B4010E94E618811109C01A
:10053000A7019601C701B6010E94E618882309F4B5
:100540005EC08CED95E00E94401060E088EB92E088
:100550000E94D40D6B017C0140E060E088EB92E0EA
:100560000E94750D9B01AC010E94E618811108C024
:10057000A7019601C701B6010E94E618882359F029
:1005800080910801882329F068E671E08AEC92E006
:1005900023D51092B70261E085E00E94B30B62E3BD
:1005A00070E080E090E0E3D786E992E00E94791461
:1005B00060E086E992E00E945B1586E992E00E9485
:1005C0003D1390E09093880280938702C0E06C2FE7
:1005D00070E0809187029091880268177907E4F4AF
:1005E00033E0660F771F3A95E1F769597D4F41E097
:1005F00089EA92E00E94640F811182C00DC081E0FF
:100600008093B70280910801882329F261E771E0A5
:100610008AEC92E0E1D4BFCF60E085E00E94B30BAA
:10062000809187029091880220910801892B51F4D2
:10063000222329F060E871E08AEC92E0CDD4109298
:10064000950221C081E0809395022223E1F06BE8BE
:1006500071E08AEC92E0B5D46091870270918802D3
:100660004AE050E08AEC92E05CD562E871E08AEC06
:1006700092E0B2D48091B702882329F065E971E055
:100680008AEC92E0A9D480910801882329F068ECD3
:1006900070E080E090E06BD760E089E00E94B30BEF
:1006A0001092910210929202109293021092940270
:1006B0001092630210926402109265021092660218
:1006C00080ED92E0A0E0B0E080935F029093600242
:1006D000A0936102B093620210925E0243E050E088
:1006E0006FE171E081E0DF91CF911F910F91FF9059
:1006F000EF90DF90CF90BF90AF909F908F9032C6D9
:10070000CF5F65CF039638CECF92DF92EF92FF9204
:10071000CF93DF9380915E02882331F082E390E0F3
:100720000E94401010925E0280E590E00E9440100E
:10073000813099F480915F0290916002A0916102F2
:10074000B09162020196A11DB11D80935F0290934A
:100750006002A0936102B093620280915F02909167
:100760006002A0916102B0916202823B9240A105B9
:10077000B10570F48091630290916402A0916502CA
:10078000B091660284369105A105B10508F4DEC179
:10079000F8948091630290916402A0916502B091F7
:1007A0006602AA27BB274091910250919202609164
:1007B000930270919402840F951FA61FB71F809318
:1007C000910290939202A0939302B093940210929C
:1007D000630210926402109265021092660278948D
:1007E00080919502882309F455C061E085E0BBD76C
:1007F00082E390E05FDDC7E6D2E0E12CF12C80914E
:10080000870290918802E816F90664F420E04BE034
:10081000BE0186E992E00E94D0148FEFE81AF80A30
:100820002896EDCF86E992E00E94DA1587E791E0FD
:1008300041DD67E672E086E992E00E9461166B0195
:100840007C0160E085E08FD720E030E04AEF52E4A1
:10085000C701B6010E94301787FF1CC020E030E0BE
:1008600040E252ECC701B6010E947F18181694F4BA
:100870008091B70220E030E040E251E481115BC199
:10088000C701B6010E9483180E949C1770938A02C8
:10089000609389028091B702882309F442C061E025
:1008A00086E061D780ED97E005DD60E088EB92E0BF
:1008B0000E94D40D20E030E040E251E40E94831811
:1008C0000E949C1770938E0260938D0240E060E05E
:1008D00088EB92E00E94750D6B017C0120E030E016
:1008E0004AEA52E40E94301787FF18C020E030E047
:1008F00040E252ECC701B6010E947F18181674F44A
:1009000020E030E040E251E4C701B6010E948318C4
:100910000E949C1770938A026093890260E086E0CF
:1009200022D781E0A1D6BC01882777FD8095982F3A
:100930000E94CF1727E031E244E05DE30E94831874
:100940000E949C177093900260938F02809108011F
:10095000882309F4C8C080919502882309F440C017
:1009600067EC71E08AEC92E02CD38091B702882387
:10097000B9F060918B0270918C02882777FD809589
:10098000982F0E94CF1720E030E040E251E40E940F
:100990003417AB01BC0122E030E08AEC92E0D0D405
:1009A0008091B702811117C06091890270918A020B
:1009B000882777FD8095982F0E94CF1720E030E0A0
:1009C00040E251E40E943417AB01BC0122E030E068
:1009D0008AEC92E0B5D46DED71E08AEC92E0F1D250
:1009E0008091B702882309F43DC061EE71E08AEC82
:1009F00092E0E7D26091890270918A02882777FDA0
:100A00008095982F0E94CF1720E030E040E251E41B
:100A10000E943417AB01BC0122E030E08AEC92E086
:100A20008FD465EF71E08AEC92E0CBD260918D02B9
:100A300070918E02882777FD8095982F0E94CF179E
:100A400020E030E040E251E40E943417AB01BC01E9
:100A500022E030E08AEC92E073D469E072E08AEC44
:100A600092E0AFD26DE072E08AEC92E0AAD260919F
:100A70008F0270919002882777FD8095982F0E94B1
:100A8000CF1720E030E040E251E40E943417AB0180
:100A9000BC0122E030E08AEC92E052D46FE172E0D7
:100AA0008AEC92E08ED24091910250919202609134
:100AB0009302709194022AE030E08AEC92E04ED3E7
:100AC00065E472E08AEC92E087D222D560935A0204
:100AD00070935B0280935C0290935D0264E670E029
:100AE00080E090E044D5809164008B7F8093640027
:100AF0008FEF0E94341184E690E0DCDB4CE069E883
:100B000072E080E00E94FA1082E00E94161180E0FC
:100B10000E94341184E690E0CDDB80916400846013
:100B20008093640010925F02109260021092610242
:100B3000109262020BC0C701B6010E9483180E9486
:100B40009C1770938C0260938B02A4CEDF91CF919F
:100B5000FF90EF90DF90CF90089526E046E162E1AC
:100B600088EB92E05ED663E189EA92E00E94430F4F
:100B700069EA72E086E992E00C942E13FC01818D03
:100B8000228D90E0805C9F4F821B91098F73992783
:100B90000895FC01918D828D981731F0828DE80FB8
:100BA000F11D858D90E008958FEF9FEF0895FC0172
:100BB000918D828D981761F0828DDF01A80FB11D94
:100BC0005D968C91928D9F5F9F73928F90E00895B8
:100BD0008FEF9FEF089587E597E0892B41F080E044
:100BE00090E0892B21F063D181110C9400000895CD
:100BF000FC01848DDF01A80FB11DA35ABF4F2C91BA
:100C0000848D90E001968F739927848FA689B78988
:100C10002C93A089B1898C9180648C93938D848D61
:100C2000981306C00288F389E02D80818F7D808330
:100C30000895CF93DF93EC01888D8823C1F0EA8972
:100C4000FB89808185FD05C0A889B9898C9186FDC5
:100C50000EC00FB607FCF5CF808185FFF2CFA889C3
:100C6000B9898C9185FFEDCFCE01C2DFE8CFDF914E
:100C7000CF910895CF92DF92FF920F931F93CF935E
:100C8000DF931F92CDB7DEB76C0181E0D601589695
:100C90008C9358975B969C915B975C968C915C9734
:100CA000981307C05096ED91FC915197808185FD76
:100CB0002DC0F601038D10E00F5F1F4F0F7311273A
:100CC000F02EF601848DF81210C00FB607FCF9CF94
:100CD000D6015096ED91FC915197808185FFF1CF1F
:100CE000C601698385DF6981ECCF838DE80FF11D33
:100CF000E35AFF4F6083D6015B960C935B97529645
:100D0000ED91FC915397808180620CC0D60156967C
:100D1000ED91FC91579760835096ED91FC9151971E
:100D200080818064808381E090E00F90DF91CF919B
:100D30001F910F91FF90DF90CF900895BF92CF92B7
:100D4000DF92EF92FF92CF93DF93EC016A017B0178
:100D5000B22EE889F98982E08083411581EE580737
:100D600061057105A1F060E079E08DE390E0A701F5
:100D700096010E948A162150310941095109569560
:100D8000479537952795211580E1380798F0E88930
:100D9000F989108260E874E88EE190E0A70196017D
:100DA0000E948A16215031094109510956954795EB
:100DB00037952795EC85FD853083EE85FF8520836B
:100DC000188EEC89FD89B082EA89FB898081806177
:100DD0008083EA89FB89808188608083EA89FB8936
:100DE000808180688083EA89FB8980818F7D808310
:100DF000DF91CF91FF90EF90DF90CF90BF9008955B
:100E00001F920F920FB60F9211242F938F939F93DF
:100E1000EF93FF93E091DA02F091DB028081E091A1
:100E2000E002F091E10282FD12C090818091E30224
:100E30008F5F8F732091E402821751F0E091E302FB
:100E4000F0E0E653FD4F958F8093E30201C080816F
:100E5000FF91EF919F918F912F910F900FBE0F9067
:100E60001F9018951F920F920FB60F9211242F9377
:100E70003F934F935F936F937F938F939F93AF9322
:100E8000BF93EF93FF938AEC92E0B2DEFF91EF9174
:100E9000BF91AF919F918F917F916F915F914F9192
:100EA0003F912F910F900FBE0F901F9018958AECD5
:100EB00092E064DE21E0892B09F420E0822F08957E
:100EC0001092CD021092CC0288EE93E0A0E0B0E048
:100ED0008093CE029093CF02A093D002B093D10220
:100EE00084E392E09093CB028093CA0285EC90E079
:100EF0009093D7028093D60284EC90E09093D9022D
:100F00008093D80280EC90E09093DB028093DA0229
:100F100081EC90E09093DD028093DC0282EC90E023
:100F20009093DF028093DE0286EC90E09093E102E2
:100F30008093E0021092E3021092E4021092E50224
:100F40001092E6020895CF92DF92EF92FF920F93F4
:100F50001F93CF93DF937C016A01EB0100E010E067
:100F60000C151D0571F06991D701ED91FC9101906F
:100F7000F081E02DC7010995892B19F00F5F1F4FF4
:100F8000EFCFC801DF91CF911F910F91FF90EF90AC
:100F9000DF90CF9008956115710581F0DB010D9010
:100FA0000020E9F7AD0141505109461B570BDC0108
:100FB000ED91FC910280F381E02D099480E090E0B6
:100FC0000895E9CFDC01ED91FC910190F081E02DD5
:100FD000099460E472E0DFCF0F931F93CF93DF9308
:100FE000EC01D9DF8C01CE01F4DF800F911FDF917E
:100FF000CF911F910F9108958F929F92AF92BF92C0
:10100000DF92EF92FF920F931F93CF93DF93CDB7B1
:10101000DEB7A1970FB6F894DEBF0FBECDBF7C013F
:10102000F42FD52ECB0119A2223008F42AE08E012C
:101030000F5D1F4F822E912CA12CB12C6F2F7D2D77
:10104000A50194010E948A16F22FD32ECA010150E5
:1010500011096A3014F4E0E301C0E7E3E60FD801B8
:10106000EC93232B242B252B49F7B801C70193DFE1
:10107000A1960FB6F894DEBF0FBECDBFDF91CF9122
:101080001F910F91FF90EF90DF90BF90AF909F90D6
:101090008F900895CF92DF92EF92FF920F931F935C
:1010A000CF93DF93EC016A017B012115310579F4BF
:1010B000E881F9810190F081E02D642FDF91CF91DB
:1010C0001F910F91FF90EF90DF90CF9009942A30FD
:1010D0003105D9F477FF18C06DE274DF8C01442725
:1010E0005527BA014C195D096E097F092AE0CE0126
:1010F00083DF800F911FDF91CF911F910F91FF90A0
:10110000EF90DF90CF9008952AE0B701A601CE01BD
:10111000DF91CF911F910F91FF90EF90DF90CF90D3
:101120006BCF9A01AB01662757FD6095762FB2CF42
:101130000F931F93CF93DF93EC019A01AB016627C6
:1011400057FD6095762FA6DF8C01CE0142DF800F20
:10115000911FDF91CF911F910F91089521153105B6
:1011600041F4DC01ED91FC910190F081E02D642FC0
:10117000099442CF4F925F926F927F928F929F928B
:10118000AF92BF92CF92DF92EF92FF920F931F9395
:10119000CF93DF93EC016A017B01B22E9A01AB0180
:1011A000C701B6010E94E618882319F063E472E0D3
:1011B00027C026013701E89477F82FEF3FEF4FE77C
:1011C0005FE7C301B2010E94E61881110DC02FEF45
:1011D0003FEF4FE75FE7C301B2010E9430171816D7
:1011E0001CF467E472E00CC02FEF3FEF4FE75FE4C1
:1011F000C701B6010E947F181816A4F46BE472E0D0
:10120000CE01DF91CF911F910F91FF90EF90DF9072
:10121000CF90BF90AF909F908F907F906F905F9096
:101220004F90B9CE2FEF3FEF4FE75FECC701B6010C
:101230000E94301787FDE2CF20E030E0A901C7010E
:10124000B6010E94301787FF09C06DE2CE01BADEF9
:101250008C01F7FAF094F7F8F09402C000E010E087
:10126000A12C60E070E080E09FE3AB1441F020E04F
:1012700030E040E251E40E943417A394F6CF9B0182
:10128000AC01C701B6010E94CC166B017C010E9423
:10129000A1172B013C010E94CD179B01AC01C70196
:1012A000B6010E94CB166B017C012AE0B301A201BA
:1012B000CE01A2DE080F191FBB2031F06FE472E0EF
:1012C000CE0169DE080F191F7B2C772039F120E051
:1012D00030E040E251E4C701B6010E9483186B017F
:1012E0007C010E949C174B01AA2497FCA094BA2C65
:1012F0002AE030E0B501A401CE01CCDE080F191FB1
:10130000C501B4010E94CF179B01AC01C701B60112
:101310000E94CB166B017C017A94D7CFC801DF9174
:10132000CF911F910F91FF90EF90DF90CF90BF90E2
:10133000AF909F908F907F906F905F904F900895A7
:1013400019CF0F931F93CF93DF93EC0113DF8C0121
:10135000CE013FDE800F911FDF91CF911F910F9142
:10136000089508958230E8F4E82FF0E0EE0FFF1FB3
:10137000E75FFE4F71836083813041F080916900A7
:101380008C7F842B80936900E89A0895809169008E
:10139000440F551F440F551F837F842B8093690092
:1013A000E99A0895823078F4813011F0E89801C00C
:1013B000E998E82FF0E0EE0FFF1FE75FFE4F81EBAB
:1013C00099E09183808308951F920F920FB60F9238
:1013D00011242F933F934F935F936F937F938F933A
:1013E0009F93AF93BF93EF93FF93E0910901F09127
:1013F0000A010995FF91EF91BF91AF919F918F9154
:101400007F916F915F914F913F912F910F900FBE00
:101410000F901F9018951F920F920FB60F921124E4
:101420002F933F934F935F936F937F938F939F93EC
:10143000AF93BF93EF93FF93E0910B01F0910C01F9
:101440000995FF91EF91BF91AF919F918F917F91FE
:101450006F915F914F913F912F910F900FBE0F9021
:101460001F9018950895C5D0FDDF0E948001CBEE36
:10147000D5E04AD92097E9F3AEDBFBCF1F920F925C
:101480000FB60F9211242F933F938F939F93AF9397
:10149000BF938091680390916903A0916A03B09112
:1014A0006B033091670323E0230F2D3720F401965F
:1014B000A11DB11D05C026E8230F0296A11DB11D77
:1014C000209367038093680390936903A0936A0352
:1014D000B0936B0380916C0390916D03A0916E03A8
:1014E000B0916F030196A11DB11D80936C03909381
:1014F0006D03A0936E03B0936F03BF91AF919F9163
:101500008F913F912F910F900FBE0F901F901895C4
:101510002FB7F894609168037091690380916A0312
:1015200090916B032FBF08953FB7F89480916C039F
:1015300090916D03A0916E03B0916F0326B5A89BA7
:1015400005C02F3F19F00196A11DB11D3FBF6627B1
:10155000782F892F9A2F620F711D811D911D42E0F6
:10156000660F771F881F991F4A95D1F708958F92AC
:101570009F92AF92BF92CF92DF92EF92FF926B0158
:101580007C01D2DF4B015C01C114D104E104F10400
:10159000E1F046D1C9DF681979098A099B09683EDB
:1015A00073408105910580F321E0C21AD108E1085A
:1015B000F10888EE880E83E0981EA11CB11CC114AE
:1015C000D104E104F10431F7DFCFFF90EF90DF9019
:1015D000CF90BF90AF909F908F90089582309105EB
:1015E00038F0880F991F880F991F05970197F1F719
:1015F0000895789484B5826084BD84B5816084BD8B
:1016000085B5826085BD85B5816085BDEEE6F0E07B
:10161000808181608083E1E8F0E0108280818260D7
:101620008083808181608083E0E8F0E08081816058
:101630008083E1EBF0E0808184608083E0EBF0E088
:10164000808181608083EAE7F0E08081846080832C
:1016500080818260808380818160808380818068D6
:1016600080831092C10008958E3008F08E508770EC
:1016700020910D0190E4299F90011124822B8093E9
:101680007C0080917A00806480937A0080917A0057
:1016900086FDFCCF809178002091790090E0922B1C
:1016A0000895833081F028F4813099F08230A1F0E0
:1016B00008958730A9F08830B9F08430D1F4809152
:1016C00080008F7D03C0809180008F7780938000A1
:1016D000089584B58F7702C084B58F7D84BD089549
:1016E0008091B0008F7703C08091B0008F7D809390
:1016F000B0000895CF93DF9390E0FC01E458FF4FD2
:101700002491FC01E057FF4F8491882349F190E038
:10171000880F991FFC01E854FF4FA591B4918255A1
:101720009F4FFC01C591D4919FB7611108C0F894F7
:101730008C91209582238C93888182230AC0623009
:1017400051F4F8948C91322F309583238C938881B7
:10175000822B888304C0F8948C91822B8C939FBF3A
:10176000DF91CF9108950F931F93CF93DF931F9233
:10177000CDB7DEB7282F30E0F901E859FF4F84914B
:10178000F901E458FF4F1491F901E057FF4F04911C
:101790000023C1F0882319F0698383DF6981E02F7A
:1017A000F0E0EE0FFF1FE255FF4FA591B4919FB7F8
:1017B000F8948C91611103C01095812301C0812B95
:1017C0008C939FBF0F90DF91CF911F910F91089540
:1017D000CF93DF93282F30E0F901E859FF4F849130
:1017E000F901E458FF4FD491F901E057FF4FC4913C
:1017F000CC2389F0811155DFEC2FF0E0EE0FFF1FB5
:10180000EC55FF4FA591B4912C912D2381E090E0F0
:1018100021F480E002C080E090E0DF91CF91089554
:101820000895DC0115966C93159716964C931697B0
:1018300070E0FB01E458FF4FE4911796EC93179783
:10184000FB01E057FF4F649118966C93189740E89E
:101850005EE360E070E01D964D935D936D937C9325
:1018600050970895CF93DF93EC0162E08D8142DFC2
:1018700040E358EF6FEF7FEF49875A876B877C878C
:10188000DF91CF910895AF92BF92CF92DF92EF9206
:10189000FF920F931F93CF93DF93EC01AF806623EA
:1018A00011F0BA2C01C0B12CA885B0E0AA0FBB1F63
:1018B000AC55BF4F40E050E0BA01FD0185919491D5
:1018C000FC0180818A218B1112C08A019B010F5F6C
:1018D0001F4F2F4F3F4FCD84DE84EF84F8884C1587
:1018E0005D056E057F0538F4B901A801E6CF342FF8
:1018F000252FCB0104C030E020E080E090E0632F92
:10190000722FDF91CF911F910F91FF90EF90DF9099
:10191000CF90BF90AF900895CF92DF92EF92FF9259
:101920000F931F93CF93DF93CDB7DEB7C054D14051
:101930000FB6F894DEBF0FBECDBF8C01F62EE8DDEA
:10194000F11016C0F801C184D284E384F4849B01B1
:10195000AC012C193D094E095F0969017A0130ED8E
:10196000C31637E0D306E104F10410F48189ADC059
:10197000F8016187728783879487148213821282A9
:101980001182108261E08581EEDE6AEF70E080E016
:1019900090E0EDDD61E0F8018581ACDE60E0F8010A
:1019A0008581E1DE64E170E080E090E0E0DDF894C4
:1019B00061E0F8018581D7DE88E290E00FDE62E029
:1019C000F801858197DE8AE090E008DE60E0C801DA
:1019D0005ADF672B682B692B39F061E0C80153DFB0
:1019E000672B682B692B21F4F801118A78946CC05D
:1019F0006E01FFEBCF1AFEEFDF0A9E012F5F3F4F14
:101A0000790160E0C8013FDFF70160837183828361
:101A1000938361E0C80137DFF701648375838683B0
:101A20009783F8E0EF0EF11CEC14FD0451F7789465
:101A30009E012F5F3F4F790120E030E0F7014081A8
:101A400051816281738184819581A681B78141151D
:101A5000510561057105B1F10097A105B10591F13D
:101A6000F901F595E795F595E795F595E795E00F7B
:101A7000F11FD080DD0C481759076A077B0710F06B
:101A8000D08203C08D2D816080832F5F3F4FF8E0AF
:101A9000EF0EF11C2832310589F6F801248130E07F
:101AA0004081818190E0840F911D4281840F911DBE
:101AB0004381840F911D99272817390719F481E074
:101AC000818B03C0F801118A80E0C05CDE4F0FB645
:101AD000F894DEBF0FBECDBFDF91CF911F910F9164
:101AE000FF90EF90DF90CF900895CF92DF92EF922A
:101AF000FF920F931F93CF93DF93EC01162F642F68
:101B00000BDF882309F443C08E818B3031F008F459
:101B10003EC08551823040F03AC06A8170E080E07A
:101B200090E00E94CD1724C00A81602F6F7770E08B
:101B300080E090E00E94CF1720E030E040E853E4DE
:101B40000E9483186B017C016B8170E080E090E063
:101B50000E94CF179B01AC01C701B6010E94CC16B1
:101B60002DEC3CEC4CEC5DE30E94831807FD905893
:101B7000112389F026E636E646EE5FE30E948318DD
:101B800020E030E040E052E40E94CC1604C060E067
:101B900070E080EC9FE7DF91CF911F910F91FF9054
:101BA000EF90DF90CF900895CF92DF92EF92FF9267
:101BB000CF93DF93EC0160E0AFDE882379F18E8173
:101BC0008B3029F158F18551823040F5688170E001
:101BD00080E090E00E94CD1720E030E040E853E440
:101BE0000E9483186B017C01698170E080E090E0C5
:101BF0000E94CF179B01AC01C701B6010E94CC1611
:101C00002DEC3CEC4CEC5DE30E9483180BC068812A
:101C100070E080E090E00E94CD1704C060E070E0CA
:101C200080EC9FE7DF91CF91FF90EF90DF90CF9016
:101C30000895FF920F931F93CF93DF93FC010081D0
:101C4000C181D281F8948981F02EF0948F2189830B
:101C500078941DE7115009F182E090E0BFDC8881A3
:101C60008023C1F3F8948A818F218A838981802B14
:101C70008983789480EE91E0B1DCF89489818F219A
:101C8000898386E490E0AADC8881802311E009F052
:101C900010E078948AE991E0A1DC812FDF91CF9167
:101CA0001F910F91FF9008951F93CF93DF93FC0135
:101CB0001081C181D281912F909560FF11C0F8945D
:101CC0008A8189238A838981812B89838AE090E0B4
:101CD00085DC8A81812B8A83789487E390E010C029
:101CE000F8948A8189238A838981812B898381E47D
:101CF00090E074DC8A81812B8A83789485E090E07F
:101D0000DF91CF911F916ACC0F931F93CF93DF93F5
:101D1000FC011081C181D281F8948981812B898352
:101D20008A81012F009580238A8383E090E056DC2E
:101D30008981802389838AE090E050DCC88178948F
:101D400085E390E04BDC1C2381E009F480E0DF9127
:101D5000CF911F910F910895CF92DF92EF92FF9252
:101D60000F931F93CF93DF931F92CDB7DEB76C0114
:101D7000E62E08E010E0FF24F39461E09F2D9E2101
:101D800009F460E0C60149838FDFFF0C015011099F
:101D900049810115110589F7411115C0F894D60143
:101DA0001196ED91FC91129791818C9180958923E8
:101DB00081831196ED91FC91129792818C9180957F
:101DC0008923828378940F90DF91CF911F910F9197
:101DD000FF90EF90DF90CF900895EF92FF920F93D6
:101DE0001F93CF93DF938C01C8E0D0E0F12CEE2459
:101DF000E394C80189DF8111FE28EE0C2197C9F711
:101E00008F2DDF91CF911F910F91FF90EF9008954B
:101E1000CF92DF92FF920F931F93CF93DF931F9286
:101E2000CDB7DEB78C01F62E40E065E5798394DF0F
:101E3000CF2C7981D72E88E0F82EF60161916F01C1
:101E400040E0C80189DFFA94C1F70F90DF91CF918C
:101E50001F910F91FF90DF90CF90089540E06CECC0
:101E60007BCFFC0113861586148627E030E0DF0166
:101E7000A20FB31F13961C922115310519F02150A2
:101E80003109F5CF08951F93CF93DF93EC01162FFF
:101E900060E0812F2FDC612F70E0FB01E458FF4FE1
:101EA000E491E883FB01E057FF4FE491F0E0EE0F8F
:101EB000FF1FEC55FF4F859194919A838983CE0142
:101EC000DF91CF911F91CDCFAF92BF92CF92DF9292
:101ED000EF92FF920F931F93CF93DF931F92CDB793
:101EE000DEB75C01D62EE72EFC01858581115FC02F
:101EF000C50149839EDE4981811105C0F501138624
:101F0000158614866DC0442319F040E060EF02C0CE
:101F100040E06CEEC50120DF01E0F12CC12C11E0A6
:101F2000C501F2DE682FC5016983EEDE698161308B
:101F300019F48130B9F432C02F2D30E068131BC082
:101F4000F5018385181730F4E20FF31F8381802396
:101F500049F402C0181731F060E0193058F4F50167
:101F6000148708C0F501EF0DF11D8381802B838359
:101F700061E009C0C12EF501E20FF31F8381902FAC
:101F8000909589238383C5018FDE1F5F000F11F4B5
:101F9000F39401E0F7E0FF1508F0C2CF113438F0F8
:101FA000F501C386C11009C081E0858706C0F5012F
:101FB00013861586148680E013C0F501838188237B
:101FC000B1F3ED2DFE2D80E090E0D501A80FB91FF3
:101FD00013962C912193019688309105B1F781E0F9
:101FE0000F90DF91CF911F910F91FF90EF90DF90B5
:101FF000CF90BF90AF900895DC0180E0615038F041
:10200000ED91E827F0E0EE53FF4F8491F7CF08956C
:1020100083FF02C098E2892787FD06C08064909103
:1020200060009093700302C08091700394B7977F13
:1020300094BFF894909160009861909360008093B1
:10204000600078940895EAE7F0E0908180818F77CE
:10205000808383B7817F846083BFF89483B7816076
:1020600083BF85B7806685BF85B78F79806485BF5C
:102070007894889583B78E7F83BF90937A00089574
:10208000DF92EF92FF920F931F93CF93DF938C0118
:10209000EC0128E0E22EF12CC031D10520F19E01A7
:1020A000D12C2032310538F0D39489E0D81619F0BC
:1020B00036952795F6CF109271038D2DA9DFC3DFDA
:1020C0008FEFA6DFC70102C0880F991FDA94E2F7ED
:1020D000C81BD90B20917103222319F0C81BD90BFF
:1020E000DBCF80E001C081E040916803509169033B
:1020F00060916A0370916B030C1B1D0B400F511F05
:10210000611D711D409368035093690360936A03D6
:1021100070936B03DF91CF911F910F91FF90EF9020
:10212000DF900895809171038F5F8093710308950C
:10213000CF92DF92EF92FF921F93CF93DF93C82F3E
:10214000162FD42FF901AFEFA60FA33028F4B0E07B
:10215000AF5ABD4FAC9101C0A0E0B0E020E836E935
:1021600048E950E008D66B017C01212F30E0A4EC57
:10217000B9E0F2D5DF019B01AC01FDD5C60ED71E3B
:10218000E81EF91EC701B601AFD0D093C5038C2F4E
:102190008F718093C40364E170E080E090E0E7D940
:1021A0008091C403882339F043E050E06AEC72E187
:1021B00080E0D8D802C080E0F5D8D3D0C0937203B5
:1021C0008C2FDF91CF911F91FF90EF90DF90CF90F8
:1021D000089583E793E015D19093BC038093BB03EC
:1021E0002091BB033091BC0381E02F3F3F4F09F4A6
:1021F00080E00895EF92FF921F93CF93DF931F9299
:10220000CDB7DEB7182F7B0149838AD04981811170
:1022100004C04983DEDF4981F7CFB701812F0F90DA
:10222000DF91CF911F91FF90EF9047C1CF93C82FBF
:1022300087D08823B9F0CC23D9F383B7817FC3300B
:1022400021F0C23021F49CE003C094E001C090E092
:10225000892B83BF83B7816083BF889583B78E7FC7
:1022600083BFE6CFCF91089591E0811190E0892F4F
:102270006EC08627682F62956827062E669566953C
:102280006025062E669560256770082E892F669555
:1022900007946795902D8627069467959025862745
:1022A0000895E8982A988EBD0DB407FEFDCF8EB52F
:1022B0006EBD0DB407FEFDCF8EB52A9AE89A08953B
:1022C00060E0EFCF88E2FCDF807519F080E0F8DF96
:1022D000F9CF0895CF93C82F81E0F2DF682F637E96
:1022E0006C2B81E8CF91DDCF22E0660F771F881F2E
:1022F000991F2A95D1F729E03DE340E050E00AD547
:1023000066E0220F331F441F551F6A95D1F72093B3
:10231000C6033093C7034093C8035093C90308957D
:102320008091BF03853021F48091C003882311F090
:1023300080E0089584E08093BF03CCDF81E00895BE
:102340009091BF0381E094300CF080E008958823E1
:1023500011F080E001C084E0BDDF84E08093BF0322
:102360000895CF93DF932A9A229A2A9A84B18C6295
:1023700084B980E58CBD8DB581608DBD6AEA8FEA38
:1023800090DF8FE29DDF8A3AC9F765E58FEA89DF42
:102390008FE296DF8535C9F7C2ECD1E0FE0184916A
:1023A000882331F03196649180687BDF2296F6CFE6
:1023B0006091C50381EB75DF8091C6039091C703DF
:1023C000A091C803B091C903BD018827992787E868
:1023D00068DF8091C6039091C703A091C803B091B4
:1023E000C903692F7A2F8B2F992788E85ADF6091CC
:1023F000C60389E856DF84E08093BF03DF91CF9165
:102400000895CF93DF93EC018091BF03843019F0DE
:102410008530F9F047C0109275031092C0036091A7
:10242000C5038FEF9FEF25DF9093C3038093C20313
:10243000D093BE03C093BD0385E08093BF0342DF0A
:1024400060E885EA2EDF80E145DF62E08EE929DF82
:1024500029C0809175032091C00390E0049630E07C
:102460008217930724F08091C0038834D8F084E069
:102470008093BF032FDF809175038334B0F4809184
:10248000C2039091C303892B81F48091740386FF6A
:102490000FC09091C4039F3159F0809174038F71E4
:1024A000891731F08FEF9FEF05C081E090E002C007
:1024B00080E090E0DF91CF910895CF934093750332
:1024C000FB0120E030E050E02417350744F4D90147
:1024D000AA58BC4F91919C932F5F3F4FF5CF86FD3B
:1024E00004C0807E9091C403890F8093740360912F
:1024F000C5038FEF9FEFBDDE9093C3038093C203AC
:10250000909175038EEF891B8093BF03DBDE8CE017
:10251000E1DE60E085EAC5DE8091BF038330C4F56B
:1025200088E2CEDE87FDF8CF8091BF0387FF1AC017
:10253000909175038091BF03E091BD03F091BE03BC
:10254000E90FF11DE80FF11D87FDFA95C3816C2F8E
:102550008091C2039091C3038CDE9093C303809358
:10256000C2030DC08091BF03882329F0813031F46C
:10257000C091C30304C0C091C20301C0CAEA6C2F5A
:1025800080E88FDE8091BF038F5F8093BF03C4CF4D
:10259000CF910895CF938091BF03853009F04FC04C
:1025A00060E485EA7EDE84E28BDE8093C10378946A
:1025B000C8E488E285DE8075E1F38091C003811173
:1025C0000FC0E091BD03F091BE038091C00391E084
:1025D000980F9093C0039091C503E80FF11D90836D
:1025E00080E06EDEE091BD03F091BE039091C003E8
:1025F00021E0290F2093C003E90FF11D8083682F8C
:102600008091C2039091C30334DE9093C3038093FF
:10261000C20380917503833410F0C093C00380918E
:1026200075032091C00390E0049630E08217930771
:1026300094F08091C003883408F4BBCF0CC088E2CA
:102640003FDE83FF08C084E08093BF0343DE60E881
:1026500085EACF9126CECF9108950895FC018DE2B1
:1026600093E1928B818B768365831482108289E05B
:10267000818381E0828383830895FC0184810895AE
:10268000CF93DF93EB0167E0CE01B6DC91E02F81C1
:10269000821390E0892FDF91CF910895EF92FF92FE
:1026A0000F931F93CF93DF93EC018B01E42E8D8169
:1026B0009E81D7DBF12C41E0B8018D819E8104DC45
:1026C000882351F0FE1005C0B801CE01D9DF811179
:1026D00004C0F394EF1478F780E0DF91CF911F915D
:1026E0000F91FF90EF900895CF92DF92EF92FF92BB
:1026F0000F931F93CF93DF9300D0CDB7DEB76C015C
:10270000F42EE52EFC018581968169837A8391DA26
:1027100069817A818823F1F0F6018581968178DBE1
:1027200040E06EEBF6018581968116DB0F2D1E2DA4
:1027300089E0F82EF601858196814FDBF8018193BF
:102740008F01FA94B9F7F6018581968172DA91E0EA
:10275000813009F090E0892F0F900F90DF91CF9199
:102760001F910F91FF90EF90DF90CF900895CF933E
:10277000DF93EA01B9DF882349F068E0CE013CDC51
:1027800091E02885821390E0892F01C080E0DF91DD
:10279000CF910895EF92FF920F931F93CF93DF9302
:1027A000EC018B017A018D819E8143DAB8018D8124
:1027B0009E812EDB40E06EE48D819E81CDDA40E08B
:1027C000F70162818D819E81C7DA40E0F701638164
:1027D0008D819E81C1DAF8018081803131F040E045
:1027E000F70164818D819E81B7DA8D819E8121DA26
:1027F000B8018D819E810CDB488168E48D819E81CA
:10280000ABDA64E170E080E090E00E94B70A888172
:10281000882331F06AE070E080E090E00E94B70A1F
:102820008D819E81DF91CF911F910F91FF90EF904D
:1028300000CAEF92FF921F93CF93DF9300D0CDB7E2
:10284000DEB77C01FC018581968169837A83F1D9A9
:1028500069817A81F70185819681DADA40E064EB5B
:10286000F7018581968178DAF701858196814CDAC6
:10287000182FF70185819681DCD981E0111180E064
:102880000F900F90DF91CF911F91FF90EF900895DF
:10289000CF93DF93CDB7DEB729970FB6F894DEBF9D
:1028A0000FBECDBFFB0120812031C9F0AE014F5FCB
:1028B0005F4F5DDF882379F08D818F3351F020F4F5
:1028C0008F3149F489E00CC08F3539F08F3739F0FA
:1028D00002C08AE005C080E003C08BE001C08CE04C
:1028E00029960FB6F894DEBF0FBECDBFDF91CF9112
:1028F0000895FF920F931F93CF93DF93CDB7DEB769
:1029000028970FB6F894DEBF0FBECDBF8C01FC0137
:1029100085819681A6DAF801148241E0BE016F5FDD
:102920007F4FF80185819681CFDA882369F1BE0156
:102930006F5F7F4FC801A4DE882379F3F80180819F
:10294000811107C0BE016F5F7F4FC80172DF811127
:1029500017C0F801F180BE016F5F7F4FC80198DF9B
:102960008F1518F4F801818105C0BE016F5F7F4F9C
:10297000C8018EDFF801818384818F5F8483CDCF8E
:1029800081E0F8018083E5CF28960FB6F894DEBF8A
:102990000FBECDBFDF91CF911F910F91FF90089592
:1029A000DF92EF92FF920F931F93CF93DF93CDB7F8
:1029B000DEB762970FB6F894DEBF0FBECDBF8C01B5
:1029C0007B01D22E493028F0342F4D3018F03CE0F6
:1029D00001C039E0B701C8013A8B5ADF3A89831741
:1029E00009F458C0AE014F5F5F4FB701C8013A8B81
:1029F000BEDE3A89882309F44FC0F7018081803117
:102A000009F448C03B3041F03C3021F03A3031F419
:102A10008FE305C08FE703C08FE501C08FE18D8391
:102A2000AE014F5F5F4FB701C8013A8BB3DEF801CB
:102A300091813A89832F391708F4892FF80181830E
:102A4000D11028C0381730F53183E12CF12CF80172
:102A5000848190E0E816F906ECF44E2DBE01665F25
:102A60007F4FC8011BDEF801D180BE01665F7F4F3A
:102A7000C8010EDF8D1518F4F801818105C0BE0173
:102A8000665F7F4FC80104DFF8018183FFEFEF1A13
:102A9000FF0ADDCF81E001C080E062960FB6F894B6
:102AA000DEBF0FBECDBFDF91CF911F910F91FF9081
:102AB000EF90DF900895FC0162830895CF93DF9338
:102AC000CDB7DEB729970FB6F894DEBF0FBECDBFE6
:102AD000AE014F5F5F4F08DE81E09981911101C027
:102AE00080E029960FB6F894DEBF0FBECDBFDF9110
:102AF000CF9108958F929F92AF92BF92CF92DF9223
:102B0000EF92FF920F931F93CF93DF93EC018A0113
:102B10006950633048F4E62FF0E0EE0FFF1FEC5AE7
:102B2000FD4F8080918004C09EEE892E92E0992E08
:102B300001151105F9F08B818823E1F0888181115D
:102B400019C00E94880A6B017C01AA2497FCA094FA
:102B5000BA2CB801CE01B2DF81111FC00E94880AD1
:102B6000681979098A099B096C157D058E059F05F1
:102B7000A0F4EFCFB401882777FD8095982FDF91DF
:102B8000CF911F910F91FF90EF90DF90CF90BF906A
:102B9000AF909F908F900C94B70ADF91CF911F91C7
:102BA0000F91FF90EF90DF90CF90BF90AF909F90EC
:102BB0008F900895CF93DF93EC018D819E8139D85A
:102BC0008D819E814BD9488164E48D819E81C4D8DA
:102BD0008A81882339F040E050E06981CE01DF919D
:102BE000CF9188CFDF91CF910895FA01208148E0FD
:102BF000249F90011124818190E0982F8827990FBC
:102C0000990F990F282B392BDB018C918031B9F466
:102C1000678170E08681AB01481B5109CA01969516
:102C2000982F88279795879562D060517109207FEA
:102C300053E0220F331F5A95E1F7260F371FC901C2
:102C40000895EF92FF920F931F93CF93DF93CDB729
:102C5000DEB729970FB6F894DEBF0FBECDBF8C014B
:102C60007B01AE014F5F5F4F82DD882339F0AE01FB
:102C70004F5F5F4FB701C801B8DF02C080E894EE34
:102C800029960FB6F894DEBF0FBECDBFDF91CF916E
:102C90001F910F91FF90EF900895813824EE9207D5
:102CA0005CF0BC01882777FD8095982F78D120E0D3
:102CB00030E040E05CE327C260E070E08EEF92EC31
:102CC0000895BFDFEACFAA1BBB1B51E107C0AA1FB3
:102CD000BB1FA617B70710F0A61BB70B881F991FBD
:102CE0005A95A9F780959095BC01CD01089597FB61
:102CF000072E16F4009406D077FD08D0E4DF07FC19
:102D000005D03EF4909581959F4F089570956195FB
:102D10007F4F0895A1E21A2EAA1BBB1BFD010DC017
:102D2000AA1FBB1FEE1FFF1FA217B307E407F5077B
:102D300020F0A21BB30BE40BF50B661F771F881F57
:102D4000991F1A9469F760957095809590959B01ED
:102D5000AC01BD01CF010895A29FB001B39FC00196
:102D6000A39F700D811D1124911DB29F700D811DB7
:102D70001124911D0895F0DFA59F900DB49F900D33
:102D8000A49F800D911D11240895EE0FFF1F059043
:102D9000F491E02D09945058BB27AA270ED075C195
:102DA00066D130F06BD120F031F49F3F11F41EF466
:102DB0005BC10EF4E095E7FB51C1E92F77D180F3B9
:102DC000BA17620773078407950718F071F49EF528
:102DD0008FC10EF4E0950B2EBA2FA02D0B01B90177
:102DE00090010C01CA01A0011124FF27591B99F081
:102DF000593F50F4503E68F11A16F040A22F232F8D
:102E0000342F4427585FF3CF469537952795A795DC
:102E1000F0405395C9F77EF41F16BA0B620B730B83
:102E2000840BBAF09150A1F0FF0FBB1F661F771FF4
:102E3000881FC2F70EC0BA0F621F731F841F48F4A9
:102E4000879577956795B795F7959E3F08F0B3CF2F
:102E50009395880F08F09927EE0F97958795089519
:102E6000D9D008F481E008950CD00FC107D140F00B
:102E7000FED030F021F45F3F19F0F0C0511139C19C
:102E8000F3C014D198F39923C9F35523B1F3951BDB
:102E9000550BBB27AA2762177307840738F09F5F7B
:102EA0005F4F220F331F441FAA1FA9F333D00E2EEA
:102EB0003AF0E0E830D091505040E695001CCAF757
:102EC00029D0FE2F27D0660F771F881FBB1F26171C
:102ED00037074807AB07B0E809F0BB0B802DBF01EF
:102EE000FF2793585F4F2AF09E3F510568F0B6C008
:102EF00000C15F3FECF3983EDCF3869577956795CC
:102F0000B795F7959F5FC9F7880F911D969587959F
:102F100097F90895E1E0660F771F881FBB1F6217BE
:102F200073078407BA0720F0621B730B840BBA0B7C
:102F3000EE1F88F7E095089504D06894B111D9C0C8
:102F40000895BCD088F09F5790F0B92F9927B751BA
:102F5000A0F0D1F0660F771F881F991F1AF0BA955D
:102F6000C9F712C0B13081F0C3D0B1E00895C0C03C
:102F7000672F782F8827B85F39F0B93FCCF3869553
:102F800077956795B395D9F73EF4909580957095B0
:102F900061957F4F8F4F9F4F0895E89409C097FB2D
:102FA0003EF490958095709561957F4F8F4F9F4F20
:102FB0009923A9F0F92F96E9BB279395F695879564
:102FC00077956795B795F111F8CFFAF4BB0F11F427
:102FD00060FF1BC06F5F7F4F8F4F9F4F16C08823CE
:102FE00011F096E911C0772321F09EE8872F762F04
:102FF00005C0662371F096E8862F70E060E02AF045
:103000009A95660F771F881FDAF7880F9695879530
:1030100097F90895990F0008550FAA0BE0E8FEEF05
:1030200016161706E807F907C0F012161306E4078C
:10303000F50798F0621B730B840B950B39F40A2685
:1030400061F0232B242B252B21F408950A2609F463
:10305000A140A6958FEF811D811D089597F99F6767
:1030600080E870E060E008959FEF80EC0895002410
:103070000A941616170618060906089500240A94DD
:1030800012161306140605060895092E0394000C63
:1030900011F4882352F0BB0F40F4BF2B11F460FFF2
:1030A00004C06F5F7F4F8F4F9F4F089557FD90581B
:1030B000440F551F59F05F3F71F04795880F97FBFC
:1030C000991F61F09F3F79F08795089512161306B6
:1030D0001406551FF2CF4695F1DF08C016161706E5
:1030E0001806991FF1CF869571056105089408951A
:1030F000E894BB2766277727CB0197F908958ADFE5
:1031000008F48FEF08950BD0C0CFB1DF28F0B6DF01
:1031100018F0952309F0A2CFA7CF1124EACFC6DF7C
:10312000A0F3959FD1F3950F50E0551F629FF001DA
:10313000729FBB27F00DB11D639FAA27F00DB11D33
:10314000AA1F649F6627B00DA11D661F829F2227BC
:10315000B00DA11D621F739FB00DA11D621F839F43
:10316000A00D611D221F749F3327A00D611D231F19
:10317000849F600D211D822F762F6A2F11249F5767
:1031800050408AF0E1F088234AF0EE0FFF1FBB1F8A
:10319000661F771F881F91505040A9F79E3F510529
:1031A00070F05CCFA6CF5F3FECF3983EDCF38695E2
:1031B00077956795B795F795E7959F5FC1F7FE2BD4
:1031C000880F911D9695879597F9089523DF880BB1
:0831D000990B0895F894FFCF5C
:1031D8000000CA038000170001B109B109014F704E
:1031E800656E456E657267794D6F6E69746F722E84
:1031F8006F726700656D6F6E5448202D20466972A6
:103208006D7761726520560052464D363943572016
:10321800496E69743E20004E6F64653A200020466E
:103228007265713A20003433334D687A00204E6558
:1032380074776F726B3A20004E6F204448543232D4
:1032480000446574656374656420444854323200F0
:103258004E6F204453313842323000446574656300
:1032680074656420004453313842323020262044AB
:103278004854323220666F756E642C206173737502
:103288006D652044533138423230206973206578A7
:103298007465726E616C0044533138423230205488
:1032A800656D70657261747572653A2000432C20F3
:1032B8000044485432322054656D706572617475EB
:1032C80072653A2000432C20444854323220487515
:1032D8006D69646974793A2000252C200042617474
:1032E8007465727920766F6C746167653A20005650
:1032F8002C2050756C736520636F756E743A2000CE
:10330800000000003A06A307BE05D705C90519063F
:103318000D0A006E616E00696E66006F7666002E9B
:0A332800002B565A5E00BC0077012E
:00000001FF
