:100000000C94E3000C9425120C9452120C940B01E6
:100010000C940B010C940B010C9424010C940B0117
:100020000C940B010C940B010C940B010C940B0120
:100030000C940B010C940B010C940B010C940B0110
:100040000C9430100C940B010C947F120C94B11290
:100050000C940B010C940B010C940B010C940B01F0
:100060000C940B010C940B01005EBCE2613FDD833C
:10007000C29C7E20A3FD1F419DC3217FFCA2401E88
:100080005F01E3BD3E6082DC237D9FC1421CFEA078
:10009000E1BF5D0380DE3C62BEE0025CDF81633D68
:1000A0007C22C09E1D43A1FF4618FAA427799BC558
:1000B00084DA3866E5BB5907DB856739BAE4065848
:1000C0001947A5FB7826C49A653BD987045AB8E638
:1000D000A7F91B45C6987A24F8A6441A99C7257B28
:1000E0003A6486D85B05E7B98CD2306EEDB3510F18
:1000F0004E10F2AC2F7193CD114FADF3702ECC9208
:10010000D38D6F31B2EC0E50AFF1134DCE90722CF7
:100110006D33D18F0C52B0EE326C8ED0530DEFB1E7
:10012000F0AE4C1291CF2D73CA947628ABF51749D7
:100130000856B4EA6937D58B5709EBB536688AD4C7
:1001400095CB2977F4AA4816E9B7550B88D6346AB7
:100150002B7597C94A14F6A8742AC896154BA9F7A7
:10016000B6E80A54D7896B35000000080002010088
:100170000003040700000000000000000102040862
:100180001020408001020408102001020408102001
:10019000040404040404040402020202020203032D
:1001A00003030303000000002300260029000000D1
:1001B0000000250028002B0000000000240027007C
:1001C0002A00C505E11211241FBECFEFD8E0DEBF23
:1001D000CDBF12E0A0E0B1E0EEE0F2E302C0059096
:1001E0000D92A435B107D9F723E0A4E5B2E001C030
:1001F0001D92A23CB207E1F711E0C6ECD1E004C0C9
:100200002297FE010E94F818C23CD107C9F70E944C
:1002100061150C9405190C94000081E0809358023C
:1002200080915D0290915E02A0915F02B0916002A8
:100230000196A11DB11D80935D0290935E02A09373
:100240005F02B093600208951F920F920FB60F9253
:1002500011242F933F934F935F936F937F938F93CB
:100260009F93AF93BF93EF93FF930E946406FF9118
:10027000EF91BF91AF919F918F917F916F915F911E
:100280004F913F912F910F900FBE0F901F90189597
:10029000BF92CF92DF92EF92FF920F931F93CF9373
:1002A000DF932AE7E22EF12CF701B0800BE710E094
:1002B000F801C080CCE7D0E0D8800E940F06F7019B
:1002C000B082F801C082D882DF91CF911F910F9147
:1002D000FF90EF90DF90CF90BF9008958F929F9204
:1002E000AF92BF92CF92DF92EF92FF920F931F9344
:1002F000CF93DF9361E089E00E943F1161E089E0E4
:100300000E94781162E087E00E943F1162E088E07D
:100310000E943F1187E00E94AE1101E0892B09F491
:1003200000E088E00E94AE1111E0892B09F410E092
:10033000011109C08091060190910701112309F470
:10034000E2C1019607C0111109C080910601909188
:1003500007010296909307018093060120E436E09E
:1003600042ED61E0809106010E94AB08CAE0D0E056
:10037000D0938402C09383024CE063E872E080E093
:100380000E94700864E670E080E090E00E94A9108E
:10039000219770F782E00E948F08109284021092D9
:1003A000830280E00E94280980910801882309F4D3
:1003B00065C026E040E855E260E070E085E293E049
:1003C0000E945316602F70E04AE050E085E293E00F
:1003D0000E943414612F70E04AE050E085E293E01F
:1003E0000E943C146BE071E085E293E00E947F1371
:1003F00061E271E085E293E00E94621322E030E066
:1004000047E656E666E270E485E293E00E944E1508
:1004100065E371E085E293E00E947F1363E471E09D
:1004200085E293E00E9462136091060170910701DA
:100430004AE050E085E293E00E9434146AE471E0FF
:1004400085E293E00E94621362E571E085E293E049
:100450000E94621369E571E085E293E00E946213F5
:100460004AE050E062ED70E085E293E00E943C14C7
:1004700064E670E080E090E00E94A91061E086E010
:100480000E943F1161E085E00E943F1160E081E041
:100490000E943F1160E086E00E94781162E083E0F4
:1004A0000E943F1180B7806880BF80910801811150
:1004B00005C0809164008260809364008091640034
:1004C00080688093640080916400886080936400F9
:1004D0008091640084608093640061E086E00E9403
:1004E000781180ED97E00E94480182EB92E00E9433
:1004F000AB0E82EB92E00E94E50F6B017C0160E0A5
:1005000082EB92E00E946B0F4B015C0160E086E0A1
:100510000E947811A5019401C501B4010E94D01870
:10052000811109C0A7019601C701B6010E94D01828
:10053000882309F45DC08CED95E00E940F0682EBE4
:1005400092E00E94E50F6B017C0160E082EB92E09B
:100550000E946B0F9B01AC010E94D018811108C052
:10056000A7019601C701B6010E94D018882361F047
:1005700080910801882331F064E671E085E293E020
:100580000E947F131092B10261E085E00E94781111
:1005900062E370E080E090E00E94A91080E992E0C0
:1005A0000E94DB0C60E080E992E00E94430D80E94C
:1005B00092E00E94540B90E090938202809381021B
:1005C000C0E06C2F70E080918102909182026817E8
:1005D0007907E4F433E0660F771F3A95E1F76F5936
:1005E0007D4F83EA92E00E94A00A81118AC00EC06A
:1005F00081E08093B10280910801882329F26DE6A1
:1006000071E085E293E00E947F13BECF60E085E059
:100610000E947811809181029091820220910801BC
:10062000892B59F4222331F06CE771E085E293E0E5
:100630000E947F1310928F0225C081E080938F0269
:10064000222301F167E871E085E293E00E946213E2
:1006500060918102709182024AE050E085E293E06D
:100660000E9434146EE771E085E293E00E947F13EC
:100670008091B102882331F061E971E085E293E075
:100680000E947F1380910801882331F068EC70E0AC
:1006900080E090E00E94A91060E089E00E9478115B
:1006A00010928B0210928C0210928D0210928E0288
:1006B00010925D0210925E0210925F021092600230
:1006C00080ED92E0A0E0B0E08093590290935A024E
:1006D000A0935B02B0935C021092580243E050E09A
:1006E0006DE071E081E0DF91CF911F910F91FF905C
:1006F000EF90DF90CF90BF90AF909F908F900C9431
:10070000F511CF5F5ECF039625CECF92DF92EF92A9
:10071000FF92CF93DF9380915802882331F082E3D8
:1007200090E00E940F061092580280E590E00E942F
:100730000F06813099F48091590290915A02A0914C
:100740005B02B0915C020196A11DB11D809359021C
:1007500090935A02A0935B02B0935C02809159027D
:1007600090915A02A0915B02B0915C02823B924050
:10077000A105B10570F480915D0290915E02A09197
:100780005F02B091600284369105A105B10508F4BD
:10079000F5C1F89480915D0290915E02A0915F0294
:1007A000B0916002AA27BB2740918B0250918C0226
:1007B00060918D0270918E02840F951FA61FB71F46
:1007C00080938B0290938C02A0938D02B0938E0243
:1007D00010925D0210925E0210925F02109260020F
:1007E000789480918F02882309F458C061E085E0F5
:1007F0000E94781182E390E00E944801C1E6D2E0B5
:10080000E12CF12C8091810290918202E816F90688
:100810005CF44BE0BE0180E992E00E94650C8FEF32
:10082000E81AF80A2896EECF80E992E00E94B00D0F
:1008300087E791E00E94480161E672E080E992E07A
:100840000E94740E6B017C0160E085E00E947811CB
:1008500020E030E04AEF52E4C701B6010E941A17C7
:1008600087FF1CC020E030E040E252ECC701B60137
:100870000E946918181694F48091B10220E030E0CB
:1008800040E251E481116FC1C701B6010E946D18A9
:100890000E94861770938402609383028091B10254
:1008A000882309F443C061E086E00E94781180ED5E
:1008B00097E00E94480182EB92E00E94E50F20E061
:1008C00030E040E251E40E946D180E948617709358
:1008D00088026093870260E082EB92E00E946B0FD7
:1008E0006B017C0120E030E04AEA52E40E941A17D2
:1008F00087FF18C020E030E040E252ECC701B601AB
:100900000E946918181674F420E030E040E251E4C7
:10091000C701B6010E946D180E9486177093840269
:100920006093830260E086E00E94781181E00E947B
:10093000D711BC01882777FD8095982F0E94B917A1
:1009400027E031E244E05DE30E946D180E948617C3
:1009500070938A026093890280910801882309F4C8
:10096000D8C080918F02882309F444C063EC71E001
:1009700085E293E00E9462138091B1028823C1F066
:100980006091850270918602882777FD8095982F67
:100990000E94B91720E030E040E251E40E941E17A7
:1009A000AB01BC0122E030E085E293E00E944C15EF
:1009B0008091B102811118C060918302709184020C
:1009C000882777FD8095982F0E94B91720E030E0A6
:1009D00040E251E40E941E17AB01BC0122E030E06E
:1009E00085E293E00E944C1569ED71E085E293E0A9
:1009F0000E9462138091B102882309F442C06DED18
:100A000071E085E293E00E9462136091830270912D
:100A10008402882777FD8095982F0E94B91720E0DF
:100A200030E040E251E40E941E17AB01BC0122E01D
:100A300030E085E293E00E944C1561EF71E085E2C1
:100A400093E00E9462136091870270918802882768
:100A500077FD8095982F0E94B91720E030E040E2A2
:100A600051E40E941E17AB01BC0122E030E085E298
:100A700093E00E944C1565E072E085E293E00E94ED
:100A8000621369E072E085E293E00E946213609174
:100A9000890270918A02882777FD8095982F0E949D
:100AA000B91720E030E040E251E40E941E17AB018C
:100AB000BC0122E030E085E293E00E944C156BE13E
:100AC00072E085E293E00E94621340918B025091A4
:100AD0008C0260918D0270918E022AE030E085E2F6
:100AE00093E00E94541468E372E085E293E00E9470
:100AF0007F130E947A106093540270935502809382
:100B000056029093570264E670E080E090E00E9405
:100B1000A910809164008B7F809364008FEF0E9406
:100B2000280984E690E00E9448014CE063E872E006
:100B300080E00E94700882E00E948F0880E00E949E
:100B4000280984E690E00E94480180916400846056
:100B5000809364001092590210925A0210925B0224
:100B600010925C020BC0C701B6010E946D180E9472
:100B70008617709386026093850290CEDF91CF91A5
:100B8000FF90EF90DF90CF90089526E046E162E17C
:100B900082EB92E00E94A40E63E183EA92E00E945D
:100BA0007D0A63EA72E080E992E00C94450B83FFD2
:100BB00002C098E2892787FD06C08064909160009A
:100BC0009093C00202C08091C00294B7977F94BFF7
:100BD000F894909160009861909360008093600019
:100BE00078940895EAE7F0E0908180818F778083A0
:100BF00083B7817F846083BFF89483B7816083BFAC
:100C000085B7806685BF85B78F79806485BF789406
:100C1000889583B78E7F83BF90937A000895DF9283
:100C2000EF92FF920F931F93CF93DF938C01EC0110
:100C300028E0E22EF12CC031D10538F19E01D12CF3
:100C40002032310538F0D39489E0D81619F0369562
:100C50002795F6CF1092C1028D2D0E94D7050E94D4
:100C6000F2058FEF0E94D705C70102C0880F991FB8
:100C7000DA94E2F7C81BD90B2091C102222319F0A4
:100C8000C81BD90BD8CF80E001C081E04091190387
:100C900050911A0360911B0370911C030C1B1D0BD8
:100CA000400F511F611D711D4093190350931A038A
:100CB00060931B0370931C03DF91CF911F910F91E1
:100CC000FF90EF90DF9008958091C1028F5F809335
:100CD000C10208958627682F62956827062E6695BB
:100CE00066956025062E669560256770082E892F0B
:100CF000669507946795902D8627069467959025AD
:100D0000862708952CB521602CBD25B141E050E027
:100D100060E070E00090090104C0440F551F661F99
:100D2000771F0A94D2F74095422345B99EBD0DB472
:100D300007FEFDCF2EB530E0322F22278EBD0DB439
:100D400007FEFDCF9EB585B141E050E060E070E068
:100D50000090090104C0440F551F661F771F0A94B5
:100D6000D2F7842B85B98CB58E7F8CBDA901492B18
:100D7000CA010895CF9380E090E00E94820680919E
:100D80001203853091F580E090EB0E948206682F77
:100D900080911303811104C090911603911175C0C5
:100DA000E091130381E08E0F80931303F0E0E7538B
:100DB000FD4F608380911003909111030E946A0699
:100DC00090931103809310038091CB022091130321
:100DD00090E0049630E0821793070CF461C0809194
:100DE0001303873408F05CC060C08091120387FF52
:100DF0001AC0E091CB028091120391E0980F90937A
:100E00001203ED5FE80FF0E0E753FD4FC0818091E2
:100E10001003909111036C2F0E946A0690931103A6
:100E2000809310032EC080911203833001F154F49B
:100E30008823B9F08130F9F4809110039091110367
:100E4000C92F1AC0893059F08A30A9F4C09116030D
:100E50009091CB028DEF891B809312030DC0CDE2E0
:100E60000BC08091100390911103C82F05C08DE035
:100E700092E80E948206CAEA809112038F5F8093F3
:100E800012038C2F90E098540DC0E091130381E081
:100E90008E0F80931303F0E0E753FD4F908380CFD4
:100EA0008DE092E8CF910C948206CF91089525B100
:100EB00081E090E0A0E0B0E0AC01BD01009009014C
:100EC00004C0440F551F661F771F0A94D2F7242BC6
:100ED00025B924B10090090104C0880F991FAA1FE9
:100EE000BB1F0A94D2F7282B24B961E08AE00E9444
:100EF000781161E08AE00E943F1161E08BE00E947E
:100F00003F1160E08CE00E943F1161E08DE00E94A3
:100F10003F1180E58CBD8DB581608DBD60E082E0C4
:100F20000E943F1161E082E00C947811E8980E94E1
:100F30008206E89A089580911203853091F5809198
:100F4000CB022091130390E0049630E082179307C0
:100F500024F080911303873420F184E080931203FE
:100F600080911003909111039093110380931003CB
:100F70008091CB02833430F081E090E090931103B4
:100F8000809310038091CA0286FF3EC090911703A0
:100F9000892F8F718F31C1F18091CA0289278F719A
:100FA00099F180911203843069F58091C4028823FD
:100FB00051F08093CB021092CA021092C90283E0D2
:100FC0008093130304C01092CB02109213038FEF8F
:100FD0009FEF909311038093100360911603662393
:100FE00051F080911003909111030E946A06909332
:100FF00011038093100385E0809312038DED92E836
:101000000E94820680E00895809110039091110360
:10101000892B49F4E091C202F091C302309719F094
:1010200080E009950BC08FEF9FEFDC018093C50234
:101030009093C602A093C702B093C80281E00895BE
:1010400080911203853099F48091130381110FC0B0
:1010500080E090E00E94960790FD09C08DE092E844
:101060000E94960784E08093120381E0089580E057
:10107000089586FD05C0807E909117039F71890FAA
:101080008093CA02E091C202F091C302309711F03E
:1010900081E009958FEF9FEF9093110380931003E8
:1010A0008091100390911103609116030E946A06CB
:1010B000909311038093100386E0809312038DE3D5
:1010C00092E80C948206CF93C82F4093CB0250E055
:1010D0008CEC92E00E94FC188C2FCF910C94390874
:1010E000EF92FF921F93CF93DF931F92CDB7DEB79E
:1010F000182F7B0149830E9420084981811105C076
:1011000049830E949B074981F5CFB701812F0F903A
:10111000DF91CF911F91FF90EF900C946308909115
:1011200012039430B9F08823D1F393B7917F8330C1
:1011300021F0823021F42CE003C024E001C020E043
:10114000922B93BF93B7916093BF889593B79E7F7F
:1011500093BFE5CF0895CF93C62F80931703409395
:10116000160330931503209314030E94570780E061
:1011700090E00E94820685E092E80E94820680E06C
:1011800098EB0E94820682E00E94AE11892B19F42E
:1011900080E090E0F6CF20E1C29FC0011124876C6F
:1011A00090680E94820680911403909115039056D6
:1011B0000E94820686E096EC0E94820682EA94E90A
:1011C0000E9482068CEA92EC0E948206C09116036D
:1011D000CC2341F083E89AEC0E9482068C2F90E0A9
:1011E0009E6C06C08BE89AEC0E9482068DE29EEC13
:1011F0000E94820683E894EC0E94820680E598E9CA
:101200000E94820687E79CEC0E94820680E090EEB6
:101210000E94820680E098EC0E94820689E490ECAD
:101220000E94820684E080931203809117038F71DD
:1012300041F040E050E06AEB76E080E00E94F5117A
:1012400003C080E00E94151280911703CF9108958A
:10125000CF93C82F87FF03C08DE092E80EC0992777
:1012600087FD9095956E0E94960785E092E80E9412
:101270009607CC2321F087E092E80E94960784E04D
:1012800080931203CF910895FF920F931F93CF93F2
:10129000DF93FC010081C181D281F8948981F02E15
:1012A000F0948F21898378941DE7115029F182E011
:1012B00090E00E94D11088818023B9F3F8948A814C
:1012C0008F218A838981802B8983789480EE91E0B5
:1012D0000E94D110F89489818F21898386E490E05F
:1012E0000E94D1108881802311E009F010E07894E9
:1012F0008AE991E00E94D110812FDF91CF911F9157
:101300000F91FF9008951F93CF93DF93FC011081FD
:10131000C181D281912F909560FF12C0F8948A818B
:1013200089238A838981812B89838AE090E00E94C6
:10133000D1108A81812B8A83789487E390E011C051
:10134000F8948A8189238A838981812B898381E426
:1013500090E00E94D1108A81812B8A83789485E065
:1013600090E0DF91CF911F910C94D1100F931F93B8
:10137000CF93DF93FC011081C181D281F8948981E0
:10138000812B89838A81012F009580238A8383E0C2
:1013900090E00E94D1108981802389838AE090E0C7
:1013A0000E94D110C881789485E390E00E94D1100A
:1013B0001C2381E009F480E0DF91CF911F910F9110
:1013C0000895CF92DF92EF92FF920F931F93CF93E6
:1013D000DF931F92CDB7DEB76C01E62E08E010E078
:1013E000FF24F39461E09F2D9E2109F460E0C60183
:1013F00049830E948309FF0C01501109498101159D
:10140000110581F7411115C0F894D6011196ED919F
:10141000FC91129791818C918095892381831196FB
:10142000ED91FC91129792818C9180958923828312
:1014300078940F90DF91CF911F910F91FF90EF90D3
:10144000DF90CF900895EF92FF920F931F93CF9369
:10145000DF938C01C8E0D0E0F12CEE24E394C801C6
:101460000E94B6098111FE28EE0C2197C1F78F2D3D
:10147000DF91CF911F910F91FF90EF900895CF9240
:10148000DF92FF920F931F93CF93DF931F92CDB7FD
:10149000DEB78C01F62E40E065E579830E94E10914
:1014A000CF2C7981D72E88E0F82EF60161916F015B
:1014B00040E0C8010E94E109FA94B9F70F90DF916A
:1014C000CF911F910F91FF90DF90CF90089540E052
:1014D0006CEC0C94E109FC0113861586148627E058
:1014E00030E0DF01A20FB31F13961C9221153105C6
:1014F00019F021503109F5CF08951F93CF93DF9351
:10150000EC01162F60E0812F0E943F11612F70E0E7
:10151000FB01E458FE4FE491E883FB01E057FE4FE6
:10152000E491F0E0EE0FFF1FEC55FE4F8591949192
:101530009A838983CE01DF91CF911F910C946B0A1E
:10154000AF92BF92CF92DF92EF92FF920F931F93D1
:10155000CF93DF931F92CDB7DEB75C01E62ED72E77
:10156000FC01858581115DC0C5010E94440981117E
:1015700005C0F5011386158614866EC040E060EF45
:10158000C5010E94E10901E0F12CC12C11E0C50167
:101590000E94B609682FC50169830E94B609698156
:1015A000613019F48130B9F433C02F2D30E0681365
:1015B0001BC0F5018385181730F4E20FF31F8381F8
:1015C000802349F402C0181731F060E0193058F454
:1015D000F501148708C0F501EF0DF11D8381802B03
:1015E000838361E009C0C12EF501E20FF31F8381FF
:1015F000902F909589238383C5010E9483091F5FE3
:10160000000F11F4F39401E0F7E0FF1508F0BFCFED
:10161000113438F0F501C386C11018C081E0858708
:1016200015C0F50113861586148680E0EE2DFD2D7C
:1016300020E030E0D501A20FB31F13969C91919347
:101640002F5F3F4F28303105A9F706C0F501838190
:10165000882339F381E0EACF0F90DF91CF911F917A
:101660000F91FF90EF90DF90CF90BF90AF900895D3
:10167000DC0180E0615038F0ED91E827F0E0E859B6
:10168000FF4F8491F7CF08950895FC0184E49BE017
:10169000928B818B768365831482108289E08183AB
:1016A00081E0828383830895FC0184810895CF9330
:1016B000DF93EB0167E0CE010E94380B91E02F81B0
:1016C000821390E0892FDF91CF910895EF92FF92DE
:1016D0000F931F93CF93DF9300D0CDB7DEB77C017C
:1016E0008A01FC018581968169837A830E9444097D
:1016F00069817A81F701858196810E943F0A40E0E5
:101700006EEBF701858196810E94E109F7018581E1
:1017100096810E94230AF8018083F70185819681D2
:101720000E94230AF8018183F701858196810E9436
:10173000230AF8018283F701858196810E94230A9A
:10174000F8018383F701858196810E94230AF801BD
:101750008483F701858196810E94230AF80185839D
:10176000F701858196810E94230AF8018683F7019B
:10177000858196810E94230AF8018783F70185817C
:1017800096810E94230AF8018087F701858196815E
:101790000F900F90DF91CF911F910F91FF90EF90DD
:1017A0000C944409CF93DF93EA010E94660B68E032
:1017B000CE010E94380B91E02885821390E0892F9A
:1017C000DF91CF910895EF92FF920F931F93CF93E4
:1017D000DF93EC017B018A018D819E810E94440987
:1017E000B7018D819E810E943F0A40E06EE48D81A9
:1017F0009E810E94E10940E0F80162818D819E8115
:101800000E94E10940E0F80163818D819E810E9480
:10181000E109F7018081803139F040E0F80164810D
:101820008D819E810E94E1098D819E810E944409E3
:10183000488168E48D819E810E94E1098881882326
:1018400031F06AE070E080E090E00E94A9108D81A4
:101850009E81DF91CF911F910F91FF90EF900C949B
:101860004409EF92FF921F93CF93DF9300D0CDB73F
:10187000DEB77C01FC018581968169837A830E94B1
:10188000440969817A81F701858196810E943F0A26
:1018900040E064EBF701858196810E94E109F70140
:1018A000858196810E94B609182FF701858196815E
:1018B0000E94440981E0111180E00F900F90DF91A8
:1018C000CF911F91FF90EF900895EF92FF920F93A9
:1018D0001F93CF93DF93CDB7DEB72A970FB6F89457
:1018E000DEBF0FBECDBF7C018B01242FAE014F5F49
:1018F0005F4F2A870E94D20B2A858823D1F0F801F6
:1019000080818031C1F02B3041F02C3021F02A3021
:1019100031F48FE305C08FE703C08FE501C08FE18D
:101920008D83AE014F5F5F4FB801C7010E94E30B8B
:1019300002C080E001C081E02A960FB6F894DEBFB5
:101940000FBECDBFDF91CF911F910F91FF90EF9010
:101950000895CF93DF93CDB7DEB729970FB6F894EC
:10196000DEBF0FBECDBFFB0120812031D1F0AE0123
:101970004F5F5F4F0E94D20B882379F08D818F33A8
:1019800051F018F48F3169F008C08F3541F08F376E
:1019900021F48CE007C08AE005C080E003C08BE042
:1019A00001C089E029960FB6F894DEBF0FBECDBF07
:1019B000DF91CF910895EF92FF920F931F93CF93F2
:1019C000DF93CDB7DEB761970FB6F894DEBF0FBED9
:1019D000CDBF8C01FC01858196810E946B0AF801C4
:1019E0001482FF24F394BE01665F7F4FF801858166
:1019F00096810E94A00A8823C9F1BE01665F7F4FCD
:101A0000C8010E94570B882371F3F801808181116E
:101A100008C0BE01665F7F4FC8010E94310C811172
:101A200022C0AE014F5F5F4FBE01665F7F4FC801AE
:101A30000E94660BF801E180BE01665F7F4FC8011E
:101A40000E94A90C8E1518F4F801818106C0BE0110
:101A5000665F7F4FC8010E94A90CF80181838481D1
:101A60008F5F8483C0CFF801F082DBCF61960FB621
:101A7000F894DEBF0FBECDBFDF91CF911F910F91C4
:101A8000FF90EF900895FC0162830895CF93DF9358
:101A9000CDB7DEB729970FB6F894DEBF0FBECDBF26
:101AA000AE014F5F5F4F0E94660B81E099819111FB
:101AB00001C080E029960FB6F894DEBF0FBECDBFFF
:101AC000DF91CF910895CF92DF92EF92FF920F9323
:101AD0001F93CF93DF93EC018B01452BE1F08B81BA
:101AE0008823C9F08881811116C00E947A106B0189
:101AF0007C0160E070E0CE010E94460D81110BC0B8
:101B00000E947A106C197D098E099F096E3E724001
:101B10008105910570F3F80180818A3049F08B309E
:101B200061F0893079F46EE570E080E090E00EC0FD
:101B30006CEB70E080E090E009C067E771E080E066
:101B400090E004C06EEE72E080E090E0DF91CF9113
:101B50001F910F91FF90EF90DF90CF900C94A91000
:101B6000CF93DF93EC018D819E810E9444098D818A
:101B70009E810E94670A488164E48D819E810E9453
:101B8000E1098A81882351F0BE016F5F7F4F40E0F9
:101B900050E0CE01DF91CF910C94630DDF91CF9196
:101BA00008958F929F92AF92BF92CF92DF92EF9261
:101BB000FF921F93CF93DF93FB01EA01698170E0ED
:101BC000762F66278881682B80818232B1F1883236
:101BD000A1F1803109F078C01F817595679588273C
:101BE00077FD8095982F0E94B91720E030E040E8FB
:101BF0005EE30E94B5166B017C01612F70E08E815F
:101C0000681B7109882777FD8095982F0E94B91766
:101C10004B015C01612F70E080E090E00E94B717FB
:101C20009B01AC01C501B4010E941E179B01AC01D0
:101C3000C701B6010E94B61643C08C818F3381F173
:101C400098F48F3109F040C093E0759567959A95A7
:101C5000E1F7882777FD8095982F0E94B91720E03B
:101C600030E040E05FE32AC08F3569F08F3761F5DF
:101C7000882777FD8095982F0E94B91720E030E0E3
:101C800040E85DE31BC075956795882777FD8095D3
:101C9000982F0E94B91720E030E040E05EE30EC0CC
:101CA0007595679575956795882777FD8095982F29
:101CB0000E94B91720E030E040E85EE30E946D1812
:101CC000562F472F382F292F652F742F832F922FB0
:101CD000DF91CF911F91FF90EF90DF90CF90BF9059
:101CE000AF909F908F900895EF92FF920F931F9364
:101CF000CF93DF93CDB7DEB729970FB6F894DEBF49
:101D00000FBECDBF8C017B01AE014F5F5F4F0E94C4
:101D1000D20B882341F0AE014F5F5F4FB701C8017E
:101D20000E94D10D04C060E070E08EEF92EC299625
:101D30000FB6F894DEBF0FBECDBFDF91CF911F91DC
:101D40000F91FF90EF900895FC01668347832087F1
:101D500081E085870895CF93DF93EC0160E08E8169
:101D60000E943F1161E08E810E94781119861A86C7
:101D70001B861C86DF91CF910895DF92EF92FF9230
:101D80000F931F93CF93DF93EC0161E08E810E944C
:101D900078116AEF70E080E090E00E94A9100E9444
:101DA0007A1009851A852B853C8560177107820793
:101DB000930720F419861A861B861C862D8521110F
:101DC00011C009851A852B853C85DC01CB01801B60
:101DD000910BA20BB30B803D9740A105B10510F408
:101DE00081E071C01D860E947A1069877A878B878F
:101DF0009C871C821B821A821982188261E08E8164
:101E00000E943F1160E08E810E94781164E170E0D1
:101E100080E090E00E94A910F89461E08E810E9419
:101E2000781188E290E00E94D11060E08E810E94DB
:101E30003F11F12CD12C81E0E12C082F10E08E8194
:101E40000E94AE118017910741F4E39481E090E085
:101E50000E94D1108FEFE812F2CF8E810E94AE1156
:101E60009FEFE916C9F023E02F1590F4F0FC10C0A5
:101E70009D2D969596959695FE01E90FF11D908101
:101E8000990F908328852E1510F491609083D39438
:101E9000F39495E5F912D0CF789427E22D1590F4BC
:101EA0002C8130E04881898190E0840F911D4A8126
:101EB000840F911D4B81840F911D99272817390795
:101EC00009F48ECF80E0DF91CF911F910F91FF90A9
:101ED000EF90DF900895CF92DF92EF92FF920F93F1
:101EE0001F93CF93DF93EC01162F0E94BD0E882322
:101EF00009F450C08F818B3031F008F44BC085510C
:101F0000823078F047C06A8170E080E090E00E9403
:101F1000B717112309F449C020E030E040E151E453
:101F20002AC00A81602F6F7770E080E090E00E9405
:101F3000B91720E030E040E853E40E946D186B01CF
:101F40007C016B8170E080E090E00E94B9179B01FA
:101F5000AC01C701B6010E94B61620E030E040E2B5
:101F600051E40E941E1707FD9058112309F120E04B
:101F700030E040E151E40E946D1820E030E040EA9A
:101F800050E40E941E1720E030E040E052E40E943E
:101F9000B6160EC06CE272E085E293E00E94621316
:101FA00020E030E040EC5FE705C09B01AC0102C0DF
:101FB0009B01AC01B901CA01DF91CF911F910F9133
:101FC000FF90EF90DF90CF900895CF92DF92EF9245
:101FD000FF92CF93DF93EC010E94BD0E882379F12D
:101FE0008F818B3029F158F18551823040F568811D
:101FF00070E080E090E00E94B71720E030E040E819
:1020000053E40E946D186B017C01698170E080E0EF
:1020100090E00E94B9179B01AC01C701B6010E9474
:10202000B61620E030E040E251E40E941E1711C0D5
:10203000688170E080E090E00E94B7170AC06CE20F
:1020400072E085E293E00E94621360E070E080EC51
:102050009FE7DF91CF91FF90EF90DF90CF900895B1
:102060001F920F920FB60F9211242F933F938F93CD
:102070009F93AF93BF938091190390911A03A091FE
:102080001B03B0911C033091180323E0230F2D375D
:1020900020F40196A11DB11D05C026E8230F02966C
:1020A000A11DB11D209318038093190390931A0367
:1020B000A0931B03B0931C0380911D0390911E03FA
:1020C000A0911F03B09120030196A11DB11D809323
:1020D0001D0390931E03A0931F03B0932003BF9191
:1020E000AF919F918F913F912F910F900FBE0F90C5
:1020F0001F9018952FB7F8946091190370911A03E7
:1021000080911B0390911C032FBF08953FB7F89453
:1021100080911D0390911E03A0911F03B091200395
:1021200026B5A89B05C02F3F19F00196A11DB11D32
:102130003FBF6627782F892F9A2F620F711D811D4F
:10214000911D42E0660F771F881F991F4A95D1F7AE
:102150000895CF92DF92EF92FF92CF93DF936B01BE
:102160007C010E948610EB01C114D104E104F1044A
:1021700089F00E94F4110E9486106C1B7D0B683E52
:10218000734090F381E0C81AD108E108F108C85102
:10219000DC4FEACFDF91CF91FF90EF90DF90CF90AF
:1021A0000895019739F0880F991F880F991F02979A
:1021B0000197F1F70895789484B5826084BD84B561
:1021C000816084BD85B5826085BD85B5816085BD32
:1021D000EEE6F0E0808181608083E1E8F0E010824B
:1021E000808182608083808181608083E0E8F0E08C
:1021F000808181608083E1EBF0E080818460808376
:10220000E0EBF0E0808181608083EAE7F0E08081AC
:10221000846080838081826080838081816080830C
:102220008081806880831092C1000895833081F09E
:1022300028F4813099F08230A1F008958730A9F018
:102240008830B9F08430D1F4809180008F7D03C054
:10225000809180008F7780938000089584B58F7778
:1022600002C084B58F7D84BD08958091B0008F77C2
:1022700003C08091B0008F7D8093B0000895CF930C
:10228000DF9390E0FC01E458FE4F2491FC01E057FD
:10229000FE4F8491882349F190E0880F991FFC013B
:1022A000E854FE4FA591B49182559E4FFC01C59113
:1022B000D4919FB7611108C0F8948C912095822326
:1022C0008C93888182230AC0623051F4F8948C91F7
:1022D000322F309583238C938881822B888304C08E
:1022E000F8948C91822B8C939FBFDF91CF910895AE
:1022F0000F931F93CF93DF931F92CDB7DEB7282F95
:1023000030E0F901E859FE4F8491F901E458FE4F9D
:102310001491F901E057FE4F04910023C9F088237E
:1023200021F069830E9416116981E02FF0E0EE0F21
:10233000FF1FE255FE4FA591B4919FB7F8948C9181
:10234000611103C01095812301C0812B8C939FBF25
:102350000F90DF91CF911F910F910895CF93DF934D
:10236000282F30E0F901E859FE4F8491F901E45833
:10237000FE4FD491F901E057FE4FC491CC2391F068
:1023800081110E941611EC2FF0E0EE0FFF1FEC55AB
:10239000FE4FA591B4912C912D2381E090E021F482
:1023A00080E002C080E090E0DF91CF9108958E3010
:1023B00008F08E50877020910A0190E4299F9001C7
:1023C0001124822B80937C0080917A00806480931A
:1023D0007A0080917A0086FDFCCF80917800209170
:1023E000790090E0922B089508958230E8F4E82F68
:1023F000F0E0EE0FFF1FEF5DFC4F718360838130D3
:1024000041F0809169008C7F842B80936900E89A69
:10241000089580916900440F551F440F551F837F15
:10242000842B80936900E99A0895823068F48130A2
:1024300011F0E89801C0E998E82FF0E0EE0FFF1FD7
:10244000EF5DFC4F1182108208951F920F920FB61C
:102450000F9211242F933F934F935F936F937F932A
:102460008F939F93AF93BF93EF93FF93809121033B
:1024700090912203892B29F0E0912103F09122030E
:102480000995FF91EF91BF91AF919F918F917F91AE
:102490006F915F914F913F912F910F900FBE0F90D1
:1024A0001F9018951F920F920FB60F9211242F9321
:1024B0003F934F935F936F937F938F939F93AF93CC
:1024C000BF93EF93FF938091230390912403892B73
:1024D00029F0E0912303F09124030995FF91EF91F6
:1024E000BF91AF919F918F917F916F915F914F912C
:1024F0003F912F910F900FBE0F901F9018951F9234
:102500000F920FB60F9211242F938F939F93EF93F7
:10251000FF93E0913503F09136038081E0913B0316
:10252000F0913C0382FD12C0908180913E038F5F49
:102530008F7320913F03821751F0E0913E03F0E04A
:10254000EB5DFC4F958F80933E0301C08081FF912E
:10255000EF919F918F912F910F900FBE0F901F9031
:1025600018951F920F920FB60F9211242F933F933D
:102570004F935F936F937F938F939F93AF93BF938B
:10258000EF93FF9385E293E00E94AB15FF91EF91EB
:10259000BF91AF919F918F917F916F915F914F917B
:1025A0003F912F910F900FBE0F901F90189585E2CD
:1025B00093E00E94701521E0892B09F420E0822F1E
:1025C0000895109228031092270388EE93E0A0E06C
:1025D000B0E08093290390932A03A0932B03B09338
:1025E0002C0388E492E0909326038093250385ECE6
:1025F00090E0909332038093310384EC90E09093C9
:1026000034038093330380EC90E0909336038093FF
:10261000350381EC90E0909338038093370382EC8C
:1026200090E090933A038093390386EC90E0909386
:102630003C0380933B0310923E0310923F031092A1
:102640004003109241030895CF92DF92EF92FF92E0
:102650000F931F93CF93DF936C017A01EB01E60E8A
:10266000F71E00E010E0CE15DF0561F06991D6019C
:10267000ED91FC910190F081E02DC6010995080FC4
:10268000191FF1CFC801DF91CF911F910F91FF90DA
:10269000EF90DF90CF9008956115710581F0DB0117
:1026A0000D900020E9F7AD0141505109461B570B31
:1026B000DC01ED91FC910280F381E02D099480E032
:1026C00090E008950C944C13DC01ED91FC91019085
:1026D000F081E02D09940F931F93CF93DF93EC01CA
:1026E0006DE00E9464138C016AE0CE010E946413C5
:1026F000800F911FDF91CF911F910F9108950F933C
:102700001F93CF93DF93EC010E944C138C01CE01F9
:102710000E946B13800F911FDF91CF911F910F913A
:1027200008958F929F92AF92BF92CF92DF92EF92D5
:10273000FF920F931F93CF93DF93CDB7DEB7A1978F
:102740000FB6F894DEBF0FBECDBF7C01C42EE52FBF
:10275000CB01D22E19A221E02D1510F02AE0D22EA5
:102760008E010F5D1F4F8D2C912CA12CB12C6C2D47
:102770007E2FA50194010E94D4188C2DD29E801921
:102780001124015011098A3014F4805D01C0895C64
:10279000F8018083211531054105510521F0C22E34
:1027A000E32FCA01E4CFB801C7010E944C13A196E0
:1027B0000FB6F894DEBF0FBECDBFDF91CF911F9152
:1027C0000F91FF90EF90DF90CF90BF90AF909F90D0
:1027D0008F900895CF92DF92EF92FF920F931F9305
:1027E000CF93DF93EC016A017B012115310579F468
:1027F000E881F9810190F081E02D642FDF91CF9184
:102800001F910F91FF90EF90DF90CF9009942A30A5
:102810003105E9F477FF1AC06DE20E9464138C0160
:1028200044275527BA014C195D096E097F092AE032
:10283000CE010E949113800F911FDF91CF911F91C4
:102840000F91FF90EF90DF90CF9008952AE0B701AD
:10285000A601CE01DF91CF911F910F91FF90EF90D4
:10286000DF90CF900C9491139A01AB01662757FD2E
:102870006095762F0C94EA130F931F93CF93DF93F9
:10288000EC019A01AB01662757FD6095762F0E94F7
:10289000EA138C01CE010E946B13800F911FDF9110
:1028A000CF911F910F9108952115310541F4DC015D
:1028B000ED91FC910190F081E02D642F09940C942E
:1028C00091134F925F926F927F928F929F92AF92ED
:1028D000BF92CF92DF92EF92FF920F931F93CF930D
:1028E000DF93EC016A017B01B22E9A01AB01C701B3
:1028F000B6010E94D018882319F066E372E027C061
:1029000026013701E89477F82FEF3FEF4FE75FE7B5
:10291000C301B2010E94D01881110DC02FEF3FEF0B
:102920004FE75FE7C301B2010E941A1718161CF4A3
:102930006AE372E00CC02FEF3FEF4FE75FE4C7019F
:10294000B6010E9469181816ACF46EE372E0CE016D
:10295000DF91CF911F910F91FF90EF90DF90CF907B
:10296000BF90AF909F908F907F906F905F904F90AF
:102970000C944C132FEF3FEF4FE75FECC701B6010C
:102980000E941A1787FDE1CF20E030E0A901C701BE
:10299000B6010E941A1787FF0AC06DE2CE010E949D
:1029A00064138C01F7FAF094F7F8F09402C000E099
:1029B00010E0A12C60E070E080E09FE3AB1441F0F8
:1029C00020E030E040E251E40E941E17A394F6CFCD
:1029D0009B01AC01C701B6010E94B6166B017C01D8
:1029E0000E948B172B013C010E94B7179B01AC0181
:1029F000C701B6010E94B5166B017C012AE0B30144
:102A0000A201CE010E949113080F191FBB2039F0BB
:102A100062E472E0CE010E944C13080F191F7B2C58
:102A2000772041F120E030E040E251E4C701B601F7
:102A30000E946D186B017C010E9486174B01AA242D
:102A400097FCA094BA2C2AE030E0B501A401CE0195
:102A50000E94EA13080F191FC501B4010E94B9179B
:102A60009B01AC01C701B6010E94B5166B017C0148
:102A70007A94D6CFC801DF91CF911F910F91FF902B
:102A8000EF90DF90CF90BF90AF909F908F907F900E
:102A90006F905F904F9008950C9461140F931F9363
:102AA000CF93DF93EC010E9461148C01CE010E9450
:102AB0006B13800F911FDF91CF911F910F9108959C
:102AC00008950E94DB100E9460150E946E01CDE9FE
:102AD000D5E10E9485032097E1F30E949D15F9CF6F
:102AE000FC01818D228D90E0805C9F4F821B9109BB
:102AF0008F7399270895FC01918D828D981731F07D
:102B0000828DE80FF11D858D90E008958FEF9FEF86
:102B10000895FC01918D828D981761F0828DDF01FF
:102B2000A80FB11D5D968C91928D9F5F9F73928FC0
:102B300090E008958FEF9FEF089587ED92E1892B44
:102B400049F080E090E0892B29F00E94D712811192
:102B50000C9400000895FC01848DDF01A80FB11DC5
:102B6000A35ABF4F2C91848D90E001968F739927C3
:102B7000848FA689B7892C93A089B1898C918064B0
:102B80008C93938D848D981306C00288F389E02D71
:102B900080818F7D80830895CF93DF93EC01888DB2
:102BA0008823C9F0EA89FB89808185FD05C0A88951
:102BB000B9898C9186FD0FC00FB607FCF5CF8081D7
:102BC00085FFF2CFA889B9898C9185FFEDCFCE0121
:102BD0000E94AB15E7CFDF91CF910895CF92DF929E
:102BE000FF920F931F93CF93DF931F92CDB7DEB762
:102BF0006C01DC015B969C915B975C968C915C9779
:102C0000981307C05096ED91FC915197808185FDF6
:102C100032C0F601038D10E00F5F1F4F0F731127B5
:102C2000F02EF601848DF81211C00FB607FCF9CF13
:102C3000D6015096ED91FC915197808185FFF1CF9F
:102C4000C60169830E94AB156981EBCF838DE80FC4
:102C5000F11DE35AFF4F6083D6015B960C935B979F
:102C60005296ED91FC91539780818062808381E040
:102C700058968C930DC0D6015696ED91FC915797BE
:102C800060835096ED91FC915197808180648083A0
:102C900081E090E00F90DF91CF911F910F91FF9015
:102CA000DF90CF900895BF92CF92DF92EF92FF9284
:102CB000CF93DF93EC016A017B01B22EE889F98999
:102CC00082E08083411581EE580761057105A1F00E
:102CD00060E079E08DE390E0A70196010E94D418AE
:102CE0002150310941095109569547953795279546
:102CF000211580E1380798F0E889F989108260E8A9
:102D000074E88EE190E0A70196010E94D41821504A
:102D10003109410951095695479537952795EC8515
:102D2000FD853083EE85FF852083188EEC89FD8933
:102D3000B082EA89FB89808180618083EA89FB898E
:102D4000808188608083EA89FB89808180688083B4
:102D5000EA89FB8980818F7D8083DF91CF91FF900D
:102D6000EF90DF90CF90BF9008955058BB27AA27CF
:102D70000ED075C166D130F06BD120F031F49F3F99
:102D800011F41EF45BC10EF4E095E7FB51C1E92F8D
:102D900077D180F3BA17620773078407950718F095
:102DA00071F49EF58FC10EF4E0950B2EBA2FA02D75
:102DB0000B01B90190010C01CA01A0011124FF27E8
:102DC000591B99F0593F50F4503E68F11A16F040E3
:102DD000A22F232F342F4427585FF3CF46953795E2
:102DE0002795A795F0405395C9F77EF41F16BA0BA7
:102DF000620B730B840BBAF09150A1F0FF0FBB1F55
:102E0000661F771F881FC2F70EC0BA0F621F731F9D
:102E1000841F48F4879577956795B795F7959E3FFA
:102E200008F0B3CF9395880F08F09927EE0F979588
:102E300087950895D9D008F481E008950CD00FC18A
:102E400007D140F0FED030F021F45F3F19F0F0C020
:102E5000511139C1F3C014D198F39923C9F3552303
:102E6000B1F3951B550BBB27AA276217730784077D
:102E700038F09F5F5F4F220F331F441FAA1FA9F333
:102E800033D00E2E3AF0E0E830D091505040E69525
:102E9000001CCAF729D0FE2F27D0660F771F881F86
:102EA000BB1F261737074807AB07B0E809F0BB0B75
:102EB000802DBF01FF2793585F4F2AF09E3F510599
:102EC00068F0B6C000C15F3FECF3983EDCF3869536
:102ED00077956795B795F7959F5FC9F7880F911D0F
:102EE0009695879597F90895E1E0660F771F881FFB
:102EF000BB1F621773078407BA0720F0621B730BAE
:102F0000840BBA0BEE1F88F7E095089504D06894FF
:102F1000B111D9C00895BCD088F09F5790F0B92F57
:102F20009927B751A0F0D1F0660F771F881F991F1E
:102F30001AF0BA95C9F712C0B13081F0C3D0B1E030
:102F40000895C0C0672F782F8827B85F39F0B93F40
:102F5000CCF3869577956795B395D9F73EF4909520
:102F60008095709561957F4F8F4F9F4F0895E8949E
:102F700009C097FB3EF490958095709561957F4FC1
:102F80008F4F9F4F9923A9F0F92F96E9BB2793956F
:102F9000F695879577956795B795F111F8CFFAF47F
:102FA000BB0F11F460FF1BC06F5F7F4F8F4F9F4FB0
:102FB00016C0882311F096E911C0772321F09EE80E
:102FC000872F762F05C0662371F096E8862F70E074
:102FD00060E02AF09A95660F771F881FDAF7880F4E
:102FE0009695879597F90895990F0008550FAA0BA4
:102FF000E0E8FEEF16161706E807F907C0F012160C
:103000001306E407F50798F0621B730B840B950B0E
:1030100039F40A2661F0232B242B252B21F4089563
:103020000A2609F4A140A6958FEF811D811D089500
:1030300097F99F6780E870E060E008959FEF80EC6B
:10304000089500240A94161617061806090608950E
:1030500000240A9412161306140605060895092E74
:103060000394000C11F4882352F0BB0F40F4BF2BE3
:1030700011F460FF04C06F5F7F4F8F4F9F4F089523
:1030800057FD9058440F551F59F05F3F71F0479519
:10309000880F97FB991F61F09F3F79F087950895FE
:1030A000121613061406551FF2CF4695F1DF08C01D
:1030B000161617061806991FF1CF8695710561053A
:1030C00008940895E894BB2766277727CB0197F9E2
:1030D00008958ADF08F48FEF08950BD0C0CFB1DFD9
:1030E00028F0B6DF18F0952309F0A2CFA7CF11245E
:1030F000EACFC6DFA0F3959FD1F3950F50E0551F9F
:10310000629FF001729FBB27F00DB11D639FAA273C
:10311000F00DB11DAA1F649F6627B00DA11D661F8B
:10312000829F2227B00DA11D621F739FB00DA11DAC
:10313000621F839FA00D611D221F749F3327A00D66
:10314000611D231F849F600D211D822F762F6A2F02
:1031500011249F5750408AF0E1F088234AF0EE0F87
:10316000FF1FBB1F661F771F881F91505040A9F794
:103170009E3F510570F05CCFA6CF5F3FECF3983EC9
:10318000DCF3869577956795B795F795E7959F5FFB
:10319000C1F7FE2B880F911D9695879597F9089595
:1031A00023DF880B990B0895A1E21A2EAA1BBB1BE3
:1031B000FD010DC0AA1FBB1FEE1FFF1FA217B30703
:1031C000E407F50720F0A21BB30BE40BF50B661F19
:1031D000771F881F991F1A9469F7609570958095DD
:1031E00090959B01AC01BD01CF010895EE0FFF1F2B
:1031F0000590F491E02D0994FB01DC0102C00190DF
:0E3200000D9241505040D8F70895F894FFCF3A
:10320E000000C203800017000102014F70656E4579
:10321E006E657267794D6F6E69746F722E6F72671D
:10322E0000656D6F6E5448202D204669726D776172
:10323E00726520560052464D31324220496E6974F5
:10324E003E20004E6F64653A200020467265713A4A
:10325E0020003433334D687A00204E6574776F72D8
:10326E006B3A20004E6F204448543232004465744D
:10327E006563746564204448543232004E6F2044B6
:10328E00533138423230004465746563746564208E
:10329E0000445331384232302026204448543232D2
:1032AE0020666F756E642C20617373756D65204496
:1032BE005331384232302069732065787465726EEE
:1032CE00616C00445331384232302054656D706564
:1032DE007261747572653A2000432C200044485484
:1032EE0032322054656D70657261747572653A2064
:1032FE0000432C2044485432322048756D6964696D
:10330E0074793A2000252C2000426174746572791C
:10331E0020766F6C746167653A2000562C205075CC
:10332E006C736520636F756E743A2000526561642C
:10333E00206661696C006E616E00696E66006F7664
:10334E0066002E0000000000EE152413701589157E
:04335E007B15CC15FA
:00000001FF
